:100000000C9462000C948A000C948A000C948A0070
:100010000C948A000C948A000C948A000C948A0038
:100020000C948A000C948A000C948A000C94B213ED
:100030000C948A000C948C000C948A000C948A0016
:100040000C94FA180C948A000C94B7160C940517AB
:100050000C948A000C94C0020C948A000C948A00C0
:100060000C948A000C948A000000000024002700F1
:100070002A0000000000250028002B0000000000DE
:1000800023002600290004040404040404040202DA
:100090000202020203030303030301020408102007
:1000A0004080010204081020010204081020000012
:1000B0000007000201000003040600000000000029
:1000C0000000711811241FBECFEFD8E0DEBFCDBFF6
:1000D00011E0A0E0B1E0E2E5F6E302C005900D9288
:1000E000A43AB107D9F713E0A4EAB1E001C01D9228
:1000F000A13BB107E1F710E0C4ECD0E004C02297C7
:10010000FE010E94FB1AC23CD107C9F70E94C71822
:100110000C94271B0C9400001F920F920FB60F92A5
:1001200011248F939F9380915502909156020196CE
:1001300090935602809355028091550290915602F9
:10014000892B29F4809157028F5F809357029F91EA
:100150008F910F900FBE0F901F90189560918400A3
:10016000709185002091550230915602E09157021E
:1001700080918400909185008627972797FDEECF88
:1001800080915502909156022817390739F78091CE
:100190005702E81719F740E050E0FFE0220F331F45
:1001A000441F551FFA95D1F78E2F90E0A0E0B0E0E4
:1001B000BB278695B795AA2799278827282B392BFF
:1001C0004A2B5B2B76956795CB01A0E0B0E0282BFE
:1001D000392B4A2B5B2BB901CA010895AF92BF920C
:1001E000CF92DF92EF92FF920F931F9328EE33E0AE
:1001F00040E050E00E94661A5B016C010E94AE0074
:100200007B018C010E94AE006E197F09800B910B5F
:100210006A157B058C059D05A8F31F910F91FF9032
:10022000EF90DF90CF90BF90AF900895882321F09A
:10023000813021F42D9A08952D98089585B190E28A
:10024000892785B90895EF92FF920F931F937B0141
:100250008C018091F4029091F502A091F602B09188
:10026000F7028E199F09A00BB10B181619061A0672
:100270001B060CF450C08091F802882321F5E09110
:10028000F902EF5FE370E093F902FF27E7FDF095D5
:10029000E85AFD4F8081992787FD9095880F991F17
:1002A0008093F80280E492E4AFE0B0E0E80EF91E3B
:1002B0000A1F1B1FE092F402F092F5020093F6026F
:1002C0001093F70228C081508093F80281700E9439
:1002D0001601E091F902FF27E7FDF095EE0FFF1FF1
:1002E000E45AFD4F80819181AA2797FDA095BA2FEE
:1002F0002AE0880F991FAA1FBB1F2A95D1F78E0DE0
:100300009F1DA01FB11F8093F4029093F502A0934C
:10031000F602B093F7021F910F91FF90EF900895AE
:100320009A01AB01882311F0459A449A1092B900C2
:1003300060E074E284EF90E00E94851A2051304022
:100340004040504056954795379527952093B800E3
:1003500008952FEF30E011C02115310561F410929E
:10036000BC008091640290916502019690936502B1
:10037000809364020895215030408091BC0087FF33
:10038000EBCF0895FF920F931F93F82E0CEB10E024
:1003900084EAF80180830E94A901F092BB0084E8FE
:1003A000F80180830E94A9011F910F91FF90089589
:1003B0008093BB0084E88093BC000E94A90108954B
:1003C0001F93182F882311F484E801C084EC8093D4
:1003D000BC000E94A9019091BB00112319F484E98B
:1003E0008093BC00892F1F9108950F931F93162FA0
:1003F000042F880F0E94C201812F0E94D801802FF4
:100400000E94D80184E98093BC001F910F91089548
:100410000F931F93182F062F880F0E94C201802F61
:100420000E94D801110F812F81600E94C20180E0DB
:100430000E94E0011F910F9108951F93CF93DF93C6
:10044000EB01142F880F81600E94C20108C0115077
:1004500080E011160CF481E00E94E00189931123E1
:10046000B1F7DF91CF911F910895DF92EF92FF9244
:100470000F931F93E82EF62E8A01D22E880F0E942A
:10048000C2018F2D0E94D8018E2DB8014D2D0E94E2
:100490001D021F910F91FF90EF90DF90089588E665
:1004A0006BE640E80E94F50162E370E080E090E0D6
:1004B0000E94EE0088E66BE643E00E94F50188E6C4
:1004C0006AE140E00E94F50188E66BE148E10E94A4
:1004D000F50188E665E70E94080290E08E7788368D
:1004E00009F491E0892F0895A6E0B0E0EAE7F2E090
:1004F0000C94CC1A8C017B016A0188E663E4AE019E
:100500004F5F5F4F26E00E943502998180E02A818B
:1005100030E0822B932BF801918380839B8180E0D4
:100520002C8130E0822B932BF701918380839D8176
:1005300080E02E8130E0822B932BF6019183808323
:100540002696E8E00C94E81A282F17C0E22FF0E076
:10055000EE0FFF1FEA59FD4F80819181892B61F0D9
:1005600080917C00887F822B80937C0080917A0030
:10057000806480937A0008952F5F263038F30895C1
:100580001F920F920FB60F9211242F933F934F9308
:100590005F936F937F938F939F93AF93BF93EF93EB
:1005A000FF9380917C008770E82FF0E0EE0FFF1F33
:1005B000EA59FD4F0190F081E02D909179009083F0
:1005C0008F5F0E94A402FF91EF91BF91AF919F9125
:1005D0008F917F916F915F914F913F912F910F90EC
:1005E0000FBE0F901F901895E6E6F2E040E050E055
:1005F00061E070E080819181892B79F087B1DB0126
:10060000042E02C0AA0FBB1F0A94E2F79D01209599
:10061000822387B988B1282328B94F5F5F4F32966C
:100620004630510539F780E680937C0010927B00BC
:100630008FE880937A0080E00E94A4020895CF930F
:10064000DF93EB01DA01FC0140E050E061E070E093
:1006500080819181892B79F03881CB01042E02C0F1
:10066000880F991F0A94E2F7282F209523232883C7
:100670002C91822B8C934F5F5F4F329648305105FF
:1006800039F7DF91CF91089582E792E064E270E05C
:1006900045E250E00E941F038BE391E067E270E0C7
:1006A00048E250E00E941F0382E892E06AE270E0B4
:1006B0004BE250E00E941F03089560E070E040E0CC
:1006C00050E0A1E0B0E0362FFA01EE58FD4F019066
:1006D000F081E02D309751F023B1CD01062E02C0FC
:1006E000880F991F0A94E2F728232083FA01E55C1A
:1006F000FE4F0190F081E02D309751F026B1CD01F1
:10070000032E02C0880F991F0A94E2F72823208342
:10071000FA01EE57FD4F0190F081E02D309749F03E
:1007200029B1CD0102C0880F991F3A95E2F728231D
:1007300020836F5F7F4F4E5F5F4F4031510519F649
:100740000895A6E0B0E0E7EAF3E00C94C21A7A83D9
:1007500069831C012B019E838D839B012A5F3F4F80
:100760003C832B83ED81FE810681178180819181FD
:10077000081B190B3801882477FC8094982CF10110
:1007800082899389A489B589860D971DA81DB91DF5
:10079000268D378D40A151A1AA24BB246501A21A40
:1007A000B30AC40AD50A8A159B05AC05BD054CF0F1
:1007B0005C016D01281739074A075B0714F45901DA
:1007C0006A01F101A28AB38AC48AD58AED81FE81C9
:1007D00084859585AA2797FDA095BA2FA40193013A
:1007E000281B390B4A0B5B0BCA01B901158704871B
:1007F000F20124853585442737FD4095542F0E940A
:10080000661A7B018C0132E015950795F794E79401
:100810003A95D1F7F20120813181442737FD409587
:10082000542FC401B3010E94661A23E09595879561
:10083000779567952A95D1F7E60EF71E081F191FC1
:10084000F20126813781442737FD4095542FC60198
:10085000B5010E94661AB6E09595879577956795DC
:10086000BA95D1F7E60EF71E081F191FE981FA8124
:10087000028804C015950795F794E7940A94D2F777
:10088000ED81FE81F3A6E2A63296FE83ED8324E09D
:1008900030E0220E331E42E050E0440E551E8B81A4
:1008A0009C814816590609F05DCF2696E2E10C942A
:1008B000DE1AA6E0B0E0EFE5F4E00C94D21ACE0127
:1008C0000196BE016D5F7F4FAE014B5F5F4F0E948F
:1008D00074028B819C81909581959F4F9093DE014E
:1008E0008093DD0149815A8166277727641B750B48
:1008F0007093E0016093DF012D813E813093E2012E
:100900002093E1018091090290910A0282309105C1
:1009100019F00397B1F409C03093E0012093DF018F
:100920005093E2014093E1010CC088279927821B74
:10093000930B9093E0018093DF017093E201609349
:10094000E1012696E2E00C94EE1A81E040E85AE1DB
:1009500066E070E00E9490010E944F02882349F4F3
:1009600085E080935A0288EC90E090936102809336
:10097000600208950F931F93CF93DF93FC011082C1
:10098000772767FD709572836183DC01EC0140E09D
:1009900050E00FEF1FE760E070E80CC012961C9368
:1009A0000E9311971A967C936E9319971F86188A47
:1009B000198A1A8A9A014F5F5F4F12962496818195
:1009C00092812817390754F314A613A6DF91CF910B
:1009D0001F910F910895A0E0B0E0E1EFF4E00C94D6
:1009E000CA1A7C018C01EB01F70160E070E02BC0BA
:1009F0002181328188819981281739070CF4C90136
:100A0000928381832185328588819981821793071A
:100A10000CF4C9019287818729913991442737FDC8
:100A20004095542FD8011F96AD90BD90CD90DC908D
:100A30005297A20EB31EC41ED51E1F96AD92BD9234
:100A4000CD92DC9252979B016F5F7F4F32960C5F85
:100A50001F4FD70111968D919C9112972817390736
:100A60003CF2CDB7DEB7EAE00C94E61AA0E0B0E0C5
:100A7000ECE3F5E00C94CC1AEC017C0143E2C42ECB
:100A8000D12CC80ED91E00E010E011C02BA53CA54A
:100A9000442737FD4095542FF70167857089818978
:100AA00092890E94A71AF601219331936F01980150
:100AB0000F5F1F4F84E090E0E80EF91E89819A8154
:100AC000281739071CF3CDB7DEB7E8E00C94E81A15
:100AD000CF93DF93FC01EB0161817281A0E040E0E4
:100AE00050E00DC08385948523813481821B930B54
:100AF0008C179D070CF4AF5F4F5F5F4F3296461720
:100B0000570784F320E08A2F992787FD9095861751
:100B1000970709F421E0822FDF91CF910895A8E093
:100B2000B0E0E5E9F5E00C94D01A8C018091A401C5
:100B30009091A5019A8389838091A8019091A90140
:100B40009C838B838091AA019091AB019E838D83BE
:100B50008091A6019091A70198878F83C801BE015B
:100B60006F5F7F4F0E94EB04F80183A594A5019667
:100B700094A783A78436910551F5C80164E170E01C
:100B80000E9468058823F9F0C8010E943605F80123
:100B900083A194A1909314018093130185A196A140
:100BA000909316018093150187A190A59093180149
:100BB0008093170181A592A590931A018093190142
:100BC00081E0808304C0C80164E00E94BA042896D2
:100BD000E4E00C94EC1AA6E0B0E0E1EFF5E00C9450
:100BE000D01A8C018091DD019091DE019A83898376
:100BF0008091DF019091E0019C838B838091E101E2
:100C00009091E2019E838D83C801BE016F5F7F4F8B
:100C10000E94EB04F80183A594A5019694A783A7ED
:100C20008C52914021F5C80162E370E00E94680592
:100C30008823C9F0C8010E943605F80183A194A158
:100C40009093D8018093D70185A196A19093DA0162
:100C50008093D90187A190A59093DC018093DB015B
:100C600081E0808304C0C80163E00E94BA04269634
:100C7000E4E00C94EC1A209103013091040180917E
:100C80000301909104012817390721F43093A5013D
:100C90002093A40120910501309106018091050166
:100CA000909106012817390721F43093A901209368
:100CB000A8012091070130910801809107019091CE
:100CC00008012817390721F43093AB012093AA01BA
:100CD00020910B0130910C0180910B0190910C013E
:100CE0002817390721F43093AD012093AC012091EE
:100CF0000D0130910E0180910D0190910E01281788
:100D0000390721F43093AF012093AE0120910F01F8
:100D10003091100180910F0190911001281739072F
:100D200021F43093B1012093B00120911101309151
:100D3000120180911101909112012817390721F4B5
:100D40003093B3012093B20180913D0290913E0215
:100D500005974CF48091A4019091A5019093A7016F
:100D60008093A60108952091090130910A01809194
:100D7000090190910A012817390721F43093A7013E
:100D80002093A6010895A0E0B0E0E9ECF6E00C9411
:100D9000CC1AFC01A0913D02B0913E02A530B105F4
:100DA000D1F0A630B10564F4A330B10509F43EC01A
:100DB000A430B1050CF0F8C0129709F0B1C10BC016
:100DC000A730B10509F4F0C0A730B1057CF1189740
:100DD00009F0A6C137C1808191812091A401309191
:100DE000A501820F931F9093CA018093C90180814E
:100DF00091812091A6013091A701820F931F9093BA
:100E0000D0018093CF01828193812091A8013091FC
:100E1000A901820F931F9093CC018093CB01848111
:100E200095812091AA013091AB01BBC0C090A40173
:100E3000D090A501008111810C0D1D1D1093CA01D8
:100E40000093C901E090A601F090A701C081D18173
:100E5000CE0DDF1DD093D001C093CF014091B401DE
:100E60005091B50144525A4F80819181480F591FCA
:100E7000628173818091A8019091A901680F791F07
:100E8000CB01840F951F9C013595279535952795A6
:100E90003595279595958795280F391F2757314008
:100EA0003093CC012093CB01461B570BCA0133E092
:100EB000959587953A95E1F755954795840F951F38
:100EC00084529A4F9093CE018093CD012091AA0134
:100ED0003091AB01169709F05EC044E0223E340722
:100EE00074F029573540273C310518F082E090E036
:100EF00002C081E090E0029709F012C121C0809108
:100F0000190190911A018C0D9D1D8E199F09209138
:100F1000130130911401821B930B95958795845290
:100F20009A4F9093CA018093C9018C5D95402CED36
:100F300035E0281B390B3093D0012093CF01F0C04E
:100F40002091020162817381E091B601F091B701B5
:100F50006E0F7F1F882777FD8095982F30E02058EF
:100F60003040442737FD4095542F0E94661AA7E071
:100F70009595879577956795AA95D1F7060F171FD1
:100F80001093CA010093C901C61BD70BD093D0019F
:100F9000C093CF01C5C09093CA018093C9018481D9
:100FA0009581820F931F49C0808191812091A40176
:100FB0003091A501820F931F9093CA018093C901BC
:100FC000808191812091A6013091A701820F931F0A
:100FD0009093D0018093CF01628173818091A801A9
:100FE0009091A901680F791F448155818091AA01D0
:100FF0009091AB01480F591FCA01860F971F9C01A2
:10100000F3E035952795FA95E1F795958795280FA3
:10101000391F275731403093CC012093CB01461B19
:10102000570BCA01B3E095958795BA95E1F75595A9
:101030004795840F951F84529A4F9093CE018093C9
:10104000CD016EC06091A4017091A50100911301C2
:101050001091140120813181C281D3818091B60128
:101060009091B701C80FD91FA481B5818091B801B3
:101070009091B901A80FB91F8091090190910A01BF
:101080008C54944097FF03C040E050E016C080911C
:10109000090190910A018C54944095958795855F3C
:1010A00091401CF044EF51E008C04091090150917B
:1010B0000A014C5454405595479564527A4F601B31
:1010C000710B620F731FFE01E60FF71F9A012A1BB7
:1010D0003B0B37FF02C020E030E0CF01821B930BB7
:1010E0009093CA018093C9012E0F3F1F3093CC010A
:1010F0002093CB016C1B7D0B9A012A0F3B1F37FFFE
:1011000002C020E030E0C901860F971F9093D00104
:101110008093CF01621B730B7093CE016093CD015E
:101120008091B0019091B1019093D2018093D1014F
:101130008091B2019091B3019093D4018093D30137
:101140008091AE019091AF019093D6018093D5012B
:10115000CDB7DEB7E8E00C94E81AA8E0B0E0E3EB26
:10116000F8E00C94D01A8091FC019091FD01039756
:10117000A9F5FE01319688E0DF011D928A95E9F715
:10118000CF010E94C306ACE8B1E009EE11E041EFE7
:1011900051E06D917C911197F80120813181FB0123
:1011A00080819181281739070CF4C901F8019183D6
:1011B0008083FA0120813181FB0180819181821736
:1011C00093070CF4C901FA0181939193AF01129630
:1011D0000E5F1F4FF1E0A439BF07D9F683EE91E00F
:1011E0000E94C30680E090E0FC01E457FE4FA0811E
:1011F000B1814D915C911197FC01E751FE4F019037
:10120000F081E02D4E175F0754F0FC01EF50FE4FC8
:1012100020813181FA01241735070CF4F901ED938F
:10122000FC93029688309105F9F62896E4E00C9438
:10123000EC1A80919402882309F050C081E08093D9
:1012400094028FEF809393022FB7F8948091C90195
:101250009091CA019093BC018093BB018091CB0116
:101260009091CC019093BE018093BD018091CD01FE
:101270009091CE019093C0018093BF018091CF01E6
:101280009091D0019093C2018093C1018091D101CE
:101290009091D2019093C4018093C3018091D301B6
:1012A0009091D4019093C6018093C5018091D5019E
:1012B0009091D6019093C8018093C70180916F00EF
:1012C000826080936F00B19A809184009091850034
:1012D000049690938900809388002FBF0895FC01A5
:1012E00081E08183808385E0828316821582108667
:1012F000178208959C0144E0813B940714F490E028
:101300000DC0845195408159914010F491E006C080
:101310002850374014F49FEF06C092E0662319F07E
:1013200082E0891B982F892F0895CF93DF93EC01DA
:101330008A818B838091A4019091A5016D810E9487
:101340007A0987FF88838091A8019091A9016E8115
:101350000E947A0987FF89838F81882351F48881CD
:10136000882329F0823029F481E08D83188281E07E
:101370008F838885882361F48981882319F08230DE
:1013800039F404C081E08E8382E0898381E088871C
:1013900038813F5F898123E08202C0011124380F28
:1013A0003A839B8180E0391729F081E09295907F04
:1013B000932B9C83DF91CF910895282F30E03F6FCE
:1013C000220F331FEFB7F89480918400909185002D
:1013D000AC01405C5F4FBC016D5D7A4F8091840031
:1013E00090918500DA01A81BB90B1A161B06B4F3FD
:1013F00020FF02C0389801C0389A4617570729F0D5
:101400003695279545575F4FE9CFEFBF0895EFB762
:10141000F894309917C04BC020918400309185001A
:101420002058314C04C08FEF9FEF309B0BC0809150
:10143000840090918500B901681B790B1616170678
:1014400014F4F1CFAC0141505040CA010196181676
:10145000190614F34F5F5F4F19F420E030E829C0FC
:101460008091840090918500AC0140565F4F20E050
:1014700030E0BC0163597B4F8091840090918500DE
:10148000DA01A81BB90B1A161B06B4F3309903C076
:1014900080E090E002C080E890E036952795282B08
:1014A000392B4617570729F045575F4FE5CF20E006
:1014B00030E4EFBFC9010895EF92FF920F931F939D
:1014C000CF93DF93E82E192F062FF62E84E20E9489
:1014D000DD09802F0E94DD092E2D312FC901EC017D
:1014E00004C08991F80E0E94DD099E012E19201773
:1014F000C4F38F2D81950E94DD09CDB7DEB7E6E0FC
:101500000C94EA1A8F929F92AF92BF92CF92DF9281
:10151000FF920F931F93CF93DF934C015A01C0E0CA
:10152000D0E0C62EDD24C7FCD09402C0812F182F36
:10153000C5010E94070A9C018070907C892B69F587
:10154000822FC130D10559F0C230D105A1F02097CA
:1015500079F7243259F7812FC1E0D0E0E8CF90E04D
:10156000C816D90614F4812F15C0822FF22EC2E0BE
:10157000D0E000E0DCCFF20E812F8150112331F05A
:10158000F401E00FF11D20830F5FD1CFFF2011F494
:1015900081E004C0C0E0D0E0CACF80E0DF91CF910D
:1015A0001F910F91FF90DF90CF90BF90AF909F90D1
:1015B0008F900895A0E0B0E0E0EEFAE00C94C41A39
:1015C000AA2421E0822E912C05C11092F3022093CF
:1015D000EF023093F0024093F1025093F2028091B7
:1015E000F302853254F4E82FFF27E7FDF095E65328
:1015F000FD4FB0828F5F8093F3028091CA02813ADF
:1016000079F48091F3028B310CF4E4C08091F30201
:10161000482F552747FD509520E030E090E025C049
:10162000823A09F05FC08091F30283327CF7D2C026
:10163000E653FD4F80813827032E0294802D8F7052
:101640008327632F6025660F607E8627602D6327C2
:10165000607F6695032E000C661F3695369536958D
:101660003F7136273227282F9F5FE92FF0E0E417DC
:10167000F507F4F2232B09F0ABC0ABECB2E042E08B
:1016800050E0DC90CC2411962C91119730E02C295D
:101690003D293F70FA01F595E795E819F909EE0F34
:1016A000FF1FE15CFD4F0190F081E02DC901880F23
:1016B000991F820F931F3695279536952795821B84
:1016C000930B23E0969587952A95E1F7845E9C4FCE
:1016D0009183808312964E5F5F4F62E0AB3DB60709
:1016E00081F674C0883A09F075C08091CB028F777B
:1016F000813009F06FC08091F302C82FDD27C7FD4C
:10170000D0958091CC0290E0880F991F04968C1799
:101710009D070CF05FC020E030E090E0DE01129702
:101720001DC0E653FD4F80813827032E0294802D83
:101730008F708327432F4025440F407E8427402D00
:101740004327407F4695032E000C441F369536955F
:1017500036953F7134273227282F9F5FE92FF0E01D
:10176000EA17FB07F4F2A653BD4FFC90EE24C753D3
:10177000DD4F88812701480E511C2415350541F5A0
:10178000ADECB2E022E030E0F901F595E795E8191B
:10179000F909EE0FFF1FE15CFD4F0190F081E02D94
:1017A0001C9100E011968C91119790E0802B912B69
:1017B00043E0969587954A95E1F791838083129649
:1017C0002E5F3F4F42E0AD3DB407F1F6AA24A3944B
:1017D0001092F302E0915301F0915401A081B18184
:1017E00014962D913C911597CF01F9010995892BFC
:1017F00061F18091F302853244F5A0915301B091DB
:101800005401ED91FC9111970680F781E02DCD01F7
:101810000995B82E0E94AE009B01AC018091EF02A9
:101820009091F002A091F102B091F20229013A01E7
:10183000481A590A6A0A7B0AD301C201895893419E
:10184000A040B0400CF0C1CEC2CE8A2DCDB7DEB7DD
:10185000E0E10C94E01A809153019091540140E032
:1018600052EC61E070E00E94401708951F93CF93FF
:10187000DF93EC01142F44E450E00E94FF1A8881AA
:10188000811711F08FEF12C090E020E030E0FE01F0
:10189000E20FF31F8081980F2F5F3F4F24343105F3
:1018A000B1F7992311F480E001C08EEFDF91CF9161
:1018B0001F910895DC0190E020E030E0FD01E20F8F
:1018C000F31F8081980F2F5F3F4F23343105B1F70D
:1018D000AD5BBF4F91959C93A354B040CD0144E4C0
:1018E00050E00E940F1B0895A1E1B0E0EAE7FCE0A0
:1018F0000C94C21A1C0181E089838AEF91E09B83DA
:101900008A8302969D838C830D969F838E83029695
:101910009987888702969B878A8702969D878C87FE
:1019200002969F878E87CE010196998B888BD090E7
:10193000FA01DD0CCC246624EE24FF24870120E884
:10194000822E2AE1922E26E0A22EB12CB2E07B2E2E
:101950002C010E94AE009B01AC01DC01CB018E1971
:101960009F09A00BB10B88169906AA06BB060CF0BE
:1019700051C0171424F5872D992787FD9095FC01F8
:10198000E170F07080FD03C088E097E002C08CED4C
:1019900095E09093CC018093CB018CED95E09093F2
:1019A000CA018093C901EE0FFF1FEE0FFF1FEC5815
:1019B000FE4F80809180A280B3807A9429C0DD2080
:1019C00039F11D1424F46CE271E0A1E003C064ED70
:1019D0007EEFAFEF8D2D992787FD9095FC01E1708B
:1019E000F07080FF03C08CED95E003C0CB01845202
:1019F0009A4F9093CA018093C901EE0FFF1FEE0F1B
:101A0000FF1FEC58FE4F80809180A280B380DA1ACD
:101A100079018A010E94DA0A882319F091E09093F3
:101A2000920280919202882329F0109292020E94E1
:101A30003B0602C0662041F080919402882309F0A1
:101A40008CC00E9419096624772009F082CFC10159
:101A50000E949509882309F47CCFF10184818435A3
:101A600061F0853520F4823509F063C013C08635F6
:101A700059F0883509F05DC02AC0F1E0FC1514F07A
:101A8000CC2470C0CA946EC085E08C150CF468C07C
:101A9000C39468C0AC2DBB27A7FDB095FD01EE0F28
:101AA000FF1FE40DF51D0180F281E02D8081282FBC
:101AB000332727FD30952F5F3F4FA458BE4F8C91A1
:101AC000992787FD909582179307F4F41CC0AC2DDD
:101AD000BB27A7FDB095FD01EE0FFF1FE40DF51D1F
:101AE0000180F281E02D8081282F332727FD30955A
:101AF00021503040AC57BE4F8C91992787FD90956F
:101B0000281739070CF49C01208320E08C2D99279D
:101B100087FD9095FC01EE0FFF1FE40DF51D018080
:101B2000F281E02DD080DD0C222319F00196782E71
:101B3000770C8981823009F00CCF89EF91E060E069
:101B400070E00E945A0C89EF91E060E071E00E9421
:101B50005A0C6196E2E10C94DE1A6624639474CF09
:101B600037E0C32E21E0D2CFA1E9B0E0EAEBFDE0FF
:101B70000C94C21A0E94AE001B012C01DE011196CA
:101B8000E6E6F1E086E001900D928150E1F78E01EA
:101B90000D5E1F4FC8010E946F094CE1E42EF12C2D
:101BA000EC0EFD1EC70164E00E94BA0439E4C32EA6
:101BB000D12CCC0EDD1EC60163E00E94BA04209237
:101BC000C6023092C7024092C8025092C902C6575C
:101BD000DF4F288239824A825B82CA58D040CA5776
:101BE000DF4F288239824A825B82C658D040CE5766
:101BF000DF4F288239824A825B82C258D04042013C
:101C00003101C258DF4F288239824A825B82CE5727
:101C1000D040EB962CAE3DAE4EAE5FAEEB97EE965F
:101C20001FAEEE97ED961FAEED9721E0EC962FAF2D
:101C3000EC97C257DF4FE882CE58D040C157DF4FF4
:101C4000F882CF58D040C057DF4F0883C059D040EA
:101C5000CF56DF4F1883C159D0400E94AE005B01C0
:101C60006C010E9423010E94DA0A882319F031E0F6
:101C700030939202809192028823A1F4D601C5018B
:101C8000C657DF4F488159816A817B81CA58D0404D
:101C9000841B950BA60BB70B81539547A040B04012
:101CA0000CF442C0109292020E943B068C8D882355
:101CB00069F0C657DF4FA882B982CA82DB82CA5850
:101CC000D04061E0EE966FAFEE972EC0C257DF4F67
:101CD0008881CE58D040C157DF4F9881CF58D0402F
:101CE0000E948F052A968FAD2A97882311F492E0DF
:101CF00001C090E020E08C8D882309F421E0920F50
:101D00009093590288EC90E090935F0280935E027A
:101D1000C657DF4FA882B982CA82DB82CA58D04038
:101D200091E0EE969FAFEE9780919402882379F52B
:101D3000EE96AFADEE97AA2351F1A6019501CA57D1
:101D4000DF4F688179818A819B81C658D040261BEC
:101D5000370B480B590B8091510290915202A09180
:101D60005302B091540282179307A407B5077CF47D
:101D70000E94AD080E941909CA57DF4FA882B98294
:101D8000CA82DB82C658D040EE961FAEEE97D601CF
:101D9000C501CE57DF4F288139814A815B81C25806
:101DA000D040821B930BA40BB50B81519742A040EE
:101DB000B04054F10E9459042A968FAD2A97882387
:101DC000D9F4CE01875B9F4F0E94EB052A968FAD19
:101DD0002A97882311F492E001C090E020E08C8DD6
:101DE000882309F421E0920F9093590248EC50E0C7
:101DF00050935F0240935E02CE57DF4FA882B982B4
:101E0000CA82DB82C258D040EC965FADEC97552376
:101E100009F456C0C057DF4F8881C059D040CF5613
:101E2000DF4F9881C159D0400E949509882309F459
:101E300047C0ED966FADED97E62FFF27E7FDF095D4
:101E4000E35AFE4F9F898081981721F0ED961FAECF
:101E5000ED9707C0ED967FADED977F5FED967FAF75
:101E6000ED97ED968FADED97E82FFF27E7FDF09505
:101E7000E35AFE4F80818F3F81F4CE0143960E944A
:101E8000740C2EE088E190E00FB6F894A89580934A
:101E900060000FBE20936000FFCFD601C5018219FC
:101EA0009309A409B509815C914EA44EB04024F079
:101EB000EC961FAEEC9704C0F1E0EC96FFAFEC9708
:101EC0008C8D882329F02A968FAD2A978823C9F50F
:101ED0008091A6019091A7012091A4013091A501C4
:101EE000820F931F2091190130911A01821B930BCD
:101EF0002091130130911401821B930B95958795C6
:101F00009093B5018093B4018091A8019091A901AB
:101F10002091150130911601821B930B9093B7010C
:101F20008093B6018091AA019091AB012091170195
:101F300030911801821B930B9093B9018093B801E3
:101F40008CCED601C50186199709A809B909815116
:101F50009742A040B0400CF424C380914F0290916E
:101F600050028130910559F48091AC019091AD01FE
:101F7000845C95400CF09BC080E090E00DC0892B04
:101F800009F095C08091AC019091AD01855F9540BD
:101F90000CF48DC081E090E09093500280934F024A
:101FA000892B11F084E001C080E08093590268EC35
:101FB00070E070935F0260935E021092A70210922D
:101FC000A8021092A9021092AA021092B3021092D3
:101FD000B4021092B5021092B6021092AB021092A7
:101FE000AC021092AD021092AE021092B7021092A3
:101FF000B8021092B9021092BA021092AF02109277
:10200000B0021092B1021092B2021092BB02109272
:10201000BC021092BD021092BE02809111029091FA
:102020001202029709F043C0D601C501EB962CAD10
:102030003DAD4EAD5FADEB97821B930BA40BB50B83
:102040008152914AA740B0401CF0E7961FAEE79737
:10205000E7964FADE7974F5FE7964FAFE79743306F
:1020600004F18091A4019091A501909314018093B3
:1020700013018091A8019091A9019093160180937A
:1020800015018091AA019091AB0190931801809362
:1020900017018091A6019091A70190931A01809356
:1020A0001901EB96ACAEBDAECEAEDFAEEB97409174
:1020B000A6015091A7018091A4019091A501480F1C
:1020C000591F8091190190911A01481B590B809159
:1020D000130190911401481B590B55954795509346
:1020E000B5014093B401E091A801F091A90180915C
:1020F000150190911601E81BF90BF093B701E093DD
:10210000B601A091AA01B091AB0180911701909105
:102110001801A81BB90BB093B901A093B801809125
:102120000B028150282F332727FD3095CA0157FF16
:1021300004C088279927841B950B022E02C0880FA4
:10214000991F0A94E2F761E08139960714F080E95B
:1021500091E060E971E0681B790B78876F83CF01AC
:10216000F7FF04C0882799278E1B9F0B022E02C001
:10217000880F991F0A94E2F771E08139970714F0EC
:1021800080E991E060E971E0681B790B7A876987E3
:10219000CD01B7FF04C0882799278A1B9B0BBC0180
:1021A00002C0660F771F2A95E2F781E06139780750
:1021B00014F060E971E010E9612E11E0712E661AE9
:1021C000770A7C866B862091AC013091AD0195E059
:1021D0002D3D39072CF067E02D3636075CF007C03F
:1021E0008CED95E0821B930B815991401CF000E926
:1021F00011E011C085E02D3D380724F089010C5D08
:10220000154004C00CED15E0021B130B093111053C
:1022100014F400E010E080904F029090500291E0A2
:102220008916910459F08114910409F050C08091ED
:102230000F0290911002029709F049C080910D029F
:102240009A01082E02C0220F331F0A94E2F73E873C
:102250002D87082E02C0EE0FFF1F0A94E2F7F88BBD
:10226000EF87AD0102C0440F551F8A95E2F75A8BE4
:10227000498B89819A8197FD05C088279927821B00
:10228000930B01C0C90190939602809395028B81B4
:102290009C812F85388997FD05C088279927821B47
:1022A000930B01C0C90190939802809397028D818E
:1022B0009E8197FD03C0509541955F4F50939A02C0
:1022C00040939902A1E08A16910471F055C01092D2
:1022D0009602109295021092980210929702109214
:1022E0009A021092990248C06F817885882777FDFD
:1022F0008095982F24EF3FEB40E050E00E94661A53
:10230000B9E09595879577956795BA95D1F76093DC
:10231000B3027093B4028093B5029093B6026985BC
:102320007A85882777FD8095982F0E94661AA9E004
:102330009595879577956795AA95D1F76093B7029C
:102340007093B8028093B9029093BA02B3018827C0
:1023500077FD8095982F0E94661AF9E095958795EC
:1023600077956795FA95D1F76093BB027093BC029D
:102370008093BD029093BE022091DD013091DE0179
:102380008091D7019091D801281B390BB0E2203001
:102390003B0714F02FEF3FE1C901E0EE20303E078C
:1023A00014F480E090EE90939C0280939B02209125
:1023B000DF013091E0018091D9019091DA01281B71
:1023C000390BF0E220303F0714F02FEF3FE1C90155
:1023D00020EE8030920714F480E090EE90939E02FD
:1023E00080939D022091E1013091E2018091DB0117
:1023F0009091DC01281B390B40E22030340714F0A7
:102400002FEF3FE1C90150EE2030350714F480E092
:1024100090EE9093A00280939F02892819F069E2C0
:1024200072E002C066E172E085E992E00E94A103D9
:10243000EE24FF243801882477FC8094982C8701AF
:102440000D511E4FE1E0F0E0EC0FFD1FEE0DFF1D02
:1024500060817181882777FD8095982FF701EB5671
:10246000FD4F22A533A5442737FD4095542F0E94E8
:10247000661AE7E09595879577956795EA95D1F780
:10248000E7E0F0E0EC0FFD1FEE0DFF1D2081318134
:10249000442737FD4095542F0E94661A9B01AC01DA
:1024A00069E055954795379527956A95D1F7C40109
:1024B000B3010E94661A39E09595879577956795DF
:1024C0003A95D1F7D8016D937C93E2E0F0E0EE0EFF
:1024D000FF1EF6E0EF16F10409F0B1CF2091C5021E
:1024E00012160CF05CC08091C6029091C702A091B8
:1024F000C802B091C902B601A501481B590B6A0B6D
:102500007B0BDB01CA0181549D40A340B0405CF0CD
:1025100021502093C502A092C602B092C702C09279
:10252000C802D092C9028091C502992787FD909573
:102530004091E3015091E401BC016170707080FF33
:1025400003C026E930E002C02AE63FEF240F351F22
:102550003093E4012093E3014091E5015091E601BD
:102560006115710519F026E930E002C02AE63FEF57
:10257000240F351F3093E6012093E5012091E701F8
:102580003091E801672B19F48AE69FEF02C086E9D3
:1025900090E0820F931F9093E8018093E70135014B
:1025A0004601D601C501C258DF4F288139814A81D1
:1025B0005B81CE57D040821B930BA40BB50B8C597B
:1025C000914AA740B0400CF448CB80911302803868
:1025D00039F480910001282F30E02058304004C0A9
:1025E000282F332727FD309580911402803839F445
:1025F00080910101482F50E04058504004C0482FBE
:10260000552747FD509580911502803831F480910F
:10261000020190E08058904003C0992787FD909573
:102620003A8329835C834B839E838D83295F3F4F4D
:102630002F30310510F41A8219828B819C81079604
:102640000F9710F41C821B828D819E8107960F9735
:1026500010F41E821D8280E00E94A402C258DF4F47
:10266000A882B982CA82DB82CE57D040F6CAA5E6DC
:10267000B0E0EDE3F3E10C94CC1A1092800081E01D
:10268000809381003898409848E552E000E06E0160
:102690000894C11CD11C62E0E62EF12CEC0EFD1E4C
:1026A000C60165E60E94820A882309F440C0898138
:1026B0008230A1F0833018F4813029F406C08330D1
:1026C000A9F08430E1F061E018C0C70160E870E073
:1026D00048E050E00E94FF1A69E00FC0C70160E8BF
:1026E00070E048E050E00E940F1B13C0C70160E09B
:1026F00070E048E00E94360C65E410E00CC0C701B1
:1027000060E070E00E945A0CC70160E071E00E9436
:102710005A0C61E011E0898180688983C6010E94BA
:102720005C0A01E044EF51E0112309F4B9CF802F96
:10273000CB59DF4FE8E00C94E81ACF93DF93C0E069
:10274000D0E0FE01E55BFE4F808187FD04C0808103
:1027500061E00E94C7192196C830D10591F7DF9139
:10276000CF9108951F920F920FB60F9211240F93DD
:102770001F932F933F934F935F936F937F938F9309
:102780009F93AF93BF93EF93FF938091930287FD45
:1027900042C0E0919302FF27E7FDF095E55BFE4F15
:1027A000808160E00E94331A36C0809193028F5F6F
:1027B00080939302E0919302FF27E7FDF095E55B9C
:1027C000FE4F808187FD27C0009184001091850015
:1027D000E0919302FF27E7FDF095E55BFE4F8081D6
:1027E00061E00E94331AE0919302FF27E7FDF09524
:1027F000EE0FFF1FE55DFE4F0190F081E02D80811F
:1028000091810297880F991F800F911F90938900E3
:10281000809388000BC080919302873034F210922D
:10282000940280916F008D7F80936F00FF91EF91F4
:10283000BF91AF919F918F917F916F915F914F91D8
:102840003F912F911F910F910F900FBE0F901F90EE
:102850001895A0E0B0E0EFE2F4E10C94CC1A182F48
:10286000062F862F61E00E94C719812F60E00E9429
:10287000C719812F61E00E94331A6AE070E080E09E
:1028800090E00E94EE00C0E0D0E0812F992787FD04
:102890009095FC01EA57FF4FE491F0E0EE0FFF1F27
:1028A000E458FF4FC590D49086569F4FFC01849109
:1028B000E82EFF24CE018170182F802F612F0E94F7
:1028C000331AF601808120E030E090E08E219F21D4
:1028D000892B11F021E030E0812F992787FD909519
:1028E0002817390711F010E005C02196C830D1052E
:1028F00009F711E0802F60E00E94C719812FCDB742
:10290000DEB7E8E00C94E81AA2E9B0E0EAE8F4E106
:102910000C94CC1A259A8091AD039091AE03009748
:1029200011F09C0102C021EB33E0CE010196821B25
:10293000930B803891054CF484E180935A028EE128
:1029400090E0909361028093600284B7877F84BF98
:1029500088E10FB6F89480936000109260000FBE7B
:1029600085E090E09093FB018093FA018CE38093E3
:102970001302809314028093150281E090E09093FB
:10298000FD018093FC011092FE01ECE6F1E09FEF67
:10299000C92E91E0D92ED60181918D9321E0E437A3
:1029A000F207D1F742E050E050930802409307024B
:1029B00021E030E030930A022093090230930C02A8
:1029C00020930B0283E090E090930E0280930D021F
:1029D0003093100220930F02509312024093110281
:1029E00084EF91E0909317028093160210921D02DB
:1029F00010921C029093230280932202909319025A
:102A00008093180210921F0210921E0290932502CA
:102A10008093240290931B0280931A021092210249
:102A200010922002909327028093260228E02093A0
:102A3000280290932A028093290290933002809377
:102A40002F02909336028093350290932C0280934C
:102A50002B0290933202809331029093380280933C
:102A6000370290932E0280932D029093340280932C
:102A7000330290933A028093390220933B0285E01F
:102A800066E00E942914882311F400E001C007E0E9
:102A9000CE01039660E870E048E050E00E94FF1A23
:102AA000002361F48B81863049F48C819D81AE8155
:102AB000BF818E549146AC4BB04071F086E08B8361
:102AC0008EE491E6ACEBB0E08C839D83AE83BF8354
:102AD000188619861A860860CE010B9660E070E0B1
:102AE00048E00E94360C87FD0260CE01815B9F4F5B
:102AF00060E071E048E00E94360C87FD046083E0EE
:102B00008093C502E02EFF24C7018670907082304A
:102B1000910531F08430910579F0892B81F119C04C
:102B20008E01015B1F4FC80160E070E00E945A0CEB
:102B300088858F5F88870BC08E01055F1F4FC80196
:102B400060E071E00E945A0C89858F5F8987C80117
:102B500018C088E08093F90189EF91E060E070E0AF
:102B60000E945A0C89EF91E060E071E00E945A0CDB
:102B70008A858F5F8A8789E08093C5020AC0CE016B
:102B80000B96A9EFB1E0FC0184E401900D92815015
:102B9000E1F7C7018E709070892B41F0CE0103964A
:102BA00060E870E048E050E00E940F1BE0FE0AC0C1
:102BB00082E00E94160164E670E080E090E00E94EE
:102BC0006819F6CF0E943713882361F02EE088E160
:102BD00090E00FB6F894A895809360000FBE209304
:102BE0006000FFCF1092800082E08093810081E03E
:102BF00080936F0085B5887F85BD0E942B0C8091E6
:102C0000FC019091FD0182309105D1F08330910556
:102C100061F10197F1F580E090E048EE53E020ED9E
:102C200037E0FC01E751FE4F51834083FC01EF5038
:102C3000FE4F3183208302968830910591F729C099
:102C400080E090E04CE454E02CE637E0FC01E751F2
:102C5000FE4F51834083FC01EF50FE4F31832083B0
:102C600002968830910591F714C080E090E042EE22
:102C700054E026ED36E0FC01E751FE4F51834083DE
:102C8000FC01EF50FE4F318320830296883091057E
:102C900091F78091FE01992787FD909528EE33E00A
:102CA000FC01E29FC001E39F900DF29F900D112463
:102CB000AA2797FDA095BA2F8093510290935202B4
:102CC000A0935302B0935402AFE3B2E0F6018191B6
:102CD0006F01E82FFF27E7FDF095EE0FFF1FE55E80
:102CE000FE4F808191818D939D93F7E0CF16F2E0A6
:102CF000DF0661F720E030E0F901EB5AFE4F8081FA
:102D0000F901E55BFE4F80832F5F3F4F283031058F
:102D100099F70E9444030E945D038091FA0190910B
:102D2000FB0190933E0280933D02019731F482E0D3
:102D300090E090933E0280933D0280913D0280930B
:102D4000580288E592E090935D0280935C020E94B5
:102D5000F4020E949D130E94A5040E943B060E945B
:102D6000AD08CE56DF4FE8E00C94E81A08951F92A4
:102D70000F920FB60F9211242F933F934F938F937F
:102D80009F93EF93FF938091C00082FD1DC04091FF
:102D9000C60020913A0330913B032F5F3F4F2F73C2
:102DA000307080913C0390913D032817390771F0F2
:102DB000E0913A03F0913B03E650FD4F408330939E
:102DC0003B0320933A0302C08091C600FF91EF912C
:102DD0009F918F914F913F912F910F900FBE0F9028
:102DE0001F901895E0918E03F0918F03E05CFF4FE8
:102DF0008191919120813181821B930B8F7390700F
:102E0000892B11F00E94B61608951F920F920FB6EB
:102E10000F9211242F933F938F939F93EF93FF93E0
:102E200020917E0330917F038091800390918103F4
:102E30002817390731F48091C1008F7D8093C1003C
:102E400014C0E0918003F0918103E25CFC4F20818B
:102E5000809180039091810301968F73907090937D
:102E60008103809380032093C600FF91EF919F918F
:102E70008F913F912F910F900FBE0F901F9018953B
:102E8000AF92BF92DF92EF92FF920F931F93CF9377
:102E9000DF93EC017A018B01DD24403081EE58078D
:102EA00080E0680780E0780711F0DD24D39491E09A
:102EB000A92EB12CEC89FD89DD2069F0C50108A09F
:102EC00002C0880F991F0A94E2F7808360E079E0DE
:102ED0008DE390E005C0108260E874E88EE190E038
:102EE000A80197010E94851A21503040404050406F
:102EF000569547953795279580E12030380720F083
:102F0000DD2011F0DD24D6CFE889F9893083EA8904
:102F1000FB89208319A2EE89FF89408121E030E0FE
:102F2000C9010C8C02C0880F991F0A94E2F7482B44
:102F30004083EE89FF894081C9010D8C02C0880F52
:102F4000991F0A94E2F7482B4083EE89FF8940815C
:102F5000C9010E8C02C0880F991F0A94E2F7482B12
:102F60004083EE89FF8980810F8C02C0220F331FBE
:102F70000A94E2F7209528232083DF91CF911F91B7
:102F80000F91FF90EF90DF90BF90AF900895DC011C
:102F90001C96ED91FC911D97E05CFF4F21913191C2
:102FA00080819181281B390B2F733070C9010895DE
:102FB000DC011C96ED91FC911D97E05CFF4F208198
:102FC0003181E054F040DF01AE5BBF4F8D919C91A9
:102FD00011972817390719F42FEF3FEF07C08D918C
:102FE0009C91E80FF91F8081282F30E0C9010895D6
:102FF000DC011C96ED91FC911D97E05CFF4F208158
:103000003181E054F040DF01AE5BBF4F8D919C9168
:1030100011972817390719F42FEF3FEF10C08D9142
:103020009C911197E80FF91F20818D919C91119728
:1030300001968F73907011969C938E9330E0C90126
:103040000895DC0191968C919197882339F05496DC
:10305000ED91FC915597808186FFF9CF91961C9256
:103060000895CF93DF93EC01EE85FF85E05CFF4F81
:1030700020813181E054F0402F5F3F4F2F7330703B
:10308000DF01AE5BBF4F8D919C91119728173907D7
:10309000D1F3E05CFF4F80819181E054F040E80F74
:1030A000F91F6083EE85FF85E05CFF4F318320834D
:1030B000EE89FF89208181E090E00F8C02C0880FAB
:1030C000991F0A94E2F7282B208381E089A3EC89D9
:1030D000FD8980818064808381E090E0DF91CF91E1
:1030E0000895109285031092840388EE93E0A0E087
:1030F000B0E08093860390938703A0938803B093F6
:10310000890388E991E090938303809382038AEF97
:1031100092E090938F0380938E038EE393E09093DD
:1031200091038093900385EC90E0909393038093B8
:10313000920384EC90E0909395038093940380EC49
:1031400090E0909397038093960381EC90E09093A6
:1031500099038093980382EC90E090939B03809373
:103160009A0386EC90E090939D0380939C0384E007
:1031700080939E0383E080939F0387E08093A00366
:1031800085E08093A10381E08093A2030895CF930B
:10319000DF930E948C190E948414C2EFD6E10E9432
:1031A000B40D2097E1F30E94F216F9CFA0E0B0E051
:1031B000ECEDF8E10C94CC1A7C016B018A01C0E0C3
:1031C000D0E00FC0D6016D916D01D701ED91FC915A
:1031D0000190F081E02DC7010995C80FD91F01505A
:1031E00010400115110571F7CE01CDB7DEB7E8E04B
:1031F0000C94E81A1F920F920FB60F9211242F937E
:103200003F938F939F93AF93BF938091A803909127
:10321000A903A091AA03B091AB033091AC0301962E
:10322000A11DB11D232F2D5F2D3720F02D570196A5
:10323000A11DB11D2093AC038093A8039093A90313
:10324000A093AA03B093AB038091A4039091A5032C
:10325000A091A603B091A7030196A11DB11D809373
:10326000A4039093A503A093A603B093A703BF91D3
:10327000AF919F918F913F912F910F900FBE0F9023
:103280001F9018959FB7F8942091A4033091A5033F
:103290004091A6035091A70386B5A89B06C08F3F17
:1032A00021F02F5F3F4F4F4F5F4F9FBF542F432F52
:1032B000322F2227280F311D411D511D82E0220F80
:1032C000331F441F551F8A95D1F7B901CA010895CC
:1032D000EF92FF920F931F93CF93DF937B018C01AB
:1032E0000E944219EB010EC00E9442196C1B7D0B1B
:1032F000685E7340C8F30894E108F10801091109F8
:10330000C851DC4FE114F1040105110569F7CDB78F
:10331000DEB7E6E00C94EA1A789484B5826084BD46
:1033200084B5816084BD85B5826085BD85B58160C9
:1033300085BDEEE6F0E0808181608083E1E8F0E029
:103340001082808182608083808181608083E0E858
:10335000F0E0808181608083E1EBF0E08081846037
:103360008083E0EBF0E0808181608083EAE7F0E039
:10337000808184608083808182608083808181609D
:1033800080838081806880831092C1000895CF93EC
:10339000DF93482F50E0CA0186569F4FFC013491BD
:1033A0004A575F4FFA018491882369F190E0880FB2
:1033B000991FFC01E859FF4FA591B491FC01EE580B
:1033C000FF4FC591D491662351F42FB7F8948C9197
:1033D000932F909589238C93888189230BC0623029
:1033E00061F42FB7F8948C91932F909589238C9347
:1033F0008881832B88832FBF06C09FB7F8948C9158
:10340000832B8C939FBFDF91CF910895833071F010
:10341000843028F48130A1F0823021F514C0863048
:10342000B1F08730D1F08430E9F404C0809180009D
:103430008F7703C0809180008F7D809380000895F6
:1034400084B58F7702C084B58F7D84BD0895809147
:10345000B0008F778093B00008958091B0008F7D89
:103460008093B0000895FF920F931F93F62E482F7C
:1034700050E0CA0182559F4FFC012491CA01865633
:103480009F4FFC0114914A575F4FFA0104910023AA
:10349000C9F0222319F0822F0E94061AE02FF0E0D3
:1034A000EE0FFF1FEE58FF4FA591B4919FB7F89410
:1034B000FF2021F48C911095812302C08C91812BE7
:1034C0008C939FBF1F910F91FF900895629FD00131
:1034D000739FF001829FE00DF11D649FE00DF11DCF
:1034E000929FF00D839FF00D749FF00D659FF00D7E
:1034F0009927729FB00DE11DF91F639FB00DE11D6B
:10350000F91FBD01CF0111240895A1E21A2EAA1BB3
:10351000BB1BFD010DC0AA1FBB1FEE1FFF1FA21783
:10352000B307E407F50720F0A21BB30BE40BF50B80
:10353000661F771F881F991F1A9469F76095709509
:10354000809590959B01AC01BD01CF01089597FB3B
:10355000092E05260ED057FD04D0D7DF0AD0001C57
:1035600038F450954095309521953F4F4F4F5F4F20
:103570000895F6F790958095709561957F4F8F4FE0
:103580009F4F08952F923F924F925F926F927F923A
:103590008F929F92AF92BF92CF92DF92EF92FF9263
:1035A0000F931F93CF93DF93CDB7DEB7CA1BDB0B0F
:1035B0000FB6F894DEBF0FBECDBF09942A883988B4
:1035C00048885F846E847D848C849B84AA84B984BB
:1035D000C884DF80EE80FD800C811B81AA81B981C7
:1035E000CE0FD11D0FB6F894DEBF0FBECDBFED01DB
:1035F0000895EE0FFF1F0590F491E02D0994DC0172
:10360000CB01FC01F999FECF06C0F2BDE1BDF89AED
:10361000319600B40D9241505040B8F70895DC0146
:10362000CB0103C02D910E941A1B41505040D0F78E
:103630000895262FF999FECF1FBA92BD81BD20BDF6
:103640000FB6F894FA9AF99A0FBE01960895F89475
:02365000FFCFAA
:10365200FFFFFFDC05DC05DC05DC05E803DC05E833
:1036620003DC05DC05DC05DC05DC05070105010FD3
:103672000103010B0109010D011101BF01BD01C3CC
:1036820001BB010000C101C701C5010000BA010070
:1036920000000000000000000000000605030AFF11
:1036A2000B100982030605030AFF0B10097889989B
:1036B2008778899887FF000000000000020301005C
:1036C20005040706A0860100801A0600050303030D
:1036D200040202020101010101010101C901CB0140
:1036E200CD01CF01000000003118D618C717F81716
:0436F200D8172118AC
:00000001FF
