:100000000C9462000C948A000C948A000C948A0070
:100010000C948A000C948A000C948A000C948A0038
:100020000C948A000C948A000C948A000C940A1395
:100030000C948A000C948C000C948A000C948A0016
:100040000C947F180C948A000C943C160C948A161D
:100050000C948A000C94BB020C948A000C948A00C5
:100060000C948A000C948A000000000024002700F1
:100070002A0000000000250028002B0000000000DE
:1000800023002600290004040404040404040202DA
:100090000202020203030303030301020408102007
:1000A0004080010204081020010204081020000012
:1000B0000007000201000003040600000000000029
:1000C0000000F61711241FBECFEFD4E0DEBFCDBF76
:1000D00011E0A0E0B1E0ECE5F5E302C005900D927F
:1000E000A03EB107D9F713E0A0EEB1E001C01D9228
:1000F000A23BB107E1F710E0C4ECD0E004C02297C6
:10010000FE010E94801AC23CD107C9F70E944C1818
:100110000C94AC1A0C9400001F920F920FB60F9221
:1001200011248F939F93809196029091970201964C
:1001300090939702809396028091960290919702F5
:10014000892B29F4809198028F5F809398029F9168
:100150008F910F900FBE0F901F90189560918400A3
:10016000709185002091960230919702E09198025B
:1001700080918400909185008627972797FDEECF88
:1001800080919602909197022817390739F780914C
:100190009802E81719F740E050E0FFE0220F331F04
:1001A000441F551FFA95D1F78E2F90E0A0E0B0E0E4
:1001B000BB278695B795AA2799278827282B392BFF
:1001C0004A2B5B2B76956795CB01A0E0B0E0282BFE
:1001D000392B4A2B5B2BB901CA010895AF92BF920C
:1001E000CF92DF92EF92FF920F931F9328EE33E0AE
:1001F00040E050E00E94EB195B016C010E94AE00F0
:100200007B018C010E94AE006E197F09800B910B5F
:100210006A157B058C059D05A8F31F910F91FF9032
:10022000EF90DF90CF90BF90AF900895882321F09A
:10023000813021F42D9A08952D98089585B190E28A
:10024000892785B90895EF92FF920F931F937B0141
:100250008C018091F5029091F602A091F702B09185
:10026000F8028E199F09A00BB10B181619061A0671
:100270001B060CF450C08091F902882321F5E0910F
:10028000FA02EF5FE370E093FA02FF27E7FDF095D3
:10029000E756FD4F8081992787FD9095880F991F1C
:1002A0008093F90280E492E4AFE0B0E0E80EF91E3A
:1002B0000A1F1B1FE092F502F092F6020093F7026C
:1002C0001093F80228C081508093F90281700E9437
:1002D0001601E091FA02FF27E7FDF095EE0FFF1FF0
:1002E000E356FD4F80819181AA2797FDA095BA2FF3
:1002F0002AE0880F991FAA1FBB1F2A95D1F78E0DE0
:100300009F1DA01FB11F8093F5029093F602A0934A
:10031000F702B093F8021F910F91FF90EF900895AC
:100320009A01AB01882311F0459A449A1092B900C2
:1003300060E074E284EF90E00E940A1A205130409D
:100340004040504056954795379527952093B800E3
:1003500008952FEF30E011C02115310561F410929E
:10036000BC008091A5029091A60201969093A602EE
:100370008093A5020895215030408091BC0087FFF2
:10038000EBCF0895FF920F931F93F82E0CEB10E024
:1003900084EAF80180830E94A901F092BB0084E8FE
:1003A000F80180830E94A9011F910F91FF90089589
:1003B0008093BB0084E88093BC000E94A90108954B
:1003C0001F93182F882311F484E801C084EC8093D4
:1003D000BC000E94A9019091BB00112319F484E98B
:1003E0008093BC00892F1F9108950F931F93162FA0
:1003F000042F880F0E94C201812F0E94D801802FF4
:100400000E94D80184E98093BC001F910F91089548
:100410000F931F93182F062F880F0E94C201802F61
:100420000E94D801110F812F81600E94C20180E0DB
:100430000E94E0011F910F9108951F93CF93DF93C6
:10044000EB01142F880F81600E94C20108C0115077
:1004500080E011160CF481E00E94E00189931123E1
:10046000B1F7DF91CF911F910895DF92EF92FF9244
:100470000F931F93E82EF62E8A01D22E880F0E942A
:10048000C2018F2D0E94D8018E2DB8014D2D0E94E2
:100490001D021F910F91FF90EF90DF90089588E665
:1004A0006EE340E80E94F50162E370E080E090E0D6
:1004B0000E94EE0088E66EE343E00E94F50188E6C4
:1004C00066E14EE10E94F50188E660E00E940802C4
:1004D00090E08E77883609F491E0892F0895A6E0A0
:1004E000B0E0E5E7F2E00C94511A8C017B016A015F
:1004F00088E66DE1AE014F5F5F4F26E00E94350256
:10050000998180E02A8130E0822B932BF80191833E
:1005100080839B8180E02C8130E0822B932BF7013C
:10052000918380839D8180E02E8130E0822B932B0C
:10053000F601918380832696E8E00C946D1A282FAB
:1005400017C0E22FF0E0EE0FFF1FE55CFE4F808149
:100550009181892B61F080917C00887F822B809330
:100560007C0080917A00806480937A0008952F5FE8
:10057000263038F308951F920F920FB60F92112470
:100580002F933F934F935F936F937F938F939F939B
:10059000AF93BF93EF93FF9380917C008770E82F18
:1005A000F0E0EE0FFF1FE55CFE4F0190F081E02DC3
:1005B0009091790090838F5F0E949F02FF91EF914D
:1005C000BF91AF919F918F917F916F915F914F916B
:1005D0003F912F910F900FBE0F901F901895EBE356
:1005E000F1E040E050E061E070E080819181892B92
:1005F00079F087B1DB01042E02C0AA0FBB1F0A9459
:10060000E2F79D012095822387B988B1282328B974
:100610004F5F5F4F32964630510539F780E6809341
:100620007C0010927B008FE880937A0080E00E942B
:100630009F020895CF93DF93EB01DA01FC0140E0C4
:1006400050E061E070E080819181892B79F0388100
:10065000CB01042E02C0880F991F0A94E2F7282FBD
:100660002095232328832C91822B8C934F5F5F4FFF
:1006700032964830510539F7DF91CF91089587E4DC
:1006800091E064E270E045E250E00E941A0387E5E1
:1006900091E067E270E048E250E00E941A0387E6CA
:1006A00091E06AE270E04BE250E00E941A03089584
:1006B00060E070E040E050E0A1E0B0E0362FFA01E9
:1006C000E95BFE4F0190F081E02D309751F023B1AE
:1006D000CD01062E02C0880F991F0A94E2F7282345
:1006E0002083FA01E95AFE4F0190F081E02D309706
:1006F00051F026B1CD01032E02C0880F991F0A9434
:10070000E2F728232083FA01E959FE4F0190F08196
:10071000E02D309749F029B1CD0102C0880F991F13
:100720003A95E2F7282320836F5F7F4F4E5F5F4F3C
:100730004031510519F60895A6E0B0E0E2EAF3E091
:100740000C94471A7A8369831C012B019E838D8345
:100750009B012A5F3F4F3C832B83ED81FE81068105
:10076000178180819181081B190B3801882477FC3F
:100770008094982CF10182899389A489B589860D8A
:10078000971DA81DB91D268D378D40A151A1AA2402
:10079000BB246501A21AB30AC40AD50A8A159B05AF
:1007A000AC05BD054CF05C016D01281739074A07FF
:1007B0005B0714F459016A01F101A28AB38AC48A61
:1007C000D58AED81FE8184859585AA2797FDA09520
:1007D000BA2FA4019301281B390B4A0B5B0BCA01EA
:1007E000B90115870487F20124853585442737FD33
:1007F0004095542F0E94EB197B018C0132E0159536
:100800000795F794E7943A95D1F7F2012081318169
:10081000442737FD4095542FC401B3010E94EB19C2
:1008200023E095958795779567952A95D1F7E60EFC
:10083000F71E081F191FF20126813781442737FD53
:100840004095542FC601B5010E94EB19B6E095956D
:10085000879577956795BA95D1F7E60EF71E081F2D
:10086000191FE981FA81028804C015950795F7944C
:10087000E7940A94D2F7ED81FE81F3A6E2A63296C0
:10088000FE83ED8324E030E0220E331E42E050E090
:10089000440E551E8B819C814816590609F05DCF88
:1008A0002696E2E10C94631AA6E0B0E0EAE5F4E0F3
:1008B0000C94571ACE010196BE016D5F7F4FAE01B9
:1008C0004B5F5F4F0E946F028B819C8190931F0250
:1008D00080931E0249815A81509321024093200245
:1008E0002D813E81309323022093220280914A027F
:1008F00090914B028230910519F00397D1F40DC00D
:10090000309321022093200288279927841B950B7E
:1009100090932302809322020CC088279927821B80
:10092000930B9093210280932002509323024093D3
:1009300022022696E2E00C94731A81E040E85AE124
:1009400066E070E00E9490010E944F02882349F403
:1009500085E080939B0288EC90E09093A2028093C4
:10096000A10208950F931F93CF93DF93FC01108290
:10097000772767FD709572836183DC01EC0140E0AD
:1009800050E00FEF1FE760E070E80CC012961C9378
:100990000E9311971A967C936E9319971F86188A57
:1009A000198A1A8A9A014F5F5F4F129624968181A5
:1009B00092812817390754F314A613A6DF91CF911B
:1009C0001F910F910895A0E0B0E0E9EEF4E00C94DF
:1009D0004F1A7C018C01EB01F70160E070E02BC045
:1009E0002181328188819981281739070CF4C90146
:1009F000928381832185328588819981821793072B
:100A00000CF4C9019287818729913991442737FDD8
:100A10004095542FD8011F96AD90BD90CD90DC909D
:100A20005297A20EB31EC41ED51E1F96AD92BD9244
:100A3000CD92DC9252979B016F5F7F4F32960C5F95
:100A40001F4FD70111968D919C9112972817390746
:100A50003CF2CDB7DEB7EAE00C946B1AA0E0B0E050
:100A6000E4E3F5E00C94511AEC017C0143E2C42E5E
:100A7000D12CC80ED91E00E010E011C02BA53CA55A
:100A8000442737FD4095542FF70167857089818988
:100A900092890E942C1AF601219331936F019801DB
:100AA0000F5F1F4F84E090E0E80EF91E89819A8164
:100AB000281739071CF3CDB7DEB7E8E00C946D1AA0
:100AC000CF93DF93FC01EB0161817281A0E040E0F4
:100AD00050E00DC08385948523813481821B930B64
:100AE0008C179D070CF4AF5F4F5F5F4F3296461730
:100AF000570784F320E08A2F992787FD9095861762
:100B0000970709F421E0822FDF91CF910895A8E0A3
:100B1000B0E0EDE8F5E00C94551A8C018091E0010D
:100B20009091E1019A8389838091E4019091E5019C
:100B30009C838B838091E6019091E7019E838D8356
:100B40008091E2019091E30198878F83C801BE01F3
:100B50006F5F7F4F0E94E304F80183A594A501967F
:100B600094A783A78436910551F5C80164E170E02C
:100B70000E9460058823F9F0C8010E942E05F80143
:100B800083A194A1909314018093130185A196A150
:100B9000909316018093150187A190A59093180159
:100BA0008093170181A592A590931A018093190152
:100BB00081E0808304C0C80164E00E94B2042896EA
:100BC000E4E00C94711AA6E0B0E0E9EEF5E00C94D4
:100BD000551A8C0180911E0290911F029A8389837D
:100BE00080912002909121029C838B83809122022C
:100BF000909123029E838D83C801BE016F5F7F4F5A
:100C00000E94E304F80183A594A5019694A783A705
:100C10008C52914021F5C80162E370E00E946005AA
:100C20008823C9F0C8010E942E05F80183A194A170
:100C3000909319028093180285A196A190931B02AC
:100C400080931A0287A190A590931D0280931C02A5
:100C500081E0808304C0C80163E00E94B20426964C
:100C6000E4E00C94711A2091030130910401809109
:100C70000301909104012817390721F43093E10111
:100C80002093E0012091050130910601809105013A
:100C9000909106012817390721F43093E50120933C
:100CA000E4012091070130910801809107019091A2
:100CB00008012817390721F43093E7012093E60152
:100CC00020910B0130910C0180910B0190910C014E
:100CD0002817390721F43093E9012093E801209186
:100CE0000D0130910E0180910D0190910E01281798
:100CF000390721F43093EB012093EA0120910F0191
:100D00003091100180910F0190911001281739073F
:100D100021F43093ED012093EC01209111013091E9
:100D2000120180911101909112012817390721F4C5
:100D30003093EF012093EE0180917E0290917F022B
:100D400005974CF48091E0019091E1019093E301CB
:100D50008093E20108952091090130910A01809168
:100D6000090190910A012817390721F43093E30112
:100D70002093E2010895A0E0B0E0E1ECF6E00C94ED
:100D8000511AFC01A0917E02B0917F02A530B105FD
:100D9000D1F0A630B10564F4A330B10509F43EC02A
:100DA000A430B1050CF0F8C0129709F0B1C10BC026
:100DB000A730B10509F4F0C0A730B1057CF1189750
:100DC00009F0A6C137C1808191812091E001309165
:100DD000E101820F931F90930B0280930A0280819E
:100DE00091812091E2013091E301820F931F909352
:100DF000110280931002828193812091E40130914D
:100E0000E501820F931F90930D0280930C02848161
:100E100095812091E6013091E701BBC0C090E001CF
:100E2000D090E101008111810C0D1D1D10930B026A
:100E300000930A02E090E201F090E301C081D181C9
:100E4000CE0DDF1DD0931102C09310024091F0012E
:100E50005091F10144525A4F80819181480F591F9E
:100E6000628173818091E4019091E501680F791F9F
:100E7000CB01840F951F9C013595279535952795B6
:100E80003595279595958795280F391F2757314018
:100E900030930D0220930C02461B570BCA0133E01E
:100EA000959587953A95E1F755954795840F951F48
:100EB00084529A4F90930F0280930E022091E60184
:100EC0003091E701169709F05EC044E0223E3407F6
:100ED00074F029573540273C310518F082E090E046
:100EE00002C081E090E0029709F012C121C0809118
:100EF000190190911A018C0D9D1D8E199F09209149
:100F0000130130911401821B930B959587958452A0
:100F10009A4F90930B0280930A028C5D95402CEDC2
:100F200035E0281B390B3093110220931002F0C0DA
:100F30002091020162817381E091F201F091F3014D
:100F40006E0F7F1F882777FD8095982F30E02058FF
:100F50003040442737FD4095542F0E94EB19A7E0FD
:100F60009595879577956795AA95D1F7060F171FE1
:100F700010930B0200930A02C61BD70BD0931102E9
:100F8000C0931002C5C090930B0280930A02848123
:100F90009581820F931F49C0808191812091E0014A
:100FA0003091E101820F931F90930B0280930A020C
:100FB000808191812091E2013091E301820F931FA2
:100FC0009093110280931002628173818091E401F9
:100FD0009091E501680F791F448155818091E60168
:100FE0009091E701480F591FCA01860F971F9C0176
:100FF000F3E035952795FA95E1F795958795280FB4
:10100000391F2757314030930D0220930C02461BA5
:10101000570BCA01B3E095958795BA95E1F75595B9
:101020004795840F951F84529A4F90930F02809397
:101030000E026EC06091E0017091E1010091130118
:101040001091140120813181C281D3818091F201FC
:101050009091F301C80FD91FA481B5818091F4014B
:101060009091F501A80FB91F8091090190910A0193
:101070008C54944097FF03C040E050E016C080912C
:10108000090190910A018C54944095958795855F4C
:1010900091401CF044EF51E008C04091090150918B
:1010A0000A014C5454405595479564527A4F601B41
:1010B000710B620F731FFE01E60FF71F9A012A1BC7
:1010C0003B0B37FF02C020E030E0CF01821B930BC7
:1010D00090930B0280930A022E0F3F1F30930D0254
:1010E00020930C026C1B7D0B9A012A0F3B1F37FFCC
:1010F00002C020E030E0C901860F971F90931102D3
:1011000080931002621B730B70930F0260930E02A8
:101110008091EC019091ED01909313028093120263
:101120008091EE019091EF0190931502809314024B
:101130008091EA019091EB0190931702809316023F
:10114000CDB7DEB7E8E00C946D1AA8E0B0E0EBEAAA
:10115000F8E00C94551A80913D0290913E0203975D
:10116000A9F5FE01319688E0DF011D928A95E9F725
:10117000CF010E94BB06A8ECB1E00AE212E042E314
:1011800052E06D917C911197F80120813181FB0132
:1011900080819181281739070CF4C901F8019183E6
:1011A0008083FA0120813181FB0180819181821746
:1011B00093070CF4C901FA0181939193AF01129640
:1011C0000E5F1F4FF1E0A03DBF07D9F684E292E029
:1011D0000E94BB0680E090E0FC01E853FE4FA08136
:1011E000B1814D915C911197FC01E65DFD4F01903D
:1011F000F081E02D4E175F0754F0FC01EE5CFD4FCF
:1012000020813181FA01241735070CF4F901ED939F
:10121000FC93029688309105F9F62896E4E00C9448
:10122000711A8091A902882309F050C081E080934F
:10123000A9028FEF8093A8022FB7F89480910A0239
:1012400090910B029093FD018093FC0180910C0220
:1012500090910D029093FF018093FE0180910E0208
:1012600090910F02909301028093000280911002EE
:1012700090911102909303028093020280911202D6
:1012800090911302909305028093040280911402BE
:1012900090911502909307028093060280911602A6
:1012A00090911702909309028093080280916F0039
:1012B000826080936F00B19A809184009091850044
:1012C000049690938900809388002FBF0895FC01B5
:1012D00081E08183808385E0828316821582108677
:1012E000178208959C0144E0813B940714F490E038
:1012F0000DC0845195408159914010F491E006C091
:101300002850374014F49FEF06C092E0662319F08E
:1013100082E0891B982F892F0895CF93DF93EC01EA
:101320008A818B838091E0019091E1016D810E941F
:10133000720987FF88838091E4019091E5016E81B5
:101340000E94720987FF89838F81882351F48881E5
:10135000882329F0823029F481E08D83188281E08E
:101360008F838885882361F48981882319F08230EE
:1013700039F404C081E08E8382E0898381E088872C
:1013800038813F5F898123E08202C0011124380F38
:101390003A839B8180E0391729F081E09295907F14
:1013A000932B9C83DF91CF910895282F30E03F6FDE
:1013B000220F331FEFB7F89480918400909185003D
:1013C000AC01405C5F4FBC016D5D7A4F8091840041
:1013D00090918500DA01A81BB90B1A161B06B4F30D
:1013E00020FF02C0579801C0579A4617570729F0A7
:1013F0003695279545575F4FE9CFEFBF0895EFB773
:10140000F8944F9B49C016C020918400309185000C
:101410002058314C04C08FEF9FEF4F9B0BC0809141
:10142000840090918500B901681B790B1616170688
:1014300014F4F1CFAC0141505040CA010196181686
:10144000190614F34F5F5F4F19F420E030E826C00F
:101450008091840090918500AC0140565F4F20E060
:1014600030E0BC0163597B4F8091840090918500EE
:10147000DA01A81BB90B1A161B06B4F389B136950D
:10148000279590E080789070282B392B46175707C6
:1014900029F045575F4FE8CF20E030E4EFBFC901A6
:1014A0000895EF92FF920F931F93CF93DF93E82E4F
:1014B000192F062FF62E84E20E94D509802F0E9454
:1014C000D5092E2D312FC901EC0104C08991F80EE8
:1014D0000E94D5099E012E192017C4F38F2D8195E6
:1014E0000E94D509CDB7DEB7E6E00C946F1A8F9253
:1014F0009F92AF92BF92CF92DF92FF920F931F9372
:10150000CF93DF934C015A01C0E0D0E0C62EDD241A
:10151000C7FCD09402C0812F182FC5010E94FF097B
:101520009C018070907C892B69F5822FC130D10598
:1015300059F0C230D105A1F0209779F7243259F73C
:10154000812FC1E0D0E0E8CF90E0C816D90614F4AE
:10155000812F15C0822FF22EC2E0D0E000E0DCCF58
:10156000F20E812F8150112331F0F401E00FF11DB3
:1015700020830F5FD1CFFF2011F481E004C0C0E0D1
:10158000D0E0CACF80E0DF91CF911F910F91FF9003
:10159000DF90CF90BF90AF909F908F900895CF92A3
:1015A000DF92EF92FF921F93CF93DF93E0917F0141
:1015B000F0918001A081B18114962D913C911597F5
:1015C000CF01F9010995892B09F48AC05BC01092FB
:1015D000F4022093F0023093F1024093F202509310
:1015E000F3028091F402E82FFF27E7FDF095E05227
:1015F000FD4F10838F5F8093F40280310CF46EC036
:101600008091DF021816D4F5A2EEB2E0CBE0D0E074
:101610005C9140E011968C911197282F30E0242B9B
:10162000352B8091DF02682F772767FD7095C90100
:10163000062E02C0969587950A94E2F78F7088303F
:10164000C4F4E82FFF27E7FDF095EE0FFF1FE058E9
:10165000FD4F0190F081E02DCE01861B970B02C05B
:10166000220F331F8A95E2F7377024523E4F3183A1
:101670002083129662E0A03FB60751F61092F40262
:1016800081E02EC08091F402803154F5A0917F0159
:10169000B0918001ED91FC9111970680F781E02DCA
:1016A000CD010995182F0E94AE009B01AC018091DD
:1016B000F0029091F102A091F202B091F30269015F
:1016C0007A01C81AD90AEA0AFB0AD701C601895564
:1016D0009B41A040B0400CF07ACF7BCF80E000C0AF
:1016E000DF91CF911F91FF90EF90DF90CF90089501
:1016F00080917F019091800140E052EC61E070E0C8
:101700000E94C5168091480290914902019711F0FC
:101710008BE001C08AE08093DF0208951F93CF938E
:10172000DF93EC01142F44E450E00E94841A888176
:10173000811711F08FEF12C090E020E030E0FE0141
:10174000E20FF31F8081980F2F5F3F4F2434310544
:10175000B1F7992311F480E001C08EEFDF91CF91B2
:101760001F910895DC0190E020E030E0FD01E20FE0
:10177000F31F8081980F2F5F3F4F23343105B1F75E
:10178000AD5BBF4F91959C93A354B040CD0144E411
:1017900050E00E94941A0895A1E1B0E0E2EDFBE070
:1017A0000C94471A1C0181E089838BE392E09B83B0
:1017B0008A8302969D838C830D969F838E830296E7
:1017C0009987888702969B878A8702969D878C8750
:1017D00002969F878E87CE010196998B888BD09039
:1017E0003B02DD0CCC246624EE24FF248701F0E8C4
:1017F0008F2EFAE19F2EF6E0AF2EB12CE2E07E2E86
:101800002C010E94AE009B01AC01DC01CB018E19C2
:101810009F09A00BB10B88169906AA06BB060CF00F
:1018200051C0171424F5872D992787FD9095FC0149
:10183000E170F07080FD03C088E097E002C08CED9D
:1018400095E090930D0280930C028CED95E09093BF
:101850000B0280930A02EE0FFF1FEE0FFF1FE055F1
:10186000FE4F80809180A280B3807A9429C0DD20D1
:1018700039F11D1424F46CE271E0A1E003C064EDC1
:101880007EEFAFEF8D2D992787FD9095FC01E170DC
:10189000F07080FF03C08CED95E003C0CB01845253
:1018A0009A4F90930B0280930A02EE0FFF1FEE0FE8
:1018B000FF1FE055FE4F80809180A280B380DA1A2E
:1018C00079018A010E94CF0A882319F091E0909350
:1018D000A7028091A702882329F01092A7020E94F4
:1018E000330602C0662041F08091A902882309F0E6
:1018F0008CC00E9411096624772009F082CFC101B3
:101900000E948D09882309F47CCFF10184818435FC
:1019100061F0853520F4823509F063C013C0863547
:1019200059F0883509F05DC02AC0F1E0FC1514F0CB
:10193000CC2470C0CA946EC085E08C150CF468C0CD
:10194000C39468C0AC2DBB27A7FDB095FD01EE0F79
:10195000FF1FE40DF51D0180F281E02D8081282F0D
:10196000332727FD30952F5F3F4FA854BE4F8C91F2
:10197000992787FD909582179307F4F41CC0AC2D2E
:10198000BB27A7FDB095FD01EE0FFF1FE40DF51D70
:101990000180F281E02D8081282F332727FD3095AB
:1019A00021503040A054BE4F8C91992787FD9095CF
:1019B000281739070CF49C01208320E08C2D9927EF
:1019C00087FD9095FC01EE0FFF1FE40DF51D0180D2
:1019D000F281E02DD080DD0C222319F00196782EC3
:1019E000770C8981823009F00CCF8AE392E060E0C5
:1019F00070E00E94B20B8AE392E060E071E00E9426
:101A0000B20B6196E2E10C94631A6624639474CF7E
:101A100087E0C82E21E0D2CFA1E9B0E0E2E1FDE00D
:101A20000C94471A0E94AE001B012C01DE01119696
:101A3000E2E9F1E086E001900D928150E1F78E013C
:101A40000D5E1F4FC8010E9467094CE1E42EF12C86
:101A5000EC0EFD1EC70164E00E94B20439E4C32EFF
:101A6000D12CCC0EDD1EC60163E00E94B204209290
:101A7000DB023092DC024092DD025092DE02C65759
:101A8000DF4F288239824A825B82CA58D040CA57C7
:101A9000DF4F288239824A825B82C658D040CE57B7
:101AA000DF4F288239824A825B82C258D04042018D
:101AB0003101C258DF4F288239824A825B82CE5779
:101AC000D040EB962CAE3DAE4EAE5FAEEB97EE96B1
:101AD0001FAEEE97ED961FAEED9721E0EC962FAF7F
:101AE000EC97C257DF4FE882CE58D040C157DF4F46
:101AF000F882CF58D040C057DF4F0883C059D0403C
:101B0000CF56DF4F1883C159D0400E94AE005B0111
:101B10006C010E9423010E94CF0A882319F031E052
:101B20003093A7028091A7028823A1F4D601C501B2
:101B3000C657DF4F488159816A817B81CA58D0409E
:101B4000841B950BA60BB70B81539547A040B04063
:101B50000CF442C01092A7020E9433068C8D882399
:101B600069F0C657DF4FA882B982CA82DB82CA58A1
:101B7000D04061E0EE966FAFEE972EC0C257DF4FB8
:101B80008881CE58D040C157DF4F9881CF58D04080
:101B90000E9487052A968FAD2A97882311F492E038
:101BA00001C090E020E08C8D882309F421E0920FA1
:101BB00090939A0288EC90E09093A00280939F0209
:101BC000C657DF4FA882B982CA82DB82CA58D0408A
:101BD00091E0EE969FAFEE978091A902882379F568
:101BE000EE96AFADEE97AA2351F1A6019501CA5723
:101BF000DF4F688179818A819B81C658D040261B3E
:101C0000370B480B590B8091920290919302A0914F
:101C10009402B091950282179307A407B5077CF44C
:101C20000E94A5080E941109CA57DF4FA882B982F5
:101C3000CA82DB82C658D040EE961FAEEE97D60120
:101C4000C501CE57DF4F288139814A815B81C25857
:101C5000D040821B930BA40BB50B81519742A0403F
:101C6000B04054F10E9454042A968FAD2A978823DD
:101C7000D9F4CE01875B9F4F0E94E3052A968FAD72
:101C80002A97882311F492E001C090E020E08C8D27
:101C9000882309F421E0920F90939A0248EC50E0D7
:101CA0005093A00240939F02CE57DF4FA882B98283
:101CB000CA82DB82C258D040EC965FADEC975523C8
:101CC00009F456C0C057DF4F8881C059D040CF5665
:101CD000DF4F9881C159D0400E948D09882309F4B3
:101CE00047C0ED966FADED97E62FFF27E7FDF09526
:101CF000E757FE4F9F898081981721F0ED961FAE20
:101D0000ED9707C0ED967FADED977F5FED967FAFC6
:101D1000ED97ED968FADED97E82FFF27E7FDF09556
:101D2000E757FE4F80818F3F81F4CE0143960E949A
:101D3000CC0B2EE088E190E00FB6F894A895809344
:101D400060000FBE20936000FFCFD601C50182194D
:101D50009309A409B509815C914EA44EB04024F0CA
:101D6000EC961FAEEC9704C0F1E0EC96FFAFEC9759
:101D70008C8D882329F02A968FAD2A978823C9F560
:101D80008091E2019091E3012091E0013091E10125
:101D9000820F931F2091190130911A01821B930B1E
:101DA0002091130130911401821B930B9595879517
:101DB0009093F1018093F0018091E4019091E5010D
:101DC0002091150130911601821B930B9093F30122
:101DD0008093F2018091E6019091E7012091170133
:101DE00030911801821B930B9093F5018093F401BD
:101DF0008CCED601C50186199709A809B909815168
:101E00009742A040B0400CF424C38091900290917E
:101E100091028130910559F48091E8019091E90196
:101E2000845C95400CF09BC080E090E00DC0892B55
:101E300009F095C08091E8019091E901855F954096
:101E40000CF48DC081E090E0909391028093900219
:101E5000892B11F084E001C080E080939A0268EC45
:101E600070E07093A00260939F021092BC021092E7
:101E7000BD021092BE021092BF021092C8021092D0
:101E8000C9021092CA021092CB021092C0021092A4
:101E9000C1021092C2021092C3021092CC021092A0
:101EA000CD021092CE021092CF021092C402109274
:101EB000C5021092C6021092C7021092D002109270
:101EC000D1021092D2021092D302809152029091CC
:101ED0005302029709F043C0D601C501EB962CAD21
:101EE0003DAD4EAD5FADEB97821B930BA40BB50BD5
:101EF0008152914AA740B0401CF0E7961FAEE79789
:101F0000E7964FADE7974F5FE7964FAFE7974330C0
:101F100004F18091E0019091E1019093140180938C
:101F200013018091E4019091E50190931601809353
:101F300015018091E6019091E7019093180180933B
:101F400017018091E2019091E30190931A0180932F
:101F50001901EB96ACAEBDAECEAEDFAEEB974091C5
:101F6000E2015091E3018091E0019091E101480F7D
:101F7000591F8091190190911A01481B590B8091AA
:101F8000130190911401481B590B55954795509397
:101F9000F1014093F001E091E401F091E5018091BD
:101FA000150190911601E81BF90BF093F301E093F2
:101FB000F201A091E601B091E701809117019091A3
:101FC0001801A81BB90BB093F501A093F4018091FF
:101FD0004C028150282F332727FD3095CA0157FF27
:101FE00004C088279927841B950B022E02C0880FF6
:101FF000991F0A94E2F761E08139960714F080E9AD
:1020000091E060E971E0681B790B78876F83CF01FD
:10201000F7FF04C0882799278E1B9F0B022E02C052
:10202000880F991F0A94E2F771E08139970714F03D
:1020300080E991E060E971E0681B790B7A87698734
:10204000CD01B7FF04C0882799278A1B9B0BBC01D1
:1020500002C0660F771F2A95E2F781E061397807A1
:1020600014F060E971E010E9612E11E0712E661A3A
:10207000770A7C866B862091E8013091E90195E032
:102080002D3D39072CF067E02D3636075CF007C090
:102090008CED95E0821B930B815991401CF000E977
:1020A00011E011C085E02D3D380724F089010C5D59
:1020B000154004C00CED15E0021B130B093111058E
:1020C00014F400E010E0809090029090910291E072
:1020D0008916910459F08114910409F050C080913F
:1020E000500290915102029709F049C080914E022E
:1020F0009A01082E02C0220F331F0A94E2F73E878E
:102100002D87082E02C0EE0FFF1F0A94E2F7F88B0E
:10211000EF87AD0102C0440F551F8A95E2F75A8B35
:10212000498B89819A8197FD05C088279927821B51
:10213000930B01C0C9019093AB028093AA028B81DB
:102140009C812F85388997FD05C088279927821B98
:10215000930B01C0C9019093AD028093AC028D81B5
:102160009E8197FD03C0509541955F4F5093AF02FC
:102170004093AE02A1E08A16910471F055C010920E
:10218000AB021092AA021092AD021092AC02109211
:10219000AF021092AE0248C06F817885882777FD24
:1021A0008095982F24EF3FEB40E050E00E94EB1920
:1021B000F9E09595879577956795FA95D1F76093AE
:1021C000C8027093C9028093CA029093CB026985BA
:1021D0007A85882777FD8095982F0E94EB19E9E092
:1021E0009595879577956795EA95D1F76093CC0299
:1021F0007093CD028093CE029093CF02B3018827D3
:1022000077FD8095982F0E94EB1939E09595879579
:10221000779567953A95D1F76093D0027093D10284
:102220008093D2029093D30220911E0230911F021C
:102230008091180290911902281B390BB0E22030CE
:102240003B0714F02FEF3FE1C901E0EE20303E07DD
:1022500014F480E090EE9093B1028093B00220914C
:1022600020023091210280911A0290911B02281BBA
:10227000390BF0E220303F0714F02FEF3FE1C901A6
:1022800020EE8030920714F480E090EE9093B30239
:102290008093B202209122023091230280911C028D
:1022A00090911D02281B390B40E22030340714F0B6
:1022B0002FEF3FE1C90150EE2030350714F480E0E4
:1022C00090EE9093B5028093B402892819F06AE6E3
:1022D00072E002C067E572E08AEA92E00E949C0325
:1022E000EE24FF243801882477FC8094982C870101
:1022F0000C5D1D4FE1E0F0E0EC0FFD1FEE0DFF1D4A
:1023000060817181882777FD8095982FF701E655C8
:10231000FD4F22A533A5442737FD4095542F0E9439
:10232000EB1927E095958795779567952A95D1F7CD
:10233000E7E0F0E0EC0FFD1FEE0DFF1D2081318185
:10234000442737FD4095542F0E94EB199B01AC01A7
:10235000B9E05595479537952795BA95D1F7C401BA
:10236000B3010E94EB19A9E095958795779567953C
:10237000AA95D1F7D8016D937C93E2E0F0E0EE0EE0
:10238000FF1EF6E0EF16F10409F0B1CF2091DA025A
:1023900012160CF05CC08091DB029091DC02A091DF
:1023A000DD02B091DE02B601A501481B590B6A0B94
:1023B0007B0BDB01CA0181549D40A340B0405CF01F
:1023C00021502093DA02A092DB02B092DC02C0928C
:1023D000DD02D092DE028091DA02992787FD909586
:1023E0004091240250912502BC016170707080FF01
:1023F00003C026E930E002C02AE63FEF240F351F74
:102400003093250220932402409126025091270206
:102410006115710519F026E930E002C02AE63FEFA8
:10242000240F351F30932702209326022091280283
:1024300030912902672B19F48AE69FEF02C086E9E2
:1024400090E0820F931F9093290280932802350118
:102450004601D601C501C258DF4F288139814A8122
:102460005B81CE57D040821B930BA40BB50B8C59CC
:10247000914AA740B0400CF448CB80915402803878
:1024800039F480910001282F30E02058304004C0FA
:10249000282F332727FD309580915502803839F455
:1024A00080910101482F50E04058504004C0482F0F
:1024B000552747FD509580915602803831F4809120
:1024C000020190E08058904003C0992787FD9095C5
:1024D0003A8329835C834B839E838D83295F3F4F9F
:1024E0002F30310510F41A8219828B819C81079656
:1024F0000F9710F41C821B828D819E8107960F9787
:1025000010F41E821D8280E00E949F02C258DF4F9D
:10251000A882B982CA82DB82CE57D040F6CAA5E62D
:10252000B0E0E5E9F2E10C94511A1092800081E0EC
:102530008093810057985F9848E552E000E06E0173
:102540000894C11CD11C62E0E62EF12CEC0EFD1E9D
:10255000C60165E60E94770A882309F440C0898194
:102560008230A1F0833018F4813029F406C0833022
:10257000A9F08430E1F061E018C0C70160E870E0C4
:1025800048E050E00E94841A69E00FC0C70160E88B
:1025900070E048E050E00E94941A13C0C70160E068
:1025A00070E048E00E948E0B65E410E00CC0C701AB
:1025B00060E070E00E94B20BC70160E071E00E9431
:1025C000B20B61E011E0898180688983C6010E94B5
:1025D000510A01E044EF51E0112309F4B9CF802FF3
:1025E000CB59DF4FE8E00C946D1ACF93DF93C0E036
:1025F000D0E0FE01E958FE4F808187FD04C0808154
:1026000061E00E944C192196C830D10591F7DF9105
:10261000CF9108951F920F920FB60F9211240F932E
:102620001F932F933F934F935F936F937F938F935A
:102630009F93AF93BF93EF93FF938091A80287FD81
:1026400042C0E091A802FF27E7FDF095E958FE4F50
:10265000808160E00E94B81936C08091A8028F5F27
:102660008093A802E091A802FF27E7FDF095E958C2
:10267000FE4F808187FD27C0009184001091850066
:10268000E091A802FF27E7FDF095E958FE4F808111
:1026900061E00E94B819E091A802FF27E7FDF095DC
:1026A000EE0FFF1FE55DFE4F0190F081E02D808170
:1026B00091810297880F991F800F911F9093890035
:1026C000809388000BC08091A802873034F210926A
:1026D000A90280916F008D7F80936F00FF91EF9131
:1026E000BF91AF919F918F917F916F915F914F912A
:1026F0003F912F911F910F910F900FBE0F901F9040
:102700001895A0E0B0E0E7E8F3E10C94511A182F17
:10271000062F862F61E00E944C19812F60E00E94F5
:102720004C19812F61E00E94B8196AE070E080E0E6
:1027300090E00E94EE00C0E0D0E0812F992787FD55
:102740009095FC01EA57FF4FE491F0E0EE0FFF1F78
:10275000E458FF4FC590D49086569F4FFC0184915A
:10276000E82EFF24CE018170182F802F612F0E9448
:10277000B819F601808120E030E090E08E219F21A1
:10278000892B11F021E030E0812F992787FD90956A
:102790002817390711F010E005C02196C830D1057F
:1027A00009F711E0802F60E00E944C19812FCDB70E
:1027B000DEB7E8E00C946D1AA2E9B0E0E2EEF3E1D6
:1027C0000C94511A259A8091AE039091AF03009713
:1027D00011F09C0102C022EB33E0CE010196821B76
:1027E000930B803891054CF484E180939B028EE139
:1027F00090E09093A2028093A10284B7877F84BF68
:1028000088E10FB6F89480936000109260000FBECC
:1028100021E030E030933C0220933B0280E880933B
:102820005402809355028093560230933E022093C7
:102830003D0284E180933F02E8E9F1E020E4C22E0A
:1028400022E0D22ED60181918D9321E0E03AF20769
:10285000D1F742E050E0509349024093480221E012
:1028600030E030934B0220934A0230934D02209384
:102870004C0283E090E090934F0280934E0230939D
:10288000510220935002509353024093520284EF1E
:1028900091E0909358028093570210925E0210923A
:1028A0005D02909364028093630290935A02809336
:1028B00059021092600210925F0290936602809318
:1028C000650290935C0280935B0210926202109208
:1028D0006102909368028093670228E02093690266
:1028E00090936B0280936A029093710280937002BE
:1028F000909377028093760290936D0280936C029E
:10290000909373028093720290937902809378027D
:1029100090936F0280936E0290937502809374027D
:1029200090937B0280937A0220937C0285E064E09E
:102930000E948113882311F400E001C007E0CE015A
:10294000039660E870E048E050E00E94841A00239B
:1029500061F48B81823049F48C819D81AE81BF818D
:102960008E549146AC4BB04071F082E08B838EE484
:1029700091E6ACEBB0E08C839D83AE83BF83188679
:1029800019861A860860CE010B9660E070E048E078
:102990000E948E0B87FD0260CE01815B9F4F60E03D
:1029A00071E048E00E948E0B87FD046083E0809315
:1029B000DA02E02EFF24C701867090708230910504
:1029C00031F08430910579F0892B81F119C08E01A5
:1029D000015B1F4FC80160E070E00E94B20B888568
:1029E0008F5F88870BC08E01055F1F4FC80160E0B5
:1029F00071E00E94B20B89858F5F8987C80118C07A
:102A000088E080933A028AE392E060E070E00E94FE
:102A1000B20B8AE392E060E071E00E94B20B8A851B
:102A20008F5F8A8789E08093DA020AC0CE010B9615
:102A3000AAE3B2E0FC0184E401900D928150E1F739
:102A4000C7018E709070892B41F0CE01039660E82B
:102A500070E048E050E00E94941AE0FE0AC082E074
:102A60000E94160164E670E080E090E00E94ED189C
:102A7000F6CF0E948F12882361F02EE088E190E06B
:102A80000FB6F894A895809360000FBE2093600065
:102A9000FFCF1092800082E08093810081E08093DC
:102AA0006F0085B5887F85BD0E94780B80913D02BF
:102AB00090913E0282309105D1F08330910561F111
:102AC0000197F1F580E090E048EE53E020ED37E02B
:102AD000FC01E65DFD4F51834083FC01EE5CFD4F40
:102AE0003183208302968830910591F729C080E0D8
:102AF00090E04CE454E02CE637E0FC01E65DFD4F4D
:102B000051834083FC01EE5CFD4F318320830296AC
:102B10008830910591F714C080E090E042EE54E0D7
:102B200026ED36E0FC01E65DFD4F51834083FC015C
:102B3000EE5CFD4F3183208302968830910591F73A
:102B400080913F02992787FD909528EE33E0FC01A4
:102B5000E29FC001E39F900DF29F900D1124AA27E0
:102B600097FDA095BA2F8093920290939302A09321
:102B70009402B0939502A0E8B2E0F60181916F0152
:102B8000E82FFF27E7FDF095EE0FFF1FE55EFE4FF4
:102B9000808191818D939D93F8E4CF16F2E0DF065A
:102BA00061F720E030E0F901EF57FE4F8081F90135
:102BB000E958FE4F80832F5F3F4F2830310599F74A
:102BC0000E943F030E94580380913B0290913C0277
:102BD00090937F0280937E02019741F58091F701E7
:102BE000882319F4E4E0F0E002C0E0E0F0E0809136
:102BF000F901882319F442E050E002C040E050E0BF
:102C000020E030E08091FA01882311F421E030E0E7
:102C1000E22BF32BE42BF52BEE0FFF1FE056FE4FBC
:102C20008081918190937F0280937E0280917E02C9
:102C300090917F02019731F482E090E090937F02BF
:102C400080937E0280917E028093990288E592E0D3
:102C500090939E0280939D020E94EF020E94F512C3
:102C60000E949D040E9433060E94A508CE56DF4FA5
:102C7000E8E00C946D1A08951F920F920FB60F9210
:102C800011242F933F934F938F939F93EF93FF9331
:102C90008091C00082FD1DC04091C60020913B0381
:102CA00030913C032F5F3F4F2F73307080913D0375
:102CB00090913E032817390771F0E0913B03F091A2
:102CC0003C03E550FD4F408330933C0320933B038E
:102CD00002C08091C600FF91EF919F918F914F911B
:102CE0003F912F910F900FBE0F901F901895E0917C
:102CF0008F03F0919003E05CFF4F819191912081CF
:102D00003181821B930B8F739070892B11F00E947D
:102D10003B1608951F920F920FB60F9211242F9316
:102D20003F938F939F93EF93FF9320917F03309175
:102D3000800380918103909182032817390731F431
:102D40008091C1008F7D8093C10014C0E091810308
:102D5000F0918203E15CFC4F20818091810390918E
:102D6000820301968F739070909382038093810306
:102D70002093C600FF91EF919F918F913F912F91EA
:102D80000F900FBE0F901F901895AF92BF92DF92D9
:102D9000EF92FF920F931F93CF93DF93EC017A0191
:102DA0008B01DD24403081EE580780E0680780E029
:102DB000780711F0DD24D39491E0A92EB12CEC8991
:102DC000FD89DD2069F0C50108A002C0880F991FA8
:102DD0000A94E2F7808360E079E08DE390E005C03B
:102DE000108260E874E88EE190E0A80197010E94EB
:102DF0000A1A21503040404050405695479537952B
:102E0000279580E12030380720F0DD2011F0DD2407
:102E1000D6CFE889F9893083EA89FB89208319A212
:102E2000EE89FF89408121E030E0C9010C8C02C0AD
:102E3000880F991F0A94E2F7482B4083EE89FF8997
:102E40004081C9010D8C02C0880F991F0A94E2F7D6
:102E5000482B4083EE89FF894081C9010E8C02C056
:102E6000880F991F0A94E2F7482B4083EE89FF8967
:102E700080810F8C02C0220F331F0A94E2F7209545
:102E800028232083DF91CF911F910F91FF90EF9026
:102E9000DF90BF90AF900895DC011C96ED91FC91FE
:102EA0001D97E05CFF4F2191319180819181281B1A
:102EB000390B2F733070C9010895DC011C96ED9118
:102EC000FC911D97E05CFF4F20813181E054F04080
:102ED000DF01AE5BBF4F8D919C9111972817390789
:102EE00019F42FEF3FEF07C08D919C91E80FF91F68
:102EF0008081282F30E0C9010895DC011C96ED91F6
:102F0000FC911D97E05CFF4F20813181E054F0403F
:102F1000DF01AE5BBF4F8D919C9111972817390748
:102F200019F42FEF3FEF10C08D919C911197E80F8E
:102F3000F91F20818D919C91119701968F7390704C
:102F400011969C938E9330E0C9010895DC0191960F
:102F50008C919197882339F05496ED91FC91559777
:102F6000808186FFF9CF91961C920895CF93DF93CD
:102F7000EC01EE85FF85E05CFF4F20813181E0545C
:102F8000F0402F5F3F4F2F733070DF01AE5BBF4FBC
:102F90008D919C91119728173907D1F3E05CFF4F71
:102FA00080819181E054F040E80FF91F6083EE8545
:102FB000FF85E05CFF4F31832083EE89FF8920810C
:102FC00081E090E00F8C02C0880F991F0A94E2F70D
:102FD000282B208381E089A3EC89FD89808180648E
:102FE000808381E090E0DF91CF9108951092860375
:102FF0001092850388EE93E0A0E0B0E08093870311
:1030000090938803A0938903B0938A0384ED91E0A1
:1030100090938403809383038BEF92E090939003CB
:1030200080938F038FE393E09093920380939103B7
:1030300085EC90E0909394038093930384EC90E06C
:10304000909396038093950380EC90E0909398037F
:103050008093970381EC90E090939A038093990377
:1030600082EC90E090939C0380939B0386EC90E02D
:1030700090939E0380939D0384E080939F0383E05D
:103080008093A00387E08093A10385E08093A2034F
:1030900081E08093A3030895CF93DF930E941119D9
:1030A0000E94DC13C7E7D6E10E940C0D2097E1F3E4
:1030B0000E947716F9CFA0E0B0E0E1E6F8E10C94C9
:1030C000511A7C016B018A01C0E0D0E00FC0D6012B
:1030D0006D916D01D701ED91FC910190F081E02D92
:1030E000C7010995C80FD91F0150104001151105DE
:1030F00071F7CE01CDB7DEB7E8E00C946D1A1F92E0
:103100000F920FB60F9211242F933F938F939F939B
:10311000AF93BF938091A9039091AA03A091AB03B1
:10312000B091AC033091AD030196A11DB11D232FC9
:103130002D5F2D3720F02D570196A11DB11D209335
:10314000AD038093A9039093AA03A093AB03B0931C
:10315000AC038091A5039091A603A091A703B09121
:10316000A8030196A11DB11D8093A5039093A6030A
:10317000A093A703B093A803BF91AF919F918F91A4
:103180003F912F910F900FBE0F901F9018959FB7F2
:10319000F8942091A5033091A6034091A703509184
:1031A000A80386B5A89B06C08F3F21F02F5F3F4F35
:1031B0004F4F5F4F9FBF542F432F322F2227280F8F
:1031C000311D411D511D82E0220F331F441F551F29
:1031D0008A95D1F7B901CA010895EF92FF920F9332
:1031E0001F93CF93DF937B018C010E94C718EB01E3
:1031F0000EC00E94C7186C1B7D0B685E7340C8F33D
:103200000894E108F10801091109C851DC4FE114E3
:10321000F1040105110569F7CDB7DEB7E6E00C94BE
:103220006F1A789484B5826084BD84B5816084BD52
:1032300085B5826085BD85B5816085BDEEE6F0E02F
:10324000808181608083E1E8F0E01082808182608B
:103250008083808181608083E0E8F0E0808181600C
:103260008083E1EBF0E0808184608083E0EBF0E03C
:10327000808181608083EAE7F0E0808184608083E0
:10328000808182608083808181608083808180688A
:1032900080831092C1000895CF93DF93482F50E0B0
:1032A000CA0186569F4FFC0134914A575F4FFA017D
:1032B0008491882369F190E0880F991FFC01E859F7
:1032C000FF4FA591B491FC01EE58FF4FC591D491E9
:1032D000662351F42FB7F8948C91932F90958923FE
:1032E0008C93888189230BC0623061F42FB7F894E6
:1032F0008C91932F909589238C938881832B88833D
:103300002FBF06C09FB7F8948C91832B8C939FBFDF
:10331000DF91CF910895833071F0843028F48130AB
:10332000A1F0823021F514C08630B1F08730D1F0A1
:103330008430E9F404C0809180008F7703C08091CD
:1033400080008F7D80938000089584B58F7702C0C0
:1033500084B58F7D84BD08958091B0008F77809370
:10336000B00008958091B0008F7D8093B0000895E3
:10337000FF920F931F93F62E482F50E0CA018255FB
:103380009F4FFC012491CA0186569F4FFC01149166
:103390004A575F4FFA0104910023C9F0222319F024
:1033A000822F0E948B19E02FF0E0EE0FFF1FEE58E6
:1033B000FF4FA591B4919FB7F894FF2021F48C9111
:1033C0001095812302C08C91812B8C939FBF1F91FC
:1033D0000F91FF900895629FD001739FF001829F2B
:1033E000E00DF11D649FE00DF11D929FF00D839F94
:1033F000F00D749FF00D659FF00D9927729FB00D31
:10340000E11DF91F639FB00DE11DF91FBD01CF0143
:1034100011240895A1E21A2EAA1BBB1BFD010DC0A9
:10342000AA1FBB1FEE1FFF1FA217B307E407F50774
:1034300020F0A21BB30BE40BF50B661F771F881F50
:10344000991F1A9469F760957095809590959B01E6
:10345000AC01BD01CF01089597FB092E05260ED0C2
:1034600057FD04D0D7DF0AD0001C38F450954095A2
:10347000309521953F4F4F4F5F4F0895F6F7909548
:103480008095709561957F4F8F4F9F4F08952F9234
:103490003F924F925F926F927F928F929F92AF92E4
:1034A000BF92CF92DF92EF92FF920F931F93CF9331
:1034B000DF93CDB7DEB7CA1BDB0B0FB6F894DEBFC8
:1034C0000FBECDBF09942A88398848885F846E84EE
:1034D0007D848C849B84AA84B984C884DF80EE8038
:1034E000FD800C811B81AA81B981CE0FD11D0FB641
:1034F000F894DEBF0FBECDBFED010895EE0FFF1FA4
:103500000590F491E02D0994DC01CB01FC01F999BF
:10351000FECF06C0F2BDE1BDF89A319600B40D921F
:1035200041505040B8F70895DC01CB0103C02D9104
:103530000E949F1A41505040D0F70895262FF999C4
:10354000FECF1FBA92BD81BD20BD0FB6F894FA9A86
:0C355000F99A0FBE01960895F894FFCF81
:10355C00FFFFFFDC05DC05DC05DC05E803DC05E82A
:10356C0003DC05DC05DC05DC05DC05070105010FCA
:10357C000103010B0109010D0111010002FE0104FF
:10358C0002FC010000020208020602000000010118
:10359C00010201000000000000000000000000F922
:1035AC0001000000000000FA010000000000000013
:1035BC0000000000000000FB01F601F701F801001B
:1035CC00000000000000000605FF04FF07FFFF835A
:1035DC000306050A04FF070B0978899887788998F0
:1035EC0087FF00000000000002030100040506072D
:1035FC00020003000400050008000600070002009A
:10360C00A0860100801A06000503030304020202CF
:10361C0001010101010101010A020C020E0210025A
:10362C0000000000B6175B184C177D175D17A61726
:00000001FF
