:100000000C9469000C9486000C9486000C94860075
:100010000C9486000C9486000C9486000C94860048
:100020000C9486000C9486000C949D030C94D012C2
:100030000C9486000C9488000C9486000C94860026
:100040000C9409160C9486000C9486000C9486007F
:100050000C9486000C94BC020C9486000C948600D0
:100060000C9486000C948600370759071A08370746
:1000700059071A086308D20800000000240027006E
:100080002A0000000000250028002B0000000000CE
:1000900023002600290004040404040404040202CA
:1000A00002020202030303030303010204081020F7
:1000B0004080010204081020010204081020000002
:1000C0000007000201000003040600000000000019
:1000D000000011241FBECFEFD8E0DEBFCDBF11E07E
:1000E000A0E0B1E0E0E7F0E302C005900D92A43992
:1000F000B107D9F712E0A4E9B1E001C01D92A53D16
:10010000B107E1F70E94FA150C9436180C94000020
:100110001F920F920FB60F9211248F939F9380918D
:10012000490290914A02019690934A0280934902B3
:100130008091490290914A02892B29F480914B02C7
:100140008F5F80934B029F918F910F900FBE0F9006
:100150001F9018956091840070918500209149024C
:1001600030914A02E0914B02809184009091850089
:100170008627972797FDEECF8091490290914A02FA
:100180002817390739F780914B02E81719F740E033
:1001900050E0FFE0220F331F441F551FFA95D1F79F
:1001A0008E2F90E0A0E0B0E0BB278695B795AA27F8
:1001B00099278827282B392B4A2B5B2B7695679517
:1001C000CB01A0E0B0E0282B392B4A2B5B2BB901E7
:1001D000CA010895AF92BF92CF92DF92EF92FF9241
:1001E0000F931F9328EE33E040E050E00E94751714
:1001F0005B016C010E94AA007B018C010E94AA0095
:100200006E197F09800B910B6A157B058C059D0586
:10021000A8F31F910F91FF90EF90DF90CF90BF90C8
:10022000AF900895882321F0813021F42D9A08950C
:100230002D98089585B190E2892785B90895EF92A8
:10024000FF920F931F937B018C018091C2029091CA
:10025000C302A091C402B091C5028E199F09A00BE0
:10026000B10B181619061A061B060CF450C0809123
:10027000C602882321F5E091C702EF5FE370E093A7
:10028000C702FF27E7FDF095E45BFD4F80819927CA
:1002900087FD9095880F991F8093C60280E492E4B1
:1002A000AFE0B0E0E80EF91E0A1F1B1FE092C20289
:1002B000F092C3020093C4021093C50228C081507B
:1002C0008093C60281700E941201E091C702FF274D
:1002D000E7FDF095EE0FFF1FE05BFD4F8081918100
:1002E000AA2797FDA095BA2F2AE0880F991FAA1F69
:1002F000BB1F2A95D1F78E0D9F1DA01FB11F8093A4
:10030000C2029093C302A093C402B093C5021F918E
:100310000F91FF90EF9008959A01AB01882311F09F
:10032000459A449A1092B90060E074E284EF90E03C
:100330000E949417205130404040504056954795B8
:10034000379527952093B80008952FEF30E011C01E
:100350002115310561F41092BC00809158029091F2
:1003600059020196909359028093580208952150A2
:1003700030408091BC0087FFEBCF0895FF920F9330
:100380001F93F82E0CEB10E084EAF80180830E94A2
:10039000A501F092BB0084E8F80180830E94A501CA
:1003A0001F910F91FF9008958093BB0084E8809384
:1003B000BC000E94A50108951F93182F882311F4F3
:1003C00084E801C084EC8093BC000E94A501909158
:1003D000BB00112319F484E98093BC00892F1F917D
:1003E00008950F931F93162F042F880F0E94BE01AC
:1003F000812F0E94D401802F0E94D40184E9809330
:10040000BC001F910F9108950F931F93182F062F73
:10041000880F0E94BE01802F0E94D401110F812FEE
:1004200081600E94BE0180E00E94DC011F910F915B
:1004300008951F93CF93DF93EB01142F880F8160F2
:100440000E94BE0108C0115080E011160CF481E03A
:100450000E94DC0189931123B1F7DF91CF911F91A5
:100460000895DF92EF92FF920F931F93E82EF62EDE
:100470008A01D22E880F0E94BE018F2D0E94D401C6
:100480008E2DB8014D2D0E9419021F910F91FF90E2
:10049000EF90DF90089588E66BE640E80E94F10156
:1004A00062E370E080E090E00E94EA0088E66BE69C
:1004B00043E00E94F10188E66AE140E00E94F10118
:1004C00088E66BE148E10E94F10188E665E70E9459
:1004D000040290E08E77883609F491E0892F089520
:1004E000A6E0B0E0E6E7F2E00C94DB178C017B01BC
:1004F0006A0188E663E4AE014F5F5F4F26E00E9429
:100500003102998180E02A8130E0822B932BF8011F
:10051000918380839B8180E02C8130E0822B932B20
:10052000F701918380839D8180E02E8130E0822BD2
:10053000932BF601918380832696E8E00C94F717BD
:10054000282F17C0E22FF0E0EE0FFF1FE65AFD4FF5
:1005500080819181892B61F080917C00887F822B42
:1005600080937C0080917A00806480937A00089563
:100570002F5F263038F308951F920F920FB60F9217
:1005800011242F933F934F935F936F937F938F9398
:100590009F93AF93BF93EF93FF9380917C008770FD
:1005A000E82FF0E0EE0FFF1FE65AFD4F0190F081BB
:1005B000E02D9091790090838F5F0E94A002FF91BF
:1005C000EF91BF91AF919F918F917F916F915F91CB
:1005D0004F913F912F910F900FBE0F901F90189544
:1005E000EAE5F2E040E050E061E070E08081918176
:1005F000892B79F087B1DB01042E02C0AA0FBB1F43
:100600000A94E2F79D012095822387B988B12823B7
:1006100028B94F5F5F4F32964630510539F780E673
:1006200080937C0010927B008FE880937A0080E0BA
:100630000E94A0020895CF93DF93EB01DA01FC0141
:1006400040E050E061E070E080819181892B79F099
:100650003881CB01042E02C0880F991F0A94E2F75B
:10066000282F2095232328832C91822B8C934F5F56
:100670005F4F32964830510539F7DF91CF91089599
:1006800086E692E064E270E045E250E00E941B03DF
:100690008BE391E067E270E048E250E00E941B03C8
:1006A00086E792E06AE270E04BE250E00E941B03B2
:1006B000089560E070E040E050E0A1E0B0E0362F47
:1006C000FA01EA59FD4F0190F081E02D309751F089
:1006D00023B1CD01062E02C0880F991F0A94E2F7BC
:1006E00028232083FA01E55CFE4F0190F081E02D84
:1006F000309751F026B1CD01032E02C0880F991F0B
:100700000A94E2F728232083FA01EA58FD4F01906A
:10071000F081E02D309749F029B1CD0102C0880F5A
:10072000991F3A95E2F7282320836F5F7F4F4E5F32
:100730005F4F4031510519F608951F920F920FB681
:100740000F9211242F933F934F935F938F939F9317
:10075000EF93FF9320918600309187008091BE0235
:100760009091BF02A901481B590B569547953093AC
:10077000BF022093BE029091C0028BE0493B580714
:1007800028F09093C1021092C00226C09830D4F491
:1007900083E04438580718F444E853E006C088E082
:1007A0004533580710F044E358E0E92FFF27E7FDF1
:1007B000F095EE0FFF1FED5CFD4F0190F081E02DF5
:1007C000518340839F5F9093C0028091C10298172C
:1007D00019F481E080938602FF91EF919F918F91B0
:1007E0005F914F913F912F910F900FBE0F901F90EF
:1007F0001895A6E0B0E0EFEFF3E00C94D1177A8300
:1008000069831C012B019E838D839B012A5F3F4FCF
:100810003C832B83ED81FE8106811781808191814C
:10082000081B190B3801882477FC8094982CF1015F
:1008300082899389A489B589860D971DA81DB91D44
:10084000268D378D40A151A1AA24BB246501A21A8F
:10085000B30AC40AD50A8A159B05AC05BD054CF040
:100860005C016D01281739074A075B0714F4590129
:100870006A01F101A28AB38AC48AD58AED81FE8118
:1008800084859585AA2797FDA095BA2FA401930189
:10089000281B390B4A0B5B0BCA01B901158704876A
:1008A000F20124853585442737FD4095542F0E9459
:1008B00075177B018C0142E015950795F794E79435
:1008C0004A95D1F7F20120813181442737FD4095C7
:1008D000542FC401B3010E94751733E09595879595
:1008E000779567953A95D1F7E60EF71E081F191F01
:1008F000F20126813781442737FD4095542FC601E8
:10090000B5010E94751726E09595879577956795AF
:100910002A95D1F7E60EF71E081F191FE981FA8103
:10092000028804C015950795F794E7940A94D2F7C6
:10093000ED81FE81F3A6E2A63296FE83ED8324E0EC
:1009400030E0220E331E42E050E0440E551E8B81F3
:100950009C814816590609F05DCF2696E2E10C9479
:10096000ED17A6E0B0E0E7EBF4E00C94E117CE0160
:100970000196BE016D5F7F4FAE014B5F5F4F0E94DE
:1009800070028B819C81909581959F4F9093CE01B1
:100990008093CD0149815A8166277727641B750BA7
:1009A0007093D0016093CF012D813E813093D201AD
:1009B0002093D1018091FD019091FE01823091053B
:1009C00019F00397B1F409C03093D0012093CF01FF
:1009D0005093D2014093D1010CC088279927821BE4
:1009E000930B9093D0018093CF017093D2016093C9
:1009F000D1012696E2E00C94FD1781E040E85AE12F
:100A000066E070E00E948C010E944B02882349F44A
:100A100085E080934E0288EC90E09093550280939D
:100A2000540208950F931F93CF93DF93FC0110821C
:100A3000772767FD709572836183DC01EC0140E0EC
:100A400050E00FEF1FE760E070E80CC012961C93B7
:100A50000E9311971A967C936E9319971F86188A96
:100A6000198A1A8A9A014F5F5F4F129624968181E4
:100A700092812817390754F314A613A6DF91CF915A
:100A80001F910F910895A0E0B0E0E9E4F5E00C9427
:100A9000D9177C018C01EB01F70160E070E02BC0FD
:100AA0002181328188819981281739070CF4C90185
:100AB000928381832185328588819981821793076A
:100AC0000CF4C9019287818729913991442737FD18
:100AD0004095542FD8011F96AD90BD90CD90DC90DD
:100AE0005297A20EB31EC41ED51E1F96AD92BD9284
:100AF000CD92DC9252979B016F5F7F4F32960C5FD5
:100B00001F4FD70111968D919C9112972817390785
:100B10003CF2CDB7DEB7EAE00C94F517A0E0B0E008
:100B2000E4E9F5E00C94DB17EC017C0153E2C52EFF
:100B3000D12CC80ED91E00E010E011C02BA53CA599
:100B4000442737FD4095542FF701678570898189C7
:100B500092890E94B617F601219331936F01980193
:100B60000F5F1F4F84E090E0E80EF91E89819A81A3
:100B7000281739071CF3CDB7DEB7E8E00C94F71758
:100B8000CF93DF93FC01EB0161817281A0E040E033
:100B900050E00DC08385948523813481821B930BA3
:100BA0008C179D070CF4AF5F4F5F5F4F329646176F
:100BB000570784F320E08A2F992787FD90958617A1
:100BC000970709F421E0822FDF91CF910895A8E0E3
:100BD000B0E0EDEEF5E00C94DF178C01809194010C
:100BE000909195019A8389838091980190919901C0
:100BF0009C838B8380919A0190919B019E838D832E
:100C0000809196019091970198878F83C801BE01CA
:100C10006F5F7F4F0E944305F80183A594A501965D
:100C200094A783A78436910551F5C80164E170E06B
:100C30000E94C0058823F9F0C8010E948E05F801C2
:100C400083A194A1909314018093130185A196A18F
:100C5000909316018093150187A190A59093180198
:100C60008093170181A592A590931A018093190191
:100C700081E0808304C0C80164E00E9412052896C8
:100C8000E4E00C94FB17A6E0B0E0E9E4F6E00C9495
:100C9000DF178C018091CD019091CE019A838983D9
:100CA0008091CF019091D0019C838B838091D10161
:100CB0009091D2019E838D83C801BE016F5F7F4FEB
:100CC0000E944305F80183A594A5019694A783A7E4
:100CD0008C52914021F5C80162E370E00E94C0058A
:100CE0008823C9F0C8010E948E05F80183A194A150
:100CF0009093C8018093C70185A196A19093CA01E2
:100D00008093C90187A190A59093CC018093CB01DA
:100D100081E0808304C0C80163E00E94120526962A
:100D2000E4E00C94FB1720910301309104018091C1
:100D30000301909104012817390721F4309395019C
:100D400020939401209105013091060180910501C5
:100D5000909106012817390721F4309399012093C7
:100D6000980120910701309108018091070190912D
:100D700008012817390721F430939B0120939A0129
:100D800020910B0130910C0180910B0190910C018D
:100D90002817390721F430939D0120939C0120915D
:100DA0000D0130910E0180910D0190910E012817D7
:100DB000390721F430939F0120939E0120910F0168
:100DC0003091100180910F0190911001281739077F
:100DD00021F43093A1012093A001209111013091C1
:100DE000120180911101909112012817390721F405
:100DF0003093A3012093A20180913102909132029D
:100E000005974CF4809194019091950190939701EE
:100E10008093960108952091090130910A018091F3
:100E2000090190910A012817390721F4309397019D
:100E3000209396010895A0E0B0E0E1E2F7E00C9481
:100E4000DB17DC01C0903102D0903202F6013297FC
:100E5000E830F10508F0E3C1EC5CFF4F6D917C9147
:100E6000119700919401109195010C940818600F4E
:100E7000711F7093BA016093B9018D919C91119784
:100E80002091960130919701820F931F9093C0019A
:100E90008093BF0112968D919C9113972091980198
:100EA00030919901820F931F9093BC018093BB01F5
:100EB000A8C17801E60EF71EF092BA01E092B901DE
:100EC000E0919601F0919701CD91DC911197CE0FB1
:100ED000DF1FD093C001C093BF014091A401509186
:100EE000A50144525A4F8D919C911197480F591F5B
:100EF00012966D917C911397809198019091990130
:100F0000680F791FCB01840F951F9C01359527959C
:100F1000359527953595279595958795280F391FF0
:100F2000275731403093BC012093BB01461B570B20
:100F3000CA0133E0959587953A95E1F75595479520
:100F4000840F951F84529A4F9093BE018093BD01E8
:100F500020919A0130919B0146E0C416D10409F01A
:100F600060C084E0223E380774F029573540273CA2
:100F7000310518F082E090E002C081E090E0029735
:100F800009F04DC121C08091190190911A01800F83
:100F9000911F8E1B9F0B2091130130911401821B16
:100FA000930B9595879584529A4F9093BA018093AD
:100FB000B9018C5D95402CED35E0281B390B309341
:100FC000C0012093BF012BC12091020112966D91A7
:100FD0007C911397E091A601F091A7016E0F7F1FFE
:100FE000882777FD8095982F30E02058304044279F
:100FF00037FD4095542F0E947517A7E0959587956A
:1010000077956795AA95D1F7E60EF71EF092BA018B
:10101000E092B901C61BD70BD093C001C093BF01AA
:10102000FEC09093BA018093B90114968D919C9162
:101030001597EFC0600F711F7093BA016093B901EB
:101040008D919C9111972091960130919701820F7B
:10105000931F9093C0018093BF0112966D917C9174
:1010600013978091980190919901680F791F1496B8
:101070004D915C91159780919A0190919B01480F39
:10108000591FCA01860F971F9C01F3E035952795DC
:10109000FA95E1F795958795280F391F2757314025
:1010A0003093BC012093BB01461B570BCA01B3E030
:1010B00095958795BA95E1F755954795840F951FB6
:1010C00084529A4FA8C020911301309114011296B6
:1010D000CD91DC9113978091A6019091A701C80F43
:1010E000D91F14960D90BC91A02D8091A8019091CC
:1010F000A901A80FB91F8091090190910A018C5490
:10110000944097FF03C040E050E016C08091090171
:1011100090910A018C54944095958795855F9140F4
:101120001CF044EF51E008C04091090150910A01C0
:101130004C54544055954795F801E452FA4FE21B40
:10114000F30BE60FF71FBE016E0F7F1F9A012A1BDC
:101150003B0B37FF02C020E030E0CB01821B930B3A
:101160009093BA018093B901260F371F3093BC01C9
:101170002093BB01BF016C1B7D0B9A012A0F3B1F03
:1011800037FF02C020E030E0C901860F971F90931F
:10119000C0018093BF01621B730B7093BE0160930B
:1011A000BD013DC0600F711F7093BA016093B9011A
:1011B0008D919C9111972091960130919701820F0A
:1011C000931F9093C0018093BF0112968D919C91C3
:1011D00013972091980130919901820F931F90935A
:1011E000BC018093BB018091A2019091A301129652
:1011F0002D913C911397821B930B9093C401809384
:10120000C30114968D919C91159720919A0130916C
:101210009B01820F931F9093BE018093BD0180912B
:10122000A0019091A1019093C2018093C10189E036
:10123000C816D10441F08091A2019091A30190932E
:10124000C4018093C30180919E0190919F0190936E
:10125000C6018093C501CDB7DEB7E8E00C94F7175F
:10126000AAE0B0E0E6E3F9E00C94DF178091F0012A
:101270009091F1010397A9F5FE0131968AE0DF0113
:101280001D928A95E9F7CF010E941B07AAE8B1E0F9
:1012900009ED11E043EE51E06D917C911197F80159
:1012A00020813181FB0180819181281739070CF45D
:1012B000C901F80191838083FA0120813181FB010A
:1012C00080819181821793070CF4C901FA018193FF
:1012D0009193AF0112960E5F1F4FF1E0A439BF0743
:1012E000D9F683ED91E00E941B0780913102909125
:1012F0003202099711F074E001C075E060E080E00F
:1013000090E0FC01E657FE4FA081B1814D915C91C8
:101310001197FC01E752FE4F0190F081E02D4E172E
:101320005F0754F0FC01ED51FE4F20813181FA013D
:10133000241735070CF4F901ED93FC936F5F0296C7
:101340006717FCF22A96E4E00C94FB178091880260
:10135000882309F050C081E0809388028FEF80934A
:1013600087022FB7F8948091B9019091BA019093B8
:10137000AC018093AB018091BB019091BC01909333
:10138000AE018093AD018091BD019091BE0190931B
:10139000B0018093AF018091BF019091C001909303
:1013A000B2018093B1018091C1019091C2019093EB
:1013B000B4018093B3018091C3019091C4019093D3
:1013C000B6018093B5018091C5019091C6019093BB
:1013D000B8018093B70180916F00826080936F00A5
:1013E000B19A809184009091850004969093890031
:1013F000809388002FBF0895FC0181E08183808362
:1014000085E08283168215821086178208959C01DA
:1014100044E0813B940714F490E00DC08451954062
:101420008159914010F491E006C02850374014F4DF
:101430009FEF06C092E0662319F082E0891B982F87
:10144000892F0895CF93DF93EC018A818B8380915C
:101450009401909195016D810E94070A87FF88830E
:1014600080919801909199016E810E94070A87FFEF
:1014700089838F81882351F48881882329F08230E1
:1014800029F481E08D83188281E08F838885882309
:1014900061F48981882319F0823039F404C081E035
:1014A0008E8382E0898381E0888738813F5F8981EC
:1014B00023E08202C0011124380F3A839B8180E02F
:1014C000391729F081E09295907F932B9C83DF91CF
:1014D000CF910895282F30E03F6F220F331FEFB7D1
:1014E000F8948091840090918500AC01405C5F4F3E
:1014F000BC016D5D7A4F8091840090918500DA0186
:10150000A81BB90B1A161B06B4F320FF02C03898AB
:1015100001C0389A4617570729F036952795455741
:101520005F4FE9CFEFBF0895EFB7F894309917C038
:101530004BC020918400309185002058314C04C06C
:101540008FEF9FEF309B0BC08091840090918500BE
:10155000B901681B790B1616170614F4F1CFAC010C
:1015600041505040CA0101961816190614F34F5FF6
:101570005F4F19F420E030E829C0809184009091F9
:101580008500AC0140565F4F20E030E0BC0163595C
:101590007B4F8091840090918500DA01A81BB90BE4
:1015A0001A161B06B4F3309903C080E090E002C025
:1015B00080E890E036952795282B392B461757075A
:1015C00029F045575F4FE5CF20E030E4EFBFC90178
:1015D0000895EF92FF920F931F93CF93DF93E82E1E
:1015E000192F062FF62E84E20E946A0A802F0E948D
:1015F0006A0A2E2D312FC901EC0104C08991F80E21
:101600000E946A0A9E012E192017C4F38F2D81951E
:101610000E946A0ACDB7DEB7E6E00C94F9178F9204
:101620009F92AF92BF92CF92DF92FF920F931F9340
:10163000CF93DF934C015A01C0E0D0E0C62EDD24E9
:10164000C7FCD09402C0812F182FC5010E94940AB4
:101650009C018070907C892B69F5822FC130D10567
:1016600059F0C230D105A1F0209779F7243259F70B
:10167000812FC1E0D0E0E8CF90E0C816D90614F47D
:10168000812F15C0822FF22EC2E0D0E000E0DCCF27
:10169000F20E812F8150112331F0F401E00FF11D82
:1016A00020830F5FD1CFFF2011F481E004C0C0E0A0
:1016B000D0E0CACF80E0DF91CF911F910F91FF90D2
:1016C000DF90CF90BF90AF909F908F9008951F9321
:1016D000CF93DF93EC01142F44E450E00E940E18E6
:1016E0008881811711F08FEF12C090E020E030E088
:1016F000FE01E20FF31F8081980F2F5F3F4F2434CC
:101700003105B1F7992311F480E001C08EEFDF912C
:10171000CF911F910895DC0190E020E030E0FD01C1
:10172000E20FF31F8081980F2F5F3F4F2334310565
:10173000B1F7AD5BBF4F91959C93A354B040CD01E1
:1017400044E450E00E941E180895A1E1B0E0EBEAE5
:10175000FBE00C94D1171C0181E089838EEE91E0AF
:101760009B838A8302969D838C830D969F838E83B1
:1017700002969987888702969B878A8702969D871B
:101780008C8702969F878E87CE010196998B888BD6
:10179000D090EE01DD0CCC246624EE24FF248701DA
:1017A000F0E88F2EFAE19F2EF6E0AF2EB12CE2E0AA
:1017B0007E2E2C010E94AA009B01AC01DC01CB0112
:1017C0008E199F09A00BB10B88169906AA06BB06B5
:1017D0000CF051C0171424F5872D992787FD90959B
:1017E000FC01E170F07080FD03C088E097E002C06A
:1017F0008CED95E09093BC018093BB018CED95E05E
:101800009093BA018093B901EE0FFF1FEE0FFF1FF7
:10181000EE58FE4F80809180A280B3807A9429C0D8
:10182000DD2039F11D1424F46CE271E0A1E003C065
:1018300064ED7EEFAFEF8D2D992787FD9095FC012C
:10184000E170F07080FF03C08CED95E003C0CB0128
:1018500084529A4F9093BA018093B901EE0FFF1F03
:10186000EE0FFF1FEE58FE4F80809180A280B38064
:10187000DA1A79018A0180918602882329F0109270
:1018800086020E94930602C0662041F08091880281
:10189000882309F08CC00E94A6096624772009F0ED
:1018A00089CFC1010E94220A882309F483CFF10164
:1018B0008481843561F0853520F4823509F063C078
:1018C00013C0863559F0883509F05DC02AC0F1E0B3
:1018D000FC1514F0CC2470C0CA946EC085E08C1541
:1018E0000CF468C0C39468C0AC2DBB27A7FDB095AD
:1018F000FD01EE0FFF1FE40DF51D0180F281E02DCB
:101900008081282F332727FD30952F5F3F4FA65822
:10191000BE4F8C91992787FD909582179307F4F419
:101920001CC0AC2DBB27A7FDB095FD01EE0FFF1F1E
:10193000E40DF51D0180F281E02D8081282F3327F1
:1019400027FD309521503040AE57BE4F8C919927DE
:1019500087FD9095281739070CF49C01208320E01F
:101960008C2D992787FD9095FC01EE0FFF1FE40D4C
:10197000F51D0180F281E02DD080DD0C222319F0CD
:101980000196782E770C8981823009F013CF8DEE85
:1019900091E060E070E00E948B0B8DEE91E060E0E2
:1019A00071E00E948B0B6196E2E10C94ED176624C6
:1019B000639474CFA7E0CA2E21E0D2CFA1E9B0E0B2
:1019C000E4EEFCE00C94D1170E94AA001B012C014C
:1019D000DE011196E4E6F1E086E001900D9281507F
:1019E000E1F78E010D5E1F4FC8010E94FC099CE1CA
:1019F000E92EF12CEC0EFD1EC70164E00E941205D9
:101A000089E4C82ED12CCC0EDD1EC60163E00E94F5
:101A100012052092BA023092BB024092BC02509250
:101A2000BD02C657DF4F288239824A825B82CA587C
:101A3000D040CA57DF4F288239824A825B82C6581B
:101A4000D040CE57DF4F288239824A825B82C2580B
:101A5000D04042013101C258DF4F288239824A8288
:101A60005B82CE57D040EB962CAE3DAE4EAE5FAE15
:101A7000EB97EE961FAEEE97ED961FAEED9721E039
:101A8000EC962FAFEC97C257DF4FE882CE58D0408C
:101A9000C157DF4FF882CF58D040C057DF4F08837F
:101AA000C059D040CF56DF4F1883C159D0400E9453
:101AB000AA005B016C010E941F01809186028823AD
:101AC000A1F4D601C501C657DF4F488159816A810B
:101AD0007B81CA58D040841B950BA60BB70B815352
:101AE0009547A040B0400CF442C0109286020E947C
:101AF00093068C8D882369F0C657DF4FA882B98280
:101B0000CA82DB82CA58D04061E0EE966FAFEE9792
:101B10002EC0C257DF4F8881CE58D040C157DF4F0B
:101B20009881CF58D0400E94E7052A968FAD2A971A
:101B3000882311F492E001C090E020E08C8D88238E
:101B400009F421E0920F90934D0288EC90E090937D
:101B5000530280935202C657DF4FA882B982CA82CD
:101B6000DB82CA58D04091E0EE969FAFEE9780910D
:101B70008802882379F5EE96AFADEE97AA2351F14E
:101B8000A6019501CA57DF4F688179818A819B81BF
:101B9000C658D040261B370B480B590B8091450285
:101BA00090914602A0914702B09148028217930794
:101BB000A407B5077CF40E9430090E94A609CA5701
:101BC000DF4FA882B982CA82DB82C658D040EE9627
:101BD0001FAEEE97D601C501CE57DF4F2881398160
:101BE0004A815B81C258D040821B930BA40BB50B7A
:101BF00081519742A040B04054F10E94B1042A960E
:101C00008FAD2A978823D9F4CE01875B9F4F0E941E
:101C100043062A968FAD2A97882311F492E001C0DB
:101C200090E020E08C8D882309F421E0920F9093BE
:101C30004D0248EC50E05093530240935202CE576D
:101C4000DF4FA882B982CA82DB82C258D040EC96AC
:101C50005FADEC97552309F456C0C057DF4F88811C
:101C6000C059D040CF56DF4F9881C159D0400E9413
:101C7000220A882309F447C0ED966FADED97E62F51
:101C8000FF27E7FDF095E55AFE4F9F898081981761
:101C900021F0ED961FAEED9707C0ED967FADED9765
:101CA0007F5FED967FAFED97ED968FADED97E82FC7
:101CB000FF27E7FDF095E55AFE4F80818F3F81F4C5
:101CC000CE0143960E94A50B2EE088E190E00FB66E
:101CD000F894A895809360000FBE20936000FFCF1A
:101CE000D601C50182199309A409B509815C914EF9
:101CF000A44EB04024F0EC961FAEEC9704C0F1E087
:101D0000EC96FFAFEC978C8D882329F02A968FAD47
:101D10002A978823C9F58091960190919701209187
:101D2000940130919501820F931F209119013091F8
:101D30001A01821B930B2091130130911401821B15
:101D4000930B959587959093A5018093A40180911D
:101D50009801909199012091150130911601821BF3
:101D6000930B9093A7018093A60180919A01909183
:101D70009B012091170130911801821B930B9093C6
:101D8000A9018093A80193CED601C50186199709B0
:101D9000A809B90981519742A040B0400CF41EC374
:101DA00080914302909144028130910559F48091D1
:101DB0009C0190919D01865F95400CF09BC080E056
:101DC00090E00DC0892B09F095C080919C01909105
:101DD0009D01875296400CF48DC081E090E0909375
:101DE000440280934302892B11F084E001C080E01B
:101DF00080934D0268EC70E070935302609352023E
:101E000010929B0210929C0210929D0210929E02D0
:101E10001092A7021092A8021092A9021092AA0290
:101E200010929F021092A0021092A1021092A202A0
:101E30001092AB021092AC021092AD021092AE0260
:101E40001092A3021092A4021092A5021092A60270
:101E50001092AF021092B0021092B1021092B20230
:101E60008091050290910602029709F043C0D601C5
:101E7000C501EB962CAD3DAD4EAD5FADEB97821B32
:101E8000930BA40BB50B8152914AA740B0401CF0B4
:101E9000E7961FAEE797E7964FADE7974F5FE79658
:101EA0004FAFE797433004F18091940190919501F1
:101EB000909314018093130180919801909199015E
:101EC000909316018093150180919A0190919B0146
:101ED000909318018093170180919601909197013A
:101EE00090931A0180931901EB96ACAEBDAECEAEC5
:101EF000DFAEEB972091960130919701809194018C
:101F000090919501280F391F8091190190911A0124
:101F1000281B390B8091130190911401281B390B58
:101F2000359527953093A5012093A4014091980100
:101F3000509199018091150190911601481B590B00
:101F40005093A7014093A601E0919A01F0919B0163
:101F50008091170190911801E81BF90BF093A901EA
:101F6000E093A8018091FF018150682F772767FDDA
:101F70007095C90137FF04C088279927821B930BEE
:101F8000062E02C0880F991F0A94E2F7A1E081395A
:101F90009A0714F080E991E0A0E9B1E0A81BB90B21
:101FA000B887AF83CA0157FF04C088279927841BCD
:101FB000950B062E02C0880F991F0A94E2F7B1E034
:101FC00081399B0714F080E991E0A0E9B1E0A81BFA
:101FD000B90BBA87A987CF01F7FF04C088279927D3
:101FE0008E1B9F0BDC0102C0AA0FBB1F6A95E2F794
:101FF000BD01B1E061397B0714F060E971E0A0E94F
:102000006A2EA1E07A2E661A770A7C866B8680910A
:102010009C0190919D0165E0833C96074CF403EC94
:1020200015E0081B190B71E00139170794F00BC07C
:10203000A6E088329A071CF400E010E00AC0B7E07E
:1020400086389B071CF000E911E003C08C01055F96
:102050001540809043029090440261E086169104FE
:1020600059F08114910409F04FC0809103029091BE
:102070000402029709F048C080910102082E02C0B4
:10208000220F331F0A94E2F73E872D87082E02C0E5
:10209000440F551F0A94E2F7588B4F87AF0102C0D7
:1020A000440F551F8A95E2F75A8B498B89819A8193
:1020B00097FD05C088279927821B930B01C0C90192
:1020C00090938A02809389028B819C812F85388925
:1020D00097FD05C088279927821B930B01C0C90172
:1020E00090938C0280938B028D819E8197FD03C01B
:1020F000509541955F4F50938E0240938D0271E051
:102100008716910471F055C010928A0210928902CC
:1021100010928C0210928B0210928E0210928D02FD
:1021200048C06F817885882777FD8095982F24EFA8
:102130003FEB40E050E00E947517F9E095958795D8
:1021400077956795FA95D1F76093A7027093A802E7
:102150008093A9029093AA0269857A85882777FDE2
:102160008095982F0E947517E9E09595879577954A
:102170006795EA95D1F76093AB027093AC028093B8
:10218000AD029093AE02B301882777FD8095982F1A
:102190000E94751739E095958795779567953A95DB
:1021A000D1F76093AF027093B0028093B102909325
:1021B000B2022091CD013091CE018091C701909162
:1021C000C801281B390B80E22030380714F02FEFAC
:1021D0003FE1C901A0EE20303A0714F480E090EE10
:1021E0009093900280938F022091CF013091D00183
:1021F0008091C9019091CA01281B390BB0E22030AF
:102200003B0714F02FEF3FE1C901E0EE20303E071D
:1022100014F480E090EE90939202809391022091CA
:10222000D1013091D2018091CB019091CC01281B3A
:10223000390BF0E220303F0714F02FEF3FE1C901E6
:1022400020EE8030920714F480E090EE9093940298
:1022500080939302892819F06DE172E002C06AE070
:1022600072E089E892E00E94F903EE24FF2438012D
:10227000882477FC8094982C87010D521E4FE1E052
:10228000F0E0EC0FFD1FEE0DFF1D608171818827CE
:1022900077FD8095982FF701E757FD4F22A533A5CD
:1022A000442737FD4095542F0E94751727E09595D8
:1022B0008795779567952A95D1F7E7E0F0E0EC0FE1
:1022C000FD1FEE0DFF1D20813181442737FD409514
:1022D000542F0E9475179B01AC01B9E055954795A5
:1022E00037952795BA95D1F7C401B3010E947517A8
:1022F000A9E09595879577956795AA95D1F7D80127
:102300006D937C93E2E0F0E0EE0EFF1EF6E0EF1638
:10231000F10409F0B1CF2091B90212160CF05CC0A3
:102320008091BA029091BB02A091BC02B091BD0213
:10233000B601A501481B590B6A0B7B0BDB01CA01D7
:1023400081549D40A340B0405CF021502093B902DD
:10235000A092BA02B092BB02C092BC02D092BD025F
:102360008091B902992787FD90954091D3015091B2
:10237000D401BC016170707080FF03C026E930E0B9
:1023800002C02AE63FEF240F351F3093D40120937B
:10239000D3014091D5015091D6016115710519F015
:1023A00026E930E002C02AE63FEF240F351F3093C4
:1023B000D6012093D5012091D7013091D801672B08
:1023C00019F48AE69FEF02C086E990E0820F931F1E
:1023D0009093D8018093D70135014601D601C501FC
:1023E000C258DF4F288139814A815B81CE57D04066
:1023F000821B930BA40BB50B8C59914AA740B0409C
:102400000CF455CB80910702803839F4809100019B
:10241000282F30E02058304004C0282F332727FDD4
:10242000309580910802803839F480910101482F5D
:1024300050E04058504004C0482F552747FD509564
:1024400080910902803831F48091020190E0805837
:10245000904003C0992787FD90953A8329835C8338
:102460004B839E838D83295F3F4F2F30310510F4BE
:102470001A8219828B819C8107960F9710F41C8217
:102480001B828D819E8107960F9710F41E821D82FC
:1024900080E00E94A002C258DF4FA882B982CA829F
:1024A000DB82CE57D04003CBA5E6B0E0EAE5F2E10F
:1024B0000C94DB171092800081E0809381003898A3
:1024C000409848E552E000E06E010894C11CD11C20
:1024D00022E0E22EF12CEC0EFD1EC60165E60E9404
:1024E0000F0B882309F441C089818230A9F0833021
:1024F00018F4813029F406C08330B1F08430E9F05B
:1025000010E026C0C70160E870E048E050E00E949B
:102510000E1810E069E01DC0C70160E870E048E0F7
:1025200050E00E941E1813C0C70160E070E04AE04E
:102530000E94670B10E065E40CC0C70160E070E02A
:102540000E948B0BC70160E071E00E948B0B11E0D1
:1025500061E0898180688983C6010E94E90A01E0FF
:1025600044EF51E0112309F4B8CF802FCB59DF4F4E
:10257000E8E00C94F717CF93DF93C0E0D0E0FE01C2
:10258000E55BFE4F808187FD04C0808161E00E9491
:10259000D6162196C830D10591F7DF91CF910895D5
:1025A0001F920F920FB60F9211240F931F932F9328
:1025B0003F934F935F936F937F938F939F93AF93CB
:1025C000BF93EF93FF938091870287FD42C0E09114
:1025D0008702FF27E7FDF095E55BFE4F808160E015
:1025E0000E94421736C0809187028F5F80938702D6
:1025F000E0918702FF27E7FDF095E55BFE4F8081C4
:1026000087FD27C00091840010918500E09187022A
:10261000FF27E7FDF095E55BFE4F808161E00E94BA
:102620004217E0918702FF27E7FDF095EE0FFF1FAD
:10263000E55DFE4F0190F081E02D80819181029750
:10264000880F991F800F911F9093890080938800B5
:102650000BC080918702873034F2109288028091FB
:102660006F008D7F80936F00FF91EF91BF91AF91CD
:102670009F918F917F916F915F914F913F912F919A
:102680001F910F910F900FBE0F901F901895A0E013
:10269000B0E0EDE4F3E10C94DB17182F062F862F42
:1026A00061E00E94D616812F60E00E94D616812F2D
:1026B00061E00E9442176AE070E080E090E00E94D2
:1026C000EA00C0E0D0E0812F992787FD9095FC01BA
:1026D000EA56FF4FE491F0E0EE0FFF1FE457FF4F83
:1026E000C590D49086559F4FFC018491E82EFF241D
:1026F000CE018170182F802F612F0E944217F601A2
:10270000808120E030E090E08E219F21892B11F024
:1027100021E030E0812F992787FD90952817390710
:1027200011F010E005C02196C830D10509F711E07D
:10273000802F60E00E94D616812FCDB7DEB7E8E08B
:102740000C94F717A2E9B0E0E8EAF3E10C94DB1788
:10275000259A8091D1029091D202009711F09C01AC
:1027600002C025ED32E0CE010196821B930B80382A
:1027700091054CF484E180934E028EE190E09093B9
:1027800055028093540284B7877F84BF88E10FB6D7
:10279000F89480936000109260000FBE85E090E096
:1027A0009093EF018093EE018CE380930702809376
:1027B00008028093090281E090E09093F1018093F8
:1027C000F0011092F201EAE6F1E073EFC72E71E03A
:1027D000D72ED60181918D9321E0E237F207D1F710
:1027E00042E050E05093FC014093FB0121E030E0D7
:1027F0003093FE012093FD01309300022093FF01EE
:1028000083E090E0909302028093010230930402EF
:1028100020930302509306024093050284EF91E057
:1028200090930B0280930A021092110210921002F0
:10283000909317028093160290930D0280930C02DE
:1028400010921302109212029093190280931802B0
:1028500090930F0280930E021092150210921402B0
:1028600090931B0280931A0228E020931C029093FD
:102870001E0280931D029093240280932302909362
:102880002A02809329029093200280931F02909342
:1028900026028093250290932C0280932B02909322
:1028A0002202809321029093280280932702909322
:1028B0002E0280932D0220932F0285E066E00E9475
:1028C0004713882311F400E001C007E0CE0103960E
:1028D00060E870E048E050E00E940E18002361F4C8
:1028E0008B81863049F48C819D81AE81BF818E546D
:1028F0009146AC4BB04071F086E08B838EE491E65C
:10290000ACEBB0E08C839D83AE83BF8318861986C1
:102910001A860860CE010B9660E070E04AE00E94E3
:10292000670B87FD0260CE01815B9F4F60E071E025
:102930004AE00E94670B87FD046083E08093B90240
:10294000E02EFF24C701867090708230910531F02F
:102950008430910579F0892B81F119C08E01015BDA
:102960001F4FC80160E070E00E948B0B88858F5F6D
:1029700088870BC08E01055F1F4FC80160E071E0C2
:102980000E948B0B89858F5F8987C80118C08AE0F8
:102990008093ED018DEE91E060E070E00E948B0B82
:1029A0008DEE91E060E071E00E948B0B8A858F5F75
:1029B0008A8789E08093B9020AC0CE010B96ADEEFA
:1029C000B1E0FC0184E401900D928150E1F7C70170
:1029D0008E709070892B41F0CE01039660E870E014
:1029E00048E050E00E941E18E0FE0AC082E00E940B
:1029F000120164E670E080E090E00E947716F6CF66
:102A00000E945412882361F02EE088E190E00FB616
:102A1000F894A895809360000FBE20936000FFCFCC
:102A20001092800082E08093810081E080936F00AB
:102A300085B5887F85BD8091F0019091F10182304C
:102A4000910519F18330910524F4019709F05BC0D9
:102A500007C08330910571F1049709F054C03FC05D
:102A600080E090E048EE53E020ED37E0FC01E752D3
:102A7000FE4F51834083FC01ED51FE4F3183208393
:102A800002968A30910591F73EC080E090E04CE4D8
:102A900054E02CE637E0FC01E752FE4F51834083BF
:102AA000FC01ED51FE4F3183208302968A3091055F
:102AB00091F729C080E090E042EE54E026ED36E048
:102AC000FC01E752FE4F51834083FC01ED51FE4F64
:102AD0003183208302968A30910591F714C080E0FB
:102AE00090E044E853E024E338E0FC01E752FE4F75
:102AF00051834083FC01ED51FE4F318320830296C8
:102B00008A30910591F78091F201992787FD909580
:102B100028EE33E0FC01E29FC001E39F900DF29F9D
:102B2000900D1124AA2797FDA095BA2F80934502F6
:102B300090934602A0934702B0934802A3E3B2E009
:102B4000F60181916F01E82FFF27E7FDF095EE0F69
:102B5000FF1FE55EFE4F808191818D939D93FBEF7A
:102B6000CF16F1E0DF0661F720E030E0F901ED5A21
:102B7000FE4F8081F901E55BFE4F80832F5F3F4F61
:102B80002830310599F70E9440030E945903809133
:102B9000EE019091EF019093320280933102019700
:102BA00031F482E090E09093320280933102809180
:102BB000310280934C0288E592E090935102809319
:102BC00050020E94F00280916F00806280936F003B
:102BD000809181008068809381000E94BB120E94D6
:102BE000FD040E9493060E943009CE56DF4FE8E0B4
:102BF0000C94F717CF93DF930E949B160E94A213A9
:102C0000C0E0D0E00E94DE0C2097E1F30E940000BB
:102C1000F9CF1F920F920FB60F9211242F933F936B
:102C20008F939F93AF93BF938091CC029091CD02ED
:102C3000A091CE02B091CF023091D0020196A11D99
:102C4000B11D232F2D5F2D3720F02D570196A11D8B
:102C5000B11D2093D0028093CC029093CD02A0931B
:102C6000CE02B093CF028091C8029091C902A09188
:102C7000CA02B091CB020196A11DB11D8093C8027A
:102C80009093C902A093CA02B093CB02BF91AF91B7
:102C90009F918F913F912F910F900FBE0F901F909A
:102CA00018959FB7F8942091C8023091C9024091BD
:102CB000CA025091CB0286B5A89B06C08F3F21F077
:102CC0002F5F3F4F4F4F5F4F9FBF542F432F322FE8
:102CD0002227280F311D411D511D82E0220F331F75
:102CE000441F551F8A95D1F7B901CA010895EF9283
:102CF000FF920F931F93CF93DF937B018C010E9470
:102D00005116EB010EC00E9451166C1B7D0B685EC4
:102D10007340C8F30894E108F10801091109C8518A
:102D2000DC4FE114F1040105110569F7CDB7DEB7F9
:102D3000E6E00C94F917789484B5826084BD84B57C
:102D4000816084BD85B5826085BD85B5816085BDA6
:102D5000EEE6F0E0808181608083E1E8F0E01082BF
:102D6000808182608083808181608083E0E8F0E000
:102D7000808181608083E1EBF0E0808184608083EA
:102D8000E0EBF0E0808181608083EAE7F0E0808121
:102D90008460808380818260808380818160808381
:102DA0008081806880831092C1000895CF93DF9363
:102DB000482F50E0CA0186559F4FFC0134914A5676
:102DC0005F4FFA018491882369F190E0880F991F81
:102DD000FC01E858FF4FA591B491FC01EE57FF4F5D
:102DE000C591D491662351F42FB7F8948C91932F09
:102DF000909589238C93888189230BC0623061F47C
:102E00002FB7F8948C91932F909589238C93888178
:102E1000832B88832FBF06C09FB7F8948C91832B98
:102E20008C939FBFDF91CF910895833071F08430F0
:102E300028F48130A1F0823021F514C08630B1F041
:102E40008730D1F08430E9F404C0809180008F771E
:102E500003C0809180008F7D80938000089584B5A9
:102E60008F7702C084B58F7D84BD08958091B000B6
:102E70008F778093B00008958091B0008F7D80930C
:102E8000B0000895FF920F931F93F62E482F50E045
:102E9000CA0182549F4FFC012491CA0186559F4F5D
:102EA000FC0114914A565F4FFA0104910023C9F0C6
:102EB000222319F0822F0E941517E02FF0E0EE0F69
:102EC000FF1FEE57FF4FA591B4919FB7F894FF20D5
:102ED00021F48C911095812302C08C91812B8C93CD
:102EE0009FBF1F910F91FF900895629FD001739F24
:102EF000F001829FE00DF11D649FE00DF11D929F96
:102F0000F00D839FF00D749FF00D659FF00D9927D4
:102F1000729FB00DE11DF91F639FB00DE11DF91FF8
:102F2000BD01CF0111240895A1E21A2EAA1BBB1BDB
:102F3000FD010DC0AA1FBB1FEE1FFF1FA217B30785
:102F4000E407F50720F0A21BB30BE40BF50B661F9B
:102F5000771F881F991F1A9469F76095709580955F
:102F600090959B01AC01BD01CF01089597FB092EFF
:102F700005260ED057FD04D0D7DF0AD0001C38F448
:102F800050954095309521953F4F4F4F5F4F089595
:102F9000F6F790958095709561957F4F8F4F9F4F75
:102FA00008952F923F924F925F926F927F928F92ED
:102FB0009F92AF92BF92CF92DF92EF92FF920F93C8
:102FC0001F93CF93DF93CDB7DEB7CA1BDB0B0FB6D2
:102FD000F894DEBF0FBECDBF09942A88398848888F
:102FE0005F846E847D848C849B84AA84B984C88425
:102FF000DF80EE80FD800C811B81AA81B981CE0F1C
:10300000D11D0FB6F894DEBF0FBECDBFED01089500
:10301000EE0FFF1F0590F491E02D0994DC01CB0128
:10302000FC01F999FECF06C0F2BDE1BDF89A3196D8
:1030300000B40D9241505040B8F70895DC01CB0127
:1030400003C02D910E94291841505040D0F7089597
:10305000262FF999FECF1FBA92BD81BD20BD0FB6B4
:10306000F894FA9AF99A0FBE01960895F894FFCF52
:10307000FFFFFFDC05DC05DC05DC05E803DC05E81B
:1030800003DC05DC05DC05DC05DC05070105010FBB
:103090000103010B0109010D011101AF01AD01B3E4
:1030A00001AB010000B101B701B5010000AA0100A8
:1030B00000000000000000000000000605030AFFF9
:1030C0000B10090605030AFF0B1009788998877809
:1030D000899887FF0000000000000001020304053A
:1030E0000607A0860100801A0600050303030402F8
:1030F00002020101010101010101B901BB01BD0190
:04310000BF01C30147
:00000001FF
