:100000000C9469000C9486000C9486000C949D035B
:100010000C9486000C9427040C9486000C948600A3
:100020000C9486000C9486000C9486000C94CE13DD
:100030000C9486000C9488000C9486000C94860026
:100040000C94D7160C9486000C9486000C948600B1
:100050000C9486000C94BC020C9486000C948600D0
:100060000C9486000C94860035085708180935084A
:10007000570818096109D009000000002400270072
:100080002A0000000000250028002B0000000000CE
:1000900023002600290004040404040404040202CA
:1000A00002020202030303030303010204081020F7
:1000B0004080010204081020010204081020000002
:1000C0000007000201000003040600000000000019
:1000D000000011241FBECFEFD8E0DEBFCDBF11E07E
:1000E000A0E0B1E0ECE0F2E302C005900D92AC3983
:1000F000B107D9F712E0ACE9B1E001C01D92AC3E06
:10010000B107E1F70E94C8160C9404190C94000082
:100110001F920F920FB60F9211248F939F9380918D
:1001200041029091420201969093420280934102D3
:100130008091410290914202892B29F480914302DF
:100140008F5F809343029F918F910F900FBE0F900E
:100150001F90189560918400709185002091410254
:1001600030914202E0914302809184009091850099
:100170008627972797FDEECF80914102909142020A
:100180002817390739F780914302E81719F740E03B
:1001900050E0FFE0220F331F441F551FFA95D1F79F
:1001A0008E2F90E0A0E0B0E0BB278695B795AA27F8
:1001B00099278827282B392B4A2B5B2B7695679517
:1001C000CB01A0E0B0E0282B392B4A2B5B2BB901E7
:1001D000CA010895AF92BF92CF92DF92EF92FF9241
:1001E0000F931F9328EE33E040E050E00E94431845
:1001F0005B016C010E94AA007B018C010E94AA0095
:100200006E197F09800B910B6A157B058C059D0586
:10021000A8F31F910F91FF90EF90DF90CF90BF90C8
:10022000AF900895882321F0813021F42D9A08950C
:100230002D98089585B190E2892785B90895EF92A8
:10024000FF920F931F937B018C018091D9029091B3
:10025000DA02A091DB02B091DC028E199F09A00B9B
:10026000B10B181619061A061B060CF450C0809123
:10027000DD02882321F5E091DE02EF5FE370E09379
:10028000DE02FF27E7FDF095EC5BFD4F80819927AB
:1002900087FD9095880F991F8093DD0280E492E49A
:1002A000AFE0B0E0E80EF91E0A1F1B1FE092D90272
:1002B000F092DA020093DB021093DC0228C0815036
:1002C0008093DD0281700E941201E091DE02FF271F
:1002D000E7FDF095EE0FFF1FE85BFD4F80819181F8
:1002E000AA2797FDA095BA2F2AE0880F991FAA1F69
:1002F000BB1F2A95D1F78E0D9F1DA01FB11F8093A4
:10030000D9029093DA02A093DB02B093DC021F9132
:100310000F91FF90EF9008959A01AB01882311F09F
:10032000459A449A1092B90060E074E284EF90E03C
:100330000E946218205130404040504056954795E9
:10034000379527952093B80008952FEF30E011C01E
:100350002115310561F41092BC00809150029091FA
:1003600051020196909351028093500208952150BA
:1003700030408091BC0087FFEBCF0895FF920F9330
:100380001F93F82E0CEB10E084EAF80180830E94A2
:10039000A501F092BB0084E8F80180830E94A501CA
:1003A0001F910F91FF9008958093BB0084E8809384
:1003B000BC000E94A50108951F93182F882311F4F3
:1003C00084E801C084EC8093BC000E94A501909158
:1003D000BB00112319F484E98093BC00892F1F917D
:1003E00008950F931F93162F042F880F0E94BE01AC
:1003F000812F0E94D401802F0E94D40184E9809330
:10040000BC001F910F9108950F931F93182F062F73
:10041000880F0E94BE01802F0E94D401110F812FEE
:1004200081600E94BE0180E00E94DC011F910F915B
:1004300008951F93CF93DF93EB01142F880F8160F2
:100440000E94BE0108C0115080E011160CF481E03A
:100450000E94DC0189931123B1F7DF91CF911F91A5
:100460000895DF92EF92FF920F931F93E82EF62EDE
:100470008A01D22E880F0E94BE018F2D0E94D401C6
:100480008E2DB8014D2D0E9419021F910F91FF90E2
:10049000EF90DF90089588E66BE640E80E94F10156
:1004A00062E370E080E090E00E94EA0088E66BE69C
:1004B00043E00E94F10188E66AE140E00E94F10118
:1004C00088E66BE148E10E94F10188E665E70E9459
:1004D000040290E08E77883609F491E0892F089520
:1004E000A6E0B0E0E6E7F2E00C94A9188C017B01ED
:1004F0006A0188E663E4AE014F5F5F4F26E00E9429
:100500003102998180E02A8130E0822B932BF8011F
:10051000918380839B8180E02C8130E0822B932B20
:10052000F701918380839D8180E02E8130E0822BD2
:10053000932BF601918380832696E8E00C94C518EE
:10054000282F17C0E22FF0E0EE0FFF1FEE5AFD4FED
:1005500080819181892B61F080917C00887F822B42
:1005600080937C0080917A00806480937A00089563
:100570002F5F263038F308951F920F920FB60F9217
:1005800011242F933F934F935F936F937F938F9398
:100590009F93AF93BF93EF93FF9380917C008770FD
:1005A000E82FF0E0EE0FFF1FEE5AFD4F0190F081B3
:1005B000E02D9091790090838F5F0E94A002FF91BF
:1005C000EF91BF91AF919F918F917F916F915F91CB
:1005D0004F913F912F910F900FBE0F901F90189544
:1005E000E2E5F2E040E050E061E070E0808191817E
:1005F000892B79F087B1DB01042E02C0AA0FBB1F43
:100600000A94E2F79D012095822387B988B12823B7
:1006100028B94F5F5F4F32964630510539F780E673
:1006200080937C0010927B008FE880937A0080E0BA
:100630000E94A0020895CF93DF93EB01DA01FC0141
:1006400040E050E061E070E080819181892B79F099
:100650003881CB01042E02C0880F991F0A94E2F75B
:10066000282F2095232328832C91822B8C934F5F56
:100670005F4F32964830510539F7DF91CF91089599
:100680008EE592E064E270E045E250E00E941B03D8
:100690008BE291E067E270E048E250E00E941B03C9
:1006A0008EE692E06AE270E04BE250E00E941B03AB
:1006B000089560E070E040E050E0A1E0B0E0362F47
:1006C000FA01E25AFD4F0190F081E02D309751F090
:1006D00023B1CD01062E02C0880F991F0A94E2F7BC
:1006E00028232083FA01E55DFE4F0190F081E02D83
:1006F000309751F026B1CD01032E02C0880F991F0B
:100700000A94E2F728232083FA01E259FD4F019071
:10071000F081E02D309749F029B1CD0102C0880F5A
:10072000991F3A95E2F7282320836F5F7F4F4E5F32
:100730005F4F4031510519F608951F920F920FB681
:100740000F921124AF92BF92CF92DF92EF92FF925D
:100750000F931F932F933F934F935F936F937F93C9
:100760008F939F93AF93BF93CF93DF93EF93FF93B9
:1007700000918400109185008091C80293B19093FC
:10078000C8027894292F282780958923ABE3B1E00C
:10079000E9ECF2E060E070E0C22EDD24E82EFF24F8
:1007A00021E0CD91DC911197209779F1C601062EB9
:1007B00002C0959587950A94E2F780FF26C0C7018D
:1007C000062E02C0959587950A94E2F780FF03C034
:1007D000118300831AC080819181A801481B590BA5
:1007E000569547958CE7A82E8CEFB82EA40EB51E13
:1007F00081EBA81684E0B80640F4598348838091C1
:100800007F02681711F420937E026F5F7F4F12966C
:1008100032966830710529F6FF91EF91DF91CF9103
:10082000BF91AF919F918F917F916F915F914F9108
:100830003F912F911F910F91FF90EF90DF90CF90FC
:10084000BF90AF900F900FBE0F901F9018951F9202
:100850000F920FB60F921124CF92DF92EF92FF9278
:100860000F931F932F933F934F935F936F937F93B8
:100870008F939F93AF93BF93CF93DF93EF93FF93A8
:10088000E0908400F09085008091B70299B1909338
:10089000B7027894292F282780958923ABE4B1E00B
:1008A000E8EBF2E060E070E0C22EDD24082F10E0FB
:1008B000CD91DC911197209721F1C601062E02C03F
:1008C000959587950A94E2F780FF1BC0C801062E14
:1008D00002C0959587950A94E2F780FF03C0F182E4
:1008E000E0820FC080819181A701481B590B56956A
:1008F0004795CA0184589340815B944010F4598312
:1009000048836F5F7F4F129632966830710581F68B
:10091000FF91EF91DF91CF91BF91AF919F918F9117
:100920007F916F915F914F913F912F911F910F9107
:10093000FF90EF90DF90CF900F900FBE0F901F9021
:10094000189580916800816080936800EBE3F1E086
:1009500040E050E061E070E080819181892BA1F05E
:1009600020916B00CB01042E02C0880F991F0A94BE
:10097000E2F7282B20936B0034B1282F20952323F6
:1009800024B925B1822B85B94F5F5F4F329648302D
:10099000510511F781E080937F02809168008460A7
:1009A00080936800EBE4F1E040E050E061E070E04B
:1009B00080819181892BA1F020916D00CB01042EC3
:1009C00002C0880F991F0A94E2F7282B20936D002C
:1009D0003AB1282F209523232AB92BB1822B8BB92A
:1009E0004F5F5F4F32964830510511F70895A6E0EA
:1009F000B0E0EDEFF4E00C949F187A8369831C015A
:100A00002B019E838D839B012A5F3F4F3C832B8369
:100A1000ED81FE810681178180819181081B190B70
:100A20003801882477FC8094982CF101828993897D
:100A3000A489B589860D971DA81DB91D268D378DF2
:100A400040A151A1AA24BB246501A21AB30AC40A79
:100A5000D50A8A159B05AC05BD054CF05C016D01FE
:100A6000281739074A075B0714F459016A01F10195
:100A7000A28AB38AC48AD58AED81FE818485958550
:100A8000AA2797FDA095BA2FA4019301281B390B23
:100A90004A0B5B0BCA01B90115870487F201248553
:100AA0003585442737FD4095542F0E9443187B011C
:100AB0008C0152E015950795F794E7945A95D1F774
:100AC000F20120813181442737FD4095542FC40124
:100AD000B3010E94431843E09595879577956795F4
:100AE0004A95D1F7E60EF71E081F191FF20126815D
:100AF0003781442737FD4095542FC601B5010E9428
:100B0000431836E095958795779567953A95D1F78F
:100B1000E60EF71E081F191FE981FA81028804C03A
:100B200015950795F794E7940A94D2F7ED81FE8125
:100B3000F3A6E2A63296FE83ED8324E030E0220E97
:100B4000331E42E050E0440E551E8B819C814816B6
:100B5000590609F05DCF2696E2E10C94BB18A6E099
:100B6000B0E0E5EBF5E00C94AF18CE010196BE01C4
:100B70006D5F7F4FAE014B5F5F4F0E9470028B81B4
:100B80009C81909581959F4F9093D6018093D5013C
:100B900049815A8166277727641B750B7093D801AA
:100BA0006093D7012D813E813093DA012093D901E2
:100BB00080910502909106028230910519F0039709
:100BC000B1F409C03093D8012093D7015093DA01D2
:100BD0004093D9010CC088279927821B930B9093CF
:100BE000D8018093D7017093DA016093D9012696DA
:100BF000E2E00C94CB1881E040E85AE166E070E056
:100C00000E948C010E944B02882349F485E0809366
:100C1000460288EC90E090934D0280934C02089538
:100C20000F931F93CF93DF93FC011082772767FD0B
:100C3000709572836183DC01EC0140E050E00FEFBE
:100C40001FE760E070E80CC012961C930E9311979A
:100C50001A967C936E9319971F86188A198A1A8A96
:100C60009A014F5F5F4F12962496818192812817D7
:100C7000390754F314A613A6DF91CF911F910F915A
:100C80000895A0E0B0E0E7E4F6E00C94A7187C013A
:100C90008C01EB01F70160E070E02BC02181328113
:100CA00088819981281739070CF4C90192838183BF
:100CB0002185328588819981821793070CF4C901B7
:100CC0009287818729913991442737FD4095542F88
:100CD000D8011F96AD90BD90CD90DC905297A20E9A
:100CE000B31EC41ED51E1F96AD92BD92CD92DC924E
:100CF00052979B016F5F7F4F32960C5F1F4FD7015A
:100D000011968D919C911297281739073CF2CDB717
:100D1000DEB7EAE00C94C318A0E0B0E0E2E9F6E048
:100D20000C94A918EC017C0163E2C62ED12CC80EEC
:100D3000D91E00E010E011C02BA53CA5442737FDCB
:100D40004095542FF70167857089818992890E94A7
:100D50008418F601219331936F0198010F5F1F4FA3
:100D600084E090E0E80EF91E89819A8128173907FE
:100D70001CF3CDB7DEB7E8E00C94C518CF93DF9332
:100D8000FC01EB0161817281A0E040E050E00DC008
:100D90008385948523813481821B930B8C179D0757
:100DA0000CF4AF5F4F5F5F4F32964617570784F3DF
:100DB00020E08A2F992787FD90958617970709F4D9
:100DC00021E0822FDF91CF910895A8E0B0E0EBEE13
:100DD000F6E00C94AD188C0180919C0190919D01DE
:100DE0009A8389838091A0019091A1019C838B8338
:100DF0008091A2019091A3019E838D8380919E0199
:100E000090919F0198878F83C801BE016F5F7F4FCC
:100E10000E944106F80183A594A5019694A783A793
:100E20008436910551F5C80164E170E00E94BE0668
:100E30008823F9F0C8010E948C06F80183A194A1CF
:100E4000909314018093130185A196A190931601AC
:100E50008093150187A190A59093180180931701A5
:100E600081A592A590931A018093190181E0808356
:100E700004C0C80164E00E9410062896E4E00C94C7
:100E8000C918A6E0B0E0E7E4F7E00C94AD188C01D7
:100E90008091D5019091D6019A8389838091D70161
:100EA0009091D8019C838B838091D9019091DA0134
:100EB0009E838D83C801BE016F5F7F4F0E944106F4
:100EC000F80183A594A5019694A783A78C5291401D
:100ED00021F5C80162E370E00E94BE068823C9F0D4
:100EE000C8010E948C06F80183A194A19093D001BF
:100EF0008093CF0185A196A19093D2018093D101D7
:100F000087A190A59093D4018093D30181E0808341
:100F100004C0C80163E00E9410062696E4E00C9429
:100F2000C91820910301309104018091030190912F
:100F300004012817390721F430939D0120939C0167
:100F400020910501309106018091050190910601E3
:100F50002817390721F43093A1012093A001209193
:100F6000070130910801809107019091080128172D
:100F7000390721F43093A3012093A20120910B01A2
:100F800030910C0180910B0190910C0128173907C9
:100F900021F43093A5012093A40120910D013091FB
:100FA0000E0180910D0190910E012817390721F44F
:100FB0003093A7012093A60120910F0130911001D9
:100FC00080910F01909110012817390721F4309377
:100FD000A9012093A8012091110130911201809163
:100FE0001101909112012817390721F43093AB01B8
:100FF0002093AA018091390290913A0205974CF40E
:1010000080919C0190919D0190939F0180939E01FE
:1010100008952091090130910A0180910901909170
:101020000A012817390721F430939F0120939E016C
:101030000895A0E0B0E0EFE1F8E00C94A918DC011D
:10104000C0903902D0903A02F6013297E830F105AB
:1010500008F0E3C1EC5CFF4F6D917C91119700911A
:101060009C0110919D010C94D618600F711F709314
:10107000C2016093C1018D919C91119720919E01B5
:1010800030919F01820F931F9093C8018093C701F5
:1010900012968D919C9113972091A0013091A101FE
:1010A000820F931F9093C4018093C301A8C178015C
:1010B000E60EF71EF092C201E092C101E0919E019E
:1010C000F0919F01CD91DC911197CE0FDF1FD0934E
:1010D000C801C093C7014091AC015091AD01445289
:1010E0005A4F8D919C911197480F591F12966D91EF
:1010F0007C9113978091A0019091A101680F791FB5
:10110000CB01840F951F9C01359527953595279523
:101110003595279595958795280F391F2757314085
:101120003093C4012093C301461B570BCA0133E01F
:10113000959587953A95E1F755954795840F951FB5
:1011400084529A4F9093C6018093C5012091A201C9
:101150003091A30146E0C416D10409F060C084E0D8
:10116000223E380774F029573540273C310518F0E6
:1011700082E090E002C081E090E0029709F04DC16A
:1011800021C08091190190911A01800F911F8E1B2F
:101190009F0B2091130130911401821B930B9595A5
:1011A000879584529A4F9093C2018093C1018C5DC0
:1011B00095402CED35E0281B390B3093C801209366
:1011C000C7012BC12091020112966D917C9113975A
:1011D000E091AE01F091AF016E0F7F1F882777FD80
:1011E0008095982F30E020583040442737FD4095B7
:1011F000542F0E944318A7E095958795779567959A
:10120000AA95D1F7E60EF71EF092C201E092C10155
:10121000C61BD70BD093C801C093C701FEC09093E3
:10122000C2018093C10114968D919C911597EFC0D6
:10123000600F711F7093C2016093C1018D919C91E9
:10124000119720919E0130919F01820F931F9093DF
:10125000C8018093C70112966D917C91139780917C
:10126000A0019091A101680F791F14964D915C9196
:1012700015978091A2019091A301480F591FCA01AF
:10128000860F971F9C01F3E035952795FA95E1F7B6
:1012900095958795280F391F275731403093C40102
:1012A0002093C301461B570BCA01B3E09595879560
:1012B000BA95E1F755954795840F951F84529A4F3B
:1012C000A8C020911301309114011296CD91DC91A8
:1012D00013978091AE019091AF01C80FD91F14965A
:1012E0000D90BC91A02D8091B0019091B101A80FFB
:1012F000B91F8091090190910A018C54944097FF85
:1013000003C040E050E016C08091090190910A01AD
:101310008C54944095958795855F91401CF044EFDF
:1013200051E008C04091090150910A014C545440C9
:1013300055954795F801E452FA4FE21BF30BE60F7F
:10134000F71FBE016E0F7F1F9A012A1B3B0B37FF51
:1013500002C020E030E0CB01821B930B9093C201CE
:101360008093C101260F371F3093C4012093C3011E
:10137000BF016C1B7D0B9A012A0F3B1F37FF02C078
:1013800020E030E0C901860F971F9093C801809339
:10139000C701621B730B7093C6016093C5013DC00A
:1013A000600F711F7093C2016093C1018D919C9178
:1013B000119720919E0130919F01820F931F90936E
:1013C000C8018093C70112968D919C91139720912B
:1013D000A0013091A101820F931F9093C4018093CB
:1013E000C3018091AA019091AB0112962D913C917D
:1013F0001397821B930B9093CC018093CB0114968F
:101400008D919C9115972091A2013091A301820F9B
:10141000931F9093C6018093C5018091A80190917C
:10142000A9019093CA018093C90189E0C816D1042B
:1014300041F08091AA019091AB019093CC018093EF
:10144000CB018091A6019091A7019093CE0180934A
:10145000CD01CDB7DEB7E8E00C94C518AAE0B0E046
:10146000E4E3FAE00C94AD188091F8019091F90151
:101470000397A9F5FE0131968AE0DF011D928A9556
:10148000E9F7CF010E941908A2E9B1E001EE11E0ED
:101490004BEE51E06D917C911197F80120813181E3
:1014A000FB0180819181281739070CF4C901F801EB
:1014B00091838083FA0120813181FB0180819181B8
:1014C000821793070CF4C901FA0181939193AF013C
:1014D00012960E5F1F4FF1E0AC39BF07D9F68BEDC6
:1014E00091E00E9419088091390290913A0209977F
:1014F00011F074E001C075E060E080E090E0FC0174
:10150000EE56FE4FA081B1814D915C911197FC0187
:10151000EF51FE4F0190F081E02D4E175F0754F020
:10152000FC01E551FE4F20813181FA012417350776
:101530000CF4F901ED93FC936F5F02966717FCF2D0
:101540002A96E4E00C94C91880918102882309F05E
:1015500050C081E0809381028FEF809380022FB78B
:10156000F8948091C1019091C2019093B40180934D
:10157000B3018091C3019091C4019093B60180930F
:10158000B5018091C5019091C6019093B8018093F7
:10159000B7018091C7019091C8019093BA018093DF
:1015A000B9018091C9019091CA019093BC018093C7
:1015B000BB018091CB019091CC019093BE018093AF
:1015C000BD018091CD019091CE019093C001809397
:1015D000BF0180916F00826080936F00B19A80910B
:1015E00084009091850004969093890080938800F0
:1015F0002FBF0895FC0181E08183808385E0828391
:10160000168215821086178208959C0144E0813B62
:10161000940714F490E00DC0845195408159914095
:1016200010F491E006C02850374014F49FEF06C034
:1016300092E0662319F082E0891B982F892F089584
:10164000CF93DF93EC018A818B8380919C019091F1
:101650009D016D810E94050B87FF88838091A00109
:101660009091A1016E810E94050B87FF89838F8174
:10167000882351F48881882329F0823029F481E07D
:101680008D83188281E08F838885882361F4898126
:10169000882319F0823039F404C081E08E8382E01F
:1016A000898381E0888738813F5F898123E08202D6
:1016B000C0011124380F3A839B8180E0391729F04B
:1016C00081E09295907F932B9C83DF91CF91089539
:1016D000282F30E03F6F220F331FEFB7F89480912F
:1016E000840090918500AC01405C5F4FBC016D5D52
:1016F0007A4F8091840090918500DA01A81BB90B84
:101700001A161B06B4F320FF02C0389801C0389A9D
:101710004617570729F03695279545575F4FE9CF6C
:10172000EFBF0895EFB7F894309917C04BC02091E0
:101730008400309185002058314C04C08FEF9FEF1A
:10174000309B0BC08091840090918500B901681B8B
:10175000790B1616170614F4F1CFAC014150504026
:10176000CA0101961816190614F34F5F5F4F19F45A
:1017700020E030E829C08091840090918500AC0180
:1017800040565F4F20E030E0BC0163597B4F8091B1
:10179000840090918500DA01A81BB90B1A161B066C
:1017A000B4F3309903C080E090E002C080E890E09C
:1017B00036952795282B392B4617570729F045577B
:1017C0005F4FE5CF20E030E4EFBFC9010895EF920D
:1017D000FF920F931F93CF93DF93E82E192F062FBD
:1017E000F62E84E20E94680B802F0E94680B2E2D3B
:1017F000312FC901EC0104C08991F80E0E94680BD9
:101800009E012E192017C4F38F2D81950E94680B1D
:10181000CDB7DEB7E6E00C94C7188F929F92AF92D7
:10182000BF92CF92DF92FF920F931F93CF93DF93DC
:101830004C015A01C0E0D0E0C62EDD24C7FCD09494
:1018400002C0812F182FC5010E94920B9C0180704D
:10185000907C892B69F5822FC130D10559F0C230B7
:10186000D105A1F0209779F7243259F7812FC1E0F3
:10187000D0E0E8CF90E0C816D90614F4812F15C047
:10188000822FF22E00E0C2E0D0E0DCCFF20E812FFA
:101890008150112331F0F401E00FF11D20830F5F1F
:1018A000D1CFFF2011F481E004C0C0E0D0E0CACF66
:1018B00080E0DF91CF911F910F91FF90DF90CF904B
:1018C000BF90AF909F908F9008951F93CF93DF9319
:1018D000EC01142F44E450E00E94DC188881811749
:1018E00011F08FEF12C090E020E030E0FE01E20F37
:1018F000F31F8081980F2F5F3F4F24343105B1F7DC
:10190000992311F480E001C08EEFDF91CF911F91F8
:101910000895DC0190E020E030E0FD01E20FF31FCC
:101920008081980F2F5F3F4F23343105B1F7AD5BB6
:10193000BF4F91959C93A354B040CD0144E450E037
:101940000E94EC180895A1E1B0E0E9EAFCE00C94F3
:101950009F181C0181E0898386EF91E09B838A8335
:1019600002969D838C830D969F838E830296998722
:10197000888702969B878A8702969D878C87029626
:101980009F878E87CE010196998B888BD090F60128
:10199000DD0CCC246624EE24FF248701F0E88F2E92
:1019A000FAE19F2EF6E0AF2EB12CE2E07E2E2C0164
:1019B0000E94AA009B01AC01DC01CB018E199F099A
:1019C000A00BB10B88169906AA06BB060CF051C0F5
:1019D000171424F5872D992787FD9095FC01E17058
:1019E000F07080FD03C088E097E002C08CED95E0C8
:1019F0009093C4018093C3018CED95E09093C20154
:101A00008093C101EE0FFF1FEE0FFF1FE658FE4F40
:101A100080809180A280B3807A9429C0DD2039F142
:101A20001D1424F46CE271E0A1E003C064ED7EEFCC
:101A3000AFEF8D2D992787FD9095FC01E170F07037
:101A400080FF03C08CED95E003C0CB0184529A4F18
:101A50009093C2018093C101EE0FFF1FEE0FFF1F95
:101A6000E658FE4F80809180A280B380DA1A790117
:101A70008A0180917E02882329F010927E020E94C2
:101A8000910702C0662041F080918102882309F00D
:101A90008CC00E94A40A6624772009F089CFC10176
:101AA0000E94200B882309F483CFF10184818435BF
:101AB00061F0853520F4823509F063C013C08635A6
:101AC00059F0883509F05DC02AC0F1E0FC1514F02A
:101AD000CC2470C0CA946EC085E08C150CF468C02C
:101AE000C39468C0AC2DBB27A7FDB095FD01EE0FD8
:101AF000FF1FE40DF51D0180F281E02D8081282F6C
:101B0000332727FD30952F5F3F4FAE57BE4F8C9147
:101B1000992787FD909582179307F4F41CC0AC2D8C
:101B2000BB27A7FDB095FD01EE0FFF1FE40DF51DCE
:101B30000180F281E02D8081282F332727FD309509
:101B400021503040A657BE4F8C91992787FD909524
:101B5000281739070CF49C01208320E08C2D99274D
:101B600087FD9095FC01EE0FFF1FE40DF51D018030
:101B7000F281E02DD080DD0C222319F00196782E21
:101B8000770C8981823009F013CF85EF91E060E016
:101B900070E00E94890C85EF91E060E071E00E94A6
:101BA000890C6196E2E10C94BB186624639474CFAF
:101BB000A7E0CA2E21E0D2CFA1E9B0E0E2EEFDE03D
:101BC0000C949F180E94AA001B012C01DE011196A3
:101BD000ECE6F1E086E001900D928150E1F78E0194
:101BE0000D5E1F4FC8010E94FA0A9CE1E92EF12CFC
:101BF000EC0EFD1EC70164E00E94100689E4C82EA9
:101C0000D12CCC0EDD1EC60163E00E94100620928E
:101C1000B3023092B4024092B5025092B602C65757
:101C2000DF4F288239824A825B82CA58D040CA5725
:101C3000DF4F288239824A825B82C658D040CE5715
:101C4000DF4F288239824A825B82C258D0404201EB
:101C50003101C258DF4F288239824A825B82CE57D7
:101C6000D040EB962CAE3DAE4EAE5FAEEB97EE960F
:101C70001FAEEE97ED961FAEED9721E0EC962FAFDD
:101C8000EC97C257DF4FE882CE58D040C157DF4FA4
:101C9000F882CF58D040C057DF4F0883C059D0409A
:101CA000CF56DF4F1883C159D0400E94AA005B0174
:101CB0006C010E941F0180917E028823A1F4D6014D
:101CC000C501C657DF4F488159816A817B81CA5857
:101CD000D040841B950BA60BB70B81539547A040B2
:101CE000B0400CF442C010927E020E9491078C8D8D
:101CF000882369F0C657DF4FA882B982CA82DB8287
:101D0000CA58D04061E0EE966FAFEE972EC0C25732
:101D1000DF4F8881CE58D040C157DF4F9881CF58D0
:101D2000D0400E94E5062A968FAD2A97882311F4A9
:101D300092E001C090E020E08C8D882309F421E03E
:101D4000920F9093450288EC90E090934B02809321
:101D50004A02C657DF4FA882B982CA82DB82CA58BC
:101D6000D04091E0EE969FAFEE978091810288235C
:101D700079F5EE96AFADEE97AA2351F1A601950144
:101D8000CA57DF4F688179818A819B81C658D040CC
:101D9000261B370B480B590B80913D0290913E0258
:101DA000A0913F02B091400282179307A407B507A4
:101DB0007CF40E942E0A0E94A40ACA57DF4FA88210
:101DC000B982CA82DB82C658D040EE961FAEEE972B
:101DD000D601C501CE57DF4F288139814A815B8109
:101DE000C258D040821B930BA40BB50B8151974274
:101DF000A040B04054F10E94AF052A968FAD2A97BB
:101E00008823D9F4CE01875B9F4F0E9441072A9611
:101E10008FAD2A97882311F492E001C090E020E072
:101E20008C8D882309F421E0920F9093450248ECB1
:101E300050E050934B0240934A02CE57DF4FA882A6
:101E4000B982CA82DB82C258D040EC965FADEC9773
:101E5000552309F456C0C057DF4F8881C059D04080
:101E6000CF56DF4F9881C159D0400E94200B882364
:101E700009F447C0ED966FADED97E62FFF27E7FD1C
:101E8000F095ED59FE4F9F898081981721F0ED96CE
:101E90001FAEED9707C0ED967FADED977F5FED9696
:101EA0007FAFED97ED968FADED97E82FFF27E7FD1C
:101EB000F095ED59FE4F80818F3F81F4CE0143961E
:101EC0000E94A30C2EE088E190E00FB6F894A8954C
:101ED000809360000FBE20936000FFCFD601C50144
:101EE00082199309A409B509815C914EA44EB040B2
:101EF00024F0EC961FAEEC9704C0F1E0EC96FFAF37
:101F0000EC978C8D882329F02A968FAD2A97882309
:101F1000C9F580919E0190919F0120919C01309183
:101F20009D01820F931F2091190130911A01821B8C
:101F3000930B2091130130911401821B930B959503
:101F400087959093AD018093AC018091A001909111
:101F5000A1012091150130911601821B930B9093E2
:101F6000AF018093AE018091A2019091A3012091D5
:101F7000170130911801821B930B9093B10180934C
:101F8000B00193CED601C50186199709A809B909F0
:101F900081519742A040B0400CF41EC380913B0297
:101FA00090913C028130910559F48091A401909167
:101FB000A501865F95400CF09BC080E090E00DC0CD
:101FC000892B09F095C08091A4019091A5018752B9
:101FD00096400CF48DC081E090E090933C02809399
:101FE0003B02892B11F084E001C080E08093450220
:101FF00068EC70E070934B0260934A021092940276
:102000001092950210929602109297021092A002DE
:102010001092A1021092A2021092A30210929802B2
:102020001092990210929A0210929B021092A402AE
:102030001092A5021092A6021092A70210929C0282
:1020400010929D0210929E0210929F021092A8027E
:102050001092A9021092AA021092AB0280910D0276
:1020600090910E02029709F043C0D601C501EB968C
:102070002CAD3DAD4EAD5FADEB97821B930BA40B2A
:10208000B50B8152914AA740B0401CF0E7961FAEB5
:10209000E797E7964FADE7974F5FE7964FAFE79724
:1020A000433004F180919C0190919D019093140123
:1020B000809313018091A0019091A101909316014A
:1020C000809315018091A2019091A3019093180132
:1020D0008093170180919E0190919F0190931A0126
:1020E00080931901EB96ACAEBDAECEAEDFAEEB97F2
:1020F00020919E0130919F0180919C0190919D01C2
:10210000280F391F8091190190911A01281B390B52
:102110008091130190911401281B390B3595279557
:102120003093AD012093AC014091A0015091A101E9
:102130008091150190911601481B590B5093AF01E6
:102140004093AE01E091A201F091A30180911701AB
:1021500090911801E81BF90BF093B101E093B001E5
:10216000809107028150682F772767FD7095C9011C
:1021700037FF04C088279927821B930B062E02C0C5
:10218000880F991F0A94E2F7A1E081399A0714F0A9
:1021900080E991E0A0E9B1E0A81BB90BB887AF8353
:1021A000CA0157FF04C088279927841B950B062E68
:1021B00002C0880F991F0A94E2F7B1E081399B07AA
:1021C00014F080E991E0A0E9B1E0A81BB90BBA874F
:1021D000A987CF01F7FF04C0882799278E1B9F0B83
:1021E000DC0102C0AA0FBB1F6A95E2F7BD01B1E096
:1021F00061397B0714F060E971E0A0E96A2EA1E083
:102200007A2E661A770A7C866B868091A40190915B
:10221000A50165E0833C96074CF403EC15E0081B30
:10222000190B71E00139170794F00BC0A6E0883252
:102230009A071CF400E010E00AC0B7E086389B075C
:102240001CF000E911E003C08C01055F154080908F
:102250003B0290903C0261E08616910459F0811493
:10226000910409F04FC080910B0290910C020297EB
:1022700009F048C080910902082E02C0220F331FC6
:102280000A94E2F73E872D87082E02C0440F551F9F
:102290000A94E2F7588B4F87AF0102C0440F551FD5
:1022A0008A95E2F75A8B498B89819A8197FD05C0FF
:1022B00088279927821B930B01C0C9019093830241
:1022C000809382028B819C812F85388997FD05C080
:1022D00088279927821B930B01C0C901909385021F
:1022E000809384028D819E8197FD03C05095419516
:1022F0005F4F509387024093860271E087169104E6
:1023000071F055C0109283021092820210928502E1
:1023100010928402109287021092860248C06F8148
:102320007885882777FD8095982F24EF3FEB40E054
:1023300050E00E944318F9E0959587957795679549
:10234000FA95D1F76093A0027093A1028093A20244
:102350009093A30269857A85882777FD8095982FC9
:102360000E944318E9E09595879577956795EA95DA
:10237000D1F76093A4027093A5028093A602909374
:10238000A702B301882777FD8095982F0E944318F4
:1023900039E095958795779567953A95D1F760934C
:1023A000A8027093A9028093AA029093AB02209195
:1023B000D5013091D6018091CF019091D001281B99
:1023C000390B80E22030380714F02FEF3FE1C901CC
:1023D000A0EE20303A0714F480E090EE909389024A
:1023E000809388022091D7013091D8018091D1014A
:1023F0009091D201281B390BB0E220303B0714F03A
:102400002FEF3FE1C901E0EE20303E0714F480E0F9
:1024100090EE90938B0280938A022091D9013091A3
:10242000DA018091D3019091D401281B390BF0E29D
:1024300020303F0714F02FEF3FE1C90120EE80303C
:10244000920714F480E090EE90938D0280938C02BA
:10245000892819F065E272E002C062E172E082E868
:1024600092E00E94F704EE24FF243801882477FCD0
:102470008094982C870105521E4FE1E0F0E0EC0FAC
:10248000FD1FEE0DFF1D60817181882777FD80950E
:10249000982FF701EE57FD4F22A533A5442737FDAE
:1024A0004095542F0E94431827E09595879577957E
:1024B00067952A95D1F7E7E0F0E0EC0FFD1FEE0DF0
:1024C000FF1D20813181442737FD4095542F0E9404
:1024D00043189B01AC01B9E0559547953795279571
:1024E000BA95D1F7C401B3010E944318A9E09595AC
:1024F000879577956795AA95D1F7D8016D937C93C9
:10250000E2E0F0E0EE0EFF1EF6E0EF16F10409F057
:10251000B1CF2091B20212160CF05CC08091B302D0
:102520009091B402A091B502B091B602B601A50196
:10253000481B590B6A0B7B0BDB01CA0181549D4080
:10254000A340B0405CF021502093B202A092B302AD
:10255000B092B402C092B502D092B6028091B2029B
:10256000992787FD90954091DB015091DC01BC01DA
:102570006170707080FF03C026E930E002C02AE677
:102580003FEF240F351F3093DC012093DB01409196
:10259000DD015091DE016115710519F026E930E089
:1025A00002C02AE63FEF240F351F3093DE0120934F
:1025B000DD012091DF013091E001672B19F48AE6FB
:1025C0009FEF02C086E990E0820F931F9093E00195
:1025D0008093DF0135014601D601C501C258DF4FA6
:1025E000288139814A815B81CE57D040821B930B71
:1025F000A40BB50B8C59914AA740B0400CF455CBB5
:1026000080910F02803839F480910001282F30E04A
:102610002058304004C0282F332727FD3095809163
:102620001002803839F480910101482F50E0405861
:10263000504004C0482F552747FD50958091110206
:10264000803831F48091020190E08058904003C0BE
:10265000992787FD90953A8329835C834B839E83DA
:102660008D83295F3F4F2F30310510F41A82198274
:102670008B819C8107960F9710F41C821B828D81A1
:102680009E8107960F9710F41E821D8280E00E94A3
:10269000A002C258DF4FA882B982CA82DB82CE571D
:1026A000D04003CBA5E6B0E0E8E5F3E10C94A9182F
:1026B0001092800081E0809381003898409848E52E
:1026C00052E000E06E010894C11CD11C22E0E22E11
:1026D000F12CEC0EFD1EC60165E60E940D0C882350
:1026E00009F441C089818230A9F0833018F4813027
:1026F00029F406C08330B1F08430E9F010E026C040
:10270000C70160E870E048E050E00E94DC1810E08B
:1027100069E01DC0C70160E870E048E050E00E9439
:10272000EC1813C0C70160E070E04AE00E94650C3D
:1027300010E065E40CC0C70160E070E00E94890C05
:10274000C70160E071E00E94890C11E061E08981BD
:1027500080688983C6010E94E70B01E044EF51E0E5
:10276000112309F4B8CF802FCB59DF4FE8E00C9448
:10277000C518CF93DF93C0E0D0E0FE01E55AFE4FCD
:10278000808187FD04C0808161E00E94A4172196AA
:10279000C830D10591F7DF91CF9108951F920F9224
:1027A0000FB60F9211240F931F932F933F934F93C4
:1027B0005F936F937F938F939F93AF93BF93EF93A9
:1027C000FF938091800287FD42C0E0918002FF2745
:1027D000E7FDF095E55AFE4F808160E00E941018F9
:1027E00036C0809180028F5F80938002E0918002EA
:1027F000FF27E7FDF095E55AFE4F808187FD27C052
:102800000091840010918500E0918002FF27E7FD90
:10281000F095E55AFE4F808161E00E941018E0912A
:102820008002FF27E7FDF095EE0FFF1FE55EFE4FEC
:102830000190F081E02D808191810297880F991F8E
:10284000800F911F90938900809388000BC0809126
:102850008002873034F21092810280916F008D7F68
:1028600080936F00FF91EF91BF91AF919F918F91F6
:102870007F916F915F914F913F912F911F910F9198
:102880000F900FBE0F901F901895A0E0B0E0EBE402
:10289000F4E10C94A918182F062F862F61E00E94EE
:1028A000A417812F60E00E94A417812F61E00E948D
:1028B00010186AE070E080E090E00E94EA00C0E05A
:1028C000D0E0812F992787FD9095FC01EA56FF4FB4
:1028D000E491F0E0EE0FFF1FE457FF4FC590D49056
:1028E00086559F4FFC018491E82EFF24CE01817014
:1028F000182F802F612F0E941018F601808120E090
:1029000030E090E08E219F21892B11F021E030E012
:10291000812F992787FD90952817390711F010E02E
:1029200005C02196C830D10509F711E0802F60E07D
:102930000E94A417812FCDB7DEB7E8E00C94C5182C
:10294000A2E9B0E0E6EAF4E10C94AB18259A809194
:10295000E8029091E902009711F09C0102C02CEE70
:1029600032E0CE010196821B930B803891054CF426
:1029700084E1809346028EE190E090934D02809333
:102980004C0284B7877F84BF88E10FB6F8948093A8
:102990006000109260000FBE85E090E09093F70118
:1029A0008093F6018CE380930F0280931002809352
:1029B000110281E090E09093F9018093F801109268
:1029C000FA01E2E7F1E0ABEFB1E081918D9321E014
:1029D000EA37F207D1F742E050E050930402409307
:1029E000030221E030E03093060220930502309389
:1029F00008022093070283E090E090930A028093FC
:102A0000090230930C0220930B0250930E02409364
:102A10000D0284EF91E090931302809312021092C2
:102A200019021092180290931F0280931E02909335
:102A300015028093140210921B0210921A029093B6
:102A40002102809320029093170280931602109225
:102A50001D0210921C02909323028093220228E010
:102A600020932402909326028093250290932C02B7
:102A700080932B029093320280933102909328022C
:102A80008093270290932E0280932D02909334021C
:102A90008093330290932A0280932902909330020C
:102AA00080932F0290933602809335022093370251
:102AB00085E066E00E944514882311F400E001C01F
:102AC00007E0CE01039660E870E048E050E00E9425
:102AD000DC18002361F48B81873049F48C819D815F
:102AE000AE81BF818E549146AC4BB04071F087E00F
:102AF0008B838EE491E6ACEBB0E08C839D83AE8358
:102B0000BF83188619861A860860CE010B9660E08E
:102B100070E04AE00E94650C87FD0260CE01815B97
:102B20009F4F60E071E04AE00E94650C87FD046001
:102B300083E08093B202E02EFF24C701867090707C
:102B40008230910531F08430910579F0892B81F143
:102B500019C08E01015B1F4FC80160E070E00E9448
:102B6000890C88858F5F88870BC08E01055F1F4F9A
:102B7000C80160E071E00E94890C89858F5F8987B8
:102B8000C80118C08AE08093F50185EF91E060E00C
:102B900070E00E94890C85EF91E060E071E00E9496
:102BA000890C8A858F5F8A8789E08093B2020AC088
:102BB000CE010B96A5EFB1E0FC0184E401900D92EB
:102BC0008150E1F7C7018E709070892B41F0CE01E2
:102BD000039660E870E048E050E00E94EC18E0FEE8
:102BE0000AC082E00E94120164E670E080E090E09A
:102BF0000E944517F6CF0E945213882361F02EE001
:102C000088E190E00FB6F894A895809360000FBE1D
:102C100020936000FFCF1092800082E080938100BB
:102C200081E080936F0085B5887F85BD8091F80134
:102C30009091F9018230910519F18330910524F4C6
:102C4000019709F05BC007C08330910571F10497CB
:102C500009F054C03FC080E090E048EE53E020ED22
:102C600037E0FC01EF51FE4F51834083FC01E551F9
:102C7000FE4F3183208302968A30910591F73EC042
:102C800080E090E04CE454E02CE637E0FC01EF51AA
:102C9000FE4F51834083FC01E551FE4F3183208379
:102CA00002968A30910591F729C080E090E042EECB
:102CB00054E026ED36E0FC01EF51FE4F5183408396
:102CC000FC01E551FE4F3183208302968A30910545
:102CD00091F714C080E090E044E853E024E338E04A
:102CE000FC01EF51FE4F51834083FC01E551FE4F43
:102CF0003183208302968A30910591F78091FA0101
:102D0000992787FD909528EE33E0AC01429FC001E2
:102D1000439F900D529F900D1124AA2797FDA095D7
:102D2000BA2F80933D0290933E02A0933F02B0934E
:102D300040020E9440030E9459038091F601909145
:102D4000F70190933A0280933902019731F482E0BF
:102D500090E090933A0280933902809139028093F7
:102D6000440288E592E090934902809348020E94D1
:102D7000F0020E94A1040E94B9130E94FB050E9468
:102D800091070E942E0ACE56DF4FE6E00C94C7183A
:102D9000CF93DF930E9469170E94A014C0E0D0E097
:102DA0000E94DC0D2097E1F30E940000F9CF1F92F2
:102DB0000F920FB60F9211242F933F938F939F93EF
:102DC000AF93BF938091E3029091E402A091E5025A
:102DD000B091E6023091E7020196A11DB11D232FAB
:102DE0002D5F2D3720F02D570196A11DB11D209389
:102DF000E7028093E3029093E402A093E502B0938C
:102E0000E6028091DF029091E002A091E102B09190
:102E1000E2020196A11DB11D8093DF029093E002B2
:102E2000A093E102B093E202BF91AF919F918F9185
:102E30003F912F910F900FBE0F901F9018959FB745
:102E4000F8942091DF023091E0024091E10250912C
:102E5000E20286B5A89B06C08F3F21F02F5F3F4F4F
:102E60004F4F5F4F9FBF542F432F322F2227280FE2
:102E7000311D411D511D82E0220F331F441F551F7C
:102E80008A95D1F7B901CA010895EF92FF920F9385
:102E90001F93CF93DF937B018C010E941F17EB01DF
:102EA0000EC00E941F176C1B7D0B685E7340C8F339
:102EB0000894E108F10801091109C851DC4FE11437
:102EC000F1040105110569F7CDB7DEB7E6E00C9412
:102ED000C718789484B5826084BD84B5816084BD50
:102EE00085B5826085BD85B5816085BDEEE6F0E083
:102EF000808181608083E1E8F0E0108280818260DF
:102F00008083808181608083E0E8F0E0808181605F
:102F10008083E1EBF0E0808184608083E0EBF0E08F
:102F2000808181608083EAE7F0E080818460808333
:102F300080818260808380818160808380818068DD
:102F400080831092C1000895CF93DF93482F50E003
:102F5000CA0186559F4FFC0134914A565F4FFA01D2
:102F60008491882369F190E0880F991FFC01E8584B
:102F7000FF4FA591B491FC01EE57FF4FC591D4913D
:102F8000662351F42FB7F8948C91932F9095892351
:102F90008C93888189230BC0623061F42FB7F89439
:102FA0008C91932F909589238C938881832B888390
:102FB0002FBF06C09FB7F8948C91832B8C939FBF33
:102FC000DF91CF910895833071F0843028F48130FF
:102FD000A1F0823021F514C08630B1F08730D1F0F5
:102FE0008430E9F404C0809180008F7703C0809121
:102FF00080008F7D80938000089584B58F7702C014
:1030000084B58F7D84BD08958091B0008F778093C3
:10301000B00008958091B0008F7D8093B000089536
:10302000FF920F931F93F62E482F50E0CA0182544F
:103030009F4FFC012491CA0186559F4FFC011491BA
:103040004A565F4FFA0104910023C9F0222319F078
:10305000822F0E94E317E02FF0E0EE0FFF1FEE57E4
:10306000FF4FA591B4919FB7F894FF2021F48C9164
:103070001095812302C08C91812B8C939FBF1F914F
:103080000F91FF900895629FD001739FF001829F7E
:10309000E00DF11D649FE00DF11D929FF00D839FE7
:1030A000F00D749FF00D659FF00D9927729FB00D84
:1030B000E11DF91F639FB00DE11DF91FBD01CF0197
:1030C00011240895A1E21A2EAA1BBB1BFD010DC0FD
:1030D000AA1FBB1FEE1FFF1FA217B307E407F507C8
:1030E00020F0A21BB30BE40BF50B661F771F881FA4
:1030F000991F1A9469F760957095809590959B013A
:10310000AC01BD01CF01089597FB092E05260ED015
:1031100057FD04D0D7DF0AD0001C38F450954095F5
:10312000309521953F4F4F4F5F4F0895F6F790959B
:103130008095709561957F4F8F4F9F4F08952F9287
:103140003F924F925F926F927F928F929F92AF9237
:10315000BF92CF92DF92EF92FF920F931F93CF9384
:10316000DF93CDB7DEB7CA1BDB0B0FB6F894DEBF1B
:103170000FBECDBF09942A88398848885F846E8441
:103180007D848C849B84AA84B984C884DF80EE808B
:10319000FD800C811B81AA81B981CE0FD11D0FB694
:1031A000F894DEBF0FBECDBFED010895EE0FFF1FF7
:1031B0000590F491E02D0994DC01CB01FC01F99913
:1031C000FECF06C0F2BDE1BDF89A319600B40D9273
:1031D00041505040B8F70895DC01CB0103C02D9158
:1031E0000E94F71841505040D0F70895262FF999C2
:1031F000FECF1FBA92BD81BD20BD0FB6F894FA9ADA
:0C320000F99A0FBE01960895F894FFCFD4
:10320C00FFFFFFDC05DC05DC05DC05E803DC05E87D
:10321C0003DC05DC05DC05DC05DC05B701B501BB11
:10322C0001B3010000B901BF01BD010000B20100F2
:10323C000000000000000000000000000000000082
:10324C000000000B01000000000000000000000066
:10325C00000000030107010501090103090F0AFF22
:10326C000B0C107889988778899887FF00000000EC
:10327C0000000001020304050607A0860100801A65
:10328C00060005030303040202020101010101010E
:0C329C000101C101C301C501C701CB0144
:00000001FF
