:100000000C948B010C94B3010C94B3010C94B301C8
:100010000C94B3010C94B3010C94B3010C945505EA
:100020000C94B3010C94CB040C9409190C948D1905
:100030000C94B3010C94B3010C94B3010C94B30170
:100040000C94B3010C9497140C94B3010C94B30169
:100050000C94B5010C94B3010C94B3010C94CB1A1D
:100060000C94B3010C94B3010C94B3010C94B30140
:100070000C94B3010C94EA030C94B3010C94B301F7
:100080000C94B3010C94B3010C94B3010C94B30120
:100090000C94B3010C94B3010C94B3010C94B30110
:1000A0000C94B3010C94B3010C94B301010923091E
:1000B000E40901092309E4092D0A9C0A061C091C0C
:1000C000FC1B001C2A1C2A1C2A1C0D1C111C151CA4
:1000D0001B1C1F1C2A1C251C0403090422034100AD
:1000E00072006400750069006E006F0020004C0013
:1000F00065006F006E006100720064006F001803FD
:10010000410072006400750069006E006F002000FD
:100110004C004C004300120100020000004041234B
:1001200036800001010200011201000202000040BD
:100130004123368000010102000100C18081C1001D
:10014000000000240027002A002D003000000000DD
:1001500000250028002B002E0031000000000023A5
:1001600000260029002C002F0004040404040304CA
:100170000502020202040302020202060606060645
:100180000604040202020404080201104080401028
:1001900020408040800802040180402010020110AD
:1001A00080102040400000000200080E0000030400
:1001B00001000B0000000000000000000000000033
:1001C000000000070605040100080A0B0C0D0908D1
:1001D0000B000202020100090400000102020000FB
:1001E0000524001001052401010104240206052450
:1001F0000600010705810310004009040100020AFE
:1002000000000007050202400000070583024000CD
:100210000005010902A1010901A1008501050919D3
:1002200001290315002501950375018102950175CA
:1002300005810305010930093109381581257F75CC
:100240000895038106C0C005010906A101850205C4
:100250000719E029E7150025017501950881029528
:1002600001750881039506750815002565050719B0
:100270000029658100C00904020001030000000993
:1002800021010100012265000705840340000100EF
:10029000000000000000002A2B28000000000000E1
:1002A0000000000000000000000000000000002C22
:1002B0009EB4A0A1A2A434A6A7A5AE362D37382798
:1002C0001E1F20212223242526B333B62EB7B89F24
:1002D0008485868788898A8B8C8D8E8F9091929366
:1002E0009495969798999A9B9C9D2F3130A3AD3504
:1002F0000405060708090A0B0C0D0E0F1011121346
:100300001415161718191A1B1C1DAFB1B0B5000033
:100310006718A81CAA1D11241FBECFEFDAE0DEBFAC
:10032000CDBF11E0A0E0B1E0E6E2FFE302C005903E
:100330000D92A63AB107D9F713E0A6EAB1E001C0E1
:100340001D92AF35B107E1F713E0C6E1D3E004C079
:100350002297FE010E94651FC031D107C9F70E9494
:1003600084170C94911F0C9400001F920F920FB6EB
:100370000F9211248F939F9380914A0290914B0288
:10038000019690934B0280934A0280914A02909189
:100390004B02892B29F480914C028F5F80934C0291
:1003A0009F918F910F900FBE0F901F9018956091A5
:1003B00084007091850020914A0230914B02E091B7
:1003C0004C0280918400909185008627972797FDA5
:1003D000EECF80914A0290914B022817390739F7E6
:1003E00080914C02E81719F740E050E0FFE0220F3F
:1003F000331F441F551FFA95D1F78E2F90E0A0E0D0
:10040000B0E0BB278695B795AA2799278827282B80
:10041000392B4A2B5B2B76956795CB01A0E0B0E09A
:10042000282B392B4A2B5B2BB901CA010895AF92B7
:10043000BF92CF92DF92EF92FF920F931F9328EE1D
:1004400033E040E050E00E94D01E5B016C010E944E
:10045000D7017B018C010E94D7016E197F09800BA7
:10046000910B6A157B058C059D05A8F31F910F91D3
:10047000FF90EF90DF90CF90BF90AF90089591E004
:10048000982721F0913021F45D9A08955D980895A0
:100490008BB190E289278BB90895EF92FF920F9369
:1004A0001F937B018C018091E4029091E502A09161
:1004B000E602B091E7028E199F09A00BB10B181646
:1004C00019061A061B060CF450C08091E802882316
:1004D00021F5E091E902EF5FE370E093E902FF2785
:1004E000E7FDF095E35BFD4F8081992787FD9095AF
:1004F000880F991F8093E80280E492E4AFE0B0E0B7
:10050000E80EF91E0A1F1B1FE092E402F092E502BA
:100510000093E6021093E70228C081508093E8021E
:1005200081700E943F02E091E902FF27E7FDF0950C
:10053000EE0FFF1FEF5AFD4F80819181AA2797FD93
:10054000A095BA2F2AE0880F991FAA1FBB1F2A95D2
:10055000D1F78E0D9F1DA01FB11F8093E4029093D1
:10056000E502A093E602B093E7021F910F91FF907E
:10057000EF9008959A01AB01882311F0589A599A87
:100580001092B90060E074E284EF90E00E94EF1EE8
:10059000205130404040504056954795379527951B
:1005A0002093B80008952FEF30E011C021153105D8
:1005B00061F41092BC008091590290915A02019608
:1005C00090935A02809359020895215030408091AF
:1005D000BC0087FFEBCF0895FF920F931F93F82E77
:1005E0000CEB10E084EAF80180830E94D302F092C1
:1005F000BB0084E8F80180830E94D3021F910F9111
:10060000FF9008958093BB0084E88093BC000E9413
:10061000D30208951F93182F882311F484E801C092
:1006200084EC8093BC000E94D3029091BB00112304
:1006300019F484E98093BC00892F1F9108950F93CA
:100640001F93162F042F880F0E94EC02812F0E9407
:100650000203802F0E94020384E98093BC001F9153
:100660000F9108950F931F93182F062F880F0E9444
:10067000EC02802F0E940203110F812F81600E94E3
:10068000EC0280E00E940A031F910F9108951F93CE
:10069000CF93DF93EB01142F880F81600E94EC024F
:1006A00008C0115080E011160CF481E00E940A038A
:1006B00089931123B1F7DF91CF911F910895DF92B4
:1006C000EF92FF920F931F93E82EF62E8A01D22EFF
:1006D000880F0E94EC028F2D0E9402038E2DB8011C
:1006E0004D2D0E9447031F910F91FF90EF90DF90D7
:1006F000089588E66BE640E80E941F0362E370E01D
:1007000080E090E00E94170288E66BE643E00E94DA
:100710001F0388E66AE140E00E941F0388E66BE160
:1007200048E10E941F0388E665E70E94320390E0DB
:100730008E77883609F491E0892F0895A6E0B0E01D
:10074000E4EAF3E00C94361F8C017B016A0188E631
:1007500063E4AE014F5F5F4F26E00E945F03998123
:1007600080E02A8130E0822B932BF80191838083F3
:100770009B8180E02C8130E0822B932BF7019183C9
:1007800080839D8180E02E8130E0822B932BF601C7
:10079000918380832696E8E00C94521F282F17C07F
:1007A000E22FF0E0EE0FFF1FE55AFD4F80819181AF
:1007B000892B61F080917C00887F822B80937C0064
:1007C00080917A00806480937A0008952F5F2630AC
:1007D00038F308951F920F920FB60F9211242F93A2
:1007E0003F934F935F936F937F938F939F93AF93B9
:1007F000BF93EF93FF9380917C008770E82FF0E028
:10080000EE0FFF1FE55AFD4F0190F081E02D909112
:10081000790090838F5F0E94CE03FF91EF91BF918B
:10082000AF919F918F917F916F915F914F913F9188
:100830002F910F900FBE0F901F901895EBE5F2E0EF
:1008400040E050E061E070E080819181892B79F097
:1008500087B1DB01042E02C0AA0FBB1F0A94E2F786
:100860009D012095822387B988B1282328B94F5F3D
:100870005F4F32964630510539F780E680937C0011
:1008800010927B008FE880937A0080E00E94CE0374
:100890000895CF93DF93EB01DA01FC0140E050E0D3
:1008A00061E070E080819181892B79F03881CB0102
:1008B000042E02C0880F991F0A94E2F7282F209572
:1008C000232328832C91822B8C934F5F5F4F32968A
:1008D0004830510539F7DF91CF91089587E692E0CE
:1008E00064E270E045E250E00E94490487E792E04C
:1008F00067E270E048E250E00E94490487E892E035
:100900006AE270E04BE250E00E944904089560E022
:1009100070E040E050E0A1E0B0E0362FFA01E95984
:10092000FD4F0190F081E02D309751F023B1CD01C2
:10093000062E02C0880F991F0A94E2F7282320830D
:10094000FA01E958FD4F0190F081E02D309751F008
:1009500026B1CD01032E02C0880F991F0A94E2F739
:1009600028232083FA01E957FD4F0190F081E02D03
:10097000309749F029B1CD0102C0880F991F3A95EF
:10098000E2F7282320836F5F7F4F4E5F5F4F403138
:10099000510519F608951F920F920FB60F92112468
:1009A000AF92BF92CF92DF92EF92FF920F931F937D
:1009B0002F933F934F935F936F937F938F939F9367
:1009C000AF93BF93CF93DF93EF93FF930091840096
:1009D000109185008091D30293B19093D3027894C3
:1009E000292F282780958923ABE2B1E0E4EDF2E0DE
:1009F00060E070E0C22EDD24E82EFF2421E0CD91DE
:100A0000DC911197209779F1C601062E02C09595C9
:100A100087950A94E2F780FF26C0C701062E02C020
:100A2000959587950A94E2F780FF03C011830083B0
:100A30001AC080819181A801481B590B5695479592
:100A40008CE7A82E8CEFB82EA40EB51E81EBA8164D
:100A500084E0B80640F4598348838091980268176F
:100A600011F4209397026F5F7F4F12963296683091
:100A7000710529F6FF91EF91DF91CF91BF91AF9171
:100A80009F918F917F916F915F914F913F912F91A6
:100A90001F910F91FF90EF90DF90CF90BF90AF909C
:100AA0000F900FBE0F901F9018951F920F920FB6C8
:100AB0000F9211242F933F934F938F939F932091E5
:100AC0008400309185008091D0029CB19093D00237
:100AD00078948095892386FF05C03093D2022093B5
:100AE000D10212C08091D1029091D202281B390B01
:100AF00036952795C90184589340815B944020F432
:100B000030930A01209309019F918F914F913F915A
:100B10002F910F900FBE0F901F9018958091680035
:100B2000816080936800EBE2F1E040E050E061E03A
:100B300070E080819181892BA1F020916B00CB0125
:100B4000042E02C0880F991F0A94E2F7282B2093E5
:100B50006B0034B1282F2095232324B925B1822B93
:100B600085B94F5F5F4F32964830510511F783E0EA
:100B70008093980280916A00806180936A00EE9A67
:100B80006E98769A0895A6E0B0E0E9ECF5E00C9452
:100B90002C1F7A8369831C012B019E838D839B010B
:100BA0002A5F3F4F3C832B83ED81FE8106811781B5
:100BB00080819181081B190B3801882477FC80946F
:100BC000982CF10182899389A489B589860D971D96
:100BD000A81DB91D268D378D40A151A1AA24BB2483
:100BE0006501A21AB30AC40AD50A8A159B05AC0589
:100BF000BD054CF05C016D01281739074A075B07FA
:100C000014F459016A01F101A28AB38AC48AD58A0F
:100C1000ED81FE8184859585AA2797FDA095BA2F41
:100C2000A4019301281B390B4A0B5B0BCA01B901C4
:100C300015870487F20124853585442737FD4095C3
:100C4000542F0E94D01E7B018C01F2E01595079570
:100C5000F794E794FA95D1F7F20120813181442786
:100C600037FD4095542FC401B3010E94D01EE3E02C
:100C70009595879577956795EA95D1F7E60EF71ED6
:100C8000081F191FF20126813781442737FD40953F
:100C9000542FC601B5010E94D01E56E09595879548
:100CA000779567955A95D1F7E60EF71E081F191F1D
:100CB000E981FA81028804C015950795F794E794B5
:100CC0000A94D2F7ED81FE81F3A6E2A63296FE8366
:100CD000ED8324E030E0220E331E42E050E0440E6B
:100CE000551E8B819C814816590609F05DCF2696CA
:100CF000E2E10C94481FA6E0B0E0E1E8F6E00C94D5
:100D00003C1FCE010196BE016D5F7F4FAE014B5F70
:100D10005F4F0E949E038B819C81909581959F4F90
:100D20009093DF018093DE0149815A8166277727FE
:100D3000641B750B7093E1016093E0012D813E818E
:100D40003093E3012093E20180910E0290910F0213
:100D50008230910519F00397B1F409C03093E10195
:100D60002093E0015093E3014093E2010CC08827F7
:100D70009927821B930B9093E1018093E00170937C
:100D8000E3016093E2012696E2E00C94581F81E0B3
:100D900040E85AE166E070E00E94BA020E947903DE
:100DA000882349F485E080934F0288EC90E090938B
:100DB00056028093550208950F931F93CF93DF93AC
:100DC000FC011082772767FD709572836183DC01D7
:100DD000EC0140E050E00FEF1FE760E070E80CC06E
:100DE00012961C930E9311971A967C936E931997F3
:100DF0001F86188A198A1A8A9A014F5F5F4F1296C6
:100E00002496818192812817390754F314A613A6DA
:100E1000DF91CF911F910F910895A0E0B0E0E3E141
:100E2000F7E00C94341F7C018C01EB01F70160E0CA
:100E300070E02BC021813281888199812817390780
:100E40000CF4C9019283818321853285888199813F
:100E5000821793070CF4C9019287818729913991F0
:100E6000442737FD4095542FD8011F96AD90BD9073
:100E7000CD90DC905297A20EB31EC41ED51E1F96B5
:100E8000AD92BD92CD92DC9252979B016F5F7F4FE6
:100E900032960C5F1F4FD70111968D919C9112973E
:100EA000281739073CF2CDB7DEB7EAE00C94501FA3
:100EB000A0E0B0E0EEE5F7E00C94361FEC017C0119
:100EC000A3E2CA2ED12CC80ED91E00E010E011C03A
:100ED0002BA53CA5442737FD4095542FF701678586
:100EE0007089818992890E94111FF60121933193A3
:100EF0006F0198010F5F1F4F84E090E0E80EF91E2C
:100F000089819A81281739071CF3CDB7DEB7E8E04D
:100F10000C94521FCF93DF93FC01EB01618172812E
:100F2000A0E040E050E00DC08385948523813481AA
:100F3000821B930B8C179D070CF4AF5F4F5F5F4FC5
:100F400032964617570784F320E08A2F992787FDAA
:100F500090958617970709F421E0822FDF91CF91B2
:100F60000895A8E0B0E0E7EBF7E00C943A1F8C019D
:100F70008091A6019091A7019A8389838091AA010B
:100F80009091AB019C838B838091AC019091AD01DA
:100F90009E838D838091A8019091A90198878F836A
:100FA000C801BE016F5F7F4F0E940D07F80183A546
:100FB00094A5019694A783A78436910551F5C8019D
:100FC00064E170E00E948A078823F9F0C8010E945A
:100FD0005807F80183A194A1909314018093130101
:100FE00085A196A1909316018093150187A190A5E4
:100FF000909318018093170181A592A590931A01EF
:101000008093190181E0808304C0C80164E00E94DC
:10101000DC062896E4E00C94561FA6E0B0E0E3E17D
:10102000F8E00C943A1F8C018091DE019091DF0171
:101030009A8389838091E0019091E1019C838B8365
:101040008091E2019091E3019E838D83C801BE01EE
:101050006F5F7F4F0E940D07F80183A594A501964D
:1010600094A783A78C52914021F5C80162E370E0F8
:101070000E948A078823C9F0C8010E945807F80116
:1010800083A194A19093D9018093D80185A196A1C1
:101090009093DB018093DA0187A190A59093DD0105
:1010A0008093DC0181E0808304C0C80163E00E947A
:1010B000DC062696E4E00C94561F20910301309143
:1010C000040180910301909104012817390721F44C
:1010D0003093A7012093A6012091050130910601CC
:1010E00080910501909106012817390721F430936A
:1010F000AB012093AA012091070130910801809152
:101100000701909108012817390721F43093AD01A8
:101110002093AC0120910B0130910C0180910B01C7
:1011200090910C012817390721F43093AF012093D7
:10113000AE0120910D0130910E0180910D01909131
:101140000E012817390721F43093B1012093B00123
:1011500020910F013091100180910F0190911001A9
:101160002817390721F43093B3012093B20120915D
:1011700011013091120180911101909112012817F3
:10118000390721F43093B5012093B40180914202D4
:101190009091430205974CF48091A6019091A7018C
:1011A0009093A9018093A80108952091090130919D
:1011B0000A018091090190910A012817390721F449
:1011C0003093A9012093A8010895A0E0B0E0EBEED0
:1011D000F8E00C94361FDC01C0904202D09043022C
:1011E000F6013297E830F10508F0E3C1EA5AFF4F03
:1011F0006D917C9111970091A6011091A7010C941B
:10120000631F600F711F7093CB016093CA018D91B2
:101210009C9111972091A8013091A901820F931FF1
:101220009093D1018093D00112968D919C91139748
:101230002091AA013091AB01820F931F9093CD01B1
:101240008093CC01A8C17801E60EF71EF092CB0185
:10125000E092CA01E091A801F091A901CD91DC9141
:101260001197CE0FDF1FD093D101C093D0014091D1
:10127000B6015091B70144525A4F8D919C911197EC
:10128000480F591F12966D917C9113978091AA0176
:101290009091AB01680F791FCB01840F951F9C01C2
:1012A0003595279535952795359527959595879566
:1012B000280F391F275731403093CD012093CC019F
:1012C000461B570BCA0133E0959587953A95E1F790
:1012D00055954795840F951F84529A4F9093CF014F
:1012E0008093CE012091AC013091AD0146E0C4164F
:1012F000D10409F060C084E0223E380774F0295719
:101300003540273C310518F082E090E002C081E0D2
:1013100090E0029709F04DC121C080911901909190
:101320001A01800F911F8E1B9F0B2091130130918A
:101330001401821B930B9595879584529A4F909335
:10134000CB018093CA018C5D95402CED35E0281BC4
:10135000390B3093D1012093D0012BC12091020190
:1013600012966D917C911397E091B801F091B901BB
:101370006E0F7F1F882777FD8095982F30E02058CB
:101380003040442737FD4095542F0E94D01EA7E0DF
:101390009595879577956795AA95D1F7E60EF71EEF
:1013A000F092CB01E092CA01C61BD70BD093D101BA
:1013B000C093D001FEC09093CB018093CA011496D4
:1013C0008D919C911597EFC0600F711F7093CB01A9
:1013D0006093CA018D919C9111972091A801309141
:1013E000A901820F931F9093D1018093D00112968F
:1013F0006D917C9113978091AA019091AB01680F38
:10140000791F14964D915C9115978091AC01909144
:10141000AD01480F591FCA01860F971F9C01F3E0C9
:1014200035952795FA95E1F795958795280F391FFA
:10143000275731403093CD012093CC01461B570BE9
:10144000CA0173E0959587957A95E1F7559547958B
:10145000840F951F84529A4FA8C020911301309198
:1014600014011296CD91DC9113978091B80190915F
:10147000B901C80FD91F14960D90BC91A02D809171
:10148000BA019091BB01A80FB91F809109019091F9
:101490000A018C54944097FF03C040E050E016C00E
:1014A0008091090190910A018C54944095958795FB
:1014B000855F91401CF044EF51E008C04091090164
:1014C00050910A014C54544055954795F801E45207
:1014D000FA4FE21BF30BE60FF71FBE016E0F7F1FE3
:1014E0009A012A1B3B0B37FF02C020E030E0CB0102
:1014F000821B930B9093CB018093CA01260F371F59
:101500003093CD012093CC01BF016C1B7D0B9A0160
:101510002A0F3B1F37FF02C020E030E0C901860FD1
:10152000971F9093D1018093D001621B730B70932E
:10153000CF016093CE013DC0600F711F7093CB014E
:101540006093CA018D919C9111972091A8013091CF
:10155000A901820F931F9093D1018093D00112961D
:101560008D919C9113972091AA013091AB01820F2C
:10157000931F9093CD018093CC018091B401909101
:10158000B50112962D913C911397821B930B90936A
:10159000D5018093D40114968D919C91159720913B
:1015A000AC013091AD01820F931F9093CF018093D6
:1015B000CE018091B2019091B3019093D3018093B9
:1015C000D20189E0C816D10441F08091B401909114
:1015D000B5019093D5018093D4018091B001909191
:1015E000B1019093D7018093D601CDB7DEB7E8E083
:1015F0000C94521FAAE0B0E0E0E0FBE00C943A1F2C
:1016000080910102909102020397A9F5FE013196A3
:101610008AE0DF011D928A95E9F7CF010E94E50873
:10162000ACE7B1E00AEE11E044EF51E06D917C913E
:101630001197F80120813181FB0180819181281768
:1016400039070CF4C901F80191838083FA012081E4
:101650003181FB0180819181821793070CF4C901CC
:10166000FA0181939193AF0112960E5F1F4FF1E043
:10167000A638BF07D9F684EE91E00E94E508809174
:10168000420290914302099711F074E001C075E0A5
:1016900060E080E090E0FC01E458FE4FA081B18161
:1016A0004D915C911197FC01E651FE4F0190F08144
:1016B000E02D4E175F0754F0FC01EC50FE4F2081E7
:1016C0003181FA01241735070CF4F901ED93FC93ED
:1016D0006F5F02966717FCF22A96E4E00C94561F9F
:1016E00080919A02882309F050C081E080939A0289
:1016F0008FEF809399022FB7F8948091CA0190914F
:10170000CB019093BD018093BC018091CC0190915D
:10171000CD019093BF018093BE018091CE01909145
:10172000CF019093C1018093C0018091D00190912D
:10173000D1019093C3018093C2018091D201909115
:10174000D3019093C5018093C4018091D4019091FD
:10175000D5019093C7018093C6018091D6019091E5
:10176000D7019093C9018093C80180916F00826076
:1017700080936F00B19A80918400909185000496C7
:1017800090938900809388002FBF0895FC0181E029
:101790008183808385E0828316821582108617827A
:1017A00008959C0144E0813B940714F490E00DC03F
:1017B000845195408159914010F491E006C0285021
:1017C000374014F49FEF06C092E0662319F082E0E0
:1017D000891B982F892F0895CF93DF93EC018A817D
:1017E0008B838091A6019091A7016D810E94D10BFE
:1017F00087FF88838091AA019091AB016E810E943E
:10180000D10B87FF89838F81882351F488818823B6
:1018100029F0823029F481E08D83188281E08F8362
:101820008885882361F48981882319F0823039F40E
:1018300004C081E08E8382E0898381E088873881DB
:101840003F5F898123E08202C0011124380F3A836F
:101850009B8180E0391729F081E09295907F932B4E
:101860009C83DF91CF910895282F30E03F6F220FA6
:10187000331FEFB7F8948091840090918500AC01FC
:10188000405C5F4FBC016D5D7A4F80918400909108
:101890008500DA01A81BB90B1A161B06B4F320FF4A
:1018A00002C03F9801C03F9A4617570729F0369566
:1018B000279545575F4FE9CFEFBF0895EFB7F894ED
:1018C000379B49C016C02091840030918500205874
:1018D000314C04C08FEF9FEF379B0BC08091840089
:1018E00090918500B901681B790B1616170614F440
:1018F000F1CFAC0141505040CA01019618161906AB
:1019000014F34F5F5F4F19F420E030E826C0809158
:10191000840090918500AC0140565F4F20E030E09C
:10192000BC0163597B4F8091840090918500DA015E
:10193000A81BB90B1A161B06B4F386B1369527956A
:1019400090E080789070282B392B4617570729F0A4
:1019500045575F4FE8CF20E030E4EFBFC90108955D
:10196000EF92FF920F931F93CF93DF93E82E192FDF
:10197000062FF62E84E20E94340C802F0E94340C35
:101980002E2D312FC901EC0104C08991F80E0E945F
:10199000340C9E012E192017C4F38F2D81950E94BF
:1019A000340CCDB7DEB7E6E00C94541F8F929F92B3
:1019B000AF92BF92CF92DF92FF920F931F93CF937C
:1019C000DF934C015A01C0E0D0E0C62EDD24C7FCF5
:1019D000D09402C0812F182FC5010E945E0C9C017B
:1019E0008070907C892B69F5822FC130D10559F028
:1019F000C230D105A1F0209779F7243259F7812F11
:101A0000C1E0D0E0E8CF90E0C816D90614F4812FE9
:101A100015C0822FF22EC2E0D0E000E0DCCFF20E43
:101A2000812F8150112331F0F401E00FF11D20834B
:101A30000F5FD1CFFF2011F481E004C0C0E0D0E0FF
:101A4000CACF80E0DF91CF911F910F91FF90DF907F
:101A5000CF90BF90AF909F908F9008951F93CF939A
:101A6000DF93EC01142F44E450E00E94691F888149
:101A7000811711F08FEF12C090E020E030E0FE01FE
:101A8000E20FF31F8081980F2F5F3F4F2434310501
:101A9000B1F7992311F480E001C08EEFDF91CF916F
:101AA0001F910895DC0190E020E030E0FD01E20F9D
:101AB000F31F8081980F2F5F3F4F23343105B1F71B
:101AC000AD5BBF4F91959C93A354B040CD0144E4CE
:101AD00050E00E94791F0895A1E1B0E0E2E7FDE047
:101AE0000C942C1F1C0181E089838FEF91E09B8374
:101AF0008A8302969D838C830D969F838E830296A4
:101B00009987888702969B878A8702969D878C870C
:101B100002969F878E87CE010196998B888BD090F5
:101B2000FF01DD0C6624EE24FF248701F0E88F2EF0
:101B3000FAE19F2EF6E0AF2EB12CE2E07E2ECC240F
:101B40002C010E94D7019B01AC01DC01CB018E1955
:101B50009F09A00BB10B88169906AA06BB060CF0CC
:101B600051C0171424F5872D992787FD9095FC0106
:101B7000E170F07080FD03C088E097E002C08CED5A
:101B800095E09093CD018093CC018CED95E09093FE
:101B9000CB018093CA01EE0FFF1FEE0FFF1FEC5920
:101BA000FE4F80809180A280B3807A9429C0DD208E
:101BB00039F11D1424F46CE271E0A1E003C064ED7E
:101BC0007EEFAFEF8D2D992787FD9095FC01E17099
:101BD000F07080FF03C08CED95E003C0CB01845210
:101BE0009A4F9093CB018093CA01EE0FFF1FEE0F27
:101BF000FF1FEC59FE4F80809180A280B380DA1ADB
:101C000079018A0180919702882329F01092970226
:101C10000E945D0802C0662041F080919A028823EC
:101C200009F08CC00E94700B6624772009F089CFE0
:101C3000C1010E94EC0B882309F483CFF101848158
:101C4000843561F0853520F4823509F063C013C016
:101C5000863559F0883509F05DC02AC0F1E0FC15E1
:101C600014F0CC2470C0CA946EC085E08C150CF4BE
:101C700068C0C39468C0AC2DBB27A7FDB095FD011B
:101C8000EE0FFF1FE40DF51D0180F281E02D808134
:101C9000282F332727FD30952F5F3F4FA459BE4F84
:101CA0008C91992787FD909582179307F4F41CC0B7
:101CB000AC2DBB27A7FDB095FD01EE0FFF1FE40D76
:101CC000F51D0180F281E02D8081282F332727FD2B
:101CD000309521503040AC58BE4F8C91992787FDEC
:101CE0009095281739070CF49C01208320E08C2D57
:101CF000992787FD9095FC01EE0FFF1FE40DF51D60
:101D00000180F281E02DD080DD0C222319F00196B4
:101D1000782E770C8981823009F013CF8EEF91E015
:101D200060E070E00E94520D8EEF91E060E071E0A3
:101D30000E94520D6196E2E10C94481F6624639460
:101D400074CFA7E0CA2E21E0D2CFA1E9B0E0EBEA40
:101D5000FEE00C942C1F0E94D7011B012C01DE0118
:101D60001196E6E5F1E086E001900D928150E1F7F1
:101D70008E010D5E1F4FC8010E94C60B9CE1E92E2B
:101D8000F12CEC0EFD1EC70164E00E94DC0689E424
:101D9000C82ED12CCC0EDD1EC60163E00E94DC06ED
:101DA0002092CC023092CD024092CE025092CF02CD
:101DB000C657DF4F288239824A825B82CA58D04098
:101DC000CA57DF4F288239824A825B82C658D04088
:101DD000CE57DF4F288239824A825B82C258D04078
:101DE00042013101C258DF4F288239824A825B8228
:101DF000CE57D040EB962CAE3DAE4EAE5FAEEB97DD
:101E0000EE961FAEEE97ED961FAEED9721E0EC96A5
:101E10002FAFEC97C257DF4FE882CE58D040C15762
:101E2000DF4FF882CF58D040C057DF4F0883C059EA
:101E3000D040CF56DF4F1883C159D0400E94D70100
:101E40005B016C010E944D02809197028823A1F4EE
:101E5000D601C501C657DF4F488159816A817B8110
:101E6000CA58D040841B950BA60BB70B81539547DE
:101E7000A040B0400CF442C0109297020E945D084E
:101E80008C8D882369F0C657DF4FA882B982CA8239
:101E9000DB82CA58D04061E0EE966FAFEE972EC05D
:101EA000C257DF4F8881CE58D040C157DF4F98814D
:101EB000CF58D0400E94B1072A968FAD2A97882329
:101EC00011F492E001C090E020E08C8D882309F4A9
:101ED00021E0920F90934E0288EC90E09093540290
:101EE00080935302C657DF4FA882B982CA82DB8231
:101EF000CA58D04091E0EE969FAFEE9780919A023B
:101F0000882379F5EE96AFADEE97AA2351F1A6019D
:101F10009501CA57DF4F688179818A819B81C658B4
:101F2000D040261B370B480B590B809146029091ED
:101F30004702A0914802B091490282179307A40773
:101F4000B5077CF40E94FA0A0E94700BCA57DF4F53
:101F5000A882B982CA82DB82C658D040EE961FAEF4
:101F6000EE97D601C501CE57DF4F288139814A81CE
:101F70005B81C258D040821B930BA40BB50B8151DF
:101F80009742A040B04054F10E947B062A968FAD44
:101F90002A978823D9F4CE01875B9F4F0E940D08B2
:101FA0002A968FAD2A97882311F492E001C090E021
:101FB00020E08C8D882309F421E0920F90934E024B
:101FC00048EC50E05093540240935302CE57DF4FF9
:101FD000A882B982CA82DB82C258D040EC965FAD3B
:101FE000EC97552309F456C0C057DF4F8881C0597C
:101FF000D040CF56DF4F9881C159D0400E94EC0BA2
:10200000882309F447C0ED966FADED97E62FFF27C3
:10201000E7FDF095E35BFE4F9F898081981721F0E3
:10202000ED961FAEED9707C0ED967FADED977F5F04
:10203000ED967FAFED97ED968FADED97E82FFF27EB
:10204000E7FDF095E35BFE4F80818F3F81F4CE0189
:1020500043960E946C0D2EE088E190E00FB6F89454
:10206000A895809360000FBE20936000FFCFD6013B
:10207000C50182199309A409B509815C914EA44E4A
:10208000B04024F0EC961FAEEC9704C0F1E0EC9663
:10209000FFAFEC978C8D882329F02A968FAD2A9775
:1020A0008823C9F58091A8019091A9012091A601EA
:1020B0003091A701820F931F2091190130911A01CD
:1020C000821B930B2091130130911401821B930BFF
:1020D000959587959093B7018093B6018091AA0159
:1020E0009091AB012091150130911601821B930B49
:1020F0009093B9018093B8018091AC019091AD01AA
:102100002091170130911801821B930B9093BB0112
:102110008093BA0193CED601C50186199709A80903
:10212000B90981519742A040B0400CF41EC3809180
:102130004402909145028130910559F48091AE019D
:102140009091AF01865F95400CF09BC080E090E0DD
:102150000DC0892B09F095C08091AE019091AF011F
:10216000875296400CF48DC081E090E09093450238
:1021700080934402892B11F084E001C080E08093B9
:102180004E0268EC70E07093540260935302109218
:10219000AD021092AE021092AF021092B0021092F5
:1021A000B9021092BA021092BB021092BC021092B5
:1021B000B1021092B2021092B3021092B4021092C5
:1021C000BD021092BE021092BF021092C002109285
:1021D000B5021092B6021092B7021092B802109295
:1021E000C1021092C2021092C3021092C4028091E6
:1021F000160290911702029709F043C0D601C5015B
:10220000EB962CAD3DAD4EAD5FADEB97821B930BC6
:10221000A40BB50B8152914AA740B0401CF0E79641
:102220001FAEE797E7964FADE7974F5FE7964FAF43
:10223000E797433004F18091A6019091A701909314
:102240001401809313018091AA019091AB019093A6
:102250001601809315018091AC019091AD0190938E
:102260001801809317018091A8019091A901909382
:102270001A0180931901EB96ACAEBDAECEAEDFAEC7
:10228000EB972091A8013091A9018091A60190912E
:10229000A701280F391F8091190190911A01281B5D
:1022A000390B8091130190911401281B390B35953E
:1022B00027953093B7012093B6014091AA01509120
:1022C000AB018091150190911601481B590B509359
:1022D000B9014093B801E091AC01F091AD0180915A
:1022E000170190911801E81BF90BF093BB01E093E3
:1022F000BA01809110028150682F772767FD709591
:10230000C90137FF04C088279927821B930B062E2B
:1023100002C0880F991F0A94E2F7A1E081399A0759
:1023200014F080E991E0A0E9B1E0A81BB90BB887EF
:10233000AF83CA0157FF04C088279927841B950BD8
:10234000062E02C0880F991F0A94E2F7B1E0813986
:102350009B0714F080E991E0A0E9B1E0A81BB90B5C
:10236000BA87A987CF01F7FF04C0882799278E1B5A
:102370009F0BDC0102C0AA0FBB1F6A95E2F7BD01EB
:10238000B1E061397B0714F060E971E0A0E96A2EE1
:10239000A1E07A2E661A770A7C866B868091AE0160
:1023A0009091AF0165E0833C96074CF403EC15E097
:1023B000081B190B71E00139170794F00BC0A6E058
:1023C00088329A071CF400E010E00AC0B7E08638B3
:1023D0009B071CF000E911E003C08C01055F15406C
:1023E000809044029090450261E08616910459F075
:1023F0008114910409F04FC080911402909115024C
:10240000029709F048C080911202082E02C0220FE4
:10241000331F0A94E2F73E872D87082E02C0440F2F
:10242000551F0A94E2F7588B4F87AF0102C0440F43
:10243000551F8A95E2F75A8B498B89819A8197FDBE
:1024400005C088279927821B930B01C0C90190936F
:102450009C0280939B028B819C812F85388997FDFC
:1024600005C088279927821B930B01C0C90190934F
:102470009E0280939D028D819E8197FD03C05095A1
:1024800041955F4F5093A00240939F0271E08716E1
:10249000910471F055C010929C0210929B02109210
:1024A0009E0210929D021092A00210929F0248C0BC
:1024B0006F817885882777FD8095982F24EF3FEBF3
:1024C00040E050E00E94D01EF9E095958795779501
:1024D0006795FA95D1F76093B9027093BA02809329
:1024E000BB029093BC0269857A85882777FD809529
:1024F000982F0E94D01EE9E095958795779567956E
:10250000EA95D1F76093BD027093BE028093BF023B
:102510009093C002B301882777FD8095982F0E9481
:10252000D01E39E095958795779567953A95D1F7BF
:102530006093C1027093C2028093C3029093C4025D
:102540002091DE013091DF018091D8019091D90175
:10255000281B390B80E22030380714F02FEF3FE1C1
:10256000C901A0EE20303A0714F480E090EE909379
:10257000A2028093A1022091E0013091E1018091BB
:10258000DA019091DB01281B390BB0E220303B07C8
:1025900014F02FEF3FE1C901E0EE20303E0714F4C4
:1025A00080E090EE9093A4028093A3022091E20138
:1025B0003091E3018091DC019091DD01281B390B02
:1025C000F0E220303F0714F02FEF3FE1C90120EE89
:1025D0008030920714F480E090EE9093A6028093EE
:1025E000A502892819F06EE272E002C06BE172E088
:1025F0008BE992E00E94C305EE24FF243801882471
:1026000077FC8094982C87010C511E4FE1E0F0E09C
:10261000EC0FFD1FEE0DFF1D60817181882777FD96
:102620008095982FF701E556FD4F22A533A5442745
:1026300037FD4095542F0E94D01E27E09595879531
:10264000779567952A95D1F7E7E0F0E0EC0FFD1F4D
:10265000EE0DFF1D20813181442737FD4095542F19
:102660000E94D01E9B01AC01B9E055954795379566
:102670002795BA95D1F7C401B3010E94D01EA9E0F5
:102680009595879577956795AA95D1F7D8016D931C
:102690007C93E2E0F0E0EE0EFF1EF6E0EF16F104B0
:1026A00009F0B1CF2091CB0212160CF05CC08091E2
:1026B000CC029091CD02A091CE02B091CF02B60192
:1026C000A501481B590B6A0B7B0BDB01CA01815426
:1026D0009D40A340B0405CF021502093CB02A092DB
:1026E000CC02B092CD02C092CE02D092CF028091A5
:1026F000CB02992787FD90954091E4015091E50127
:10270000BC016170707080FF03C026E930E002C038
:102710002AE63FEF240F351F3093E5012093E401B3
:102720004091E6015091E7016115710519F026E924
:1027300030E002C02AE63FEF240F351F3093E70157
:102740002093E6012091E8013091E901672B19F40B
:102750008AE69FEF02C086E990E0820F931F909374
:10276000E9018093E80135014601D601C501C2584F
:10277000DF4F288139814A815B81CE57D040821B4F
:10278000930BA40BB50B8C59914AA740B0400CF4A5
:1027900055CB80911802803839F480910001282FA0
:1027A00030E02058304004C0282F332727FD3095D3
:1027B00080911902803839F480910101482F50E04E
:1027C0004058504004C0482F552747FD50958091F0
:1027D0001A02803831F48091020190E080589040D4
:1027E00003C0992787FD90953A8329835C834B83A7
:1027F0009E838D83295F3F4F2F30310510F41A825D
:1028000019828B819C8107960F9710F41C821B8282
:102810008D819E8107960F9710F41E821D8280E0A5
:102820000E94CE03C258DF4FA882B982CA82DB82DF
:10283000CE57D04003CBA5E6B0E0E1E2F4E10C9442
:10284000361F1092800081E0809381003F98479866
:1028500048E552E000E06E010894C11CD11C22E062
:10286000E22EF12CEC0EFD1EC60165E60E94D60C90
:10287000882309F441C089818230A9F0833018F49B
:10288000813029F406C08330B1F08430E9F010E0E3
:1028900026C0C70160E870E048E050E00E94691F70
:1028A00010E069E01DC0C70160E870E048E050E05A
:1028B0000E94791F13C0C70160E070E04AE00E94E7
:1028C0002E0D10E065E40CC0C70160E070E00E94CE
:1028D000520DC70160E071E00E94520D11E061E00D
:1028E000898180688983C6010E94B00C01E044EFB1
:1028F00051E0112309F4B8CF802FCB59DF4FE8E026
:102900000C94521FCF93DF93C0E0D0E0FE01E55C52
:10291000FE4F808187FD04C0808161E00E94B31B6F
:102920002196C830D10591F7DF91CF9108951F927C
:102930000F920FB60F9211240F931F932F933F9373
:102940004F935F936F937F938F939F93AF93BF93B7
:10295000EF93FF938091990287FD42C0E091990225
:10296000FF27E7FDF095E55CFE4F808160E00E9467
:102970002B1C36C0809199028F5F80939902E09161
:102980009902FF27E7FDF095E55CFE4F808187FD0A
:1029900027C00091840010918500E0919902FF27E3
:1029A000E7FDF095E55CFE4F808161E00E942B1C05
:1029B000E0919902FF27E7FDF095EE0FFF1FE55E1E
:1029C000FE4F0190F081E02D808191810297880F68
:1029D000991F800F911F90938900809388000BC0EE
:1029E00080919902873034F210929A0280916F00A0
:1029F0008D7F80936F00FF91EF91BF91AF919F9179
:102A00008F917F916F915F914F913F912F911F9186
:102A10000F910F900FBE0F901F901895A0E0B0E09F
:102A2000E4E1F5E10C94361F182F062F862F61E0A4
:102A30000E94B31B812F60E00E94B31B812F61E0D5
:102A40000E942B1C6AE070E080E090E00E94170278
:102A5000C0E0D0E0812F992787FD9095FC01E759D0
:102A6000FE4FE491F0E0EE0FFF1FE55AFE4FC590D8
:102A7000D49089579E4FFC018491E82EFF24CE010B
:102A80008170182F802F612F0E942B1CF6018081EE
:102A900020E030E090E08E219F21892B11F021E091
:102AA00030E0812F992787FD90952817390711F07D
:102AB00010E005C02196C830D10509F711E0802F3C
:102AC00060E00E94B31B812FCDB7DEB7E8E00C9425
:102AD000521FA2E9B0E0EFE6F5E10C94381F559AD9
:102AE00080915B0390915C03009711F09C0102C000
:102AF0002FE533E0CE010196821B930B80389105C0
:102B00004CF484E180934F028EE190E09093560262
:102B10008093550221E030E0309300022093FF01C2
:102B200080E8809318028093190280931A023093F0
:102B300002022093010210920302ECE5F1E0A4E00E
:102B4000B2E081918D9321E0E436F207D1F742E0C3
:102B500050E050930D0240930C0221E030E030939E
:102B60000F0220930E02309311022093100283E093
:102B700090E09093130280931202309315022093F9
:102B80001402509317024093160284EF91E0909341
:102B90001C0280931B021092220210922102909339
:102BA00028028093270290931E0280931D021092A8
:102BB00024021092230290932A0280932902909378
:102BC000200280931F0210922602109225029093F9
:102BD0002C0280932B0228E020932D0290932F0249
:102BE00080932E02909335028093340290933B029F
:102BF00080933A029093310280933002909337028F
:102C00008093360290933D0280933C02909333026E
:102C100080933202909339028093380290933F025E
:102C200080933E022093400285E066E00E940E15EC
:102C3000882311F400E001C007E0CE01039660E8AC
:102C400070E048E050E00E94691F002361F48B812E
:102C5000833049F48C819D81AE81BF818E54914631
:102C6000AC4BB04071F083E08B838EE491E6ACEB2B
:102C7000B0E08C839D83AE83BF83188619861A8645
:102C80000860CE010B9660E070E04AE00E942E0DD5
:102C900087FD0260CE01815B9F4F60E071E04AE0FA
:102CA0000E942E0D87FD046083E08093CB02E02E0E
:102CB000FF24C701867090708230910531F0843016
:102CC000910579F0892B81F119C08E01015B1F4FAD
:102CD000C80160E070E00E94520D88858F5F888790
:102CE0000BC08E01055F1F4FC80160E071E00E94BC
:102CF000520D89858F5F8987C80118C08AE080934B
:102D0000FE018EEF91E060E070E00E94520D8EEFC8
:102D100091E060E071E00E94520D8A858F5F8A87A2
:102D200089E08093CB020AC0CE010B96AEEFB1E0F2
:102D3000FC0184E401900D928150E1F7C7018E708F
:102D40009070892B41F0CE01039660E870E048E076
:102D500050E00E94791FE0FE0AC082E00E943F021C
:102D600064E670E080E090E00E94391BF6CF0E949C
:102D70001B14882361F02EE088E190E00FB6F894F0
:102D8000A895809360000FBE20936000FFCF109243
:102D9000800082E08093810081E080936F0085B5A0
:102DA000887F85BD80910102909102028230910559
:102DB00019F18330910524F4019709F05BC007C035
:102DC0008330910571F1049709F054C03FC080E051
:102DD00090E048EE53E020ED37E0FC01E651FE4F75
:102DE00051834083FC01EC50FE4F318320830296D7
:102DF0008A30910591F73EC080E090E04CE454E0C9
:102E00002CE637E0FC01E651FE4F51834083FC0184
:102E1000EC50FE4F3183208302968A30910591F762
:102E200029C080E090E042EE54E026ED36E0FC015F
:102E3000E651FE4F51834083FC01EC50FE4F31833D
:102E4000208302968A30910591F714C080E090E0CB
:102E500044E853E024E338E0FC01E651FE4F51839F
:102E60004083FC01EC50FE4F3183208302968A3070
:102E7000910591F780910302992787FD909528EE9F
:102E800033E0AC01429FC001439F900D529F900DD3
:102E90001124AA2797FDA095BA2F809346029093FC
:102EA0004702A0934802B09349020E946E040E9418
:102EB00087048091FF0190910002909343028093D8
:102EC0004202019731F482E090E0909343028093B4
:102ED00042028091420280934D0288E592E09093F5
:102EE0005202809351020E941E040E948E050E948D
:102EF00082140E94C7060E945D080E94FA0ACE56FC
:102F0000DF4FE6E00C94541FCF93DF930E945D1BCC
:102F100082EF92E00E9468180E946915C0E0D0E03C
:102F20000E94A50E2097E1F30E940000F9CFFC015A
:102F300004C08091F100819361506623D1F72898F5
:102F400084E68093EB020895282F8091EC02882379
:102F5000C1F057FF1AC015C028989093EB028091DA
:102F6000F1008193E217F307B9F74115510539F0E4
:102F70008091F200882319F48BE68093E800AFBFBC
:102F800002C04FEF5FEFCA010895AFB7F894277002
:102F90002093E9008091F200282F30E024173507B4
:102FA0000CF4A901FB019B01240F311D94E6DACF3B
:102FB000A1E0B0E0EEEDF7E10C943C1FBE016F5FC5
:102FC0007F4F41E050E00E94A417019719F02FEFC6
:102FD0003FEF03C08981282F30E0C9012196E2E04C
:102FE0000C94581F2FB7F89487708093E900809154
:102FF000E80085FD02C090E004C08091F20090E4FA
:10300000981B2FBF892F0895FF920F931F93F82EBF
:10301000142F052F4091EF025091F002212F302FF5
:10302000C901DC01FB016EEF29C0F7FE02C09491DB
:1030300001C090812091ED023091EE0224173507F6
:10304000ACF48091E8008570E1F38091E80082FFA4
:1030500003C02FEF3FEF17C09093F100C901019615
:103060008F739070892B11F46093E8002F5F3F4FAE
:103070003093EE022093ED02119731961097A9F646
:10308000812F902F9C01C9011F910F91FF900895EE
:103090000F931F939C01162F072F8091E80082FF4A
:1030A000FCCFC901612F0E9497178BEF8093E80036
:1030B000812F902F1F910F9108958093E9008091A7
:1030C000F200882319F08AE38093E80008950895B8
:1030D0001092EC0281E08093D70080EA8093D800C0
:1030E00082E189BD09B400FEFDCF61E070E080E0BF
:1030F00090E00E94391B80E98093D8008CE0809397
:10310000E2001092E000559A209A0895A0E0B0E005
:10311000ECE8F8E10C94301FE82E942E852E809177
:10312000EC02882309F18B01242F352FC901EC0112
:103130006AEFF62E57E0752E7E208E2D90E040E24D
:10314000A42EB12CA822B9223AE3632E20E4C22E89
:10315000D12CC822D9224CC08E2D0E94F217282FC4
:10316000882361F4FA9419F42FEF3FEF4CC061E02B
:1031700070E080E090E00E94391B3AC090E0C817F0
:10318000D9070CF42C2FC21BD1094FB7F8947092B9
:10319000E900A114B10421F406C01092F1002150FD
:1031A0002223D9F719C0E7FC03C0F801922F10C001
:1031B000C801322F06C0FC010196E491E093F100B2
:1031C00031503323C1F706C081918093F1009150B3
:1031D0009923D1F7020F111D8091E80085FF05C0EA
:1031E000209729F4C114D10411F06092E8004FBF78
:1031F000209709F0B1CF5D9884E68093EA02292DEB
:10320000382DC9019C01C901CDB7DEB7EEE00C94A1
:103210004C1F1F920F920FB60F9211242F933F93C2
:103220004F935F936F937F938F939F93AF93BF93CE
:10323000EF93FF938091E1001092E100982F83FFBC
:103240000FC01092E90081E08093EB001092EC0037
:1032500082E38093ED001092EC0288E08093F0000E
:1032600092FF34C083E08093E9008091F2008823CC
:1032700019F08AE38093E8008FB7F89492E0909376
:10328000E9009091F2008FBF992321F080E493E050
:103290000E94E81C8091EA02882351F08091EA02A2
:1032A00081508093EA028091EA02882309F45D9AB2
:1032B0008091EB02882351F08091EB028150809342
:1032C000EB028091EB02882309F4289AFF91EF9199
:1032D000BF91AF919F918F917F916F915F914F912E
:1032E0003F912F910F900FBE0F901F901895A1E066
:1032F000B0E0EDE7F9E10C943A1F19828E010F5FFF
:103300001F4FC8010E940E1DC8010E94A01E898186
:1033100090E02196E4E00C94561F1F920F920FB696
:103320000F921124EF92FF921F932F933F934F938D
:103330005F936F937F938F939F93AF93BF93EF931D
:10334000FF93DF93CF93CDB7DEB76197DEBFCDBFDD
:103350001092E9008091E80083FF04C1CE0101963C
:1033600068E00E94971782EF8093E800998197FFA9
:1033700005C08091E80080FFFCCF03C08EEF8093F2
:10338000E800292F30E0C90180769070892B09F080
:10339000C2C08A81882329F41092F1001092F100B2
:1033A000D6C0813009F4D3C0833009F4D0C0853051
:1033B00049F48091E80080FFFCCF8B818068809386
:1033C000E300C5C0863009F07CC01C81EF80F88422
:1033D0001230C1F51092E9001092EE021092ED0247
:1033E0001092F0021092EF020E94771999E0FE010C
:1033F0003996DF01292F1D922A95E9F799871A87B7
:1034000091E09E8790E8988B9AEF998B2091ED023E
:103410003091EE02275F3F4F3C872B878D871092BC
:10342000E9001092EE021092ED02F092F002E092AA
:10343000EF0280E0BF0149E050E00E9404180E94C2
:10344000771985C01092E9001092EE021092ED02F9
:10345000F092F002E092EF02123241F482E290E048
:103460000E94981E892B09F476C071C0113079F43E
:1034700088E0E816F10419F481E08093F10280916C
:10348000F102882309F06BC0E6E1F1E013C01330CC
:1034900009F061C08B81882319F4E8EDF0E00AC0DF
:1034A000823019F4ECEDF0E005C0813009F053C032
:1034B000EEEFF0E0449180E8BF0150E00E94041874
:1034C00046C0873009F447C0883021F481E08093FA
:1034D000F1003DC08930D9F523703070232BD9F528
:1034E000EBE3F1E091E031E026E39093E9003093E3
:1034F000EB0084918093EC002093ED009F5F319668
:10350000953099F78EE78093EA001092EA008B815C
:103510008093EC021CC08F8198851092E900109274
:10352000EE021092ED029093F0028093EF028D81F3
:10353000882329F4CE0101960E941A1D06C082300C
:1035400051F4CE0101960E94701D882321F08EEF68
:103550008093E80007C081E28093EB0003C0E8E2BB
:10356000F1E0A8CF6196DEBFCDBFCF91DF91FF9193
:10357000EF91BF91AF919F918F917F916F915F91EB
:103580004F913F912F911F91FF90EF900F900FBEA1
:103590000F901F9018951F920F920FB60F92112443
:1035A0002F933F938F939F93AF93BF938091F70295
:1035B0009091F802A091F902B091FA023091FB02C9
:1035C0000196A11DB11D232F2D5F2D3720F02D5702
:1035D0000196A11DB11D2093FB028093F7029093E9
:1035E000F802A093F902B093FA028091F30290914D
:1035F000F402A091F502B091F6020196A11DB11D51
:103600008093F3029093F402A093F502B093F60234
:10361000BF91AF919F918F913F912F910F900FBECE
:103620000F901F9018959FB7F8942091F302309156
:10363000F4024091F5025091F60286B5A89B06C0AF
:103640008F3F21F02F5F3F4F4F4F5F4F9FBF542F52
:10365000432F322F2227280F311D411D511D82E09B
:10366000220F331F441F551F8A95D1F7B901CA0194
:103670000895EF92FF920F931F93CF93DF937B01F7
:103680008C010E94131BEB010EC00E94131B6C1BCC
:103690007D0B685E7340C8F30894E108F1080109E6
:1036A0001109C851DC4FE114F1040105110569F756
:1036B000CDB7DEB7E6E00C94541F789484B58260F1
:1036C00084BD84B5816084BD85B5826085BD85B5C6
:1036D000816085BDEEE6F0E0808181608083E1E875
:1036E000F0E01082808182608083808181608083AD
:1036F000E0E8F0E0808181608083E1E9F0E08081B2
:1037000082608083808181608083E0E9F0E0808155
:1037100081608083E1ECF0E080818460808380813F
:1037200082608083808181608083E3ECF0E080812F
:1037300081608083E0ECF0E0808182608083E2EC55
:10374000F0E0808181608083EAE7F0E0808184603E
:10375000808380818260808380818160808380819A
:10376000806880830895CF93DF93482F50E0CA018B
:1037700089579E4FFC01349147595E4FFA0184915D
:10378000882369F190E0880F991FFC01E15CFE4FEE
:10379000A591B491FC01E35BFE4FC591D4916623E2
:1037A00051F42FB7F8948C91932F909589238C9393
:1037B000888189230BC0623061F42FB7F8948C9113
:1037C000932F909589238C938881832B88832FBF97
:1037D00006C09FB7F8948C91832B8C939FBFDF9189
:1037E000CF91089590E0FC013197EE30F10590F50E
:1037F000E25AFF4F0C94631F809180008F7703C0C3
:10380000809180008F7D80938000089584B58F77AC
:1038100002C084B58F7D84BD0895809190008F771C
:1038200007C0809190008F7D03C080919000877FBA
:103830008093900008958091C0008F7703C080919D
:10384000C0008F7D8093C00008958091C200877F63
:103850008093C2000895FF920F931F93F62E482F76
:1038600050E0CA018B559E4FFC012491CA01895733
:103870009E4FFC01149147595E4FFA0104910023B9
:10388000C9F0222319F0822F0E94F21BE02FF0E0F2
:10389000EE0FFF1FE35BFE4FA591B4919FB7F89425
:1038A000FF2021F48C911095812302C08C91812BF3
:1038B0008C939FBF1F910F91FF90089520913C031F
:1038C00030913D0380913E0390913F03281B390BBB
:1038D0002F733070C901089520913C0330913D034E
:1038E00080913E0390913F032817390719F42FEF79
:1038F0003FEF09C0E0913E03F0913F03E450FD4FDC
:103900008081282F30E0C901089520913C03309137
:103910003D0380913E0390913F032817390719F426
:103920002FEF3FEF13C0E0913E03F0913F03E450CF
:10393000FD4F208180913E0390913F0301968F734C
:10394000907090933F0380933E0330E0C901089547
:10395000109243031092420388EE93E0A0E0B0E09F
:103960008093440390934503A0934603B093470389
:103970008AE891E090934103809340030895A1E089
:10398000B0E0E5ECFCE10C943A1F8C016983809176
:103990004A01882369F083E0BE016F5F7F4F41E0F9
:1039A00050E00E9486181816190614F49C0107C0EE
:1039B00081E090E0F8019383828320E030E0C90148
:1039C0002196E4E00C94561F83E00E945D18089550
:1039D000CF93DF9312C082E00E94D8172FEF8F3F62
:1039E0009207C9F0E0913C03F0913D03E450FD4F94
:1039F0008083D0933D03C0933C03C0913C03D0919E
:103A00003D032196CF73D07080913E0390913F0388
:103A1000C817D90701F7DF91CF910895FC01808184
:103A20008E5F808380E86FEC71E042E450E00E949A
:103A300004180895FC0181819081913A59F48132F2
:103A400009F04CC080E063E471E047E050E00E9480
:103A5000041842C0913209F041C0803239F483E445
:103A600091E067E070E00E94481836C0823209F0A9
:103A700035C0828180934A01809143019091440135
:103A8000A0914501B0914601805B9440A040B040B8
:103A900019F580914A0180FD12C087E797E790935E
:103AA0000108809300082BE088E190E00FB6F894BD
:103AB000A895809360000FBE209360000DC088E140
:103AC0000FB6F89480936000109260000FBEA89526
:103AD000109201081092000881E0089580E0089596
:103AE000FC0191818081813A31F4913089F080E04C
:103AF000933089F40DC0813269F49B3021F48281C6
:103B000080934B0105C09A3029F4828180934C0147
:103B100081E0089580E00895EF92FF920F931F9344
:103B20008C01E62EDC01ED91FC910480F581E02D05
:103B30000995F82ED801ED91FC910680F781E02DD2
:103B4000C8016E2D09958F2D90E01F910F91FF9068
:103B5000EF90089510924E03109252031092510369
:103B60008CE991E09093500380934F030895A1E076
:103B7000B0E0EDEBFDE10C94381F89838B017A01F5
:103B800084E0BE016F5F7F4F41E050E00E948618E5
:103B900084E4B801A7010E9486182196E6E00C94FF
:103BA000541F82E048E050E00E94B71D0895FC01D8
:103BB0001682178210861186128613861482349616
:103BC000BF010E94D11D0895DC01683810F06858CB
:103BD00029C0E62FF0E067FF13C0E058F04081E015
:103BE00090E002C0880F991FEA95E2F7809514963D
:103BF0002C911497282314962C93149760E012C0EC
:103C0000E157FD4F6491662319F420E030E01DC0B8
:103C100067FF08C014968C9114978D7F14968C932F
:103C200014976F77FD0190E0662321F08681861757
:103C300009F416829F5F31969630B1F7CD01149644
:103C4000BD010E94D11D21E030E0C9010895CF934C
:103C5000DF93DC01683810F0685825C0E62FF0E0EB
:103C600067FF12C0E058F04081E090E002C0880F8A
:103C7000991FEA95E2F714962C911497282B149625
:103C80002C93149760E00FC0E157FD4F64916623B9
:103C9000D9F167FF08C014968C911497826014962E
:103CA0008C9314976F7716968C9116978617A9F1B7
:103CB00017968C911797861781F118968C91189703
:103CC000861759F119968C911997861731F11A9622
:103CD0008C911A97861709F11B968C911B97861762
:103CE000E1F0ED01E0E0F0E09E2F8E81882321F4E9
:103CF000EA0FFB1F668306C09F5F31962196E63070
:103D0000F10591F7963049F481E090E013969C9389
:103D10008E93129720E030E007C0CD011496BD01CC
:103D20000E94D11D21E030E0C901DF91CF910895BB
:103D300080E861E172E045E650E00E9404180895D1
:103D4000FC0180818F5F808380E866E772E049E153
:103D500050E00E9404180895A0E0B0E0E2EBFEE11C
:103D60000C94361F7C016B018A01C0E0D0E00FC0CB
:103D7000D6016D916D01D701ED91FC910190F0811B
:103D8000E02DC7010995C80FD91F0150104001153A
:103D9000110571F7CE01CDB7DEB7E8E00C94521FE4
:103DA000629FD001739FF001829FE00DF11D649F1F
:103DB000E00DF11D929FF00D839FF00D749FF00DAB
:103DC000659FF00D9927729FB00DE11DF91F639F4C
:103DD000B00DE11DF91FBD01CF0111240895A1E22D
:103DE0001A2EAA1BBB1BFD010DC0AA1FBB1FEE1F75
:103DF000FF1FA217B307E407F50720F0A21BB30BC0
:103E0000E40BF50B661F771F881F991F1A9469F73B
:103E100060957095809590959B01AC01BD01CF0197
:103E2000089597FB092E05260ED057FD04D0D7DF45
:103E30000AD0001C38F450954095309521953F4F9D
:103E40004F4F5F4F0895F6F7909580957095619567
:103E50007F4F8F4F9F4F08952F923F924F925F92C7
:103E60006F927F928F929F92AF92BF92CF92DF928A
:103E7000EF92FF920F931F93CF93DF93CDB7DEB7EF
:103E8000CA1BDB0B0FB6F894DEBF0FBECDBF099483
:103E90002A88398848885F846E847D848C849B84DA
:103EA000AA84B984C884DF80EE80FD800C811B81E8
:103EB000AA81B981CE0FD11D0FB6F894DEBF0FBE17
:103EC000CDBFED010895EE0FFF1F0590F491E02D99
:103ED0000994DC01CB01FC01F999FECF06C0F2BDCB
:103EE000E1BDF89A319600B40D9241505040B8F7B8
:103EF0000895DC01CB0103C02D910E94841F415025
:103F00005040D0F70895262FF999FECF1FBA92BDE1
:103F100081BD20BD0FB6F894FA9AF99A0FBE0196AA
:063F20000895F894FFCFA4
:103F2600FFFFFFDC05DC05DC05DC05E803DC05E856
:103F360003DC05DC05DC05DC05DC05C001BE01C4CF
:103F460001BC010000C201C801C60100000701034F
:103F56000105010B010000000000000B0AFF09FF2C
:103F66000DFFFF00E10000000000000101788998C4
:103F76008778899887FF000000000000000102038F
:103F860004050607A0860100801A06000503030340
:103F9600040202020101010101010101CA01CC0171
:103FA600CE01D001D40100000000BF1CAC1E5E1C77
:103FB600851C6C1CE41CE81C000000008C1DAC1E5B
:063FC600271EE41DD71DBB
:00000001FF
