:100000000C946A000C9492000C9492000C94920050
:100010000C9492000C9492000C9492000C94920018
:100020000C9492000C9492000C9492000C94131473
:100030000C9492000C9494000C9492000C949200F6
:100040000C9475190C9492000C9437170C94851726
:100050000C9492000C94C8020C9492000C949200A0
:100060000C9492000C949200E7060907CA07E70671
:100070000907CA07130882080000000024002700AF
:100080002A0000000000250028002B0000000000CE
:1000900023002600290004040404040404040202CA
:1000A00002020202030303030303010204081020F7
:1000B0004080010204081020010204081020000002
:1000C0000007000201000003040600000000000019
:1000D0000000EC1811241FBECFEFD8E0DEBFCDBF6B
:1000E00011E0A0E0B1E0E8E4F7E302C005900D9272
:1000F000A63AB107D9F713E0A6EAB1E001C01D9214
:10010000AB3AB107E1F710E0C4EDD0E004C02297AC
:10011000FE010E94761BC23DD107C9F70E94421919
:100120000C94A21B0C9400001F920F920FB60F921A
:1001300011248F939F9380915B0290915C020196B2
:1001400090935C0280935B0280915B0290915C02D1
:10015000892B29F480915D028F5F80935D029F91CE
:100160008F910F900FBE0F901F9018956091840093
:100170007091850020915B0230915C02E0915D02FC
:1001800080918400909185008627972797FDEECF78
:1001900080915B0290915C022817390739F78091B2
:1001A0005D02E81719F740E050E0FFE0220F331F2F
:1001B000441F551FFA95D1F78E2F90E0A0E0B0E0D4
:1001C000BB278695B795AA2799278827282B392BEF
:1001D0004A2B5B2B76956795CB01A0E0B0E0282BEE
:1001E000392B4A2B5B2BB901CA010895AF92BF92FC
:1001F000CF92DF92EF92FF920F931F9328EE33E09E
:1002000040E050E00E94E11A5B016C010E94B600E0
:100210007B018C010E94B6006E197F09800B910B47
:100220006A157B058C059D05A8F31F910F91FF9022
:10023000EF90DF90CF90BF90AF900895882321F08A
:10024000813021F42D9A08952D98089585B190E27A
:10025000892785B90895EF92FF920F931F937B0131
:100260008C018091EE029091EF02A091F002B0918A
:10027000F1028E199F09A00BB10B181619061A0668
:100280001B060CF450C08091F202882321F5E09106
:10029000F302EF5FE370E093F302FF27E7FDF095D1
:1002A000E25AFD4F8081992787FD9095880F991F0D
:1002B0008093F20280E492E4AFE0B0E0E80EF91E31
:1002C0000A1F1B1FE092EE02F092EF020093F00271
:1002D0001093F10228C081508093F20281700E9435
:1002E0001E01E091F302FF27E7FDF095EE0FFF1FDF
:1002F000EE59FD4F80819181AA2797FDA095BA2FD5
:100300002AE0880F991FAA1FBB1F2A95D1F78E0DCF
:100310009F1DA01FB11F8093EE029093EF02A09348
:10032000F002B093F1021F910F91FF90EF900895AA
:100330009A01AB01882311F0459A449A1092B900B2
:1003400060E074E284EF90E00E94001B2051304096
:100350004040504056954795379527952093B800D3
:1003600008952FEF30E011C02115310561F410928E
:10037000BC0080916A0290916B02019690936B028F
:1003800080936A020895215030408091BC0087FF1D
:10039000EBCF0895FF920F931F93F82E0CEB10E014
:1003A00084EAF80180830E94B101F092BB0084E8E6
:1003B000F80180830E94B1011F910F91FF90089571
:1003C0008093BB0084E88093BC000E94B101089533
:1003D0001F93182F882311F484E801C084EC8093C4
:1003E000BC000E94B1019091BB00112319F484E973
:1003F0008093BC00892F1F9108950F931F93162F90
:10040000042F880F0E94CA01812F0E94E001802FD3
:100410000E94E00184E98093BC001F910F91089530
:100420000F931F93182F062F880F0E94CA01802F49
:100430000E94E001110F812F81600E94CA0180E0BB
:100440000E94E8011F910F9108951F93CF93DF93AE
:10045000EB01142F880F81600E94CA0108C011505F
:1004600080E011160CF481E00E94E80189931123C9
:10047000B1F7DF91CF911F910895DF92EF92FF9234
:100480000F931F93E82EF62E8A01D22E880F0E941A
:10049000CA018F2D0E94E0018E2DB8014D2D0E94C2
:1004A00025021F910F91FF90EF90DF90089588E64D
:1004B0006BE640E80E94FD0162E370E080E090E0BE
:1004C0000E94F60088E66BE643E00E94FD0188E6A4
:1004D0006AE140E00E94FD0188E66BE148E10E948C
:1004E000FD0188E665E70E94100290E08E7788366D
:1004F00009F491E0892F0895A6E0B0E0E2E8F2E087
:100500000C94471B8C017B016A0188E663E4AE0111
:100510004F5F5F4F26E00E943D02998180E02A8173
:1005200030E0822B932BF801918380839B8180E0C4
:100530002C8130E0822B932BF701918380839D8166
:1005400080E02E8130E0822B932BF6019183808313
:100550002696E8E00C94631B282F17C0E22FF0E0EA
:10056000EE0FFF1FE459FD4F80819181892B61F0CF
:1005700080917C00887F822B80937C0080917A0020
:10058000806480937A0008952F5F263038F30895B1
:100590001F920F920FB60F9211242F933F934F93F8
:1005A0005F936F937F938F939F93AF93BF93EF93DB
:1005B000FF9380917C008770E82FF0E0EE0FFF1F23
:1005C000E459FD4F0190F081E02D909179009083E6
:1005D0008F5F0E94AC02FF91EF91BF91AF919F910D
:1005E0008F917F916F915F914F913F912F910F90DC
:1005F0000FBE0F901F901895ECE6F2E040E050E03F
:1006000061E070E080819181892B79F087B1DB0115
:10061000042E02C0AA0FBB1F0A94E2F79D01209589
:10062000822387B988B1282328B94F5F5F4F32965C
:100630004630510539F780E680937C0010927B00AC
:100640008FE880937A0080E00E94AC020895CF93F7
:10065000DF93EB01DA01FC0140E050E061E070E083
:1006600080819181892B79F03881CB01042E02C0E1
:10067000880F991F0A94E2F7282F209523232883B7
:100680002C91822B8C934F5F5F4F329648305105EF
:1006900039F7DF91CF91089588E792E064E270E046
:1006A00045E250E00E9427038BE391E067E270E0AF
:1006B00048E250E00E94270388E892E06AE270E096
:1006C0004BE250E00E942703089560E070E040E0B4
:1006D00050E0A1E0B0E0362FFA01E858FD4F01905C
:1006E000F081E02D309751F023B1CD01062E02C0EC
:1006F000880F991F0A94E2F728232083FA01E55C0A
:10070000FE4F0190F081E02D309751F026B1CD01E0
:10071000032E02C0880F991F0A94E2F72823208332
:10072000FA01E857FD4F0190F081E02D309749F034
:1007300029B1CD0102C0880F991F3A95E2F728230D
:1007400020836F5F7F4F4E5F5F4F4031510519F639
:100750000895A6E0B0E0EFEAF3E00C943D1B7A8345
:1007600069831C012B019E838D839B012A5F3F4F70
:100770003C832B83ED81FE810681178180819181ED
:10078000081B190B3801882477FC8094982CF10100
:1007900082899389A489B589860D971DA81DB91DE5
:1007A000268D378D40A151A1AA24BB246501A21A30
:1007B000B30AC40AD50A8A159B05AC05BD054CF0E1
:1007C0005C016D01281739074A075B0714F45901CA
:1007D0006A01F101A28AB38AC48AD58AED81FE81B9
:1007E00084859585AA2797FDA095BA2FA40193012A
:1007F000281B390B4A0B5B0BCA01B901158704870B
:10080000F20124853585442737FD4095542F0E94F9
:10081000E11A7B018C0132E015950795F794E79476
:100820003A95D1F7F20120813181442737FD409577
:10083000542FC401B3010E94E11A23E095958795D6
:10084000779567952A95D1F7E60EF71E081F191FB1
:10085000F20126813781442737FD4095542FC60188
:10086000B5010E94E11AB6E0959587957795679551
:10087000BA95D1F7E60EF71E081F191FE981FA8114
:10088000028804C015950795F794E7940A94D2F767
:10089000ED81FE81F3A6E2A63296FE83ED8324E08D
:1008A00030E0220E331E42E050E0440E551E8B8194
:1008B0009C814816590609F05DCF2696E2E10C941A
:1008C000591BA6E0B0E0E7E6F4E00C944D1BCE0126
:1008D0000196BE016D5F7F4FAE014B5F5F4F0E947F
:1008E0007C028B819C81909581959F4F9093E00134
:1008F0008093DF0149815A8166277727641B750B36
:100900007093E2016093E1012D813E813093E40117
:100910002093E30180910F029091100282309105A3
:1009200019F00397B1F409C03093E2012093E1017B
:100930005093E4014093E3010CC088279927821B60
:10094000930B9093E2018093E1017093E401609333
:10095000E3012696E2E00C94691B81E040E85AE14D
:1009600066E070E00E9498010E945702882349F4D3
:1009700085E08093600288EC90E09093670280931A
:10098000660208950F931F93CF93DF93FC011082AB
:10099000772767FD709572836183DC01EC0140E08D
:1009A00050E00FEF1FE760E070E80CC012961C9358
:1009B0000E9311971A967C936E9319971F86188A37
:1009C000198A1A8A9A014F5F5F4F12962496818185
:1009D00092812817390754F314A613A6DF91CF91FB
:1009E0001F910F910895A0E0B0E0E9EFF4E00C94BE
:1009F000451B7C018C01EB01F70160E070E02BC02E
:100A00002181328188819981281739070CF4C90125
:100A1000928381832185328588819981821793070A
:100A20000CF4C9019287818729913991442737FDB8
:100A30004095542FD8011F96AD90BD90CD90DC907D
:100A40005297A20EB31EC41ED51E1F96AD92BD9224
:100A5000CD92DC9252979B016F5F7F4F32960C5F75
:100A60001F4FD70111968D919C9112972817390726
:100A70003CF2CDB7DEB7EAE00C94611BA0E0B0E039
:100A8000E4E4F5E00C94471BEC017C0143E2C42E46
:100A9000D12CC80ED91E00E010E011C02BA53CA53A
:100AA000442737FD4095542FF70167857089818968
:100AB00092890E94221BF601219331936F019801C4
:100AC0000F5F1F4F84E090E0E80EF91E89819A8144
:100AD000281739071CF3CDB7DEB7E8E00C94631B89
:100AE000CF93DF93FC01EB0161817281A0E040E0D4
:100AF00050E00DC08385948523813481821B930B44
:100B00008C179D070CF4AF5F4F5F5F4F329646170F
:100B1000570784F320E08A2F992787FD9095861741
:100B2000970709F421E0822FDF91CF910895A8E083
:100B3000B0E0EDE9F5E00C944B1B8C018091A6012F
:100B40009091A7019A8389838091AA019091AB012A
:100B50009C838B838091AC019091AD019E838D83AA
:100B60008091A8019091A90198878F83C801BE0147
:100B70006F5F7F4F0E94F304F80183A594A501964F
:100B800094A783A78436910551F5C80164E170E00C
:100B90000E9470058823F9F0C8010E943E05F80103
:100BA00083A194A1909314018093130185A196A130
:100BB000909316018093150187A190A59093180139
:100BC0008093170181A592A590931A018093190132
:100BD00081E0808304C0C80164E00E94C2042896BA
:100BE000E4E00C94671BA6E0B0E0E9EFF5E00C94BC
:100BF0004B1B8C018091DF019091E0019A838983E6
:100C00008091E1019091E2019C838B838091E301CB
:100C10009091E4019E838D83C801BE016F5F7F4F79
:100C20000E94F304F80183A594A5019694A783A7D5
:100C30008C52914021F5C80162E370E00E9470057A
:100C40008823C9F0C8010E943E05F80183A194A140
:100C50009093DA018093D90185A196A19093DC014C
:100C60008093DB0187A190A59093DE018093DD0145
:100C700081E0808304C0C80163E00E94C20426961C
:100C8000E4E00C94671B20910301309104018091F2
:100C90000301909104012817390721F43093A7012B
:100CA0002093A60120910501309106018091050154
:100CB000909106012817390721F43093AB01209356
:100CC000AA012091070130910801809107019091BC
:100CD00008012817390721F43093AD012093AC01A6
:100CE00020910B0130910C0180910B0190910C012E
:100CF0002817390721F43093AF012093AE012091DA
:100D00000D0130910E0180910D0190910E01281777
:100D1000390721F43093B1012093B00120910F01E4
:100D20003091100180910F0190911001281739071F
:100D300021F43093B3012093B2012091110130913D
:100D4000120180911101909112012817390721F4A5
:100D50003093B5012093B4018091430290914402F5
:100D600005974CF48091A6019091A7019093A90159
:100D70008093A80108952091090130910A01809182
:100D8000090190910A012817390721F43093A9012C
:100D90002093A8010895A0E0B0E0E1EDF6E00C9406
:100DA000471BDC01C0904302D0904402F601329709
:100DB000E830F10508F0E3C1EC5CFF4F6D917C91E8
:100DC00011970091A6011091A7010C94741B600F5C
:100DD000711F7093CC016093CB018D919C91119701
:100DE0002091A8013091A901820F931F9093D20105
:100DF0008093D10112968D919C9113972091AA0115
:100E00003091AB01820F931F9093CE018093CD015F
:100E1000A8C17801E60EF71EF092CC01E092CB015A
:100E2000E091A801F091A901CD91DC911197CE0F2D
:100E3000DF1FD093D201C093D1014091B6015091F0
:100E4000B70144525A4F8D919C911197480F591FE9
:100E500012966D917C9113978091AA019091AB01AC
:100E6000680F791FCB01840F951F9C01359527953D
:100E7000359527953595279595958795280F391F91
:100E8000275731403093CE012093CD01461B570B9D
:100E9000CA0133E0959587953A95E1F755954795C1
:100EA000840F951F84529A4F9093D0018093CF0165
:100EB0002091AC013091AD0146E0C416D10409F097
:100EC00060C084E0223E380774F029573540273C43
:100ED000310518F082E090E002C081E090E00297D6
:100EE00009F04DC121C08091190190911A01800F24
:100EF000911F8E1B9F0B2091130130911401821BB7
:100F0000930B9595879584529A4F9093CC0180933B
:100F1000CB018C5D95402CED35E0281B390B3093CF
:100F2000D2012093D1012BC12091020112966D9123
:100F30007C911397E091B801F091B9016E0F7F1F7A
:100F4000882777FD8095982F30E02058304044273F
:100F500037FD4095542F0E94E11AA7E0959587959B
:100F600077956795AA95D1F7E60EF71EF092CC011A
:100F7000E092CB01C61BD70BD093D201C093D10115
:100F8000FEC09093CC018093CB0114968D919C91DF
:100F90001597EFC0600F711F7093CC016093CB0168
:100FA0008D919C9111972091A8013091A901820FF8
:100FB000931F9093D2018093D10112966D917C91F1
:100FC00013978091AA019091AB01680F791F149635
:100FD0004D915C9115978091AC019091AD01480FB6
:100FE000591FCA01860F971F9C01F3E0359527957D
:100FF000FA95E1F795958795280F391F27573140C6
:101000003093CE012093CD01461B570BCA01B3E0AC
:1010100095958795BA95E1F755954795840F951F56
:1010200084529A4FA8C02091130130911401129656
:10103000CD91DC9113978091B8019091B901C80FBF
:10104000D91F14960D90BC91A02D8091BA0190915A
:10105000BB01A80FB91F8091090190910A018C541E
:10106000944097FF03C040E050E016C08091090112
:1010700090910A018C54944095958795855F914095
:101080001CF044EF51E008C04091090150910A0161
:101090004C54544055954795F801E452FA4FE21BE1
:1010A000F30BE60FF71FBE016E0F7F1F9A012A1B7D
:1010B0003B0B37FF02C020E030E0CB01821B930BDB
:1010C0009093CC018093CB01260F371F3093CE0134
:1010D0002093CD01BF016C1B7D0B9A012A0F3B1F92
:1010E00037FF02C020E030E0C901860F971F9093C0
:1010F000D2018093D101621B730B7093D001609376
:10110000CF013DC0600F711F7093CC016093CB0184
:101110008D919C9111972091A8013091A901820F86
:10112000931F9093D2018093D10112968D919C913F
:1011300013972091AA013091AB01820F931F9093D6
:10114000CE018093CD018091B4019091B5011296AA
:101150002D913C911397821B930B9093D601809312
:10116000D50114968D919C9115972091AC013091E9
:10117000AD01820F931F9093D0018093CF01809196
:10118000B2019091B3019093D4018093D30189E08F
:10119000C816D10441F08091B4019091B5019093AB
:1011A000D6018093D5018091B0019091B1019093C7
:1011B000D8018093D701CDB7DEB7E8E00C94631B6C
:1011C000AAE0B0E0E6EEF8E00C944B1B809102023E
:1011D000909103020397A9F5FE0131968AE0DF01A1
:1011E0001D928A95E9F7CF010E94CB06ACE8B1E0E9
:1011F0000BEE11E045EF51E06D917C911197F801F4
:1012000020813181FB0180819181281739070CF4FD
:10121000C901F80191838083FA0120813181FB01AA
:1012200080819181821793070CF4C901FA0181939F
:101230009193AF0112960E5F1F4FF1E0A639BF07E1
:10124000D9F685EE91E00E94CB0680914302909101
:101250004402099711F074E001C075E060E080E09D
:1012600090E0FC01E457FE4FA081B1814D915C916B
:101270001197FC01E551FE4F0190F081E02D4E17D2
:101280005F0754F0FC01EB50FE4F20813181FA01E1
:10129000241735070CF4F901ED93FC936F5F029668
:1012A0006717FCF22A96E4E00C94671B80919A027F
:1012B000882309F050C081E080939A028FEF8093D9
:1012C00099022FB7F8948091CB019091CC01909323
:1012D000BE018093BD018091CD019091CE0190938C
:1012E000C0018093BF018091CF019091D001909374
:1012F000C2018093C1018091D1019091D20190935C
:10130000C4018093C3018091D3019091D401909343
:10131000C6018093C5018091D5019091D60190932B
:10132000C8018093C7018091D7019091D801909313
:10133000CA018093C90180916F00826080936F0021
:10134000B19A8091840090918500049690938900D1
:10135000809388002FBF0895FC0181E08183808302
:1013600085E08283168215821086178208959C017B
:1013700044E0813B940714F490E00DC08451954003
:101380008159914010F491E006C02850374014F480
:101390009FEF06C092E0662319F082E0891B982F28
:1013A000892F0895CF93DF93EC018A818B838091FD
:1013B000A6019091A7016D810E94B70987FF8883DC
:1013C0008091AA019091AB016E810E94B70987FFBD
:1013D00089838F81882351F48881882329F0823082
:1013E00029F481E08D83188281E08F8388858823AA
:1013F00061F48981882319F0823039F404C081E0D6
:101400008E8382E0898381E0888738813F5F89818C
:1014100023E08202C0011124380F3A839B8180E0CF
:10142000391729F081E09295907F932B9C83DF916F
:10143000CF910895282F30E03F6F220F331FEFB771
:10144000F8948091840090918500AC01405C5F4FDE
:10145000BC016D5D7A4F8091840090918500DA0126
:10146000A81BB90B1A161B06B4F320FF02C038984C
:1014700001C0389A4617570729F0369527954557E2
:101480005F4FE9CFEFBF0895EFB7F894309917C0D9
:101490004BC020918400309185002058314C04C00D
:1014A0008FEF9FEF309B0BC080918400909185005F
:1014B000B901681B790B1616170614F4F1CFAC01AD
:1014C00041505040CA0101961816190614F34F5F97
:1014D0005F4F19F420E030E829C08091840090919A
:1014E0008500AC0140565F4F20E030E0BC016359FD
:1014F0007B4F8091840090918500DA01A81BB90B85
:101500001A161B06B4F3309903C080E090E002C0C5
:1015100080E890E036952795282B392B46175707FA
:1015200029F045575F4FE5CF20E030E4EFBFC90118
:101530000895EF92FF920F931F93CF93DF93E82EBE
:10154000192F062FF62E84E20E941A0A802F0E947D
:101550001A0A2E2D312FC901EC0104C08991F80E11
:101560000E941A0A9E012E192017C4F38F2D81950F
:101570000E941A0ACDB7DEB7E6E00C94651B8F9285
:101580009F92AF92BF92CF92DF92FF920F931F93E1
:10159000CF93DF934C015A01C0E0D0E0C62EDD248A
:1015A000C7FCD09402C0812F182FC5010E94440AA5
:1015B0009C018070907C892B69F5822FC130D10508
:1015C00059F0C230D105A1F0209779F7243259F7AC
:1015D000812FC1E0D0E0E8CF90E0C816D90614F41E
:1015E000812F15C0822FF22EC2E0D0E000E0DCCFC8
:1015F000F20E812F8150112331F0F401E00FF11D23
:1016000020830F5FD1CFFF2011F481E004C0C0E040
:10161000D0E0CACF80E0DF91CF911F910F91FF9072
:10162000DF90CF90BF90AF909F908F900895A0E0F3
:10163000B0E0EDE1FBE00C94471B00E0CCEDD5E021
:101640002EC11092ED022093E9023093EA024093FA
:10165000EB025093EC028091ED02882319F41F30C5
:1016600009F058C1E82FFF27E7FDF095E053FD4F43
:1016700010838F5F8093ED0289310CF410C180914B
:10168000E802882311F01092ED02E0914502F091FA
:1016900046024091D20250E0942F88272091D10237
:1016A00030E0822B932B97709695879583519C4FB2
:1016B00091838083E0914702F09148022091D30208
:1016C00030E0C90165E0880F991F6A95E1F703E0F2
:1016D000569547950A95E1F7842B952B977096952B
:1016E000879583519C4F91838083E0914902F091CB
:1016F0004A024091D50250E08091D40290E0880FD8
:10170000991F880F991F76E0369527957A95E1F70E
:10171000822B932B9A01322F2227330F330F822BE8
:10172000932B97709695879583519C4F91838083D7
:10173000E0914B02F0914C022091D60230E0C901B9
:101740009695982F88279795879556954795842B3A
:10175000952B97709695879583519C4F91838083A5
:10176000E0914D02F0914E024091D70250E0CA0143
:1017700074E0880F991F7A95E1F764E03695279514
:101780006A95E1F7822B932B9770969587958351F5
:101790009C4F91838083E0914F02F09150026091C1
:1017A000D90270E08091D80290E0880F991F440F11
:1017B000452F441F550B5195842B952B9B01322FA0
:1017C0002227330F822B932B977096958795835101
:1017D0009C4F91838083E0915102F09152022091BD
:1017E000DA0230E0C90106E0880F991F0A95E1F797
:1017F0007695679576956795862B972B9770969536
:10180000879583519C4F91838083E0915302F0919F
:1018100054028091DB0290E073E0880F991F7A9563
:10182000E1F765E0369527956A95E1F7822B932BD2
:101830009695879583519C4F91838083A5E4B2E070
:10184000ED91FC911197808191818C5D95408CF494
:101850002081318180819181AE01481B590BCA01E1
:101860009595879595958795281B390B318320830E
:101870000EC020813181808191818C5D954095954C
:10188000879595958795820F931F918380831296F4
:1018900052E0A535B507A1F61092ED0201E0E09106
:1018A0005301F0915401A081B18114962D913C9186
:1018B0001597CF01F9010995892B61F18091ED020E
:1018C000893144F5A0915301B0915401ED91FC91FF
:1018D00011970680F781E02DCD010995182F0E9400
:1018E000B6009B01AC018091E9029091EA02A091BF
:1018F000EB02B091EC0269017A01C81AD90AEA0A2E
:10190000FB0AD701C60189589341A040B0400CF0B2
:1019100098CE99CE802FCDB7DEB7E8E00C94631B4C
:10192000809153019091540140EA56E861E070E0E3
:101930002EE20E94C01708951F93CF93DF93EC010E
:10194000142F44E450E00E947A1B8881811711F023
:101950008FEF12C090E020E030E0FE01E20FF31FB5
:101960008081980F2F5F3F4F24343105B1F79923C1
:1019700011F480E001C08EEFDF91CF911F910895A7
:10198000DC0190E020E030E0FD01E20FF31F8081F8
:10199000980F2F5F3F4F23343105B1F7AD5BBF4F39
:1019A00091959C93A354B040CD0144E450E00E9433
:1019B0008A1B0895A1E1B0E0E0EEFCE00C943D1B31
:1019C0001C0181E0898380E092E09B838A830296F8
:1019D0009D838C830D969F838E830296998788873B
:1019E00002969B878A8702969D878C8702969F879F
:1019F0008E87CE010196998B888BD0900002DD0CEA
:101A0000CC246624EE24FF248701F0E88F2EFAE12F
:101A10009F2EF6E0AF2EB12CE2E07E2E2C010E942C
:101A2000B6009B01AC01DC01CB018E199F09A00B14
:101A3000B10B88169906AA06BB060CF051C0171404
:101A400024F5872D992787FD9095FC01E170F070B2
:101A500080FD03C088E097E002C08CED95E0909394
:101A6000CE018093CD018CED95E09093CC018093D5
:101A7000CB01EE0FFF1FEE0FFF1FEC58FE4F8080D3
:101A80009180A280B3807A9429C0DD2039F11D14A1
:101A900024F46CE271E0A1E003C064ED7EEFAFEFEF
:101AA0008D2D992787FD9095FC01E170F07080FFE6
:101AB00003C08CED95E003C0CB0184529A4F909304
:101AC000CC018093CB01EE0FFF1FEE0FFF1FEC58F0
:101AD000FE4F80809180A280B380DA1A79018A015A
:101AE0000E94170B882319F091E09093980280913F
:101AF0009802882329F0109298020E94430602C09F
:101B0000662041F080919A02882309F08CC00E94DF
:101B100056096624772009F082CFC1010E94D209BC
:101B2000882309F47CCFF1018481843561F0853507
:101B300020F4823509F063C013C0863559F088352A
:101B400009F05DC02AC0F1E0FC1514F0CC2470C08F
:101B5000CA946EC085E08C150CF468C0C39468C04C
:101B6000AC2DBB27A7FDB095FD01EE0FFF1FE40DC7
:101B7000F51D0180F281E02D8081282F332727FD7C
:101B800030952F5F3F4FA458BE4F8C91992787FD0A
:101B9000909582179307F4F41CC0AC2DBB27A7FDCA
:101BA000B095FD01EE0FFF1FE40DF51D0180F281E0
:101BB000E02D8081282F332727FD3095215030409C
:101BC000AC57BE4F8C91992787FD90952817390700
:101BD0000CF49C01208320E08C2D992787FD9095A3
:101BE000FC01EE0FFF1FE40DF51D0180F281E02DD9
:101BF000D080DD0C222319F00196782E770C898194
:101C0000823009F00CCF8FEF91E060E070E00E942D
:101C1000C00C8FEF91E060E071E00E94C00C619613
:101C2000E2E10C94591B6624639474CFB7E0CB2E89
:101C300021E0D2CFA1E9B0E0E0E2FEE00C943D1B50
:101C40000E94B6001B012C01DE011196E6E6F1E0D0
:101C500086E001900D928150E1F78E010D5E1F4FDD
:101C6000C8010E94AC099CE1E92EF12CEC0EFD1E8E
:101C7000C70164E00E94C20489E4C82ED12CCC0EB6
:101C8000DD1EC60163E00E94C2042092CC023092A5
:101C9000CD024092CE025092CF02C657DF4F28822B
:101CA00039824A825B82CA58D040CA57DF4F2882A5
:101CB00039824A825B82C658D040CE57DF4F288295
:101CC00039824A825B82C258D04042013101C258F7
:101CD000DF4F288239824A825B82CE57D040EB9612
:101CE0002CAE3DAE4EAE5FAEEB97EE961FAEEE97CE
:101CF000ED961FAEED9721E0EC962FAFEC97C25713
:101D0000DF4FE882CE58D040C157DF4FF882CF581E
:101D1000D040C057DF4F0883C059D040CF56DF4F67
:101D20001883C159D0400E94B6005B016C010E942B
:101D30002B010E94170B882319F031E03093980291
:101D4000809198028823A1F4D601C501C657DF4FC0
:101D5000488159816A817B81CA58D040841B950B88
:101D6000A60BB70B81539547A040B0400CF442C07E
:101D7000109298020E9443068C8D882369F0C65702
:101D8000DF4FA882B982CA82DB82CA58D04061E0A4
:101D9000EE966FAFEE972EC0C257DF4F8881CE58B8
:101DA000D040C157DF4F9881CF58D0400E9497054F
:101DB0002A968FAD2A97882311F492E001C090E013
:101DC00020E08C8D882309F421E0920F90935F022C
:101DD00088EC90E09093650280936402C657DF4FD1
:101DE000A882B982CA82DB82CA58D04091E0EE96BE
:101DF0009FAFEE9780919A02882379F5EE96AFAD6A
:101E0000EE97AA2351F1A6019501CA57DF4F6881C9
:101E100079818A819B81C658D040261B370B480B9D
:101E2000590B8091570290915802A0915902B0919C
:101E30005A0282179307A407B5077CF40E94E008B2
:101E40000E945609CA57DF4FA882B982CA82DB8234
:101E5000C658D040EE961FAEEE97D601C501CE57BC
:101E6000DF4F288139814A815B81C258D040821B73
:101E7000930BA40BB50B81519742A040B04054F195
:101E80000E9461042A968FAD2A978823D9F4CE0147
:101E9000875B9F4F0E94F3052A968FAD2A97882370
:101EA00011F492E001C090E020E08C8D882309F4C9
:101EB00021E0920F90935F0248EC50E0509365024E
:101EC00040936402CE57DF4FA882B982CA82DB8278
:101ED000C258D040EC965FADEC97552309F456C03C
:101EE000C057DF4F8881C059D040CF56DF4F98810F
:101EF000C159D0400E94D209882309F447C0ED9609
:101F00006FADED97E62FFF27E7FDF095E35AFE4F03
:101F10009F898081981721F0ED961FAEED9707C03D
:101F2000ED967FADED977F5FED967FAFED97ED96E8
:101F30008FADED97E82FFF27E7FDF095E35AFE4FB1
:101F400080818F3F81F4CE0143960E94DA0C2EE00F
:101F500088E190E00FB6F894A895809360000FBEDA
:101F600020936000FFCFD601C50182199309A4090F
:101F7000B509815C914EA44EB04024F0EC961FAEA2
:101F8000EC9704C0F1E0EC96FFAFEC978C8D8823C2
:101F900029F02A968FAD2A978823C9F58091A80148
:101FA0009091A9012091A6013091A701820F931F62
:101FB0002091190130911A01821B930B209113017A
:101FC00030911401821B930B959587959093B701DF
:101FD0008093B6018091AA019091AB0120911501E7
:101FE00030911601821B930B9093B9018093B80135
:101FF0008091AC019091AD012091170130911801B1
:10200000821B930B9093BB018093BA018CCED601B7
:10201000C50186199709A809B90981519742A040BD
:10202000B0400CF41EC3809155029091560281304D
:10203000910559F48091AE019091AF01865F954072
:102040000CF09BC080E090E00DC0892B09F095C09A
:102050008091AE019091AF01875296400CF48DC0F3
:1020600081E090E09093560280935502892B11F005
:1020700084E001C080E080935F0268EC70E07093C0
:102080006502609364021092AD021092AE0210924B
:10209000AF021092B0021092B9021092BA021092DE
:1020A000BB021092BC021092B1021092B2021092C6
:1020B000B3021092B4021092BD021092BE021092AE
:1020C000BF021092C0021092B5021092B602109296
:1020D000B7021092B8021092C1021092C20210927E
:1020E000C3021092C40280911702909118020297C5
:1020F00009F043C0D601C501EB962CAD3DAD4EAD08
:102100005FADEB97821B930BA40BB50B8152914AE9
:10211000A740B0401CF0E7961FAEE797E7964FAD9B
:10212000E7974F5FE7964FAFE797433004F1809111
:10213000A6019091A70190931401809313018091BF
:10214000AA019091AB0190931601809315018091A3
:10215000AC019091AD01909318018093170180918B
:10216000A8019091A90190931A0180931901EB960F
:10217000ACAEBDAECEAEDFAEEB972091A8013091F4
:10218000A9018091A6019091A701280F391F809184
:10219000190190911A01281B390B8091130190911C
:1021A0001401281B390B359527953093B7012093DF
:1021B000B6014091AA015091AB0180911501909117
:1021C0001601481B590B5093B9014093B801E09197
:1021D000AC01F091AD018091170190911801E81BBD
:1021E000F90BF093BB01E093BA0180911102815089
:1021F000682F772767FD7095C90137FF04C08827CE
:102200009927821B930B062E02C0880F991F0A94F0
:10221000E2F7A1E081399A0714F080E991E0A0E9A2
:10222000B1E0A81BB90BB887AF83CA0157FF04C040
:1022300088279927841B950B062E02C0880F991FAB
:102240000A94E2F7B1E081399B0714F080E991E04C
:10225000A0E9B1E0A81BB90BBA87A987CF01F7FFA6
:1022600004C0882799278E1B9F0BDC0102C0AA0F90
:10227000BB1F6A95E2F7BD01B1E061397B0714F03D
:1022800060E971E0A0E96A2EA1E07A2E661A770A69
:102290007C866B868091AE019091AF0165E0833CB6
:1022A00096074CF403EC15E0081B190B71E001399B
:1022B000170794F00BC0A6E088329A071CF400E0E0
:1022C00010E00AC0B7E086389B071CF000E911E077
:1022D00003C08C01055F1540809055029090560216
:1022E00061E08616910459F08114910409F04FC001
:1022F0008091150290911602029709F048C08091D2
:102300001302082E02C0220F331F0A94E2F73E8701
:102310002D87082E02C0440F551F0A94E2F7588BF0
:102320004F87AF0102C0440F551F8A95E2F75A8BC1
:10233000498B89819A8197FD05C088279927821B3F
:10234000930B01C0C90190939C0280939B028B81E7
:102350009C812F85388997FD05C088279927821B86
:10236000930B01C0C90190939E0280939D028D81C1
:102370009E8197FD03C0509541955F4F5093A002F9
:1023800040939F0271E08716910471F055C010923E
:102390009C0210929B0210929E0210929D0210923B
:1023A000A00210929F0248C06F817885882777FD30
:1023B0008095982F24EF3FEB40E050E00E94E11A17
:1023C000F9E09595879577956795FA95D1F760939C
:1023D000B9027093BA028093BB029093BC026985E4
:1023E0007A85882777FD8095982F0E94E11AE9E089
:1023F0009595879577956795EA95D1F76093BD0296
:102400007093BE028093BF029093C002B3018827ED
:1024100077FD8095982F0E94E11A39E09595879570
:10242000779567953A95D1F76093C1027093C20290
:102430008093C3029093C4022091DF013091E001A8
:102440008091D9019091DA01281B390B80E220306C
:10245000380714F02FEF3FE1C901A0EE20303A0712
:1024600014F480E090EE9093A2028093A102209158
:10247000E1013091E2018091DB019091DC01281BA8
:10248000390BB0E220303B0714F02FEF3FE1C901D8
:10249000E0EE20303E0714F480E090EE9093A4022A
:1024A0008093A3022091E3013091E4018091DD014A
:1024B0009091DE01281B390BF0E220303F0714F029
:1024C0002FEF3FE1C90120EE8030920714F480E045
:1024D00090EE9093A6028093A502892819F06FE2EE
:1024E00072E002C06CE172E08BE992E00E94A90305
:1024F000EE24FF243801882477FC8094982C8701EF
:102500000B511E4FE1E0F0E0EC0FFD1FEE0DFF1D43
:1025100060817181882777FD8095982FF701E556B6
:10252000FD4F22A533A5442737FD4095542F0E9427
:10253000E11A27E095958795779567952A95D1F7C4
:10254000E7E0F0E0EC0FFD1FEE0DFF1D2081318173
:10255000442737FD4095542F0E94E11A9B01AC019E
:10256000B9E05595479537952795BA95D1F7C401A8
:10257000B3010E94E11AA9E0959587957795679533
:10258000AA95D1F7D8016D937C93E2E0F0E0EE0ECE
:10259000FF1EF6E0EF16F10409F0B1CF2091CB0257
:1025A00012160CF05CC08091CC029091CD02A091EB
:1025B000CE02B091CF02B601A501481B590B6A0BA0
:1025C0007B0BDB01CA0181549D40A340B0405CF00D
:1025D00021502093CB02A092CC02B092CD02C092A7
:1025E000CE02D092CF028091CB02992787FD9095A1
:1025F0004091E5015091E601BC016170707080FF6F
:1026000003C026E930E002C02AE63FEF240F351F61
:102610003093E6012093E5014091E7015091E801F4
:102620006115710519F026E930E002C02AE63FEF96
:10263000240F351F3093E8012093E7012091E90131
:102640003091EA01672B19F48AE69FEF02C086E910
:1026500090E0820F931F9093EA018093E901350186
:102660004601D601C501C258DF4F288139814A8110
:102670005B81CE57D040821B930BA40BB50B8C59BA
:10268000914AA740B0400CF44ECB8091190280389B
:1026900039F480910001282F30E02058304004C0E8
:1026A000282F332727FD309580911A02803839F47E
:1026B00080910101482F50E04058504004C0482FFD
:1026C000552747FD509580911B02803831F4809149
:1026D000020190E08058904003C0992787FD9095B3
:1026E0003A8329835C834B839E838D83295F3F4F8D
:1026F0002F30310510F41A8219828B819C81079644
:102700000F9710F41C821B828D819E8107960F9774
:1027100010F41E821D8280E00E94AC02C258DF4F7E
:10272000A882B982CA82DB82CE57D040FCCAA5E615
:10273000B0E0EDE9F3E10C94471B1092800081E0DA
:10274000809381003898409848E552E000E06E019F
:102750000894C11CD11C22E0E22EF12CEC0EFD1ECF
:10276000C60165E60E94BF0A882309F441C0898139
:102770008230A9F0833018F4813029F406C0833008
:10278000B1F08430E9F010E026C0C70160E870E0E5
:1027900048E050E00E947A1B10E069E01DC0C701CC
:1027A00060E870E048E050E00E948A1B13C0C70157
:1027B00060E070E04AE00E949C0C10E065E40CC010
:1027C000C70160E070E00E94C00CC70160E071E0EA
:1027D0000E94C00C11E061E0898180688983C60194
:1027E0000E94990A01E044EF51E0112309F4B8CFA7
:1027F000802FCB59DF4FE8E00C94631BCF93DF931E
:10280000C0E0D0E0FE01E55BFE4F808187FD04C0A3
:10281000808161E00E94421A2196C830D10591F76B
:10282000DF91CF9108951F920F920FB60F9211244E
:102830000F931F932F933F934F935F936F937F93C8
:102840008F939F93AF93BF93EF93FF9380919902E0
:1028500087FD42C0E0919902FF27E7FDF095E55B17
:10286000FE4F808160E00E94AE1A36C080919902CE
:102870008F5F80939902E0919902FF27E7FDF09521
:10288000E55BFE4F808187FD27C000918400109199
:102890008500E0919902FF27E7FDF095E55BFE4F8B
:1028A000808161E00E94AE1AE0919902FF27E7FD66
:1028B000F095EE0FFF1FE55DFE4F0190F081E02DDA
:1028C000808191810297880F991F800F911F9093AB
:1028D0008900809388000BC080919902873034F280
:1028E00010929A0280916F008D7F80936F00FF910C
:1028F000EF91BF91AF919F918F917F916F915F9178
:102900004F913F912F911F910F910F900FBE0F90FC
:102910001F901895A0E0B0E0E0E9F4E10C94471BAB
:10292000182F062F862F61E00E94421A812F60E047
:102930000E94421A812F61E00E94AE1A6AE070E0A4
:1029400080E090E00E94F600C0E0D0E0812F99275F
:1029500087FD9095FC01EA56FF4FE491F0E0EE0F01
:10296000FF1FE457FF4FC590D49086559F4FFC0141
:102970008491E82EFF24CE018170182F802F612FC3
:102980000E94AE1AF601808120E030E090E08E21B6
:102990009F21892B11F021E030E0812F992787FDBD
:1029A00090952817390711F010E005C02196C8301E
:1029B000D10509F711E0802F60E00E94421A812FB3
:1029C000CDB7DEB7E8E00C94631BA2E9B0E0EBEE14
:1029D000F4E10C94471B259A8091A7039091A803DA
:1029E000009711F09C0102C02BEA33E0CE01019662
:1029F000821B930B803891054CF484E18093600234
:102A00008EE190E0909367028093660284B7877F9F
:102A100084BF88E10FB6F894809360001092600044
:102A20000FBE85E090E090930102809300028CE35A
:102A30008093190280931A0280931B0281E090E038
:102A4000909303028093020284E180930402ECE6F7
:102A5000F1E075E0C72E72E0D72ED60181918D93FB
:102A600021E0E437F207D1F742E050E050930E0244
:102A700040930D0221E030E03093100220930F02CA
:102A8000309312022093110283E090E0909314029D
:102A9000809313023093160220931502509318026C
:102AA0004093170284EF91E090931D0280931C02E3
:102AB00010922302109222029093290280932802FE
:102AC00090931F0280931E021092250210922402FE
:102AD00090932B0280932A029093210280932002EC
:102AE000109227021092260290932D0280932C02BE
:102AF00028E020932E029093300280932F0290932F
:102B000036028093350290933C0280933B0290936F
:102B1000320280933102909338028093370290936F
:102B20003E0280933D02909334028093330290934F
:102B30003A02809339029093400280933F0220939F
:102B4000410285E066E00E948A14882311F400E0C7
:102B500001C007E0CE01039660E870E048E050E075
:102B60000E947A1B002361F48B81873049F48C81A9
:102B70009D81AE81BF818E549146AC4BB04071F0C7
:102B800087E08B838EE491E6ACEBB0E08C839D8391
:102B9000AE83BF83188619861A860860CE010B960D
:102BA00060E070E04AE00E949C0C87FD0260CE016C
:102BB000815B9F4F60E071E04AE00E949C0C87FDC2
:102BC000046083E08093CB02E02EFF24C70186706F
:102BD00090708230910531F08430910579F0892B25
:102BE00081F119C08E01015B1F4FC80160E070E0E8
:102BF0000E94C00C88858F5F88870BC08E01055F9F
:102C00001F4FC80160E071E00E94C00C89858F5F92
:102C10008987C80118C08AE08093FF018FEF91E097
:102C200060E070E00E94C00C8FEF91E060E071E026
:102C30000E94C00C8A858F5F8A8789E08093CB02CF
:102C40000AC0CE010B96AFEFB1E0FC0184E4019025
:102C50000D928150E1F7C7018E709070892B41F081
:102C6000CE01039660E870E048E050E00E948A1BC5
:102C7000E0FE0AC082E00E941E0164E670E080E08F
:102C800090E00E94E319F6CF0E949713882361F029
:102C90002EE088E190E00FB6F894A895809360004C
:102CA0000FBE20936000FFCF1092800082E08093DF
:102CB000810081E080936F0085B5887F85BD0E948B
:102CC000900C80910202909103028230910519F1DB
:102CD0008330910524F4019709F05BC007C083306D
:102CE000910571F1049709F054C03FC080E090E075
:102CF00048EE53E020ED37E0FC01E551FE4F5183F3
:102D00004083FC01EB50FE4F3183208302968A30D2
:102D1000910591F73EC080E090E04CE454E02CE651
:102D200037E0FC01E551FE4F51834083FC01EB503D
:102D3000FE4F3183208302968A30910591F729C096
:102D400080E090E042EE54E026ED36E0FC01E551F3
:102D5000FE4F51834083FC01EB50FE4F31832083B3
:102D600002968A30910591F714C080E090E044E823
:102D700053E024E338E0FC01E551FE4F51834083EA
:102D8000FC01EB50FE4F3183208302968A3091057F
:102D900091F780910402992787FD909528EE33E002
:102DA000FC01E29FC001E39F900DF29F900D112462
:102DB000AA2797FDA095BA2F8093570290935802A7
:102DC000A0935902B0935A02A5E4B2E0F6018191B2
:102DD0006F01E82FFF27E7FDF095EE0FFF1FE55E7F
:102DE000FE4F808191818D939D93FDE0CF16F2E09F
:102DF000DF0661F720E030E0F901EB5AFE4F8081F9
:102E0000F901E55BFE4F80832F5F3F4F283031058E
:102E100099F70E944C030E946503809100029091F3
:102E200001029093440280934302019731F482E0BF
:102E300090E09093440280934302809143028093F8
:102E40005E0288E592E090936302809362020E94A2
:102E5000FC020E94FE130E94AD040E9443060E94E1
:102E6000E008CE56DF4FE8E00C94631B08951F92F4
:102E70000F920FB60F9211242F933F934F938F937E
:102E80009F93EF93FF938091C00082FD1DC04091FE
:102E9000C60020913403309135032F5F3F4F2F73CD
:102EA000307080913603909137032817390771F0FD
:102EB000E0913403F0913503EC50FD4F40833093A3
:102EC00035032093340302C08091C600FF91EF9137
:102ED0009F918F914F913F912F910F900FBE0F9027
:102EE0001F901895E0918803F0918903E05CFF4FF3
:102EF0008191919120813181821B930B8F7390700E
:102F0000892B11F00E94361708951F920F920FB669
:102F10000F9211242F933F938F939F93EF93FF93DF
:102F2000209178033091790380917A0390917B030B
:102F30002817390731F48091C1008F7D8093C1003B
:102F400014C0E0917A03F0917B03E85CFC4F208190
:102F500080917A0390917B0301968F739070909388
:102F60007B0380937A032093C600FF91EF919F919A
:102F70008F913F912F910F900FBE0F901F9018953A
:102F8000A0E0B0E0E6ECF7E10C94451BEC017A011F
:102F90008B01C22EDD24403081EE580780E06807A7
:102FA00080E0780711F0DD24D39471E0A72EB12CD6
:102FB000EC89FD89DD2069F0C50108A002C0880FF9
:102FC000991F0A94E2F7808360E079E08DE390E056
:102FD00005C0108260E874E88EE190E0A8019701D6
:102FE0000E94001B2150304040405040569547956C
:102FF0003795279580E12030380720F0DD2011F04B
:10300000DD24D6CFE889F9893083EA89FB892083DA
:10301000E88DF98DC082EE89FF89408121E030E0A2
:10302000C9010C8C02C0880F991F0A94E2F7482B43
:103030004083EE89FF894081C9010D8C02C0880F51
:10304000991F0A94E2F7482B4083EE89FF8940815B
:10305000C9010E8C02C0880F991F0A94E2F7482B11
:103060004083EE89FF8980810F8C02C0220F331FBD
:103070000A94E2F7209528232083CDB7DEB7EAE053
:103080000C94611BDC011C96ED91FC911D97E05C9A
:10309000FF4F2191319180819181281B390B2F7332
:1030A0003070C9010895DC011C96ED91FC911D97CB
:1030B000E05CFF4F20813181E054F040DF01AE5BE6
:1030C000BF4F8D919C9111972817390719F42FEF55
:1030D0003FEF07C08D919C91E80FF91F8081282F49
:1030E00030E0C9010895DC011C96ED91FC911D971B
:1030F000E05CFF4F20813181E054F040DF01AE5BA6
:10310000BF4F8D919C9111972817390719F42FEF14
:103110003FEF10C08D919C911197E80FF91F20810E
:103120008D919C91119701968F73907011969C933D
:103130008E9330E0C9010895DC0191968C919197AE
:10314000882339F05496ED91FC915597808186FF44
:10315000F9CF91961C920895CF93DF93EC01EE8501
:10316000FF85E05CFF4F20813181E054F0402F5F0C
:103170003F4F2F733070DF01AE5BBF4F8D919C913D
:10318000119728173907D1F3E05CFF4F80819181B7
:10319000E054F040E80FF91F6083EE85FF85E05CA6
:1031A000FF4F31832083EE89FF89208181E090E009
:1031B0000F8C02C0880F991F0A94E2F7282B2083F6
:1031C00081E089A3EC89FD8980818064808381E02E
:1031D00090E0DF91CF91089510927F0310927E03CB
:1031E00088EE93E0A0E0B0E08093800390938103A9
:1031F000A0938203B09383038AE991E090937D03C7
:1032000080937C0384EF92E09093890380938803FA
:1032100088E393E090938B0380938A0385EC90E09E
:1032200090938D0380938C0384EC90E090938F03B4
:1032300080938E0380EC90E09093910380939003B1
:1032400081EC90E0909393038093920382EC90E062
:10325000909395038093940386EC90E0909397036A
:103260008093960384E08093980383E0809399038E
:1032700087E080939A0385E080939B0381E08093AD
:103280009C030895CF93DF930E94071A0E94E514D0
:10329000C2E7D7E10E941A0E2097E1F30E9472174D
:1032A000F9CFA0E0B0E0E7E5F9E10C94471B7C0121
:1032B0006B018A01C0E0D0E00FC0D6016D916D01B5
:1032C000D701ED91FC910190F081E02DC7010995A6
:1032D000C80FD91F015010400115110571F7CE011B
:1032E000CDB7DEB7E8E00C94631B1F920F920FB6C8
:1032F0000F9211242F933F938F939F93AF93BF937C
:103300008091A2039091A303A091A403B091A5037F
:103310003091A6030196A11DB11D232F2D5F2D37DE
:1033200020F02D570196A11DB11D2093A603809377
:10333000A2039093A303A093A403B093A503809149
:103340009E0390919F03A091A003B091A1030196C9
:10335000A11DB11D80939E0390939F03A093A00392
:10336000B093A103BF91AF919F918F913F912F9106
:103370000F900FBE0F901F9018959FB7F894209153
:103380009E0330919F034091A0035091A10386B505
:10339000A89B06C08F3F21F02F5F3F4F4F4F5F4FDD
:1033A0009FBF542F432F322F2227280F311D411D3D
:1033B000511D82E0220F331F441F551F8A95D1F7FC
:1033C000B901CA010895EF92FF920F931F93CF9313
:1033D000DF937B018C010E94BD19EB010EC00E949E
:1033E000BD196C1B7D0B685E7340C8F30894E1083F
:1033F000F10801091109C851DC4FE114F10401057C
:10340000110569F7CDB7DEB7E6E00C94651B78943B
:1034100084B5826084BD84B5816084BD85B58260D9
:1034200085BD85B5816085BDEEE6F0E08081816077
:103430008083E1E8F0E01082808182608083808177
:1034400081608083E0E8F0E0808181608083E1EB4F
:10345000F0E0808184608083E0EBF0E08081816037
:103460008083EAE7F0E080818460808380818260ED
:1034700080838081816080838081806880831092D6
:10348000C1000895CF93DF93482F50E0CA018655BD
:103490009F4FFC0134914A565F4FFA018491882373
:1034A00069F190E0880F991FFC01E858FF4FA59142
:1034B000B491FC01EE57FF4FC591D491662351F4AE
:1034C0002FB7F8948C91932F909589238C938881B2
:1034D00089230BC0623061F42FB7F8948C91932F3D
:1034E000909589238C938881832B88832FBF06C076
:1034F0009FB7F8948C91832B8C939FBFDF91CF91D2
:103500000895833071F0843028F48130A1F0823046
:1035100021F514C08630B1F08730D1F08430E9F461
:1035200004C0809180008F7703C0809180008F7DE0
:1035300080938000089584B58F7702C084B58F7D15
:1035400084BD08958091B0008F778093B000089576
:103550008091B0008F7D8093B0000895FF920F930B
:103560001F93F62E482F50E0CA0182549F4FFC0152
:103570002491CA0186559F4FFC0114914A565F4F12
:10358000FA0104910023C9F0222319F0822F0E942E
:10359000811AE02FF0E0EE0FFF1FEE57FF4FA591CD
:1035A000B4919FB7F894FF2021F48C91109581235A
:1035B00002C08C91812B8C939FBF1F910F91FF9024
:1035C0000895629FD001739FF001829FE00DF11D6D
:1035D000649FE00DF11D929FF00D839FF00D749F8D
:1035E000F00D659FF00D9927729FB00DE11DF91F39
:1035F000639FB00DE11DF91FBD01CF011124089596
:10360000A1E21A2EAA1BBB1BFD010DC0AA1FBB1FE6
:10361000EE1FFF1FA217B307E407F50720F0A21B58
:10362000B30BE40BF50B661F771F881F991F1A94C5
:1036300069F760957095809590959B01AC01BD01EF
:10364000CF01089597FB092E05260ED057FD04D013
:10365000D7DF0AD0001C38F450954095309521955D
:103660003F4F4F4F5F4F0895F6F7909580957095B7
:1036700061957F4F8F4F9F4F08952F923F924F92AA
:103680005F926F927F928F929F92AF92BF92CF92F2
:10369000DF92EF92FF920F931F93CF93DF93CDB7FB
:1036A000DEB7CA1BDB0B0FB6F894DEBF0FBECDBF73
:1036B00009942A88398848885F846E847D848C8444
:1036C0009B84AA84B984C884DF80EE80FD800C814D
:1036D0001B81AA81B981CE0FD11D0FB6F894DEBF30
:1036E0000FBECDBFED010895EE0FFF1F0590F491C1
:1036F000E02D0994DC01CB01FC01F999FECF06C055
:10370000F2BDE1BDF89A319600B40D92415050409F
:10371000B8F70895DC01CB0103C02D910E94951BE1
:1037200041505040D0F70895262FF999FECF1FBA87
:1037300092BD81BD20BD0FB6F894FA9AF99A0FBEDA
:0837400001960895F894FFCFF3
:10374800FFFFFFDC05DC05DC05DC05E803DC05E83C
:1037580003DC05DC05DC05DC05DC05070105010FDC
:103768000103010B0109010D011101C101BF01C5CF
:1037780001BD010000C301C901C7010000BC01006F
:10378800000000000000000000000003090F0AFF0D
:103798000B0C107C0303090F0AFF0B0C1078899897
:1037A8008778899887FF0000000000000301020065
:1037B80004050607A0860100801A06000503030316
:1037C800040202020101010101010101CB01CD0145
:1037D800CF01D101D50100000000AC1851194218E1
:0637E800731853189C1831
:00000001FF
