:100000000C9469000C9486000C9486000C94980360
:100010000C9486000C9422040C9486000C948600A8
:100020000C9486000C9486000C9486000C94C913E2
:100030000C9486000C9488000C9486000C94860026
:100040000C94F3160C9486000C9486000C94860095
:100050000C9486000C94B7020C9486000C948600D5
:100060000C9486000C9486002D084F0810092D086A
:100070004F0810095909C809000000002400270092
:100080002A0000000000250028002B0000000000CE
:1000900023002600290004040404040404040202CA
:1000A00002020202030303030303010204081020F7
:1000B0004080010204081020010204081020000002
:1000C0000007000201000003040600000000000019
:1000D000000011241FBECFEFD4E0DEBFCDBF11E082
:1000E000A0E0B1E0E4E4F2E302C005900D92A83A8A
:1000F000B107D9F712E0A8EAB1E001C01D92AE3F06
:10010000B107E1F70E94E4160C9420190C9400004A
:100110001F920F920FB60F9211248F939F9380918D
:100120004F029091500201969093500280934F029B
:1001300080914F0290915002892B29F480915102B5
:100140008F5F809351029F918F910F900FBE0F9000
:100150001F901895609184007091850020914F0246
:1001600030915002E091510280918400909185007D
:100170008627972797FDEECF80914F0290915002EE
:100180002817390739F780915102E81719F740E02D
:1001900050E0FFE0220F331F441F551FFA95D1F79F
:1001A0008E2F90E0A0E0B0E0BB278695B795AA27F8
:1001B00099278827282B392B4A2B5B2B7695679517
:1001C000CB01A0E0B0E0282B392B4A2B5B2BB901E7
:1001D000CA010895AF92BF92CF92DF92EF92FF9241
:1001E0000F931F9328EE33E040E050E00E945F1829
:1001F0005B016C010E94AA007B018C010E94AA0095
:100200006E197F09800B910B6A157B058C059D0586
:10021000A8F31F910F91FF90EF90DF90CF90BF90C8
:10022000AF900895882321F0813021F45B9A0895DE
:100230005B9808958BB198E089278BB90895EF9268
:10024000FF920F931F937B018C018091EB029091A1
:10025000EC02A091ED02B091EE028E199F09A00B65
:10026000B10B181619061A061B060CF450C0809123
:10027000EF02882321F5E091F002EF5FE370E09355
:10028000F002FF27E7FDF095EE5AFD4F8081992798
:1002900087FD9095880F991F8093EF0280E492E488
:1002A000AFE0B0E0E80EF91E0A1F1B1FE092EB0260
:1002B000F092EC020093ED021093EE0228C0815000
:1002C0008093EF0281700E941201E091F002FF27FB
:1002D000E7FDF095EE0FFF1FEA5AFD4F80819181F7
:1002E000AA2797FDA095BA2F2AE0880F991FAA1F69
:1002F000BB1F2A95D1F78E0D9F1DA01FB11F8093A4
:10030000EB029093EC02A093ED02B093EE021F91EA
:100310000F91FF90EF9008959A01AB01882311F09F
:10032000459A449A1092B90060E074E284EF90E03C
:100330000E947E18205130404040504056954795CD
:10034000379527952093B80008952FEF30E011C01E
:100350002115310561F41092BC0080915E029091EC
:100360005F02019690935F0280935E020895215090
:1003700030408091BC0087FFEBCF0895FF920F9330
:100380001F93F82E0CEB10E084EAF80180830E94A2
:10039000A501F092BB0084E8F80180830E94A501CA
:1003A0001F910F91FF9008958093BB0084E8809384
:1003B000BC000E94A50108951F93182F882311F4F3
:1003C00084E801C084EC8093BC000E94A501909158
:1003D000BB00112319F484E98093BC00892F1F917D
:1003E00008950F931F93162F042F880F0E94BE01AC
:1003F000812F0E94D401802F0E94D40184E9809330
:10040000BC001F910F9108950F931F93182F062F73
:10041000880F0E94BE01802F0E94D401110F812FEE
:1004200081600E94BE0180E00E94DC011F910F915B
:1004300008951F93CF93DF93EB01142F880F8160F2
:100440000E94BE0108C0115080E011160CF481E03A
:100450000E94DC0189931123B1F7DF91CF911F91A5
:100460000895DF92EF92FF920F931F93E82EF62EDE
:100470008A01D22E880F0E94BE018F2D0E94D401C6
:100480008E2DB8014D2D0E9419021F910F91FF90E2
:10049000EF90DF90089589E66EE340E80E94F10155
:1004A00062E370E080E090E00E94EA0089E66EE39B
:1004B00043E00E94F10189E666E14EE10E94F1010C
:1004C00089E660E00E94040290E08E77883609F4A5
:1004D00091E0892F0895A6E0B0E0E1E7F2E00C9406
:1004E000C5188C017B016A0189E66DE1AE014F5FA1
:1004F0005F4F26E00E943102998180E02A8130E03E
:10050000822B932BF801918380839B8180E02C8147
:1005100030E0822B932BF701918380839D8180E0D3
:100520002E8130E0822B932BF601918380832696D7
:10053000E8E00C94E118282F17C0E22FF0E0EE0F4E
:10054000FF1FE55DFE4F80819181892B61F08091D5
:100550007C00887F822B80937C0080917A0080646D
:1005600080937A0008952F5F263038F308951F9204
:100570000F920FB60F9211242F933F934F935F93D7
:100580006F937F938F939F93AF93BF93EF93FF935B
:1005900080917C008770E82FF0E0EE0FFF1FE55D93
:1005A000FE4F0190F081E02D9091790090838F5F54
:1005B0000E949B02FF91EF91BF91AF919F918F910C
:1005C0007F916F915F914F913F912F910F900FBE4F
:1005D0000F901F901895EBE2F1E040E050E061E0F1
:1005E00070E080819181892B79F087B1DB01042E45
:1005F00002C0AA0FBB1F0A94E2F79D012095822337
:1006000087B988B1282328B94F5F5F4F32964630AB
:10061000510539F780E680937C0010927B008FE8CB
:1006200080937A0080E00E949B020895CF93DF932D
:10063000EB01DA01FC0140E050E061E070E0808114
:100640009181892B79F03881CB01042E02C0880F6B
:10065000991F0A94E2F7282F2095232328832C91B1
:10066000822B8C934F5F5F4F32964830510539F79C
:10067000DF91CF91089580E692E064E270E045E278
:1006800050E00E94160380E792E067E270E048E2E3
:1006900050E00E94160387E391E06AE270E04BE2CB
:1006A00050E00E941603089560E070E040E050E0E2
:1006B000A1E0B0E0362FFA01E05AFD4F0190F08141
:1006C000E02D309751F023B1CD01062E02C0880FE6
:1006D000991F0A94E2F728232083FA01E059FD4F7D
:1006E0000190F081E02D309751F026B1CD01032E1D
:1006F00002C0880F991F0A94E2F728232083FA0189
:10070000E95CFE4F0190F081E02D309749F029B16E
:10071000CD0102C0880F991F3A95E2F72823208364
:100720006F5F7F4F4E5F5F4F4031510519F608955F
:100730001F920F920FB60F921124AF92BF92CF92D9
:10074000DF92EF92FF920F931F932F933F934F935C
:100750005F936F937F938F939F93AF93BF93CF9349
:10076000DF93EF93FF9300918400109185008091B7
:10077000DA0293B19093DA027894292F2827809592
:100780008923A7E4B1E0EBEDF2E060E070E0C22E77
:10079000DD24E82EFF2421E0CD91DC9111972097F4
:1007A00079F1C601062E02C0959587950A94E2F765
:1007B00080FF26C0C701062E02C0959587950A9432
:1007C000E2F780FF03C0118300831AC0808191810A
:1007D000A801481B590B569547958CE7A82E8CEF1E
:1007E000B82EA40EB51E81EBA81684E0B80640F41E
:1007F0005983488380919102681711F420938002F5
:100800006F5F7F4F129632966830710529F6FF911F
:10081000EF91DF91CF91BF91AF919F918F917F9198
:100820006F915F914F913F912F911F910F91FF9089
:10083000EF90DF90CF90BF90AF900F900FBE0F90D2
:100840001F9018951F920F920FB60F921124CF92FE
:10085000DF92EF92FF920F931F932F933F934F934B
:100860005F936F937F938F939F93AF93BF93CF9338
:10087000DF93EF93FF93E0908400F09085008091E8
:10088000C90299B19093C9027894292F282780959D
:100890008923A1E8B2E0EAECF2E060E070E0C22E69
:1008A000DD24082F10E0CD91DC911197209721F1E4
:1008B000C601062E02C0959587950A94E2F780FF3F
:1008C0001BC0C801062E02C0959587950A94E2F7D1
:1008D00080FF03C0F182E0820FC080819181A70177
:1008E000481B590B56954795CA0184589340815B24
:1008F000944010F4598348836F5F7F4F129632966D
:100900006830710581F6FF91EF91DF91CF91BF9132
:10091000AF919F918F917F916F915F914F913F9197
:100920002F911F910F91FF90EF90DF90CF900F903C
:100930000FBE0F901F901895809168008160809382
:100940006800E7E4F1E040E050E061E070E08081C1
:100950009181892BA1F020916B00CB01042E02C064
:10096000880F991F0A94E2F7282B20936B0034B16B
:10097000282F2095232324B925B1822B85B94F5FD9
:100980005F4F32964830510511F781E08093910214
:1009900080916800846080936800E1E8F2E040E0C4
:1009A00050E061E070E080819181892BA1F020917D
:1009B0006D00CB01042E02C0880F991F0A94E2F744
:1009C000282B20936D003AB1282F209523232AB994
:1009D0002BB1822B8BB94F5F5F4F32964830510558
:1009E00011F70895A6E0B0E0E8EFF4E00C94BB182E
:1009F0007A8369831C012B019E838D839B012A5F6F
:100A00003F4F3C832B83ED81FE81068117818081DE
:100A10009181081B190B3801882477FC8094982C4D
:100A2000F10182899389A489B589860D971DA81D36
:100A3000B91D268D378D40A151A1AA24BB24650183
:100A4000A21AB30AC40AD50A8A159B05AC05BD05CE
:100A50004CF05C016D01281739074A075B0714F455
:100A600059016A01F101A28AB38AC48AD58AED814B
:100A7000FE8184859585AA2797FDA095BA2FA401AC
:100A80009301281B390B4A0B5B0BCA01B90115876F
:100A90000487F20124853585442737FD4095542F7E
:100AA0000E945F187B018C0152E015950795F79421
:100AB000E7945A95D1F7F20120813181442737FD1F
:100AC0004095542FC401B3010E945F1843E09595EF
:100AD0008795779567954A95D1F7E60EF71E081F1B
:100AE000191FF20126813781442737FD4095542F85
:100AF000C601B5010E945F1836E0959587957795F8
:100B000067953A95D1F7E60EF71E081F191FE98180
:100B1000FA81028804C015950795F794E7940A9422
:100B2000D2F7ED81FE81F3A6E2A63296FE83ED8335
:100B300024E030E0220E331E42E050E0440E551E09
:100B40008B819C814816590609F05DCF2696E2E11B
:100B50000C94D718A6E0B0E0E0EBF5E00C94CB18CD
:100B6000CE010196BE016D5F7F4FAE014B5F5F4FBF
:100B70000E946B028B819C819093E4018093E3013E
:100B800049815A815093E6014093E5012D813E81D0
:100B90003093E8012093E7018091130290911402B1
:100BA0008230910519F00397D1F40DC03093E6011E
:100BB0002093E50188279927841B950B9093E801E2
:100BC0008093E7010CC088279927821B930B909391
:100BD000E6018093E5015093E8014093E7012696F2
:100BE000E2E00C94E71881E040E85AE166E070E04A
:100BF0000E948C010E944B02882349F485E0809377
:100C0000540288EC90E090935B0280935A0208951E
:100C10000F931F93CF93DF93FC011082772767FD1B
:100C2000709572836183DC01EC0140E050E00FEFCE
:100C30001FE760E070E80CC012961C930E931197AA
:100C40001A967C936E9319971F86188A198A1A8AA6
:100C50009A014F5F5F4F12962496818192812817E7
:100C6000390754F314A613A6DF91CF911F910F916A
:100C70000895A0E0B0E0EFE3F6E00C94C3187C0127
:100C80008C01EB01F70160E070E02BC02181328123
:100C900088819981281739070CF4C90192838183CF
:100CA0002185328588819981821793070CF4C901C7
:100CB0009287818729913991442737FD4095542F98
:100CC000D8011F96AD90BD90CD90DC905297A20EAA
:100CD000B31EC41ED51E1F96AD92BD92CD92DC925E
:100CE00052979B016F5F7F4F32960C5F1F4FD7016A
:100CF00011968D919C911297281739073CF2CDB728
:100D0000DEB7EAE00C94DF18A0E0B0E0EAE8F6E035
:100D10000C94C518EC017C0163E2C62ED12CC80EE0
:100D2000D91E00E010E011C02BA53CA5442737FDDB
:100D30004095542FF70167857089818992890E94B7
:100D4000A018F601219331936F0198010F5F1F4F97
:100D500084E090E0E80EF91E89819A81281739070E
:100D60001CF3CDB7DEB7E8E00C94E118CF93DF9326
:100D7000FC01EB0161817281A0E040E050E00DC018
:100D80008385948523813481821B930B8C179D0767
:100D90000CF4AF5F4F5F5F4F32964617570784F3EF
:100DA00020E08A2F992787FD90958617970709F4E9
:100DB00021E0822FDF91CF910895A8E0B0E0E3EE2B
:100DC000F6E00C94C9188C018091A8019091A901BA
:100DD0009A8389838091AC019091AD019C838B8330
:100DE0008091AE019091AF019E838D838091AA0185
:100DF0009091AB0198878F83C801BE016F5F7F4FD1
:100E00000E943906F80183A594A5019694A783A7AB
:100E10008436910551F5C80164E170E00E94B60680
:100E20008823F9F0C8010E948406F80183A194A1E7
:100E3000909314018093130185A196A190931601BC
:100E40008093150187A190A59093180180931701B5
:100E500081A592A590931A018093190181E0808366
:100E600004C0C80164E00E9408062896E4E00C94DF
:100E7000E518A6E0B0E0EFE3F7E00C94C9188C01A8
:100E80008091E3019091E4019A8389838091E50147
:100E90009091E6019C838B838091E7019091E8011A
:100EA0009E838D83C801BE016F5F7F4F0E9439060C
:100EB000F80183A594A5019694A783A78C5291402D
:100EC00021F5C80162E370E00E94B6068823C9F0EC
:100ED000C8010E948406F80183A194A19093DE01C9
:100EE0008093DD0185A196A19093E0018093DF01BD
:100EF00087A190A59093E2018093E10181E0808336
:100F000004C0C80163E00E9408062696E4E00C9441
:100F1000E518209103013091040180910301909123
:100F200004012817390721F43093A9012093A8015F
:100F300020910501309106018091050190910601F3
:100F40002817390721F43093AD012093AC0120918B
:100F5000070130910801809107019091080128173D
:100F6000390721F43093AF012093AE0120910B019A
:100F700030910C0180910B0190910C0128173907D9
:100F800021F43093B1012093B00120910D013091F3
:100F90000E0180910D0190910E012817390721F45F
:100FA0003093B3012093B20120910F0130911001D1
:100FB00080910F01909110012817390721F4309387
:100FC000B5012093B401209111013091120180915B
:100FD0001101909112012817390721F43093B701BC
:100FE0002093B601809147029091480205974CF4F6
:100FF0008091A8019091A9019093AB018093AA01DF
:1010000008952091090130910A0180910901909180
:101010000A012817390721F43093AB012093AA0164
:101020000895A0E0B0E0E7E1F8E00C94C518DC0119
:10103000C0904702D0904802F6013297E830F1059F
:1010400008F0E3C1EC5CFF4F6D917C91119700912A
:10105000A8011091A9010C94F218600F711F7093F0
:10106000D0016093CF018D919C9111972091AA019D
:101070003091AB01820F931F9093D6018093D501DD
:1010800012968D919C9113972091AC013091AD01F6
:10109000820F931F9093D2018093D101A8C1780150
:1010A000E60EF71EF092D001E092CF01E091AA0186
:1010B000F091AB01CD91DC911197CE0FDF1FD09352
:1010C000D601C093D5014091B8015091B901445265
:1010D0005A4F8D919C911197480F591F12966D91FF
:1010E0007C9113978091AC019091AD01680F791FAD
:1010F000CB01840F951F9C01359527953595279534
:101100003595279595958795280F391F2757314095
:101110003093D2012093D101461B570BCA0133E013
:10112000959587953A95E1F755954795840F951FC5
:1011300084529A4F9093D4018093D3012091AE01B1
:101140003091AF0146E0C416D10409F060C084E0DC
:10115000223E380774F029573540273C310518F0F6
:1011600082E090E002C081E090E0029709F04DC17A
:1011700021C08091190190911A01800F911F8E1B3F
:101180009F0B2091130130911401821B930B9595B5
:10119000879584529A4F9093D0018093CF018C5DB4
:1011A00095402CED35E0281B390B3093D601209368
:1011B000D5012BC12091020112966D917C9113975C
:1011C000E091BA01F091BB016E0F7F1F882777FD78
:1011D0008095982F30E020583040442737FD4095C7
:1011E000542F0E945F18A7E095958795779567958E
:1011F000AA95D1F7E60EF71EF092D001E092CF014A
:10120000C61BD70BD093D601C093D501FEC09093D7
:10121000D0018093CF0114968D919C911597EFC0CA
:10122000600F711F7093D0016093CF018D919C91DD
:1012300011972091AA013091AB01820F931F9093D7
:10124000D6018093D50112966D917C911397809170
:10125000AC019091AD01680F791F14964D915C918E
:1012600015978091AE019091AF01480F591FCA01A7
:10127000860F971F9C01F3E035952795FA95E1F7C6
:1012800095958795280F391F275731403093D20104
:101290002093D101461B570BCA01B3E09595879562
:1012A000BA95E1F755954795840F951F84529A4F4B
:1012B000A8C020911301309114011296CD91DC91B8
:1012C00013978091BA019091BB01C80FD91F149652
:1012D0000D90BC91A02D8091BC019091BD01A80FF3
:1012E000B91F8091090190910A018C54944097FF95
:1012F00003C040E050E016C08091090190910A01BE
:101300008C54944095958795855F91401CF044EFEF
:1013100051E008C04091090150910A014C545440D9
:1013200055954795F801E452FA4FE21BF30BE60F8F
:10133000F71FBE016E0F7F1F9A012A1B3B0B37FF61
:1013400002C020E030E0CB01821B930B9093D001D0
:101350008093CF01260F371F3093D2012093D10104
:10136000BF016C1B7D0B9A012A0F3B1F37FF02C088
:1013700020E030E0C901860F971F9093D60180933B
:10138000D501621B730B7093D4016093D3013DC0F0
:10139000600F711F7093D0016093CF018D919C916C
:1013A00011972091AA013091AB01820F931F909366
:1013B000D6018093D50112968D919C91139720911F
:1013C000AC013091AD01820F931F9093D2018093B5
:1013D000D1018091B6019091B70112962D913C9167
:1013E0001397821B930B9093DA018093D901149683
:1013F0008D919C9115972091AE013091AF01820F94
:10140000931F9093D4018093D3018091B401909164
:10141000B5019093D8018093D70189E0C816D10413
:1014200041F08091B6019091B7019093DA018093D9
:10143000D9018091B2019091B3019093DC01809326
:10144000DB01CDB7DEB7E8E00C94E118AAE0B0E02C
:10145000ECE2FAE00C94C918809106029091070220
:101460000397A9F5FE0131968AE0DF011D928A9566
:10147000E9F7CF010E941108AEE9B1E00FEE11E0EB
:1014800049EF51E06D917C911197F80120813181F4
:10149000FB0180819181281739070CF4C901F801FB
:1014A00091838083FA0120813181FB0180819181C8
:1014B000821793070CF4C901FA0181939193AF014C
:1014C00012960E5F1F4FF1E0A83ABF07D9F689EEDA
:1014D00091E00E9411088091060290910702049702
:1014E00011F074E001C075E060E080E090E0FC0184
:1014F000E256FE4FA081B1814D915C911197FC01A4
:10150000E151FE4F0190F081E02D4E175F0754F03E
:10151000FC01E750FE4F20813181FA012417350785
:101520000CF4F901ED93FC936F5F02966717FCF2E0
:101530002A96E4E00C94E51880919302882309F040
:1015400050C081E0809393028FEF809392022FB777
:10155000F8948091CF019091D0019093C201809333
:10156000C1018091D1019091D2019093C4018093E7
:10157000C3018091D3019091D4019093C6018093CF
:10158000C5018091D5019091D6019093C8018093B7
:10159000C7018091D7019091D8019093CA0180939F
:1015A000C9018091D9019091DA019093CC01809387
:1015B000CB018091DB019091DC019093CE0180936F
:1015C000CD0180916F00826080936F00B19A80910D
:1015D0008400909185000496909389008093880000
:1015E0002FBF0895FC0181E08183808385E08283A1
:1015F000168215821086178208959C0144E0813B73
:10160000940714F490E00DC08451954081599140A5
:1016100010F491E006C02850374014F49FEF06C044
:1016200092E0662319F082E0891B982F892F089594
:10163000CF93DF93EC018A818B838091A8019091F5
:10164000A9016D810E94FD0A87FF88838091AC010A
:101650009091AD016E810E94FD0A87FF89838F8181
:10166000882351F48881882329F0823029F481E08D
:101670008D83188281E08F838885882361F4898136
:10168000882319F0823039F404C081E08E8382E02F
:10169000898381E0888738813F5F898123E08202E6
:1016A000C0011124380F3A839B8180E0391729F05B
:1016B00081E09295907F932B9C83DF91CF91089549
:1016C000282F30E03F6F220F331FEFB7F89480913F
:1016D000840090918500AC01405C5F4FBC016D5D62
:1016E0007A4F8091840090918500DA01A81BB90B94
:1016F0001A161B06B4F320FF02C0579801C0579A70
:101700004617570729F03695279545575F4FE9CF7C
:10171000EFBF0895EFB7F8944F9B49C016C02091D2
:101720008400309185002058314C04C08FEF9FEF2A
:101730004F9B0BC08091840090918500B901681B7C
:10174000790B1616170614F4F1CFAC014150504036
:10175000CA0101961816190614F34F5F5F4F19F46A
:1017600020E030E826C08091840090918500AC0193
:1017700040565F4F20E030E0BC0163597B4F8091C1
:10178000840090918500DA01A81BB90B1A161B067C
:10179000B4F389B13695279590E080789070282B26
:1017A000392B4617570729F045575F4FE8CF20E000
:1017B00030E4EFBFC9010895EF92FF920F931F939A
:1017C000CF93DF93E82E192F062FF62E84E20E9486
:1017D000600B802F0E94600B2E2D312FC901EC0170
:1017E00004C08991F80E0E94600B9E012E192017EB
:1017F000C4F38F2D81950E94600BCDB7DEB7E6E074
:101800000C94E3188F929F92AF92BF92CF92DF9287
:10181000FF920F931F93CF93DF934C015A01C0E0C7
:10182000D0E0C62EDD24C7FCD09402C0812F182F33
:10183000C5010E948A0B9C018070907C892B69F500
:10184000822FC130D10559F0C230D105A1F02097C7
:1018500079F7243259F7812FC1E0D0E0E8CF90E04A
:10186000C816D90614F4812F15C0822FF22E00E07D
:10187000C2E0D0E0DCCFF20E812F8150112331F095
:10188000F401E00FF11D20830F5FD1CFFF2011F491
:1018900081E004C0C0E0D0E0CACF80E0DF91CF910A
:1018A0001F910F91FF90DF90CF90BF90AF909F90CE
:1018B0008F9008951F93CF93DF93EC01142F44E48E
:1018C00050E00E94F8188881811711F08FEF12C044
:1018D00090E020E030E0FE01E20FF31F8081980FDE
:1018E0002F5F3F4F24343105B1F7992311F480E085
:1018F00001C08EEFDF91CF911F910895DC0190E040
:1019000020E030E0FD01E20FF31F8081980F2F5F90
:101910003F4F23343105B1F7AD5BBF4F91959C9399
:10192000A354B040CD0144E450E00E94081908954A
:10193000A1E1B0E0EEE9FCE00C94BB181C0181E0F1
:10194000898384E092E09B838A8302969D838C83C3
:101950000D969F838E8302969987888702969B8730
:101960008A8702969D878C8702969F878E87CE01F5
:101970000196998B888BD0900402DD0CCC246624D0
:10198000EE24FF248701F0E88F2EFAE19F2EF6E087
:10199000AF2EB12CE2E07E2E2C010E94AA009B010A
:1019A000AC01DC01CB018E199F09A00BB10B88168D
:1019B0009906AA06BB060CF051C0171424F5872D12
:1019C000992787FD9095FC01E170F07080FD03C0C0
:1019D00088E097E002C08CED95E09093D20180936F
:1019E000D1018CED95E09093D0018093CF01EE0F63
:1019F000FF1FEE0FFF1FEA57FE4F80809180A280ED
:101A0000B3807A9429C0DD2039F11D1424F46CE2EE
:101A100071E0A1E003C064ED7EEFAFEF8D2D99275B
:101A200087FD9095FC01E170F07080FF03C08CEDA4
:101A300095E003C0CB0184529A4F9093D0018093DC
:101A4000CF01EE0FFF1FEE0FFF1FEA57FE4F808002
:101A50009180A280B380DA1A79018A018091800294
:101A6000882329F0109280020E94890702C0662014
:101A700041F080919302882309F08CC00E949C0A57
:101A80006624772009F089CFC1010E94180B8823B2
:101A900009F483CFF1018481843561F0853520F428
:101AA000823509F063C013C0863559F0883509F0D6
:101AB0005DC02AC0F1E0FC1514F0CC2470C0CA94BB
:101AC0006EC085E08C150CF468C0C39468C0AC2D62
:101AD000BB27A7FDB095FD01EE0FFF1FE40DF51D1F
:101AE0000180F281E02D8081282F332727FD30955A
:101AF0002F5F3F4FA257BE4F8C91992787FD90953E
:101B000082179307F4F41CC0AC2DBB27A7FDB0953A
:101B1000FD01EE0FFF1FE40DF51D0180F281E02DA8
:101B20008081282F332727FD309521503040AA5639
:101B3000BE4F8C91992787FD9095281739070CF493
:101B40009C01208320E08C2D992787FD9095FC0136
:101B5000EE0FFF1FE40DF51D0180F281E02DD08016
:101B6000DD0C222319F00196782E770C89818230C2
:101B700009F013CF83E092E060E070E00E947E0CF9
:101B800083E092E060E071E00E947E0C6196E2E109
:101B90000C94D7186624639474CFA7E0CA2E21E072
:101BA000D2CFA1E9B0E0E7EDFDE00C94BB180E94B4
:101BB000AA001B012C01DE011196E8E6F1E086E0A7
:101BC00001900D928150E1F78E010D5E1F4FC8010B
:101BD0000E94F20A4CE1E42EF12CEC0EFD1EC7012E
:101BE00064E00E94080639E4C32ED12CCC0EDD1E21
:101BF000C60163E00E9408062092C5023092C60228
:101C00004092C7025092C802C657DF4F28823982DD
:101C10004A825B82CA58D040CA57DF4F2882398235
:101C20004A825B82C658D040CE57DF4F2882398225
:101C30004A825B82C258D04042013101C258DF4F14
:101C4000288239824A825B82CE57D040EB962CAEF6
:101C50003DAE4EAE5FAEEB97EE961FAEEE97ED96B5
:101C60001FAEED9721E0EC962FAFEC97C257DF4FF8
:101C7000E882CE58D040C157DF4FF882CF58D040CD
:101C8000C057DF4F0883C059D040CF56DF4F18836D
:101C9000C159D0400E94AA005B016C010E941F0143
:101CA000809180028823A1F4D601C501C657DF4F79
:101CB000488159816A817B81CA58D040841B950B29
:101CC000A60BB70B81539547A040B0400CF442C01F
:101CD000109280020E9489078C8D882369F0C65774
:101CE000DF4FA882B982CA82DB82CA58D04061E045
:101CF000EE966FAFEE972EC0C257DF4F8881CE5859
:101D0000D040C157DF4F9881CF58D0400E94DD06A8
:101D10002A968FAD2A97882311F492E001C090E0B3
:101D200020E08C8D882309F421E0920F90935302D8
:101D300088EC90E09093590280935802C657DF4F89
:101D4000A882B982CA82DB82CA58D04091E0EE965E
:101D50009FAFEE9780919302882379F5EE96AFAD11
:101D6000EE97AA2351F1A6019501CA57DF4F68816A
:101D700079818A819B81C658D040261B370B480B3E
:101D8000590B80914B0290914C02A0914D02B09161
:101D90004E0282179307A407B5077CF40E94260A17
:101DA0000E949C0ACA57DF4FA882B982CA82DB828E
:101DB000C658D040EE961FAEEE97D601C501CE575D
:101DC000DF4F288139814A815B81C258D040821B14
:101DD000930BA40BB50B81519742A040B04054F136
:101DE0000E94AA052A968FAD2A978823D9F4CE019E
:101DF000875B9F4F0E9439072A968FAD2A978823C9
:101E000011F492E001C090E020E08C8D882309F469
:101E100021E0920F9093530248EC50E05093590206
:101E200040935802CE57DF4FA882B982CA82DB8224
:101E3000C258D040EC965FADEC97552309F456C0DC
:101E4000C057DF4F8881C059D040CF56DF4F9881AF
:101E5000C159D0400E94180B882309F447C0ED9661
:101E60006FADED97E62FFF27E7FDF095E15AFE4FA6
:101E70009F898081981721F0ED961FAEED9707C0DE
:101E8000ED967FADED977F5FED967FAFED97ED9689
:101E90008FADED97E82FFF27E7FDF095E15AFE4F54
:101EA00080818F3F81F4CE0143960E94980C2EE0F2
:101EB00088E190E00FB6F894A895809360000FBE7B
:101EC00020936000FFCFD601C50182199309A409B0
:101ED000B509815C914EA44EB04024F0EC961FAE43
:101EE000EC9704C0F1E0EC96FFAFEC978C8D882363
:101EF00029F02A968FAD2A978823C9F58091AA01E7
:101F00009091AB012091A8013091A901820F931FFC
:101F10002091190130911A01821B930B209113011A
:101F200030911401821B930B959587959093B9017D
:101F30008093B8018091AC019091AD012091150181
:101F400030911601821B930B9093BB018093BA01D1
:101F50008091AE019091AF0120911701309118014D
:101F6000821B930B9093BD018093BC0193CED6014D
:101F7000C50186199709A809B90981519742A0405E
:101F8000B0400CF424C38091490290914A02813000
:101F9000910559F48091B0019091B101845C954014
:101FA0000CF09BC080E090E00DC0892B09F095C03B
:101FB0008091B0019091B101855F95400CF48DC086
:101FC00081E090E090934A0280934902892B11F0BE
:101FD00084E001C080E08093530268EC70E070936D
:101FE0005902609358021092A6021092A702109212
:101FF000A8021092A9021092B2021092B30210929B
:10200000B4021092B5021092AA021092AB02109282
:10201000AC021092AD021092B6021092B70210926A
:10202000B8021092B9021092AE021092AF02109252
:10203000B0021092B1021092BA021092BB0210923A
:10204000BC021092BD0280911B0290911C0202976B
:1020500009F043C0D601C501EB962CAD3DAD4EADA8
:102060005FADEB97821B930BA40BB50B8152914A8A
:10207000A740B0401CF0E7961FAEE797E7964FAD3C
:10208000E7974F5FE7964FAFE797433004F18091B2
:10209000A8019091A901909314018093130180915C
:1020A000AC019091AD019093160180931501809140
:1020B000AE019091AF019093180180931701809128
:1020C000AA019091AB0190931A0180931901EB96AC
:1020D000ACAEBDAECEAEDFAEEB974091AA01509153
:1020E000AB018091A8019091A901480F591F8091DF
:1020F000190190911A01481B590B8091130190917D
:102100001401481B590B559547955093B9014093BD
:10211000B801E091AC01F091AD0180911501909171
:102120001601E81BF90BF093BB01E093BA01A091F3
:10213000AE01B091AF018091170190911801A81BD9
:10214000B90BB093BD01A093BC01809115028150E1
:10215000282F332727FD3095CA0157FF04C0882751
:102160009927841B950B022E02C0880F991F0A9491
:10217000E2F761E08139960714F080E991E060E9C7
:1021800071E0681B790B78876F83CF01F7FF04C07C
:10219000882799278E1B9F0B022E02C0880F991F3C
:1021A0000A94E2F771E08139970714F080E991E031
:1021B00060E971E0681B790B7A876987CD01B7FF09
:1021C00004C0882799278A1B9B0BBC0102C0660F9D
:1021D000771F2A95E2F781E06139780714F060E90A
:1021E00071E010E9612E11E0712E661A770A7C8683
:1021F0006B862091B0013091B10195E02D3D3907FA
:102200002CF067E02D3636075CF007C08CED95E0CA
:10221000821B930B815991401CF000E911E011C021
:1022200085E02D3D380724F089010C5D154004C080
:102230000CED15E0021B130B0931110514F400E03D
:1022400010E08090490290904A0291E08916910432
:1022500059F08114910409F050C0809119029091B5
:102260001A02029709F049C0809117029A01082EBC
:1022700002C0220F331F0A94E2F73E872D87082EF3
:1022800002C0EE0FFF1F0A94E2F7F88BEF87AD0153
:1022900002C0440F551F8A95E2F75A8B498B8981FA
:1022A0009A8197FD05C088279927821B930B01C04F
:1022B000C90190939502809394028B819C812F8514
:1022C000388997FD05C088279927821B930B01C089
:1022D000C90190939702809396028D819E8197FD0C
:1022E00003C0509541955F4F5093990240939802D7
:1022F000A1E08A16910471F055C0109295021092D7
:1023000094021092970210929602109299021092E3
:10231000980248C06F817885882777FD8095982F2F
:1023200024EF3FEB40E050E00E945F18F9E0959504
:10233000879577956795FA95D1F76093B202709378
:10234000B3028093B4029093B50269857A85882799
:1023500077FD8095982F0E945F18E9E09595879505
:1023600077956795EA95D1F76093B6027093B702B7
:102370008093B8029093B902B301882777FD8095C6
:10238000982F0E945F1839E0959587957795679506
:102390003A95D1F76093BA027093BB028093BC0266
:1023A0009093BD022091E3013091E4018091DD0121
:1023B0009091DE01281B390BB0E220303B0714F06E
:1023C0002FEF3FE1C901E0EE20303E0714F480E03A
:1023D00090EE90939B0280939A022091E5013091B8
:1023E000E6018091DF019091E001281B390BF0E2BA
:1023F00020303F0714F02FEF3FE1C90120EE80307D
:10240000920714F480E090EE90939D0280939C02DA
:102410002091E7013091E8018091E1019091E20182
:10242000281B390B40E22030340714F02FEF3FE136
:10243000C90150EE2030350714F480E090EE9093FF
:102440009F0280939E02892819F063E372E002C024
:1024500060E272E084E992E00E94F204EE24FF243C
:102460003801882477FC8094982C870107511E4FEF
:10247000E1E0F0E0EC0FFD1FEE0DFF1D60817181CA
:10248000882777FD8095982FF701EC56FD4F22A500
:1024900033A5442737FD4095542F0E945F1827E04D
:1024A00095958795779567952A95D1F7E7E0F0E0C0
:1024B000EC0FFD1FEE0DFF1D20813181442737FDFC
:1024C0004095542F0E945F189B01AC01B9E05595CF
:1024D000479537952795BA95D1F7C401B3010E9466
:1024E0005F18A9E09595879577956795AA95D1F797
:1024F000D8016D937C93E2E0F0E0EE0EFF1EF6E073
:10250000EF16F10409F0B1CF2091C40212160CF0BD
:102510005CC08091C5029091C602A091C702B091A3
:10252000C802B601A501481B590B6A0B7B0BDB01E6
:10253000CA0181549D40A340B0405CF021502093DB
:10254000C402A092C502B092C602C092C702D09245
:10255000C8028091C402992787FD90954091E901B6
:102560005091EA01BC016170707080FF03C026E9E0
:1025700030E002C02AE63FEF240F351F3093EA0116
:102580002093E9014091EB015091EC016115710537
:1025900019F026E930E002C02AE63FEF240F351F8C
:1025A0003093EC012093EB012091ED013091EE018D
:1025B000672B19F48AE69FEF02C086E990E0820F4C
:1025C000931F9093EE018093ED0135014601D601F2
:1025D000C501C258DF4F288139814A815B81CE57BE
:1025E000D040821B930BA40BB50B8C59914AA7408A
:1025F000B0400CF44FCB80911D02803839F48091AB
:102600000001282F30E02058304004C0282F332705
:1026100027FD309580911E02803839F480910101A8
:10262000482F50E04058504004C0482F552747FDE0
:10263000509580911F02803831F48091020190E022
:102640008058904003C0992787FD90953A8329834D
:102650005C834B839E838D83295F3F4F2F303105F1
:1026600010F41A8219828B819C8107960F9710F4BF
:102670001C821B828D819E8107960F9710F41E820B
:102680001D8280E00E949B02C258DF4FA882B9825F
:10269000CA82DB82CE57D040FDCAA5E6B0E0E3E5B2
:1026A000F3E10C94C5181092800081E080938100C2
:1026B00057985F9848E552E000E06E010894C11C0D
:1026C000D11C62E0E62EF12CEC0EFD1EC60165E683
:1026D0000E94020C882309F441C089818230A9F04C
:1026E000833018F4813029F406C08330B1F084308F
:1026F000E9F010E026C0C70160E870E048E050E073
:102700000E94F81810E069E01DC0C70160E870E0A1
:1027100048E050E00E94081913C0C70160E070E073
:102720004AE00E945A0C10E065E40CC0C70160E06A
:1027300070E00E947E0CC70160E071E00E947E0C98
:1027400011E061E0898180688983C6010E94DC0B09
:1027500001E044EF51E0112309F4B8CF802FCB59A9
:10276000DF4FE8E00C94E118CF93DF93C0E0D0E0B6
:10277000FE01E95AFE4F808187FD04C0808161E03F
:102780000E94C0172196C830D10591F7DF91CF91F3
:1027900008951F920F920FB60F9211240F931F935B
:1027A0002F933F934F935F936F937F938F939F9359
:1027B000AF93BF93EF93FF938091920287FD42C046
:1027C000E0919202FF27E7FDF095E95AFE4F8081E4
:1027D00060E00E942C1836C0809192028F5F809337
:1027E0009202E0919202FF27E7FDF095E95AFE4F31
:1027F000808187FD27C00091840010918500E091C1
:102800009202FF27E7FDF095E95AFE4F808161E0D3
:102810000E942C18E0919202FF27E7FDF095EE0F41
:10282000FF1FE55EFE4F0190F081E02D80819181D8
:102830000297880F991F800F911F909389008093B2
:1028400088000BC080919202873034F2109293027C
:1028500080916F008D7F80936F00FF91EF91BF910A
:10286000AF919F918F917F916F915F914F913F9128
:102870002F911F910F910F900FBE0F901F901895E1
:10288000A0E0B0E0E6E4F4E10C94C518182F062FA0
:10289000862F61E00E94C017812F60E00E94C01760
:1028A000812F61E00E942C186AE070E080E090E0E7
:1028B0000E94EA00C0E0D0E0812F992787FD909523
:1028C000FC01EA56FF4FE491F0E0EE0FFF1FE457E2
:1028D000FF4FC590D49086559F4FFC018491E82E00
:1028E000FF24CE018170182F802F612F0E942C1899
:1028F000F601808120E030E090E08E219F21892B3D
:1029000011F021E030E0812F992787FD909528175D
:10291000390711F010E005C02196C830D10509F73C
:1029200011E0802F60E00E94C017812FCDB7DEB785
:10293000E8E00C94E118A2E9B0E0E1EAF4E10C94DB
:10294000C718539A8091FA029091FB02009711F0F8
:102950009C0102C02EEF32E0CE010196821B930B48
:10296000803891054CF484E1809354028EE190E02C
:1029700090935B0280935A0284B7877F84BF88E17B
:102980000FB6F89480936000109260000FBE21E0B3
:1029900030E0309305022093040280E880931D020A
:1029A00080931E0280931F02309307022093060239
:1029B00010920802EEE6F1E0A9E0B2E081918D9379
:1029C00021E0E637F207D1F742E050E050931202DF
:1029D0004093110221E030E030931402209313025F
:1029E000309316022093150283E090E09093180232
:1029F0008093170230931A022093190250931C02FD
:102A000040931B0284EF91E0909321028093200277
:102A1000109227021092260290932D0280932C028E
:102A2000909323028093220210922902109228028E
:102A300090932F0280932E0290932502809324027C
:102A400010922B0210922A0290933102809330024E
:102A500028E02093320290933402809333029093C3
:102A60003A02809339029093400280933F02909300
:102A700036028093350290933C0280933B02909300
:102A800042028093410290933802809337029093E0
:102A90003E0280933D029093440280934302209330
:102AA000450286E065E00E944014882311F400E0AE
:102AB00001C007E0CE01039660E870E048E050E016
:102AC0000E94F818002361F48B81843049F48C81D2
:102AD0009D81AE81BF818E549146AC4BB04071F068
:102AE00084E08B838EE491E6ACEBB0E08C839D8335
:102AF000AE83BF83188619861A860860CE010B96AE
:102B000060E070E04AE00E945A0C87FD0260CE014E
:102B1000815B9F4F60E071E04AE00E945A0C87FDA4
:102B2000046083E08093C402E02EFF24C701867016
:102B300090708230910531F08430910579F0892BC5
:102B400081F119C08E01015B1F4FC80160E070E088
:102B50000E947E0C88858F5F88870BC08E01055F81
:102B60001F4FC80160E071E00E947E0C89858F5F75
:102B70008987C80118C08AE08093030283E092E04D
:102B800060E070E00E947E0C83E092E060E071E023
:102B90000E947E0C8A858F5F8A8789E08093C402B9
:102BA0000AC0CE010B96A3E0B2E0FC0184E40190E0
:102BB0000D928150E1F7C7018E709070892B41F022
:102BC000CE01039660E870E048E050E00E940819EA
:102BD000E0FE0AC082E00E94120164E670E080E03C
:102BE00090E00E946117F6CF0E944D13882361F098
:102BF0002EE088E190E00FB6F894A89580936000ED
:102C00000FBE20936000FFCF1092800082E080937F
:102C1000810081E080936F0085B5887F85BD8091BC
:102C20000602909107028230910519F183309105D7
:102C300024F4019709F05BC007C08330910571F15E
:102C4000049709F054C03FC080E090E048EE53E0A4
:102C500020ED37E0FC01E151FE4F51834083FC0140
:102C6000E750FE4F3183208302968A30910591F719
:102C70003EC080E090E04CE454E02CE637E0FC01FC
:102C8000E151FE4F51834083FC01E750FE4F3183F9
:102C9000208302968A30910591F729C080E090E068
:102CA00042EE54E026ED36E0FC01E151FE4F518347
:102CB0004083FC01E750FE4F3183208302968A3027
:102CC000910591F714C080E090E044E853E024E3DC
:102CD00038E0FC01E151FE4F51834083FC01E75095
:102CE000FE4F3183208302968A30910591F78091BF
:102CF0000802992787FD909528EE33E0AC01429FAA
:102D0000C001439F900D529F900D1124AA2797FD5B
:102D1000A095BA2F80934B0290934C02A0934D0242
:102D2000B0934E020E943B030E9454038091040220
:102D30009091050290934802809347020197E9F42D
:102D40008091BF01882319F4E2E0F0E002C0E0E0E6
:102D5000F0E020E030E08091C001882311F421E010
:102D600030E0E22BF32BEE0FFF1FEA58FE4F80817D
:102D700091819093480280934702809147029091FD
:102D80004802019731F482E090E0909348028093EA
:102D90004702809147028093520288E592E0909327
:102DA0005702809356020E94EB020E949C040E94EC
:102DB000B4130E94F3050E9489070E94260ACE568A
:102DC000DF4FE6E00C94E318CF93DF930E94851762
:102DD0000E949B14C0E0D0E00E94D10D2097E1F347
:102DE0000E940000F9CF1F920F920FB60F9211248C
:102DF0002F933F938F939F93AF93BF938091F5024F
:102E00009091F602A091F702B091F8023091F90288
:102E10000196A11DB11D232F2D5F2D3720F02D57B9
:102E20000196A11DB11D2093F9028093F5029093A4
:102E3000F602A093F702B093F8028091F10290910C
:102E4000F202A091F302B091F4020196A11DB11D0E
:102E50008093F1029093F202A093F302B093F402F4
:102E6000BF91AF919F918F913F912F910F900FBE86
:102E70000F901F9018959FB7F8942091F102309110
:102E8000F2024091F3025091F40286B5A89B06C06D
:102E90008F3F21F02F5F3F4F4F4F5F4F9FBF542F0A
:102EA000432F322F2227280F311D411D511D82E053
:102EB000220F331F441F551F8A95D1F7B901CA014C
:102EC0000895EF92FF920F931F93CF93DF937B01AF
:102ED0008C010E943B17EB010EC00E943B176C1B3C
:102EE0007D0B685E7340C8F30894E108F10801099E
:102EF0001109C851DC4FE114F1040105110569F70E
:102F0000CDB7DEB7E6E00C94E318789484B5826020
:102F100084BD84B5816084BD85B5826085BD85B57D
:102F2000816085BDEEE6F0E0808181608083E1E82C
:102F3000F0E0108280818260808380818160808364
:102F4000E0E8F0E0808181608083E1EBF0E0808167
:102F500084608083E0EBF0E0808181608083EAE739
:102F6000F0E08081846080838081826080838081C2
:102F7000816080838081806880831092C100089581
:102F8000CF93DF93482F50E0CA0186559F4FFC0135
:102F900034914A565F4FFA018491882369F190E099
:102FA000880F991FFC01E858FF4FA591B491FC01CF
:102FB000EE57FF4FC591D491662351F42FB7F89483
:102FC0008C91932F909589238C93888189230BC0B2
:102FD000623061F42FB7F8948C91932F90958923E8
:102FE0008C938881832B88832FBF06C09FB7F8946A
:102FF0008C91832B8C939FBFDF91CF910895833069
:1030000071F0843028F48130A1F0823021F514C0B1
:103010008630B1F08730D1F08430E9F404C080917B
:1030200080008F7703C0809180008F7D8093800027
:10303000089584B58F7702C084B58F7D84BD0895CF
:103040008091B0008F778093B00008958091B00098
:103050008F7D8093B0000895FF920F931F93F62EFB
:10306000482F50E0CA0182549F4FFC012491CA01AD
:1030700086559F4FFC0114914A565F4FFA01049107
:103080000023C9F0222319F0822F0E94FF17E02F9E
:10309000F0E0EE0FFF1FEE57FF4FA591B4919FB7E1
:1030A000F894FF2021F48C911095812302C08C911B
:1030B000812B8C939FBF1F910F91FF900895629F6A
:1030C000D001739FF001829FE00DF11D649FE00D20
:1030D000F11D929FF00D839FF00D749FF00D659F81
:1030E000F00D9927729FB00DE11DF91F639FB00D80
:1030F000E11DF91FBD01CF0111240895A1E21A2E8F
:10310000AA1BBB1BFD010DC0AA1FBB1FEE1FFF1F8B
:10311000A217B307E407F50720F0A21BB30BE40BDB
:10312000F50B661F771F881F991F1A9469F7609522
:103130007095809590959B01AC01BD01CF010895DC
:1031400097FB092E05260ED057FD04D0D7DF0AD0F5
:10315000001C38F450954095309521953F4F4F4FC6
:103160005F4F0895F6F790958095709561957F4F24
:103170008F4F9F4F08952F923F924F925F926F9281
:103180007F928F929F92AF92BF92CF92DF92EF92F7
:10319000FF920F931F93CF93DF93CDB7DEB7CA1B78
:1031A000DB0B0FB6F894DEBF0FBECDBF09942A88A3
:1031B000398848885F846E847D848C849B84AA844B
:1031C000B984C884DF80EE80FD800C811B81AA81D8
:1031D000B981CE0FD11D0FB6F894DEBF0FBECDBFA3
:1031E000ED010895EE0FFF1F0590F491E02D099475
:1031F000DC01CB01FC01F999FECF06C0F2BDE1BDB7
:10320000F89A319600B40D9241505040B8F70895A5
:10321000DC01CB0103C02D910E9413194150504095
:10322000D0F70895262FF999FECF1FBA92BD81BD20
:1032300020BD0FB6F894FA9AF99A0FBE0196089538
:04324000F894FFCF30
:10324400FFFFFFDC05DC05DC05DC05E803DC05E845
:1032540003DC05DC05DC05DC05DC05C501C301C9AF
:1032640001C1010000C701CD01CB01000101010230
:1032740001000000000000BE01BF01C00100000009
:10328400000000000000000301050107010B010913
:10329400010000000000000706FF05FF04FFFF789F
:1032A40089988778899887FF000000000000000152
:1032B40002030405060702000300040005000800D9
:1032C400060007000200A0860100801A060005031C
:1032D4000303040202020101010101010101CF0102
:0832E400D101D301D501D9018C
:00000001FF
