:100000000C9469000C9486000C9486000C94860075
:100010000C9486000C9486000C9486000C94860048
:100020000C9486000C9486000C9498030C94CB12CC
:100030000C9486000C9488000C9486000C94860026
:100040000C9425160C9486000C9486000C94860063
:100050000C9486000C94B7020C9486000C948600D5
:100060000C9486000C9486002F07510712082F0766
:10007000510712085B08CA0800000000240027008E
:100080002A0000000000250028002B0000000000CE
:1000900023002600290004040404040404040202CA
:1000A00002020202030303030303010204081020F7
:1000B0004080010204081020010204081020000002
:1000C0000007000201000003040600000000000019
:1000D000000011241FBECFEFD4E0DEBFCDBF11E082
:1000E000A0E0B1E0E8EAF0E302C005900D92A03B89
:1000F000B107D9F712E0A0EBB1E001C01D92A73E15
:10010000B107E1F70E9416160C9452180C940000E7
:100110001F920F920FB60F9211248F939F9380918D
:10012000670290916802019690936802809367023B
:100130008091670290916802892B29F4809169026D
:100140008F5F809369029F918F910F900FBE0F90E8
:100150001F9018956091840070918500209167022E
:1001600030916802E091690280918400909185004D
:100170008627972797FDEECF8091670290916802BE
:100180002817390739F780916902E81719F740E015
:1001900050E0FFE0220F331F441F551FFA95D1F79F
:1001A0008E2F90E0A0E0B0E0BB278695B795AA27F8
:1001B00099278827282B392B4A2B5B2B7695679517
:1001C000CB01A0E0B0E0282B392B4A2B5B2BB901E7
:1001D000CA010895AF92BF92CF92DF92EF92FF9241
:1001E0000F931F9328EE33E040E050E00E949117F8
:1001F0005B016C010E94AA007B018C010E94AA0095
:100200006E197F09800B910B6A157B058C059D0586
:10021000A8F31F910F91FF90EF90DF90CF90BF90C8
:10022000AF900895882321F0813021F42D9A08950C
:100230002D98089585B190E2892785B90895EF92A8
:10024000FF920F931F937B018C018091D4029091B8
:10025000D502A091D602B091D7028E199F09A00BAA
:10026000B10B181619061A061B060CF450C0809123
:10027000D802882321F5E091D902EF5FE370E09383
:10028000D902FF27E7FDF095E659FD4F80819927B8
:1002900087FD9095880F991F8093D80280E492E49F
:1002A000AFE0B0E0E80EF91E0A1F1B1FE092D40277
:1002B000F092D5020093D6021093D70228C0815045
:1002C0008093D80281700E941201E091D902FF2729
:1002D000E7FDF095EE0FFF1FE259FD4F8081918100
:1002E000AA2797FDA095BA2F2AE0880F991FAA1F69
:1002F000BB1F2A95D1F78E0D9F1DA01FB11F8093A4
:10030000D4029093D502A093D602B093D7021F9146
:100310000F91FF90EF9008959A01AB01882311F09F
:10032000459A449A1092B90060E074E284EF90E03C
:100330000E94B0172051304040405040569547959C
:10034000379527952093B80008952FEF30E011C01E
:100350002115310561F41092BC00809176029091D4
:100360007702019690937702809376020895215048
:1003700030408091BC0087FFEBCF0895FF920F9330
:100380001F93F82E0CEB10E084EAF80180830E94A2
:10039000A501F092BB0084E8F80180830E94A501CA
:1003A0001F910F91FF9008958093BB0084E8809384
:1003B000BC000E94A50108951F93182F882311F4F3
:1003C00084E801C084EC8093BC000E94A501909158
:1003D000BB00112319F484E98093BC00892F1F917D
:1003E00008950F931F93162F042F880F0E94BE01AC
:1003F000812F0E94D401802F0E94D40184E9809330
:10040000BC001F910F9108950F931F93182F062F73
:10041000880F0E94BE01802F0E94D401110F812FEE
:1004200081600E94BE0180E00E94DC011F910F915B
:1004300008951F93CF93DF93EB01142F880F8160F2
:100440000E94BE0108C0115080E011160CF481E03A
:100450000E94DC0189931123B1F7DF91CF911F91A5
:100460000895DF92EF92FF920F931F93E82EF62EDE
:100470008A01D22E880F0E94BE018F2D0E94D401C6
:100480008E2DB8014D2D0E9419021F910F91FF90E2
:10049000EF90DF90089588E66EE340E80E94F10156
:1004A00062E370E080E090E00E94EA0088E66EE39C
:1004B00043E00E94F10188E666E14EE10E94F1010D
:1004C00088E660E00E94040290E08E77883609F4A6
:1004D00091E0892F0895A6E0B0E0E1E7F2E00C9406
:1004E000F7178C017B016A0188E66DE1AE014F5F71
:1004F0005F4F26E00E943102998180E02A8130E03E
:10050000822B932BF801918380839B8180E02C8147
:1005100030E0822B932BF701918380839D8180E0D3
:100520002E8130E0822B932BF601918380832696D7
:10053000E8E00C941318282F17C0E22FF0E0EE0F1C
:10054000FF1FE55CFE4F80819181892B61F08091D6
:100550007C00887F822B80937C0080917A0080646D
:1005600080937A0008952F5F263038F308951F9204
:100570000F920FB60F9211242F933F934F935F93D7
:100580006F937F938F939F93AF93BF93EF93FF935B
:1005900080917C008770E82FF0E0EE0FFF1FE55C94
:1005A000FE4F0190F081E02D9091790090838F5F54
:1005B0000E949B02FF91EF91BF91AF919F918F910C
:1005C0007F916F915F914F913F912F910F900FBE4F
:1005D0000F901F901895EBE3F1E040E050E061E0F0
:1005E00070E080819181892B79F087B1DB01042E45
:1005F00002C0AA0FBB1F0A94E2F79D012095822337
:1006000087B988B1282328B94F5F5F4F32964630AB
:10061000510539F780E680937C0010927B008FE8CB
:1006200080937A0080E00E949B020895CF93DF932D
:10063000EB01DA01FC0140E050E061E070E0808114
:100640009181892B79F03881CB01042E02C0880F6B
:10065000991F0A94E2F7282F2095232328832C91B1
:10066000822B8C934F5F5F4F32964830510539F79C
:10067000DF91CF91089588E792E064E270E045E26F
:1006800050E00E94160388E892E067E270E048E2DA
:1006900050E00E94160387E491E06AE270E04BE2CA
:1006A00050E00E941603089560E070E040E050E0E2
:1006B000A1E0B0E0362FFA01E858FD4F0190F0813B
:1006C000E02D309751F023B1CD01062E02C0880FE6
:1006D000991F0A94E2F728232083FA01E857FD4F77
:1006E0000190F081E02D309751F026B1CD01032E1D
:1006F00002C0880F991F0A94E2F728232083FA0189
:10070000E95BFE4F0190F081E02D309749F029B16F
:10071000CD0102C0880F991F3A95E2F72823208364
:100720006F5F7F4F4E5F5F4F4031510519F608955F
:100730001F920F920FB60F9211242F933F934F9356
:100740005F938F939F93EF93FF9320918600309157
:1007500087008091D0029091D102A901481B590BCA
:10076000569547953093D1022093D0029091D202B2
:100770008BE0493B580728F09093D3021092D202A5
:1007800026C09830D4F483E04438580718F444E87D
:1007900053E006C088E04533580710F044E358E0C2
:1007A000E92FFF27E7FDF095EE0FFF1FEF5AFD4FF2
:1007B0000190F081E02D518340839F5F9093D2029E
:1007C0008091D302981719F481E080939802FF91E9
:1007D000EF919F918F915F914F913F912F910F904A
:1007E0000FBE0F901F901895A6E0B0E0EAEFF3E07F
:1007F0000C94ED177A8369831C012B019E838D83F2
:100800009B012A5F3F4F3C832B83ED81FE81068154
:10081000178180819181081B190B3801882477FC8E
:100820008094982CF10182899389A489B589860DD9
:10083000971DA81DB91D268D378D40A151A1AA2451
:10084000BB246501A21AB30AC40AD50A8A159B05FE
:10085000AC05BD054CF05C016D01281739074A074E
:100860005B0714F459016A01F101A28AB38AC48AB0
:10087000D58AED81FE8184859585AA2797FDA0956F
:10088000BA2FA4019301281B390B4A0B5B0BCA0139
:10089000B90115870487F20124853585442737FD82
:1008A0004095542F0E9491177B018C0142E01595D1
:1008B0000795F794E7944A95D1F7F20120813181A9
:1008C000442737FD4095542FC401B3010E9491176E
:1008D00033E095958795779567953A95D1F7E60E2C
:1008E000F71E081F191FF20126813781442737FDA3
:1008F0004095542FC601B5010E94911726E09595A9
:100900008795779567952A95D1F7E60EF71E081F0C
:10091000191FE981FA81028804C015950795F7949B
:10092000E7940A94D2F7ED81FE81F3A6E2A632960F
:10093000FE83ED8324E030E0220E331E42E050E0DF
:10094000440E551E8B819C814816590609F05DCFD7
:100950002696E2E10C940918A6E0B0E0E2EBF4E0A0
:100960000C94FD17CE010196BE016D5F7F4FAE0165
:100970004B5F5F4F0E946B028B819C819093EC01D7
:100980008093EB0149815A815093EE014093ED0130
:100990002D813E813093F0012093EF0180911B0265
:1009A00090911C028230910519F00397D1F40DC08B
:1009B0003093EE012093ED0188279927841B950B36
:1009C0009093F0018093EF010CC088279927821B38
:1009D000930B9093EE018093ED015093F0014093BF
:1009E000EF012696E2E00C94191881E040E85AE104
:1009F00066E070E00E948C010E944B02882349F45B
:100A000085E080936C0288EC90E090937302809371
:100A1000720208950F931F93CF93DF93FC0110820E
:100A2000772767FD709572836183DC01EC0140E0FC
:100A300050E00FEF1FE760E070E80CC012961C93C7
:100A40000E9311971A967C936E9319971F86188AA6
:100A5000198A1A8A9A014F5F5F4F129624968181F4
:100A600092812817390754F314A613A6DF91CF916A
:100A70001F910F910895A0E0B0E0E1E4F5E00C943F
:100A8000F5177C018C01EB01F70160E070E02BC0F1
:100A90002181328188819981281739070CF4C90195
:100AA000928381832185328588819981821793077A
:100AB0000CF4C9019287818729913991442737FD28
:100AC0004095542FD8011F96AD90BD90CD90DC90ED
:100AD0005297A20EB31EC41ED51E1F96AD92BD9294
:100AE000CD92DC9252979B016F5F7F4F32960C5FE5
:100AF0001F4FD70111968D919C9112972817390796
:100B00003CF2CDB7DEB7EAE00C941118A0E0B0E0FB
:100B1000ECE8F5E00C94F717EC017C0153E2C52EEC
:100B2000D12CC80ED91E00E010E011C02BA53CA5A9
:100B3000442737FD4095542FF701678570898189D7
:100B400092890E94D217F601219331936F01980187
:100B50000F5F1F4F84E090E0E80EF91E89819A81B3
:100B6000281739071CF3CDB7DEB7E8E00C9413184B
:100B7000CF93DF93FC01EB0161817281A0E040E043
:100B800050E00DC08385948523813481821B930BB3
:100B90008C179D070CF4AF5F4F5F5F4F329646177F
:100BA000570784F320E08A2F992787FD90958617B1
:100BB000970709F421E0822FDF91CF910895A8E0F3
:100BC000B0E0E5EEF5E00C94FB178C018091B001EC
:100BD0009091B1019A8389838091B4019091B5017C
:100BE0009C838B838091B6019091B7019E838D8306
:100BF0008091B2019091B30198878F83C801BE01A3
:100C00006F5F7F4F0E943B05F80183A594A5019675
:100C100094A783A78436910551F5C80164E170E07B
:100C20000E94B8058823F9F0C8010E948605F801E2
:100C300083A194A1909314018093130185A196A19F
:100C4000909316018093150187A190A590931801A8
:100C50008093170181A592A590931A0180931901A1
:100C600081E0808304C0C80164E00E940A052896E0
:100C7000E4E00C941718A6E0B0E0E1E4F6E00C9490
:100C8000FB178C018091EB019091EC019A83898391
:100C90008091ED019091EE019C838B838091EF0117
:100CA0009091F0019E838D83C801BE016F5F7F4FDD
:100CB0000E943B05F80183A594A5019694A783A7FC
:100CC0008C52914021F5C80162E370E00E94B805A2
:100CD0008823C9F0C8010E948605F80183A194A168
:100CE0009093E6018093E50185A196A19093E80198
:100CF0008093E70187A190A59093EA018093E90191
:100D000081E0808304C0C80163E00E940A05269642
:100D1000E4E00C94171820910301309104018091B4
:100D20000301909104012817390721F43093B10190
:100D30002093B001209105013091060180910501B9
:100D4000909106012817390721F43093B5012093BB
:100D5000B401209107013091080180910701909121
:100D600008012817390721F43093B7012093B60101
:100D700020910B0130910C0180910B0190910C019D
:100D80002817390721F43093B9012093B801209135
:100D90000D0130910E0180910D0190910E012817E7
:100DA000390721F43093BB012093BA0120910F0140
:100DB0003091100180910F0190911001281739078F
:100DC00021F43093BD012093BC0120911101309199
:100DD000120180911101909112012817390721F415
:100DE0003093BF012093BE0180914F029091500239
:100DF00005974CF48091B0019091B1019093B301AB
:100E00008093B20108952091090130910A018091E7
:100E1000090190910A012817390721F43093B30191
:100E20002093B2010895A0E0B0E0E9E1F7E00C946E
:100E3000F717DC01C0904F02D0905002F6013297B4
:100E4000E830F10508F0E3C1EC5CFF4F6D917C9157
:100E500011970091B0011091B1010C942418600F0A
:100E6000711F7093D8016093D7018D919C91119758
:100E70002091B2013091B301820F931F9093DE0154
:100E80008093DD0112968D919C9113972091B4016E
:100E90003091B501820F931F9093DA018093D901AD
:100EA000A8C17801E60EF71EF092D801E092D701B2
:100EB000E091B201F091B301CD91DC911197CE0F89
:100EC000DF1FD093DE01C093DD014091C00150913E
:100ED000C10144525A4F8D919C911197480F591F4F
:100EE00012966D917C9113978091B4019091B50108
:100EF000680F791FCB01840F951F9C0135952795AD
:100F0000359527953595279595958795280F391F00
:100F1000275731403093DA012093D901461B570BF4
:100F2000CA0133E0959587953A95E1F75595479530
:100F3000840F951F84529A4F9093DC018093DB01BC
:100F40002091B6013091B70146E0C416D10409F0F2
:100F500060C084E0223E380774F029573540273CB2
:100F6000310518F082E090E002C081E090E0029745
:100F700009F04DC121C08091190190911A01800F93
:100F8000911F8E1B9F0B2091130130911401821B26
:100F9000930B9595879584529A4F9093D80180939F
:100FA000D7018C5D95402CED35E0281B390B309333
:100FB000DE012093DD012BC12091020112966D917B
:100FC0007C911397E091C201F091C3016E0F7F1FD6
:100FD000882777FD8095982F30E0205830404427AF
:100FE00037FD4095542F0E949117A7E0959587955E
:100FF00077956795AA95D1F7E60EF71EF092D8017E
:10100000E092D701C61BD70BD093DE01C093DD0160
:10101000FEC09093D8018093D70114968D919C9136
:101020001597EFC0600F711F7093D8016093D701BF
:101030008D919C9111972091B2013091B301820F53
:10104000931F9093DE018093DD0112966D917C9148
:1010500013978091B4019091B501680F791F149690
:101060004D915C9115978091B6019091B701480F11
:10107000591FCA01860F971F9C01F3E035952795EC
:10108000FA95E1F795958795280F391F2757314035
:101090003093DA012093D901461B570BCA01B3E004
:1010A00095958795BA95E1F755954795840F951FC6
:1010B00084529A4FA8C020911301309114011296C6
:1010C000CD91DC9113978091C2019091C301C80F1B
:1010D000D91F14960D90BC91A02D8091C4019091C0
:1010E000C501A80FB91F8091090190910A018C5484
:1010F000944097FF03C040E050E016C08091090182
:1011000090910A018C54944095958795855F914004
:101110001CF044EF51E008C04091090150910A01D0
:101120004C54544055954795F801E452FA4FE21B50
:10113000F30BE60FF71FBE016E0F7F1F9A012A1BEC
:101140003B0B37FF02C020E030E0CB01821B930B4A
:101150009093D8018093D701260F371F3093DA017F
:101160002093D901BF016C1B7D0B9A012A0F3B1FF5
:1011700037FF02C020E030E0C901860F971F90932F
:10118000DE018093DD01621B730B7093DC016093C1
:10119000DB013DC0600F711F7093D8016093D701D0
:1011A0008D919C9111972091B2013091B301820FE2
:1011B000931F9093DE018093DD0112968D919C9197
:1011C00013972091B4013091B501820F931F909332
:1011D000DA018093D9018091BE019091BF011296EE
:1011E0002D913C911397821B930B9093E201809376
:1011F000E10114968D919C9115972091B601309143
:10120000B701820F931F9093DC018093DB018091E3
:10121000BC019091BD019093E0018093DF0189E0D2
:10122000C816D10441F08091BE019091BF01909306
:10123000E2018093E1018091BA019091BB0190930A
:10124000E4018093E301CDB7DEB7E8E00C94131816
:10125000AAE0B0E0EEE2F9E00C94FB1780910E02F8
:1012600090910F020397A9F5FE0131968AE0DF0104
:101270001D928A95E9F7CF010E941307A6EAB1E013
:1012800007EF11E041E052E06D917C911197F80178
:1012900020813181FB0180819181281739070CF46D
:1012A000C901F80191838083FA0120813181FB011A
:1012B00080819181821793070CF4C901FA0181930F
:1012C0009193AF0112960E5F1F4FF1E0A03BBF0755
:1012D000D9F681EF91E00E94130780914F0290911F
:1012E0005002099711F074E001C075E060E080E001
:1012F00090E0FC01EA55FE4FA081B1814D915C91D7
:101300001197FC01E950FE4F0190F081E02D4E173E
:101310005F0754F0FC01EF5FFD4F20813181FA013E
:10132000241735070CF4F901ED93FC936F5F0296D7
:101330006717FCF22A96E4E00C94171880919A0241
:10134000882309F050C081E080939A028FEF809348
:1013500099022FB7F8948091D7019091D80190937A
:10136000CA018093C9018091D9019091DA019093CB
:10137000CC018093CB018091DB019091DC019093B3
:10138000CE018093CD018091DD019091DE0190939B
:10139000D0018093CF018091DF019091E001909383
:1013A000D2018093D1018091E1019091E20190936B
:1013B000D4018093D3018091E3019091E401909353
:1013C000D6018093D50180916F00826080936F0079
:1013D000B19A809184009091850004969093890041
:1013E000809388002FBF0895FC0181E08183808372
:1013F00085E08283168215821086178208959C01EB
:1014000044E0813B940714F490E00DC08451954072
:101410008159914010F491E006C02850374014F4EF
:101420009FEF06C092E0662319F082E0891B982F97
:10143000892F0895CF93DF93EC018A818B8380916C
:10144000B0019091B1016D810E94FF0987FF8883EF
:101450008091B4019091B5016E810E94FF0987FFD0
:1014600089838F81882351F48881882329F08230F1
:1014700029F481E08D83188281E08F838885882319
:1014800061F48981882319F0823039F404C081E045
:101490008E8382E0898381E0888738813F5F8981FC
:1014A00023E08202C0011124380F3A839B8180E03F
:1014B000391729F081E09295907F932B9C83DF91DF
:1014C000CF910895282F30E03F6F220F331FEFB7E1
:1014D000F8948091840090918500AC01405C5F4F4E
:1014E000BC016D5D7A4F8091840090918500DA0196
:1014F000A81BB90B1A161B06B4F320FF02C057989D
:1015000001C0579A4617570729F036952795455732
:101510005F4FE9CFEFBF0895EFB7F8944F9B49C0F5
:1015200016C020918400309185002058314C04C0B1
:101530008FEF9FEF4F9B0BC08091840090918500AF
:10154000B901681B790B1616170614F4F1CFAC011C
:1015500041505040CA0101961816190614F34F5F06
:101560005F4F19F420E030E826C08091840090910C
:101570008500AC0140565F4F20E030E0BC0163596C
:101580007B4F8091840090918500DA01A81BB90BF4
:101590001A161B06B4F389B13695279590E080782A
:1015A0009070282B392B4617570729F045575F4F66
:1015B000E8CF20E030E4EFBFC9010895EF92FF9239
:1015C0000F931F93CF93DF93E82E192F062FF62E3C
:1015D00084E20E94620A802F0E94620A2E2D312F1F
:1015E000C901EC0104C08991F80E0E94620A9E01B3
:1015F0002E192017C4F38F2D81950E94620ACDB752
:10160000DEB7E6E00C9415188F929F92AF92BF92CE
:10161000CF92DF92FF920F931F93CF93DF934C01F2
:101620005A01C0E0D0E0C62EDD24C7FCD09402C031
:10163000812F182FC5010E948C0A9C018070907C1C
:10164000892B69F5822FC130D10559F0C230D105FF
:10165000A1F0209779F7243259F7812FC1E0D0E02B
:10166000E8CF90E0C816D90614F4812F15C0822F58
:10167000F22EC2E0D0E000E0DCCFF20E812F8150EC
:10168000112331F0F401E00FF11D20830F5FD1CF62
:10169000FF2011F481E004C0C0E0D0E0CACF80E0B8
:1016A000DF91CF911F910F91FF90DF90CF90BF906E
:1016B000AF909F908F9008951F93CF93DF93EC018D
:1016C000142F44E450E00E942A188881811711F0F9
:1016D0008FEF12C090E020E030E0FE01E20FF31F38
:1016E0008081980F2F5F3F4F24343105B1F7992344
:1016F00011F480E001C08EEFDF91CF911F9108952A
:10170000DC0190E020E030E0FD01E20FF31F80817A
:10171000980F2F5F3F4F23343105B1F7AD5BBF4FBB
:1017200091959C93A354B040CD0144E450E00E94B5
:101730003A180895A1E1B0E0E0EAFBE00C94ED175F
:101740001C0181E089838CE092E09B838A8302966E
:101750009D838C830D969F838E83029699878887BD
:1017600002969B878A8702969D878C8702969F8721
:101770008E87CE010196998B888BD0900C02DD0C60
:10178000CC246624EE24FF248701F0E88F2EFAE1B2
:101790009F2EF6E0AF2EB12CE2E07E2E2C010E94AF
:1017A000AA009B01AC01DC01CB018E199F09A00BA3
:1017B000B10B88169906AA06BB060CF051C0171487
:1017C00024F5872D992787FD9095FC01E170F07035
:1017D00080FD03C088E097E002C08CED95E0909317
:1017E000DA018093D9018CED95E09093D801809334
:1017F000D701EE0FFF1FEE0FFF1FE257FE4F808055
:101800009180A280B3807A9429C0DD2039F11D1423
:1018100024F46CE271E0A1E003C064ED7EEFAFEF71
:101820008D2D992787FD9095FC01E170F07080FF68
:1018300003C08CED95E003C0CB0184529A4F909386
:10184000D8018093D701EE0FFF1FEE0FFF1FE25765
:10185000FE4F80809180A280B380DA1A79018A01DC
:1018600080919802882329F0109298020E948B069A
:1018700002C0662041F080919A02882309F08CC052
:101880000E949E096624772009F089CFC1010E9439
:101890001A0A882309F483CFF1018481843561F029
:1018A000853520F4823509F063C013C0863559F0C0
:1018B000883509F05DC02AC0F1E0FC1514F0CC2495
:1018C00070C0CA946EC085E08C150CF468C0C394D7
:1018D00068C0AC2DBB27A7FDB095FD01EE0FFF1F23
:1018E000E40DF51D0180F281E02D8081282F332742
:1018F00027FD30952F5F3F4FAA56BE4F8C919927F9
:1019000087FD909582179307F4F41CC0AC2DBB277C
:10191000A7FDB095FD01EE0FFF1FE40DF51D018041
:10192000F281E02D8081282F332727FD309521502B
:101930003040A256BE4F8C91992787FD909528176D
:1019400039070CF49C01208320E08C2D992787FD1A
:101950009095FC01EE0FFF1FE40DF51D0180F28153
:10196000E02DD080DD0C222319F00196782E770C23
:101970008981823009F013CF8BE092E060E070E063
:101980000E94800B8BE092E060E071E00E94800B8F
:101990006196E2E10C9409186624639474CFA7E081
:1019A000CA2E21E0D2CFA1E9B0E0E9EDFCE00C9431
:1019B000ED170E94AA001B012C01DE011196E0E741
:1019C000F1E086E001900D928150E1F78E010D5E0D
:1019D0001F4FC8010E94F4094CE1E42EF12CEC0EDB
:1019E000FD1EC70164E00E940A0539E4C32ED12C14
:1019F000CC0EDD1EC60163E00E940A052092CC02D7
:101A00003092CD024092CE025092CF02C657DF4FA5
:101A1000288239824A825B82CA58D040CA57DF4F37
:101A2000288239824A825B82C658D040CE57DF4F27
:101A3000288239824A825B82C258D04042013101F9
:101A4000C258DF4F288239824A825B82CE57D0400B
:101A5000EB962CAE3DAE4EAE5FAEEB97ED961FAE65
:101A6000ED9721E0EC962FAFEC97EE961FAEEE9738
:101A7000C257DF4FE882CE58D040C157DF4FF882BF
:101A8000CF58D040C057DF4F0883C059D040CF5601
:101A9000DF4F1883C159D0400E94AA005B016C013E
:101AA0000E941F01809198028823A1F4D601C501EC
:101AB000C657DF4F488159816A817B81CA58D0401F
:101AC000841B950BA60BB70B81539547A040B040E4
:101AD0000CF442C0109298020E948B068C8D8823D1
:101AE00069F0C657DF4FA882B982CA82DB82CA5822
:101AF000D04061E0EE966FAFEE972EC0C257DF4F39
:101B00008881CE58D040C157DF4F9881CF58D04000
:101B10000E94DF052A968FAD2A97882311F492E060
:101B200001C090E020E08C8D882309F421E0920F21
:101B300090936B0288EC90E0909371028093700216
:101B4000C657DF4FA882B982CA82DB82CA58D0400A
:101B500091E0EE969FAFEE9780919A02882379F5F7
:101B6000EE96AFADEE97AA2351F1A6019501CA57A3
:101B7000DF4F688179818A819B81C658D040261BBE
:101B8000370B480B590B8091630290916402A0912E
:101B90006502B091660282179307A407B5077CF42B
:101BA0000E9428090E949E09CA57DF4FA882B98265
:101BB000CA82DB82C658D040EE961FAEEE97D601A1
:101BC000C501CE57DF4F288139814A815B81C258D8
:101BD000D040821B930BA40BB50B81519742A040C0
:101BE000B04054F10E94AC042A968FAD2A97882306
:101BF000D9F4CE01875B9F4F0E943B062A968FAD9A
:101C00002A97882311F492E001C090E020E08C8DA7
:101C1000882309F421E0920F90936B0248EC50E086
:101C20005093710240937002CE57DF4FA882B98261
:101C3000CA82DB82C258D040EC965FADEC97552348
:101C400009F456C0C057DF4F8881C059D040CF56E5
:101C5000DF4F9881C159D0400E941A0A882309F4A5
:101C600047C0ED966FADED97E62FFF27E7FDF095A6
:101C7000E959FE4F9F898081981721F0ED961FAE9C
:101C8000ED9707C0ED967FADED977F5FED967FAF47
:101C9000ED97ED968FADED97E82FFF27E7FDF095D7
:101CA000E959FE4F80818F3F81F4CE0143960E9417
:101CB0009A0B2EE088E190E00FB6F894A8958093F7
:101CC00060000FBE20936000FFCFD601C5018219CE
:101CD0009309A409B509815C914EA44EB04024F04B
:101CE000EC961FAEEC9704C0F1E0EC96FFAFEC97DA
:101CF0008C8D882329F02A968FAD2A978823C9F5E1
:101D00008091B2019091B3012091B0013091B10165
:101D1000820F931F2091190130911A01821B930B9E
:101D20002091130130911401821B930B9595879597
:101D30009093C1018093C0018091B4019091B5014D
:101D40002091150130911601821B930B9093C301D2
:101D50008093C2018091B6019091B7012091170143
:101D600030911801821B930B9093C5018093C4019D
:101D700093CED601C50186199709A809B9098151E1
:101D80009742A040B0400CF424C38091610290912E
:101D900062028130910559F48091B8019091B901A6
:101DA000865F95400CF09BC080E090E00DC0892BD1
:101DB00009F095C08091B8019091B9018752964081
:101DC0000CF48DC081E090E09093620280936102F8
:101DD000892B11F084E001C080E080936B0268ECF5
:101DE00070E070937102609370021092AD021092D5
:101DF000AE021092AF021092B0021092B90210928D
:101E0000BA021092BB021092BC021092B102109260
:101E1000B2021092B3021092B4021092BD0210925C
:101E2000BE021092BF021092C0021092B502109230
:101E3000B6021092B7021092B8021092C10210922C
:101E4000C2021092C3021092C402809123029091A8
:101E50002402029709F043C0D601C501EB962CADD0
:101E60003DAD4EAD5FADEB97821B930BA40BB50B55
:101E70008152914AA740B0401CF0E7961FAEE79709
:101E8000E7964FADE7974F5FE7964FAFE797433041
:101E900004F18091B0019091B1019093140180936D
:101EA00013018091B4019091B50190931601809334
:101EB00015018091B6019091B7019093180180931C
:101EC00017018091B2019091B30190931A01809310
:101ED0001901EB96ACAEBDAECEAEDFAEEB97409146
:101EE000B2015091B3018091B0019091B101480FBE
:101EF000591F8091190190911A01481B590B80912B
:101F0000130190911401481B590B55954795509317
:101F1000C1014093C001E091B401F091B5018091FD
:101F2000150190911601E81BF90BF093C301E093A2
:101F3000C201A091B601B091B701809117019091B3
:101F40001801A81BB90BB093C501A093C4018091DF
:101F50001D028150282F332727FD3095CA0157FFD6
:101F600004C088279927841B950B022E02C0880F76
:101F7000991F0A94E2F761E08139960714F080E92D
:101F800091E060E971E0681B790B78876F83CF017E
:101F9000F7FF04C0882799278E1B9F0B022E02C0D3
:101FA000880F991F0A94E2F771E08139970714F0BE
:101FB00080E991E060E971E0681B790B7A876987B5
:101FC000CD01B7FF04C0882799278A1B9B0BBC0152
:101FD00002C0660F771F2A95E2F781E06139780722
:101FE00014F060E971E010E9612E11E0712E661ABB
:101FF000770A7C866B862091B8013091B90195E013
:102000002D3D39072CF067E02D3636075CF007C010
:102010008CED95E0821B930B815991401CF000E9F7
:1020200011E011C085E02D3D380724F089010C5DD9
:10203000154004C00CED15E0021B130B093111050E
:1020400014F400E010E0809061029090620291E050
:102050008916910459F08114910409F050C08091BF
:10206000210290912202029709F049C080911F023B
:102070009A01082E02C0220F331F0A94E2F73E870E
:102080002D87082E02C0EE0FFF1F0A94E2F7F88B8F
:10209000EF87AD0102C0440F551F8A95E2F75A8BB6
:1020A000498B89819A8197FD05C088279927821BD2
:1020B000930B01C0C90190939C0280939B028B817A
:1020C0009C812F85388997FD05C088279927821B19
:1020D000930B01C0C90190939E0280939D028D8154
:1020E0009E8197FD03C0509541955F4F5093A0028C
:1020F00040939F02A1E08A16910471F055C010929E
:102100009C0210929B0210929E0210929D021092CD
:10211000A00210929F0248C06F817885882777FDC2
:102120008095982F24EF3FEB40E050E00E949117FC
:10213000F9E09595879577956795FA95D1F760932E
:10214000B9027093BA028093BB029093BC02698576
:102150007A85882777FD8095982F0E949117E9E06E
:102160009595879577956795EA95D1F76093BD0228
:102170007093BE028093BF029093C002B301882780
:1021800077FD8095982F0E94911739E09595879556
:10219000779567953A95D1F76093C1027093C20223
:1021A0008093C3029093C4022091EB013091EC0123
:1021B0008091E5019091E601281B390BB0E22030B7
:1021C0003B0714F02FEF3FE1C901E0EE20303E075E
:1021D00014F480E090EE9093A2028093A1022091EB
:1021E000ED013091EE018091E7019091E801281B0B
:1021F000390BF0E220303F0714F02FEF3FE1C90127
:1022000020EE8030920714F480E090EE9093A402C8
:102210008093A3022091EF013091F0018091E901B8
:102220009091EA01281B390B40E22030340714F06A
:102230002FEF3FE1C90150EE2030350714F480E064
:1022400090EE9093A6028093A502892819F06BE383
:1022500072E002C068E272E08BE992E00E94F4034F
:10226000EE24FF243801882477FC8094982C870181
:102270000F501E4FE1E0F0E0EC0FFD1FEE0DFF1DD3
:1022800060817181882777FD8095982FF701E55649
:10229000FD4F22A533A5442737FD4095542F0E94BA
:1022A000911727E095958795779567952A95D1F7AA
:1022B000E7E0F0E0EC0FFD1FEE0DFF1D2081318106
:1022C000442737FD4095542F0E9491179B01AC0184
:1022D000B9E05595479537952795BA95D1F7C4013B
:1022E000B3010E949117A9E0959587957795679519
:1022F000AA95D1F7D8016D937C93E2E0F0E0EE0E61
:10230000FF1EF6E0EF16F10409F0B1CF2091CB02E9
:1023100012160CF05CC08091CC029091CD02A0917D
:10232000CE02B091CF02B601A501481B590B6A0B32
:102330007B0BDB01CA0181549D40A340B0405CF09F
:1023400021502093CB02A092CC02B092CD02C09239
:10235000CE02D092CF028091CB02992787FD909533
:102360004091F1015091F201BC016170707080FFE9
:1023700003C026E930E002C02AE63FEF240F351FF4
:102380003093F2012093F1014091F3015091F40157
:102390006115710519F026E930E002C02AE63FEF29
:1023A000240F351F3093F4012093F3012091F501A0
:1023B0003091F601672B19F48AE69FEF02C086E997
:1023C00090E0820F931F9093F6018093F501350101
:1023D0004601D601C501C258DF4F288139814A81A3
:1023E0005B81CE57D040821B930BA40BB50B8C594D
:1023F000914AA740B0400CF44FCB80912502803821
:1024000039F480910001282F30E02058304004C07A
:10241000282F332727FD309580912602803839F404
:1024200080910101482F50E04058504004C0482F8F
:10243000552747FD509580912702803831F48091CF
:10244000020190E08058904003C0992787FD909545
:102450003A8329835C834B839E838D83295F3F4F1F
:102460002F30310510F41A8219828B819C810796D6
:102470000F9710F41C821B828D819E8107960F9707
:1024800010F41E821D8280E00E949B02C258DF4F22
:10249000A882B982CA82DB82CE57D040FDCAA5E6A7
:1024A000B0E0E5E5F2E10C94F7171092800081E0CE
:1024B0008093810057985F9848E552E000E06E01F4
:1024C0000894C11CD11C62E0E62EF12CEC0EFD1E1E
:1024D000C60165E60E94040B882309F441C0898186
:1024E0008230A9F0833018F4813029F406C083309B
:1024F000B1F08430E9F010E026C0C70160E870E078
:1025000048E050E00E942A1810E069E01DC0C701B1
:1025100060E870E048E050E00E943A1813C0C7013C
:1025200060E070E04AE00E945C0B10E065E40CC0E3
:10253000C70160E070E00E94800BC70160E071E0BD
:102540000E94800B11E061E0898180688983C60167
:102550000E94DE0A01E044EF51E0112309F4B8CFF4
:10256000802FCB59DF4FE8E00C941318CF93DF9303
:10257000C0E0D0E0FE01E95AFE4F808187FD04C033
:10258000808161E00E94F2162196C830D10591F752
:10259000DF91CF9108951F920F920FB60F921124E1
:1025A0000F931F932F933F934F935F936F937F935B
:1025B0008F939F93AF93BF93EF93FF938091990273
:1025C00087FD42C0E0919902FF27E7FDF095E95AA7
:1025D000FE4F808160E00E945E1736C080919902B4
:1025E0008F5F80939902E0919902FF27E7FDF095B4
:1025F000E95AFE4F808187FD27C000918400109129
:102600008500E0919902FF27E7FDF095E95AFE4F1A
:10261000808161E00E945E17E0919902FF27E7FD4B
:10262000F095EE0FFF1FE55DFE4F0190F081E02D6C
:10263000808191810297880F991F800F911F90933D
:102640008900809388000BC080919902873034F212
:1026500010929A0280916F008D7F80936F00FF919E
:10266000EF91BF91AF919F918F917F916F915F910A
:102670004F913F912F911F910F910F900FBE0F908F
:102680001F901895A0E0B0E0E8E4F3E10C94F71790
:10269000182F062F862F61E00E94F216812F60E02E
:1026A0000E94F216812F61E00E945E176AE070E0DE
:1026B00080E090E00E94EA00C0E0D0E0812F9927FE
:1026C00087FD9095FC01EA56FF4FE491F0E0EE0F94
:1026D000FF1FE457FF4FC590D49086559F4FFC01D4
:1026E0008491E82EFF24CE018170182F802F612F56
:1026F0000E945E17F601808120E030E090E08E219C
:102700009F21892B11F021E030E0812F992787FD4F
:1027100090952817390711F010E005C02196C830B0
:10272000D10509F711E0802F60E00E94F216812F99
:10273000CDB7DEB7E8E00C941318A2E9B0E0E3EA05
:10274000F3E10C94F717259A8091E3029091E4024B
:10275000009711F09C0102C027EE32E0CE010196F5
:10276000821B930B803891054CF484E180936C02BA
:102770008EE190E0909373028093720284B7877F1A
:1027800084BF88E10FB6F8948093600010926000D7
:102790000FBE21E030E030930D0220930C0280E860
:1027A00080932502809326028093270230930F02A4
:1027B00020930E0210921002E6E7F1E021E1C22E12
:1027C00022E0D22ED60181918D9321E0EE37F207DF
:1027D000D1F742E050E050931A024093190221E0F1
:1027E00030E030931C0220931B0230931E02209392
:1027F0001D0283E090E09093200280931F023093AB
:10280000220220932102509324024093230284EF5A
:1028100091E0909329028093280210922F02109247
:102820002E02909335028093340290932B02809372
:102830002A02109231021092300290933702809354
:10284000360290932D0280932C0210923302109244
:102850003202909339028093380228E020933A02A2
:1028600090933C0280933B029093420280934102FA
:10287000909348028093470290933E0280933D02DA
:10288000909344028093430290934A0280934902BA
:102890009093400280933F029093460280934502BA
:1028A00090934C0280934B0220934D0285E064E0AC
:1028B0000E944213882311F400E001C007E0CE011A
:1028C000039660E870E048E050E00E942A18002378
:1028D00061F48B81813049F48C819D81AE81BF810F
:1028E0008E549146AC4BB04071F081E08B838EE406
:1028F00091E6ACEBB0E08C839D83AE83BF831886FA
:1029000019861A860860CE010B9660E070E04AE0F6
:102910000E945C0B87FD0260CE01815B9F4F60E0EF
:1029200071E04AE00E945C0B87FD046083E08093C5
:10293000CB02E02EFF24C701867090708230910593
:1029400031F08430910579F0892B81F119C08E0125
:10295000015B1F4FC80160E070E00E94800B88851A
:102960008F5F88870BC08E01055F1F4FC80160E035
:1029700071E00E94800B89858F5F8987C80118C02C
:102980008AE080930B028BE092E060E070E00E94AE
:10299000800B8BE092E060E071E00E94800B8A8502
:1029A0008F5F8A8789E08093CB020AC0CE010B96A5
:1029B000ABE0B2E0FC0184E401900D928150E1F7BC
:1029C000C7018E709070892B41F0CE01039660E8AC
:1029D00070E048E050E00E943A18E0FE0AC082E051
:1029E0000E94120164E670E080E090E00E9493167D
:1029F000F6CF0E944F12882361F02EE088E190E02C
:102A00000FB6F894A895809360000FBE20936000E5
:102A1000FFCF1092800082E08093810081E080935C
:102A20006F0085B5887F85BD80910E0290910F0261
:102A30008230910519F18330910524F4019709F052
:102A40005BC007C08330910571F1049709F054C051
:102A50003FC080E090E048EE53E020ED37E0FC011D
:102A6000E950FE4F51834083FC01EF5FFD4F3183FE
:102A7000208302968A30910591F73EC080E090E075
:102A80004CE454E02CE637E0FC01E950FE4F518362
:102A90004083FC01EF5FFD4F3183208302968A3033
:102AA000910591F729C080E090E042EE54E026EDD8
:102AB00036E0FC01E950FE4F51834083FC01EF5F9B
:102AC000FD4F3183208302968A30910591F714C01F
:102AD00080E090E044E853E024E338E0FC01E95072
:102AE000FE4F51834083FC01EF5FFD4F3183208314
:102AF00002968A30910591F780911002992787FDFF
:102B0000909528EE33E0FC01E29FC001E39F900D19
:102B1000F29F900D1124AA2797FDA095BA2F8093BC
:102B2000630290936402A0936502B0936602A1E5EC
:102B3000B2E0F60181916F01E82FFF27E7FDF095E4
:102B4000EE0FFF1FE55EFE4F808191818D939D9377
:102B5000F9E1CF16F2E0DF0661F720E030E0F9019D
:102B6000E15AFE4F8081F901E95AFE4F80832F5FC1
:102B70003F4F2830310599F70E943B030E945403D0
:102B800080910C0290910D029093500280934F021D
:102B90000197E9F48091C801882319F4E2E0F0E09C
:102BA00002C0E0E0F0E020E030E08091C70188233F
:102BB00011F421E030E0E22BF32BEE0FFF1FE2587F
:102BC000FE4F808191819093500280934F028091BB
:102BD0004F0290915002019731F482E090E090937F
:102BE000500280934F0280914F0280936A0288E5E1
:102BF00092E090936F0280936E020E94EB028091AC
:102C00006F00806280936F00809181008068809364
:102C100081000E94B6120E94F5040E948B060E9459
:102C20002809CE56DF4FE8E00C941318CF93DF93BA
:102C30000E94B7160E949D13C0E0D0E00E94D30C02
:102C40002097E1F30E940000F9CF1F920F920FB678
:102C50000F9211242F933F938F939F93AF93BF9322
:102C60008091DE029091DF02A091E002B091E1023A
:102C70003091E2020196A11DB11D232F2D5F2D374A
:102C800020F02D570196A11DB11D2093E2028093E3
:102C9000DE029093DF02A093E002B093E102809104
:102CA000DA029091DB02A091DC02B091DD02019684
:102CB000A11DB11D8093DA029093DB02A093DC0288
:102CC000B093DD02BF91AF919F918F913F912F9172
:102CD0000F900FBE0F901F9018959FB7F8942091FA
:102CE000DA023091DB024091DC025091DD0286B5C0
:102CF000A89B06C08F3F21F02F5F3F4F4F4F5F4F84
:102D00009FBF542F432F322F2227280F311D411DE3
:102D1000511D82E0220F331F441F551F8A95D1F7A2
:102D2000B901CA010895EF92FF920F931F93CF93B9
:102D3000DF937B018C010E946D16EB010EC00E9497
:102D40006D166C1B7D0B685E7340C8F30894E10838
:102D5000F10801091109C851DC4FE114F104010522
:102D6000110569F7CDB7DEB7E6E00C941518789435
:102D700084B5826084BD84B5816084BD85B5826080
:102D800085BD85B5816085BDEEE6F0E0808181601E
:102D90008083E1E8F0E0108280818260808380811E
:102DA00081608083E0E8F0E0808181608083E1EBF6
:102DB000F0E0808184608083E0EBF0E080818160DE
:102DC0008083EAE7F0E08081846080838081826094
:102DD000808380818160808380818068808310927D
:102DE000C1000895CF93DF93482F50E0CA01865564
:102DF0009F4FFC0134914A565F4FFA01849188231A
:102E000069F190E0880F991FFC01E858FF4FA591E8
:102E1000B491FC01EE57FF4FC591D491662351F454
:102E20002FB7F8948C91932F909589238C93888158
:102E300089230BC0623061F42FB7F8948C91932FE3
:102E4000909589238C938881832B88832FBF06C01C
:102E50009FB7F8948C91832B8C939FBFDF91CF9178
:102E60000895833071F0843028F48130A1F08230ED
:102E700021F514C08630B1F08730D1F08430E9F408
:102E800004C0809180008F7703C0809180008F7D87
:102E900080938000089584B58F7702C084B58F7DBC
:102EA00084BD08958091B0008F778093B00008951D
:102EB0008091B0008F7D8093B0000895FF920F93B2
:102EC0001F93F62E482F50E0CA0182549F4FFC01F9
:102ED0002491CA0186559F4FFC0114914A565F4FB9
:102EE000FA0104910023C9F0222319F0822F0E94D5
:102EF0003117E02FF0E0EE0FFF1FEE57FF4FA591C7
:102F0000B4919FB7F894FF2021F48C911095812300
:102F100002C08C91812B8C939FBF1F910F91FF90CA
:102F20000895629FD001739FF001829FE00DF11D13
:102F3000649FE00DF11D929FF00D839FF00D749F33
:102F4000F00D659FF00D9927729FB00DE11DF91FDF
:102F5000639FB00DE11DF91FBD01CF01112408953C
:102F6000A1E21A2EAA1BBB1BFD010DC0AA1FBB1F8D
:102F7000EE1FFF1FA217B307E407F50720F0A21BFF
:102F8000B30BE40BF50B661F771F881F991F1A946C
:102F900069F760957095809590959B01AC01BD0196
:102FA000CF01089597FB092E05260ED057FD04D0BA
:102FB000D7DF0AD0001C38F4509540953095219504
:102FC0003F4F4F4F5F4F0895F6F79095809570955E
:102FD00061957F4F8F4F9F4F08952F923F924F9251
:102FE0005F926F927F928F929F92AF92BF92CF9299
:102FF000DF92EF92FF920F931F93CF93DF93CDB7A2
:10300000DEB7CA1BDB0B0FB6F894DEBF0FBECDBF19
:1030100009942A88398848885F846E847D848C84EA
:103020009B84AA84B984C884DF80EE80FD800C81F3
:103030001B81AA81B981CE0FD11D0FB6F894DEBFD6
:103040000FBECDBFED010895EE0FFF1F0590F49167
:10305000E02D0994DC01CB01FC01F999FECF06C0FB
:10306000F2BDE1BDF89A319600B40D924150504046
:10307000B8F70895DC01CB0103C02D910E944518DB
:1030800041505040D0F70895262FF999FECF1FBA2E
:1030900092BD81BD20BD0FB6F894FA9AF99A0FBE81
:0830A00001960895F894FFCF9A
:1030A800FFFFFFDC05DC05DC05DC05E803DC05E8E3
:1030B80003DC05DC05DC05DC05DC05070105010F83
:1030C8000103010B0109010D011101CD01CB01D152
:1030D80001C9010000CF01D501D30100010101029E
:1030E800010000000000000000C601C701C801007F
:1030F800000000000000000605FF04FF07FFFF06B0
:10310800050A04FF07FF097889988778899887FF57
:103118000000000000000001020304050607020089
:103128000300040005000800060007000200A0864E
:103138000100801A060005030303040202020101CC
:10314800010101010101D701D901DB01DD01E10123
:00000001FF
