:10000000DDC101C200C2FFC1FEC1FDC1FCC1FBC117
:10001000FAC11FCAF8C1F7C1F6C1F5C1F4C1F3C1F5
:10002000F2C1F1C1F0C120556E646566696E656408
:100030000020525833532056310020525833532059
:1000400056322F563300204E616E6F57696900207B
:100050004561676C6520413350726F002052583300
:10006000534D00204D696E69204D57430020464C8A
:10007000495020312E3500260031003A0046004F0D
:10008000005C0063006D00535441545553004944D3
:100090003D005645523D0031452F32452F523D001F
:1000A000454550524F4D0055702F446E2074686581
:1000B0006E207E0055706461746520436F6E6669C2
:1000C00067207E00457261736520436F6E666967C5
:1000D000207E004572617365205374617473207EC5
:1000E0000057494E47204D4F444500444950205346
:1000F0005700527564456C6520312D41696C004490
:10010000656C746120312D41696C00565461696CD5
:1001100020312D41696C00527564456C6520322D8B
:1001200041696C0044656C746120322D41696C003A
:10013000565461696C20322D41696C004475636BC3
:1001400065726F6E0052756420322D456C652032E9
:100150002D41494C00455041204D4F4445004675C6
:100160006C6C20313030302D32303030004E6F72B8
:100170006D20313130302D313930300054726163AF
:100180006B696E67004D6178203930302D32313027
:100190003000534552564F204652414D4520524162
:1001A00054450053455249414C5258204F52444502
:1001B00052005350454B5452554D204C4556454CDA
:1001C0005300313032340032303438004D4F554E08
:1001D00054204F5249454E54004E6F726D616C0071
:1001E000526F6C6C203930DF204C65667400526FA2
:1001F0006C6C203930DF2052696768740053544BAF
:100200002D4741494E205448524F570046756C6C5B
:100210000048616C660051756172746572004D41F1
:10022000582053544B2D524F54415445005665723B
:1002300079204C6F7720302E323578004C6F772044
:10024000302E3578004D656469756D203178004831
:1002500069676820327800524154452053544B2D31
:10026000524F544154450044697361626C656400A7
:10027000456E61626C656400494E464C494748547E
:100280002043414C49420056522D4741494E20419E
:100290002F452F5200524154452000484F4C4420D6
:1002A0000041696C2000456C652000527564200097
:1002B00087008E0092009700E100EB00F200FF0043
:1002C0000B011701240130013C01450155015E017C
:1002D0006D017C0185019201A301B201C201C70138
:1002E000CC01D901E001EE01FD010C021102160260
:1002F0001E022D023C0245024F02570267027002A5
:1003000078026702700287029502A102A602AB0280
:100310009B02A102A602AB02A000A700B400C40089
:10032000D300206E6565643D00726561643D0043E5
:100330006667566572204D69736D6174636800432A
:1003400066675665723D004F70656E466C696768FA
:10035000745374616200502F492F4400504F540071
:1003600000000000370034003100000000003800B9
:100370003500320000000000360033003000040475
:10038000040404040404020202020202030303033D
:100390000303010204081020408001020408102019
:1003A000010204081020000000000000000000030B
:1003B000040500000000000000000D0211241FBE13
:1003C000CFE5D4E0DEBFCDBF11E0A0E6B0E0E8E2CB
:1003D000F8E102C005900D92AA33B107D9F711E0F8
:1003E000AAE3B1E001C01D92A43DB107E1F713E01B
:1003F000CCEBD3E003C02297FE0110DACA3BD10751
:10040000D1F7EED60FCAFCCD10BC80E189B9599A5C
:1004100088E18AB986E880BD0895AF92CF92EF92C5
:100420000F938AE391E060E141E122E108E079E0A5
:10043000E72E5AE0C52E3BE0A32E94D60F91EF9005
:10044000CF90AF900895A0E0B0E0E8E2F2E0ADC94F
:100450001C01D62E7A0145D82B013C010027F7FC60
:100460000095102FC801B70128EE33E040E050E0BE
:100470005BD94B015C01C0E0D0E0CD2CDD24C7FC92
:10048000D09434C05F9B32C05F9BFECF2CB1C13093
:10049000D10559F0C230D105A9F0209729F52432B1
:1004A00019F58E2DC1E0D0E020C0822F90E0C81653
:1004B000D90614F48E2D15C0122F822FC2E0D0E081
:1004C00000E013C0120F8E2D8150EE2031F0F101AB
:1004D000E00FF11D20830F5F08C0112311F481E0AC
:1004E00010C0C0E0D0E001C08E2DE82EFAD764190C
:1004F000750986099709681579058A059B0514F21F
:1005000080E0CDB7DEB7E2E16CC9A0E0B0E0EAE898
:10051000F2E053C9E62E082F112707FD1095E801D8
:10052000CC0FDD1F60E6A62E60E0B62EAC0EBD1E21
:10053000D501ED91FC91659174918AE391E07DD6AE
:100540008AE391E060E041E046D5FE01E457FF4FC9
:100550000190F081E02DE330F10509F4A3C0E4300F
:10056000F1055CF4E130F10509F473C0E230F10506
:100570000CF08AC0EF2B69F04BC1E530F10509F4AE
:10058000E4C0E530F1050CF4B0C0369709F040C185
:1005900060C0C351DF4FE881F9810081802F992726
:1005A00087FD9095880F991FD501ED91FC91E80F7B
:1005B000F91F659174918AE391E03FD60230E1F032
:1005C000033041F1013009F023C160919301772795
:1005D00067FD70958AE391E04AE050E028D780916A
:1005E0009301E82FFF27E7FDF095EE0FFF1FE95875
:1005F000FF4F6591749144C04091940150919501D1
:1006000060919601709197018AE391E02AE030E0D1
:10061000B9D6FEC060919801772767FD70958AE38F
:1006200091E04AE050E003D78AE391E06FE225D6FB
:1006300060919901772767FD70958AE391E04AE020
:1006400050E0F5D68AE391E06FE217D660919A0107
:1006500020C0D801AA0FBB1FFD01E351FF4F01903D
:10066000F081E02D8081992787FD9095880F991F53
:10067000A05ABF4FED91FC91E80FF91F659174915D
:100680008AE391E0DAD5C4C0C351DF4FE881F98134
:100690006081772767FD70958AE391E04AE050E03A
:1006A000C6D6B6C0C351DF4F0990D881C02D00E037
:1006B00010E00E1529F411E08AE391E06BE5DDD539
:1006C000E881FF27E7FDF095E35EFE4F8AE391E0C6
:1006D0006081D3D5112321F08AE391E06DE5CDD57A
:1006E0000F5F2196083021F793C0C351DF4F099067
:1006F000D881C02D10E000E01E1529F401E08AE346
:1007000091E06BE5BAD56881603831F48AE391E015
:100710006CE573E092D508C0772767FD70958AE392
:1007200091E04AE050E083D6002321F08AE391E093
:100730006DE5A3D5123021F08AE391E06FE29DD5FB
:100740001F5F21961330B9F663C0FE01E351FF4FDE
:10075000D080C180FF24E7FCF094F701E55FFE4FF5
:1007600000818AE391E05AD4D501ED91FC91659125
:1007700074918AE391E061D5112707FD1095C801B6
:100780000196880F991FD501ED91FC91E80FF91F93
:10079000659174918AE391E050D58AE391E066E532
:1007A00073E04BD58AE391E060E041E014D4E4E1EA
:1007B000F1E0EE0EFF1ED701EC905801AA0CBB1C15
:1007C0002D2D3C2DC901EC0110E000E01E1529F48F
:1007D00001E08AE391E06BE550D5E881F981EA0D0B
:1007E000FB1D608171818AE391E04AE050E01FD6F1
:1007F000002321F08AE391E06DE53FD5123021F02E
:100800008AE391E06FE239D51F5F22961330E9F653
:10081000CDB7DEB7EAE0EDC75D9BFECF8CB95F9B3D
:10082000FECF8CB1662329F462E070E080E090E0B6
:100830007FD60895EF92FF920F931F93CF93DF938C
:10084000E82E192F062FF62E84E260E0E5DF802FD8
:1008500060E0E2DF2E2D312FC901EC0104C0899147
:10086000F80E60E0D9DF9E012E192017C4F38F2DFA
:10087000819561E0D1DFCDB7DEB7E6E0BEC71F935B
:10088000CF93DF93C6E2D1E01991812F60E09BD630
:10089000812F61E0E8D681E0CA32D807A9F7DF915D
:1008A000CF911F9108950F931F9384B7877F84BFC3
:1008B00088E10FB6F89481BD11BC0FBEA5DDDFDF66
:1008C0000AE311E0C80160E142E020E0ADD3C801D5
:1008D00070D31F910F910895A0E0B0E0E1E7F4E03C
:1008E00065C7FFD57B018C01C3EAD1E056E2652ED6
:1008F00051E0752E4BE9842E41E0942E3BEAA32E65
:1009000031E0B32E2BEBC22E21E0D22E332492E025
:10091000492E512C19821882F3018081D6D620E00D
:1009200030E0892B11F421E030E084E0220F331F06
:100930008A95E1F7F40180819181282B392B2031B0
:10094000310571F1213131053CF421503040223024
:10095000310508F077C009C02131310509F441C0E3
:100960002231310509F06EC055C0F50180819181B9
:10097000A281B381A8019701281B390B4A0B5B0B9D
:10098000DA01C9018155934CA040B0400CF45AC023
:1009900041E050E059834883F401118210821FC066
:1009A000F50180819181A281B381A8019701281B63
:1009B000390B4A0B5B0BDA01C9018155934CA040FE
:1009C000B0400CF43FC05982488221E030E0F4018D
:1009D00031832083F601E082F18202831383F501E3
:1009E0002DC0F60180819181A281B381A801970178
:1009F000281B390B4A0B5B0BDA01C901815C97425A
:100A0000A940B040FCF059824882F40151824082F2
:100A1000F60114C0F60180819181A281B381A80101
:100A20009701281B390B4A0B5B0BDA01C901815A6C
:100A30009648A140B04034F059824882E082F18269
:100A400002831383332031F488819981892B11F03B
:100A50003324339422960894611C711C22E030E008
:100A6000820E931E44E050E0A40EB51EC40ED51EA7
:100A700051E0CB3AD50709F04DCF832DCDB7DEB786
:100A8000E1E1B0C6A5E6B0E0E7E4F5E08EC629D521
:100A9000AC01CB01DA013C014D01EE24FF244424DA
:100AA000552401E0A4E02A2E01C001E01AD55B0123
:100AB0006C01E114F10429F020E930ED43E050E04D
:100AC00004C020E533EC40E050E0D601C5018619B2
:100AD0009709A809B909281739074A075B070CF0D5
:100AE00068C082E0E816F104E9F0A3E0EA16F10438
:100AF00044F4E114F10471F0B1E0EB16F10499F45F
:100B00000BC0E3E0EE16F10451F0F4E0EF16F1044F
:100B100051F408C083E001C081E0898304C0632DE3
:100B20006F5F02C0198261E0CE01019683DE1981F8
:100B3000CE01019665E644E150E085DC882309F4A6
:100B400090C110688981811709F08BC1A1E0EA1674
:100B5000F104F1F0B3E0EB16F10409F486C1E114FD
:100B6000F10429F58A818A3021F0F4E0EF2EF12C8E
:100B70007EC1AFE4B1E0FE01329684E401900D92B3
:100B80008150E1F735014601E1E0EE2EF12C11C074
:100B9000A3E9B1E0FE01329688E001900D92815008
:100BA000E1F772E0E72EF12C4424552460C13501B1
:100BB0004601002309F442C08AE391E02FD2E2E02B
:100BC000EE16F104B1F0F4E0EF16F104B1F0E11427
:100BD000F104A1F58AE391E067E473E02ED38AE3A0
:100BE00091E060E041E0F7D18AE391E06FE373E0E8
:100BF0001DC0842D652D89DC21C08AE391E06FE260
:100C000073E01BD38AE391E060E041E0E4D18AE342
:100C100091E069E273E011D38AE391E06A814AE0EE
:100C200050E0BED38AE391E062E273E006D38AE348
:100C300091E06AE070E04AE050E0F9D382E0E81623
:100C4000F10409F017C148DE882309F413C180912B
:100C5000A5019091A6010297A9F4151414F45A94D1
:100C600011C0442079F04A94E42DFF27E7FDF09568
:100C7000EE0FFF1FE457FF4F0190F081E02DE65586
:100C8000FF4F50808091A7019091A801029709F031
:100C90004CC0E42DFF27E7FDF095EE0FFF1FE45752
:100CA000FF4F0190F081E02DE630F10519F58091BC
:100CB0008B00833071F08430A1F08230B1F5DE0119
:100CC0001296EFE4F1E084E401900D928150E1F797
:100CD00001C01A82298243E0E42EF12C34E4332E41
:100CE00024C01A82A2E0A98323E0E22EF12C98E02E
:100CF000392E1BC0E655FF4F8081581614F45394CB
:100D000014C0BDE0B4158CF04394E42DFF27E7FD3B
:100D1000F095EE0FFF1FE457FF4F808191810697FA
:100D200019F481E080938B005524242D332727FD6F
:100D30003095F901EE0FFF1FE457FF4FA081B181FD
:100D4000A530B10519F041E050E002C04AE050E0A2
:100D50008091A3019091A401029711F4BA0102C0FD
:100D600060E070E08091A9019091AA01029729F4B6
:100D700066277727641B750B04C06115710509F49C
:100D800094CE220F331FF901EF54FF4F4081518160
:100D9000F901E153FF4F00811181A430B10589F0C1
:100DA000A530B105D1F0F901E351FF4F139709F0D8
:100DB00044C0852D992787FD90950190F081E02D05
:100DC00009C023513F4F852D992787FD9095D90163
:100DD000ED91FC91E80FF91F33C0A52DBB27A7FDAE
:100DE000B09523513F4FF90120813181FD01EC5E27
:100DF000FE4F8081992787FD9095880F991F280FB6
:100E0000391FA55FBE4F8C91992787FD9095880F5C
:100E1000991FD901ED91FC91E80FF91F8081918113
:100E2000860F971F841795072CF0AC010817190738
:100E30000CF4A8015183408338CE0190F081E02D5D
:100E40008081992787FD9095860F971F84179507B6
:100E500014F4842F04C0081719070CF4C801808308
:100E600024CEE114F10409F4A2CEEE24FF243501CE
:100E70004601A2CE00E01ACE0F931F938C01FC0115
:100E8000868160E0F0D381E090E073D3F801868141
:100E900061E0E9D381E090E06CD3F801868160E005
:100EA000E2D384E690E065D31F910F910895A0E00E
:100EB000B0E0ECE5F7E083C4D82EC92E282F392FF7
:100EC000C9018C01C0E0D0E0E62EFF24F801878143
:100ED00061E079D3B7010C2E02C0759567950A942D
:100EE000E2F76170F8018781BED321960F5F1F4F33
:100EF000C830D10559F78D2D9C2DBEDFCDB7DEB79B
:100F0000E8E079C4A0E0B0E0E7E8F7E058C4D82E04
:100F1000C92E282F392FC9018C01C0E0D0E0E62E60
:100F2000FF24F801878161E04ED3B7010C2E02C087
:100F3000759567950A94E2F76170F801878193D3FC
:100F400021960F5F1F4FC430D10559F78D2D9C2D71
:100F500093DFCDB7DEB7E8E04EC41F93CF93DF93A6
:100F6000EC01162F8C81642F7ED38D818F3F11F081
:100F700060E079D38F8584FF04C0CE01612F97DFB5
:100F80000CC0612F70E084E0759567958A95E1F754
:100F9000CE01B8DFCE01612FB5DFDF91CF911F9178
:100FA000089541E0DADF81E090E0089540E0D5DF88
:100FB0000895FC016089862F8160808B6960CF0174
:100FC000F5DF0895FC016089862F8460808B6C605A
:100FD000CF01ECDF0895A8E0B0E0E0EFF7E0F5C363
:100FE0009C01FE013196A2E3B1E088E00D900192F0
:100FF0008150E1F7F9018389481710F0482F4150DB
:10100000E42FF0E0EE0FFF1FEC0FFD1F8181680F52
:101010006068C901CBDF2896E2E0F3C361E0C6DF78
:1010200080ED97E0A6D20895CF93DF93EC01423094
:1010300018F08F8588608F874B8B1C8A222329F0BC
:10104000413019F48F8584608F8780E593EC91D2CD
:101050008C8160E008D38E8160E005D38D818F3F65
:1010600011F060E000D36F8564FD16C0CE0163E02F
:1010700049DF84E991E17DD2CE0163E043DF84E979
:1010800091E177D2CE0163E03DDF86E990E071D255
:10109000CE0162E037DF11C06062CE0187DF84E9F4
:1010A00091E167D26F856062CE0180DF86E990E0D2
:1010B00060D26F856062CE0179DF6F856062CE019C
:1010C00075DF84E0888BCE017DDFCE01A7DF82E073
:1010D000898BCE0166E06ADFDF91CF9108956F9230
:1010E0007F928F92AF92CF92EF920F931F93DF93E5
:1010F000CF93CDB7DEB73C01162F842FF301448385
:1011000025830683E782C086A18682869D85938794
:101110009E8594879F8595879889968761E053D2AD
:10112000F30185818F3F11F061E04DD2F30186819B
:1011300061E049D2112319F0F301178603C080E161
:10114000F3018787C30160E141E020E06DDFCF91CB
:10115000DF911F910F91EF90CF90AF908F907F9084
:101160006F9008958F92AF92CF92DF92EF92FF929D
:101170000F931F93CF93DF93DC01362F542F722FE1
:10118000102FFE2CDC2C8A2C13961C921E92129788
:101190008EE291E011969C938E9300D000D0EDB733
:1011A000FEB73196CDB7DEB7198211821282138253
:1011B000CD0161E0432F252F072FE12ECF2CAD2C41
:1011C0008EDF0F900F900F900F90DF91CF911F91B6
:1011D0000F91FF90EF90DF90CF90AF908F90089598
:1011E000CF93DF93D0D15FDBC0E0D0E04BDC209722
:1011F000E9F306D7FBCFA0E0B0E0E0E0F9E0DFC222
:101200007C016B018A01C0E0D0E00FC0D6016D9176
:101210006D01D701ED91FC910190F081E02DC701A6
:101220000995C80FD91F015010400115110571F71C
:10123000CE01CDB7DEB7E8E0DEC2EF92FF920F93AA
:101240001F93CF93DF937C018B01C0E0D0E0F801C6
:101250000F5F1F4F6491662359F0D701ED91FC9108
:101260000190F081E02DC7010995C80FD91FEFCF7C
:10127000CE01CDB7DEB7E6E0C0C2DC01ED91FC9156
:101280000190F081E02D09950895CF93DF93EC0153
:101290006115710519F420E030E00FC0DB010D90FD
:1012A0000020E9F71197A61BB70BE881F9810280AE
:1012B000F381E02DAD0109959C01C901DF91CF912A
:1012C00008954F925F927F928F929F92AF92BF92BA
:1012D000CF92DF92EF92FF920F931F93DF93CF9302
:1012E000CDB7DEB7A1970FB6F894DEBF0FBECDBF66
:1012F0002C01742ECB01223008F42AE019A231E22D
:10130000C32ED12CCC0EDD1E822E9924AA24BB2400
:10131000672D752FA501940126D279018A01C80194
:10132000B701A501940100D2472D461B0894C108BE
:10133000D1084A3014F4405D01C0495CF601408395
:10134000E114F1040105110521F07E2C5F2DC80187
:10135000DFCFC201B60199DFA1960FB6F894DEBFC8
:101360000FBECDBFCF91DF911F910F91FF90EF90F6
:10137000DF90CF90BF90AF909F908F907F905F90C5
:101380004F900895DC012115310541F4ED91FC9158
:101390000190F081E02D642F0995089592DF089562
:1013A000EF92FF920F931F939A01E62EFF2400E025
:1013B00010E0B801A701E6DF1F910F91FF90EF90B9
:1013C0000895A0E0B0E0E6EEF9E0F9C1EC016A01B1
:1013D0007B012115310541F4E881F9810190F0810B
:1013E000E02D642F09951DC02A303105C9F477FF1F
:1013F00016C0E881F9810190F081E02D6DE2099538
:101400008C0144275527BA014C195D096E097F09E3
:10141000CE012AE056DF9801280F391F03C02AE0C9
:1014200050DF9C01C901CDB7DEB7E8E0E4C1EF921F
:10143000FF920F931F937B019A010027F7FC009501
:10144000102FB801A701BDDF1F910F91FF90EF9002
:1014500008951F920F920FB60F9211242F933F936E
:101460008F939F93AF93BF938091CF019091D001C1
:10147000A091D101B091D2013091D3010196A11D6B
:10148000B11D232F2D5F2D3720F02D570196A11D63
:10149000B11D2093D3018093CF019093D001A093ED
:1014A000D101B093D2018091CB019091CC01A09158
:1014B000CD01B091CE010196A11DB11D8093CB014C
:1014C0009093CC01A093CD01B093CE01BF91AF9189
:1014D0009F918F913F912F910F900FBE0F901F9072
:1014E00018959FB7F8942091CB013091CC01409191
:1014F000CD015091CE0182B708B600FE06C08F3FE5
:1015000021F02F5F3F4F4F4F5F4F9FBF542F432F0F
:10151000322F2227280F311D411D511D82E0220F3D
:10152000331F441F551F8A95D1F7B901CA01089589
:10153000EF92FF920F931F93CF93DF937B018C0168
:10154000D0DFEB010DC0CDDF6C1B7D0B685E7340FF
:10155000D0F30894E108F10801091109C851DC4FE2
:10156000E114F1040105110571F7CDB7DEB7E6E02E
:1015700044C1019739F0880F991F880F991F02976E
:101580000197F1F70895789483B7826083BF83B79A
:10159000816083BF89B7816089BF1EBC8EB58260C0
:1015A0008EBD8EB581608EBD8FB581608FBD85B5D6
:1015B000846085BD85B5806485BD329A319A309A44
:1015C000379A1AB80895CF93DF93482F50E0CA0195
:1015D0008E569C4FFC01349142585C4FFA01849125
:1015E000882369F190E0880F991FFC01E05AFC4FB5
:1015F000A591B491FC01E659FC4FC591D4916623A5
:1016000051F42FB7F8948C91932F909589238C9354
:10161000888189230BC0623061F42FB7F8948C91D4
:10162000932F909589238C938881832B88832FBF58
:1016300006C09FB7F8948C91832B8C939FBFDF914A
:10164000CF910895843039F0853049F0833051F4DA
:101650008FB58F7702C08FB58F7D8FBD089585B50B
:101660008F7D85BD0895FF920F931F93F62E482F0F
:1016700050E0CA018A559C4FFC012491CA018E5644
:101680009C4FFC01149142585C4FFA0104910023D5
:10169000C1F0222311F0822FD5DFE02FF0E0EE0F12
:1016A000FF1FE659FC4FA591B4919FB7F894FF2016
:1016B00021F48C911095812302C08C91812B8C9305
:1016C0009FBF1F910F91FF9008950F931F93482F75
:1016D00050E0CA018A559C4FFC012491CA018E56E4
:1016E0009C4FFC01049142585C4FFA011491112364
:1016F00019F420E030E014C0222311F0822FA2DF81
:10170000812F90E0880F991F8C589C4FFC01A59168
:10171000B4918C9120E030E0802311F021E030E0A2
:10172000C9011F910F910895629FD001739FF0012D
:10173000829FE00DF11D649FE00DF11D929FF00D61
:10174000839FF00D749FF00D659FF00D9927729F98
:10175000B00DE11DF91F639FB00DE11DF91FBD0123
:10176000CF0111240895A1E21A2EAA1BBB1BFD0173
:101770000DC0AA1FBB1FEE1FFF1FA217B307E40770
:10178000F50720F0A21BB30BE40BF50B661F771FC8
:10179000881F991F1A9469F76095709580959095A8
:1017A0009B01AC01BD01CF0108952F923F924F9252
:1017B0005F926F927F928F929F92AF92BF92CF92E1
:1017C000DF92EF92FF920F931F93CF93DF93CDB7EA
:1017D000DEB7CA1BDB0B0FB6F894DEBF0FBECDBF62
:1017E00009942A88398848885F846E847D848C8433
:1017F0009B84AA84B984C884DF80EE80FD800C813C
:101800001B81AA81B981CE0FD11D0FB6F894DEBF1E
:101810000FBECDBFED010895EE0FFF1F0590F491AF
:08182000E02D0994F894FFCFBC
:10182800B002B802CC02D602D802DA02E002E8021C
:10183800F002FA02000306030803100318036C0100
:10184800720178017F0185018B010101000001000F
:101858000100020003000100010001000100010075
:10186800010004000500050006000000000702084A
:10187800000100010001000000000001000100015A
:101888000001000100010080FF00000000010003CA
:10189800000900040014000700020003000300040C
:1018A80000020002007F00E803E80304008A0050F9
:1018B800015201540155015D015F01610163016538
:1018C80001670169017E0084008B000000000101AE
:1018D8000102020200010200010200010252455405
:1018E8004131613266000203050400000000D1079F
:0A18F800FB0800004000140054003B
:00000001FF
