:100000000C948C010C94B4010C94B4010C94B401C4
:100010000C94B4010C94B4010C94B4010C94B4018C
:100020000C94B4010C94B4010C94FE1B0C94821C2F
:100030000C94B4010C94B4010C94B4010C94B4016C
:100040000C94B4010C9433150C94B4010C94B401C9
:100050000C94B6010C94B4010C94B4010C94C01D22
:100060000C94B4010C944A180C9498180C94B40194
:100070000C94B4010C94EB030C94B4010C94B401F3
:100080000C94B4010C94B4010C94B4010C94B4011C
:100090000C94B4010C94B4010C94B4010C94B4010C
:1000A0000C94B4010C94B4010C94B4010A082C080B
:1000B000ED080A082C08ED083609A509FB1EFE1EEE
:1000C000F11EF51E1F1F1F1F1F1F021F061F0A1FE5
:1000D000101F141F1F1F1A1F0403090422034100CD
:1000E00072006400750069006E006F0020004C0013
:1000F00065006F006E006100720064006F001803FD
:10010000410072006400750069006E006F002000FD
:100110004C004C004300120100020000004041234B
:1001200036800001010200011201000202000040BD
:100130004123368000010102000100C18081C1001D
:10014000000000240027002A002D003000000000DD
:1001500000250028002B002E0031000000000023A5
:1001600000260029002C002F0004040404040304CA
:100170000502020202040302020202060606060645
:100180000604040202020404080201104080401028
:1001900020408040800802040180402010020110AD
:1001A00080102040400000000200080E0000030400
:1001B00001000B0000000000000000000000000033
:1001C000000000070605040100080A0B0C0D0908D1
:1001D0000B000202020100090400000102020000FB
:1001E0000524001001052401010104240206052450
:1001F0000600010705810310004009040100020AFE
:1002000000000007050202400000070583024000CD
:100210000005010902A1010901A1008501050919D3
:1002200001290315002501950375018102950175CA
:1002300005810305010930093109381581257F75CC
:100240000895038106C0C005010906A101850205C4
:100250000719E029E7150025017501950881029528
:1002600001750881039506750815002565050719B0
:100270000029658100C00904020001030000000993
:1002800021010100012265000705840340000100EF
:10029000000000000000002A2B28000000000000E1
:1002A0000000000000000000000000000000002C22
:1002B0009EB4A0A1A2A434A6A7A5AE362D37382798
:1002C0001E1F20212223242526B333B62EB7B89F24
:1002D0008485868788898A8B8C8D8E8F9091929366
:1002E0009495969798999A9B9C9D2F3130A3AD3504
:1002F0000405060708090A0B0C0D0E0F1011121346
:100300001415161718191A1B1C1DAFB1B0B5000033
:10031000FF195C1B9D1F9F2011241FBECFEFDAE049
:10032000DEBFCDBF11E0A0E0B1E0E8ECF4E402C034
:1003300005900D92A03CB107D9F714E0A0ECB1E014
:1003400001C01D92AC33B107E1F713E0C8E1D3E07F
:1003500004C02297FE010E943622C031D107C9F79E
:100360000E94551A0C9462220C9400001F920F9266
:100370000FB60F9211248F939F93809174029091E6
:1003800075020196909375028093740280917402B5
:1003900090917502892B29F4809176028F5F80936A
:1003A00076029F918F910F900FBE0F901F9018951E
:1003B00060918400709185002091740230917502E3
:1003C000E09176028091840090918500862797279E
:1003D00097FDEECF8091740290917502281739072E
:1003E00039F780917602E81719F740E050E0FFE016
:1003F000220F331F441F551FFA95D1F78E2F90E01F
:10040000A0E0B0E0BB278695B795AA279927882753
:10041000282B392B4A2B5B2B76956795CB01A0E0D7
:10042000B0E0282B392B4A2B5B2BB901CA01089568
:10043000AF92BF92CF92DF92EF92FF920F931F93F2
:1004400028EE33E040E050E00E94A1215B016C0106
:100450000E94D8017B018C010E94D8016E197F098E
:10046000800B910B6A157B058C059D05A8F31F91E8
:100470000F91FF90EF90DF90CF90BF90AF900895D5
:1004800091E0982721F0913021F45D9A08955D98CC
:1004900008958BB190E289278BB90895EF92FF926E
:1004A0000F931F937B018C01809117039091180388
:1004B000A0911903B0911A038E199F09A00BB10BDB
:1004C000181619061A061B060CF450C080911B035F
:1004D000882321F5E0911C03EF5FE370E0931C0398
:1004E000FF27E7FDF095E958FD4F8081992787FDAB
:1004F0009095880F991F80931B0380E492E4AFE0EE
:10050000B0E0E80EF91E0A1F1B1FE0921703F092DD
:1005100018030093190310931A0328C08150809385
:100520001B0381700E944002E0911C03FF27E7FD3E
:10053000F095EE0FFF1FE558FD4F80819181AA27AE
:1005400097FDA095BA2F2AE0880F991FAA1FBB1FFD
:100550002A95D1F78E0D9F1DA01FB11F8093170301
:1005600090931803A0931903B0931A031F910F914E
:10057000FF90EF9008959A01AB01882311F0589AEB
:10058000599A1092B90060E074E284EF90E00E9402
:10059000C0212051304040405040569547953795F6
:1005A00027952093B80008952FEF30E011C0211552
:1005B000310561F41092BC00809183029091840215
:1005C00001969093840280938302089521503040D5
:1005D0008091BC0087FFEBCF0895FF920F931F938C
:1005E000F82E0CEB10E084EAF80180830E94D4021C
:1005F000F092BB0084E8F80180830E94D4021F912E
:100600000F91FF9008958093BB0084E88093BC0015
:100610000E94D40208951F93182F882311F484E8B0
:1006200001C084EC8093BC000E94D4029091BB0076
:10063000112319F484E98093BC00892F1F91089538
:100640000F931F93162F042F880F0E94ED02812F06
:100650000E940303802F0E94030384E98093BC005F
:100660001F910F9108950F931F93182F062F880F36
:100670000E94ED02802F0E940303110F812F8160E1
:100680000E94ED0280E00E940B031F910F910895DC
:100690001F93CF93DF93EB01142F880F81600E948B
:1006A000ED0208C0115080E011160CF481E00E94A8
:1006B0000B0389931123B1F7DF91CF911F91089517
:1006C000DF92EF92FF920F931F93E82EF62E8A018E
:1006D000D22E880F0E94ED028F2D0E9403038E2DD3
:1006E000B8014D2D0E9448031F910F91FF90EF908C
:1006F000DF90089588E66BE640E80E94200362E3FD
:1007000070E080E090E00E94180288E66BE643E02B
:100710000E94200388E66AE140E00E94200388E608
:100720006BE148E10E94200388E665E70E943303FD
:1007300090E08E77883609F491E0892F0895A6E03D
:10074000B0E0E5EAF3E00C9407228C017B016A013A
:1007500088E663E4AE014F5F5F4F26E00E946003CE
:10076000998180E02A8130E0822B932BF8019183DC
:1007700080839B8180E02C8130E0822B932BF701DA
:10078000918380839D8180E02E8130E0822B932BAA
:10079000F601918380832696E8E00C942322282F8B
:1007A00017C0E22FF0E0EE0FFF1FEB57FD4F8081E7
:1007B0009181892B61F080917C00887F822B8093CE
:1007C0007C0080917A00806480937A0008952F5F86
:1007D000263038F308951F920F920FB60F9211240E
:1007E0002F933F934F935F936F937F938F939F9339
:1007F000AF93BF93EF93FF9380917C008770E82FB6
:10080000F0E0EE0FFF1FEB57FD4F0190F081E02D60
:100810009091790090838F5F0E94CF03FF91EF91B9
:10082000BF91AF919F918F917F916F915F914F9108
:100830003F912F910F900FBE0F901F901895E5E8F4
:10084000F2E040E050E061E070E080819181892B2E
:1008500079F087B1DB01042E02C0AA0FBB1F0A94F6
:10086000E2F79D012095822387B988B1282328B912
:100870004F5F5F4F32964630510539F780E68093DF
:100880007C0010927B008FE880937A0080E00E94C9
:10089000CF030895CF93DF93EB01DA01FC0140E031
:1008A00050E061E070E080819181892B79F038819E
:1008B000CB01042E02C0880F991F0A94E2F7282F5B
:1008C0002095232328832C91822B8C934F5F5F4F9D
:1008D00032964830510539F7DF91CF91089581E97B
:1008E00092E064E270E045E250E00E944A0481EA4E
:1008F00092E067E270E048E250E00E944A0481EB37
:1009000092E06AE270E04BE250E00E944A040895EF
:1009100060E070E040E050E0A1E0B0E0362FFA0186
:10092000EF56FD4F0190F081E02D309751F023B14B
:10093000CD01062E02C0880F991F0A94E2F72823E2
:100940002083FA01EF55FD4F0190F081E02D3097A3
:1009500051F026B1CD01032E02C0880F991F0A94D1
:10096000E2F728232083FA01EF54FD4F0190F08134
:10097000E02D309749F029B1CD0102C0880F991FB1
:100980003A95E2F7282320836F5F7F4F4E5F5F4FDA
:100990004031510519F60895A6E0B0E0E2EDF4E02B
:1009A0000C94FD217A8369831C012B019E838D8326
:1009B0009B012A5F3F4F3C832B83ED81FE810681A3
:1009C000178180819181081B190B3801882477FCDD
:1009D0008094982CF10182899389A489B589860D28
:1009E000971DA81DB91D268D378D40A151A1AA24A0
:1009F000BB246501A21AB30AC40AD50A8A159B054D
:100A0000AC05BD054CF05C016D01281739074A079C
:100A10005B0714F459016A01F101A28AB38AC48AFE
:100A2000D58AED81FE8184859585AA2797FDA095BD
:100A3000BA2FA4019301281B390B4A0B5B0BCA0187
:100A4000B90115870487F20124853585442737FDD0
:100A50004095542F0E94A1217B018C0132E0159515
:100A60000795F794E7943A95D1F7F2012081318107
:100A7000442737FD4095542FC401B3010E94A121A2
:100A800023E095958795779567952A95D1F7E60E9A
:100A9000F71E081F191FF20126813781442737FDF1
:100AA0004095542FC601B5010E94A121B6E095954D
:100AB000879577956795BA95D1F7E60EF71E081FCB
:100AC000191FE981FA81028804C015950795F794EA
:100AD000E7940A94D2F7ED81FE81F3A6E2A632965E
:100AE000FE83ED8324E030E0220E331E42E050E02E
:100AF000440E551E8B819C814816590609F05DCF26
:100B00002696E2E10C941922A6E0B0E0EAE8F5E0CE
:100B10000C940D22CE010196BE016D5F7F4FAE0198
:100B20004B5F5F4F0E949F038B819C8190958195C5
:100B30009F4F9093F9018093F80149815A8166276C
:100B40007727641B750B7093FB016093FA012D816D
:100B50003E813093FD012093FC0180912802909109
:100B600029028230910519F00397B1F409C030933E
:100B7000FB012093FA015093FD014093FC010CC04E
:100B800088279927821B930B9093FB018093FA018E
:100B90007093FD016093FC012696E2E00C942922FB
:100BA00081E040E85AE166E070E00E94BB020E94EA
:100BB0007A03882349F485E08093790288EC90E0F9
:100BC0009093800280937F0208950F931F93CF9399
:100BD000DF93FC011082772767FD70957283618334
:100BE000DC01EC0140E050E00FEF1FE760E070E84F
:100BF0000CC012961C930E9311971A967C936E93C9
:100C000019971F86188A198A1A8A9A014F5F5F4FAF
:100C100012962496818192812817390754F314A6DD
:100C200013A6DF91CF911F910F910895A0E0B0E03E
:100C3000ECE1F6E00C9405227C018C01EB01F7015C
:100C400060E070E02BC02181328188819981281772
:100C500039070CF4C901928381832185328588810B
:100C60009981821793070CF4C90192878187299192
:100C70003991442737FD4095542FD8011F96AD90E8
:100C8000BD90CD90DC905297A20EB31EC41ED51E0F
:100C90001F96AD92BD92CD92DC9252979B016F5FF1
:100CA0007F4F32960C5F1F4FD70111968D919C910B
:100CB0001297281739073CF2CDB7DEB7EAE00C945B
:100CC0002122A0E0B0E0E7E6F6E00C940722EC0178
:100CD0007C0143E2C42ED12CC80ED91E00E010E0E6
:100CE00011C02BA53CA5442737FD4095542FF70193
:100CF00067857089818992890E94E221F60121939A
:100D000031936F0198010F5F1F4F84E090E0E80E70
:100D1000F91E89819A81281739071CF3CDB7DEB7F0
:100D2000E8E00C942322CF93DF93FC01EB01618177
:100D30007281A0E040E050E00DC08385948523815E
:100D40003481821B930B8C179D070CF4AF5F4F5FB0
:100D50005F4F32964617570784F320E08A2F992772
:100D600087FD90958617970709F421E0822FDF9180
:100D7000CF910895A8E0B0E0E0ECF6E00C940B22EF
:100D80008C018091C0019091C1019A8389838091E7
:100D9000C4019091C5019C838B838091C601909181
:100DA000C7019E838D838091C2019091C301988772
:100DB0008F83C801BE016F5F7F4F0E941606F80146
:100DC00083A594A5019694A783A78436910551F530
:100DD000C80164E170E00E9493068823F9F0C8011D
:100DE0000E946106F80183A194A19093140180935D
:100DF000130185A196A1909316018093150187A1F7
:100E000090A5909318018093170181A592A59093C6
:100E10001A018093190181E0808304C0C80164E055
:100E20000E94E5052896E4E00C942722A6E0B0E0B5
:100E3000ECE1F7E00C940B228C018091F801909189
:100E4000F9019A8389838091FA019091FB019C8337
:100E50008B838091FC019091FD019E838D83C8015D
:100E6000BE016F5F7F4F0E941606F80183A594A50F
:100E7000019694A783A78C52914021F5C80162E3A3
:100E800070E00E9493068823C9F0C8010E946106A1
:100E9000F80183A194A19093F3018093F20185A1BD
:100EA00096A19093F5018093F40187A190A590936A
:100EB000F7018093F60181E0808304C0C80163E0FC
:100EC0000E94E5052696E4E00C9427222091030178
:100ED0003091040180910301909104012817390792
:100EE00021F43093C1012093C0012091050130917C
:100EF000060180910501909106012817390721F418
:100F00003093C5012093C40120910701309108015D
:100F100080910701909108012817390721F4309337
:100F2000C7012093C60120910B0130910C018091E3
:100F30000B0190910C012817390721F43093C90156
:100F40002093C80120910D0130910E0180910D0177
:100F500090910E012817390721F43093CB0120938B
:100F6000CA0120910F013091100180910F019091E1
:100F700010012817390721F43093CD012093CC01BB
:100F80002091110130911201809111019091120173
:100F90002817390721F43093CF012093CE01809197
:100FA0005C0290915D0205974CF48091C001909194
:100FB000C1019093C3018093C2010895209109015A
:100FC00030910A018091090190910A01281739078F
:100FD00021F43093C3012093C2010895A0E0B0E052
:100FE000E4EFF7E00C940722DC01C0905C02D090A3
:100FF0005D02F6013297E830F10508F0E3C1EA5AE4
:10100000FF4F6D917C9111970091C0011091C1012A
:101010000C943422600F711F7093E5016093E4011A
:101020008D919C9111972091C2013091C301820F43
:10103000931F9093EB018093EA0112968D919C91FE
:1010400013972091C4013091C501820F931F909393
:10105000E7018093E601A8C17801E60EF71EF09241
:10106000E501E092E401E091C201F091C301CD916C
:10107000DC911197CE0FDF1FD093EB01C093EA01F3
:101080004091D0015091D10144525A4F8D919C9181
:101090001197480F591F12966D917C91139780916B
:1010A000C4019091C501680F791FCB01840F951F72
:1010B0009C013595279535952795359527959595D7
:1010C0008795280F391F275731403093E701209328
:1010D000E601461B570BCA0133E0959587953A9573
:1010E000E1F755954795840F951F84529A4F909339
:1010F000E9018093E8012091C6013091C70146E0E3
:10110000C416D10409F060C084E0223E380774F0B0
:1011100029573540273C310518F082E090E002C0A5
:1011200081E090E0029709F04DC121C08091190142
:1011300090911A01800F911F8E1B9F0B209113011C
:1011400030911401821B930B9595879584529A4F89
:101150009093E5018093E4018C5D95402CED35E0A2
:10116000281B390B3093EB012093EA012BC120910E
:10117000020112966D917C911397E091D201F0914A
:10118000D3016E0F7F1F882777FD8095982F30E061
:1011900020583040442737FD4095542F0E94A1210C
:1011A000A7E09595879577956795AA95D1F7E60E6F
:1011B000F71EF092E501E092E401C61BD70BD09335
:1011C000EB01C093EA01FEC09093E5018093E40136
:1011D00014968D919C911597EFC0600F711F7093BD
:1011E000E5016093E4018D919C9111972091C201DA
:1011F0003091C301820F931F9093EB018093EA011A
:1012000012966D917C9113978091C4019091C501C4
:10121000680F791F14964D915C9115978091C601C6
:101220009091C701480F591FCA01860F971F9C0153
:10123000F3E035952795FA95E1F795958795280F71
:10124000391F275731403093E7012093E601461BB1
:10125000570BCA01B3E095958795BA95E1F7559577
:101260004795840F951F84529A4FA8C0209113016F
:10127000309114011296CD91DC9113978091D20197
:101280009091D301C80FD91F14960D90BC91A02D39
:101290008091D4019091D501A80FB91F80910901C7
:1012A00090910A018C54944097FF03C040E050E0B5
:1012B00016C08091090190910A018C549440959533
:1012C0008795855F91401CF044EF51E008C0409144
:1012D000090150910A014C54544055954795F80125
:1012E000E452FA4FE21BF30BE60FF71FBE016E0F3D
:1012F0007F1F9A012A1B3B0B37FF02C020E030E022
:10130000CB01821B930B9093E5018093E401260FA0
:10131000371F3093E7012093E601BF016C1B7D0B63
:101320009A012A0F3B1F37FF02C020E030E0C901BD
:10133000860F971F9093EB018093EA01621B730B5A
:101340007093E9016093E8013DC0600F711F7093D5
:10135000E5016093E4018D919C9111972091C20168
:101360003091C301820F931F9093EB018093EA01A8
:1013700012968D919C9113972091C4013091C501D3
:10138000820F931F9093E7018093E6018091CE0135
:101390009091CF0112962D913C911397821B930B44
:1013A0009093EF018093EE0114968D919C91159787
:1013B0002091C6013091C701820F931F9093E901DC
:1013C0008093E8018091CC019091CD019093ED0143
:1013D0008093EC0189E0C816D10441F08091CE01E0
:1013E0009091CF019093EF018093EE018091CA011B
:1013F0009091CB019093F1018093F001CDB7DEB7CE
:10140000E8E00C942322AAE0B0E0E9E0FAE00C94D2
:101410000B2280911B0290911C020397A9F5FE01FB
:1014200031968AE0DF011D928A95E9F7CF010E948B
:10143000EE07A6E8B1E004E012E04EE052E06D9164
:101440007C911197F80120813181FB01808191818C
:10145000281739070CF4C901F80191838083FA0138
:1014600020813181FB0180819181821793070CF4E7
:10147000C901FA0181939193AF0112960E5F1F4F3C
:10148000F1E0A039BF07D9F68EEF91E00E94EE0798
:1014900080915C0290915D02099711F074E001C0A7
:1014A00075E060E080E090E0FC01EA57FE4FA0812B
:1014B000B1814D915C911197FC01EC5FFD4F019062
:1014C000F081E02D4E175F0754F0FC01E25FFD4F05
:1014D00020813181FA01241735070CF4F901ED93CD
:1014E000FC936F5F02966717FCF22A96E4E00C9477
:1014F00027228091C302882309F050C081E08093A5
:10150000C3028FEF8093C2022FB7F8948091E40159
:101510009091E5019093D7018093D6018091E601E7
:101520009091E7019093D9018093D8018091E801CF
:101530009091E9019093DB018093DA018091EA01B7
:101540009091EB019093DD018093DC018091EC019F
:101550009091ED019093DF018093DE018091EE0187
:101560009091EF019093E1018093E0018091F0016F
:101570009091F1019093E3018093E20180916F00DB
:10158000826080936F00B19A809184009091850071
:10159000049690938900809388002FBF0895FC01E2
:1015A00081E08183808385E08283168215821086A4
:1015B000178208959C0144E0813B940714F490E065
:1015C0000DC0845195408159914010F491E006C0BE
:1015D0002850374014F49FEF06C092E0662319F0BC
:1015E00082E0891B982F892F0895CF93DF93EC0118
:1015F0008A818B838091C0019091C1016D810E948D
:10160000DA0A87FF88838091C4019091C5016E81B9
:101610000E94DA0A87FF89838F81882351F48881A9
:10162000882329F0823029F481E08D83188281E0BB
:101630008F838885882361F48981882319F082301B
:1016400039F404C081E08E8382E0898381E0888759
:1016500038813F5F898123E08202C0011124380F65
:101660003A839B8180E0391729F081E09295907F41
:10167000932B9C83DF91CF910895282F30E03F6F0B
:10168000220F331FEFB7F89480918400909185006A
:10169000AC01405C5F4FBC016D5D7A4F809184006E
:1016A00090918500DA01A81BB90B1A161B06B4F33A
:1016B00020FF02C03F9801C03F9A4617570729F004
:1016C0003695279545575F4FE9CFEFBF0895EFB7A0
:1016D000F894379B49C016C0209184003091850052
:1016E0002058314C04C08FEF9FEF379B0BC0809187
:1016F000840090918500B901681B790B16161706B6
:1017000014F4F1CFAC0141505040CA0101961816B3
:10171000190614F34F5F5F4F19F420E030E826C03C
:101720008091840090918500AC0140565F4F20E08D
:1017300030E0BC0163597B4F80918400909185001B
:10174000DA01A81BB90B1A161B06B4F386B136953D
:10175000279590E080789070282B392B46175707F3
:1017600029F045575F4FE8CF20E030E4EFBFC901D3
:101770000895EF92FF920F931F93CF93DF93E82E7C
:10178000192F062FF62E84E20E943D0B802F0E9417
:101790003D0B2E2D312FC901EC0104C08991F80EAB
:1017A0000E943D0B9E012E192017C4F38F2D8195A9
:1017B0000E943D0BCDB7DEB7E6E00C9425228F9258
:1017C0009F92AF92BF92CF92DF92FF920F931F939F
:1017D000CF93DF934C015A01C0E0D0E0C62EDD2448
:1017E000C7FCD09402C0812F182FC5010E94670B3F
:1017F0009C018070907C892B69F5822FC130D105C6
:1018000059F0C230D105A1F0209779F7243259F769
:10181000812FC1E0D0E0E8CF90E0C816D90614F4DB
:10182000812F15C0822FF22EC2E0D0E000E0DCCF85
:10183000F20E812F8150112331F0F401E00FF11DE0
:1018400020830F5FD1CFFF2011F481E004C0C0E0FE
:10185000D0E0CACF80E0DF91CF911F910F91FF9030
:10186000DF90CF90BF90AF909F908F900895A0E0B1
:10187000B0E0EDE3FCE00C94072200E0CCEDD5E015
:101880002EC110921603209312033093130340933A
:1018900014035093150380911603882319F41F3005
:1018A00009F058C1E82FFF27E7FDF095E750FD4FFD
:1018B00010838F5F8093160389310CF410C18091DF
:1018C0001103882311F010921603E0915E02F0914B
:1018D0005F024091FB0250E0942F88272091FA028A
:1018E00030E0822B932B97709695879583519C4F70
:1018F00091838083E0916002F09161022091FC026B
:1019000030E0C90165E0880F991F6A95E1F703E0AF
:10191000569547950A95E1F7842B952B97709695E8
:10192000879583519C4F91838083E0916202F0916F
:1019300063024091FE0250E08091FD0290E0880F2A
:10194000991F880F991F76E0369527957A95E1F7CC
:10195000822B932B9A01322F2227330F330F822BA6
:10196000932B97709695879583519C4F9183808395
:10197000E0916402F09165022091FF0230E0C9011C
:101980009695982F88279795879556954795842BF8
:10199000952B97709695879583519C4F9183808363
:1019A000E0916602F09167024091000350E0CA01A5
:1019B00074E0880F991F7A95E1F764E036952795D2
:1019C0006A95E1F7822B932B9770969587958351B3
:1019D0009C4F91838083E0916802F091690260914D
:1019E000020370E08091010390E0880F991F440F7B
:1019F000452F441F550B5195842B952B9B01322F5E
:101A00002227330F822B932B9770969587958351BE
:101A10009C4F91838083E0916A02F0916B02209148
:101A2000030330E0C90106E0880F991F0A95E1F72A
:101A30007695679576956795862B972B97709695F3
:101A4000879583519C4F91838083E0916C02F09144
:101A50006D028091040390E073E0880F991F7A95DE
:101A6000E1F765E0369527956A95E1F7822B932B90
:101A70009695879583519C4F91838083AEE5B2E024
:101A8000ED91FC911197808191818C5D95408CF452
:101A90002081318180819181AE01481B590BCA019F
:101AA0009595879595958795281B390B31832083CC
:101AB0000EC020813181808191818C5D954095950A
:101AC000879595958795820F931F918380831296B2
:101AD00052E0AE36B507A1F61092160301E0E09190
:101AE0004301F0914401A081B18114962D913C9164
:101AF0001597CF01F9010995892B61F180911603A2
:101B0000893144F5A0914301B0914401ED91FC91DC
:101B100011970680F781E02DCD010995182F0E94BD
:101B2000D8019B01AC018091120390911303A09105
:101B30001403B091150369017A01C81AD90AEA0A97
:101B4000FB0AD701C60189589341A040B0400CF070
:101B500098CE99CE802FCDB7DEB7E8E00C94232243
:101B6000809143019091440140EA56E861E070E0C1
:101B70002EE20E94D31808951F93CF93DF93EC01B8
:101B8000142F44E450E00E943A228881811711F01A
:101B90008FEF12C090E020E030E0FE01E20FF31F73
:101BA0008081980F2F5F3F4F24343105B1F799237F
:101BB00011F480E001C08EEFDF91CF911F91089565
:101BC000DC0190E020E030E0FD01E20FF31F8081B6
:101BD000980F2F5F3F4F23343105B1F7AD5BBF4FF7
:101BE00091959C93A354B040CD0144E450E00E94F1
:101BF0004A220895A1E1B0E0E0E0FEE00C94FD216E
:101C00001C0181E0898389E192E09B838A830296AB
:101C10009D838C830D969F838E83029699878887F8
:101C200002969B878A8702969D878C8702969F875C
:101C30008E87CE010196998B888BD0901902DD0C8E
:101C4000CC246624EE24FF248701F0E88F2EFAE1ED
:101C50009F2EF6E0AF2EB12CE2E07E2E2C010E94EA
:101C6000D8019B01AC01DC01CB018E199F09A00BAF
:101C7000B10B88169906AA06BB060CF051C01714C2
:101C800024F5872D992787FD9095FC01E170F07070
:101C900080FD03C088E097E002C08CED95E0909352
:101CA000E7018093E6018CED95E09093E501809348
:101CB000E401EE0FFF1FEE0FFF1FE259FE4F808081
:101CC0009180A280B3807A9429C0DD2039F11D145F
:101CD00024F46CE271E0A1E003C064ED7EEFAFEFAD
:101CE0008D2D992787FD9095FC01E170F07080FFA4
:101CF00003C08CED95E003C0CB0184529A4F9093C2
:101D0000E5018093E401EE0FFF1FEE0FFF1FE25984
:101D1000FE4F80809180A280B380DA1A79018A0117
:101D20000E94370C882319F091E09093C1028091B2
:101D3000C102882329F01092C1020E94660702C0E6
:101D4000662041F08091C302882309F08CC00E9474
:101D5000790A6624772009F082CFC1010E94F50A32
:101D6000882309F47CCFF1018481843561F08535C5
:101D700020F4823509F063C013C0863559F08835E8
:101D800009F05DC02AC0F1E0FC1514F0CC2470C04D
:101D9000CA946EC085E08C150CF468C0C39468C00A
:101DA000AC2DBB27A7FDB095FD01EE0FFF1FE40D85
:101DB000F51D0180F281E02D8081282F332727FD3A
:101DC00030952F5F3F4FAA58BE4F8C91992787FDC2
:101DD000909582179307F4F41CC0AC2DBB27A7FD88
:101DE000B095FD01EE0FFF1FE40DF51D0180F2819E
:101DF000E02D8081282F332727FD3095215030405A
:101E0000A258BE4F8C91992787FD909528173907C6
:101E10000CF49C01208320E08C2D992787FD909560
:101E2000FC01EE0FFF1FE40DF51D0180F281E02D96
:101E3000D080DD0C222319F00196782E770C898151
:101E4000823009F00CCF88E192E060E070E00E94FF
:101E5000E00D88E192E060E071E00E94E00D6196A3
:101E6000E2E10C9419226624639474CFB7E0CB2E80
:101E700021E0D2CFA1E9B0E0E0E4FFE00C94FD2145
:101E80000E94D8011B012C01DE011196E0E6F1E071
:101E900086E001900D928150E1F78E010D5E1F4F9B
:101EA000C8010E94CF0A9CE1E92EF12CEC0EFD1E28
:101EB000C70164E00E94E50589E4C82ED12CCC0E50
:101EC000DD1EC60163E00E94E5052092F502309216
:101ED000F6024092F7025092F802C657DF4F28826E
:101EE00039824A825B82CA58D040CA57DF4F288263
:101EF00039824A825B82C658D040CE57DF4F288253
:101F000039824A825B82C258D04042013101C258B4
:101F1000DF4F288239824A825B82CE57D040EB96CF
:101F20002CAE3DAE4EAE5FAEEB97EE961FAEEE978B
:101F3000ED961FAEED9721E0EC962FAFEC97C257D0
:101F4000DF4FE882CE58D040C157DF4FF882CF58DC
:101F5000D040C057DF4F0883C059D040CF56DF4F25
:101F60001883C159D0400E94D8015B016C010E94C6
:101F70004E020E94370C882319F031E03093C102E1
:101F80008091C1028823A1F4D601C501C657DF4F55
:101F9000488159816A817B81CA58D040841B950B46
:101FA000A60BB70B81539547A040B0400CF442C03C
:101FB0001092C1020E9466078C8D882369F0C65773
:101FC000DF4FA882B982CA82DB82CA58D04061E062
:101FD000EE966FAFEE972EC0C257DF4F8881CE5876
:101FE000D040C157DF4F9881CF58D0400E94BA06E9
:101FF0002A968FAD2A97882311F492E001C090E0D1
:1020000020E08C8D882309F421E0920F90937802D0
:1020100088EC90E090937E0280937D02C657DF4F5C
:10202000A882B982CA82DB82CA58D04091E0EE967B
:102030009FAFEE978091C302882379F5EE96AFADFE
:10204000EE97AA2351F1A6019501CA57DF4F688187
:1020500079818A819B81C658D040261B370B480B5B
:10206000590B8091700290917102A0917202B0910F
:10207000730282179307A407B5077CF40E94030A32
:102080000E94790ACA57DF4FA882B982CA82DB82CE
:10209000C658D040EE961FAEEE97D601C501CE577A
:1020A000DF4F288139814A815B81C258D040821B31
:1020B000930BA40BB50B81519742A040B04054F153
:1020C0000E9484052A968FAD2A978823D9F4CE01E1
:1020D000875B9F4F0E9416072A968FAD2A97882309
:1020E00011F492E001C090E020E08C8D882309F487
:1020F00021E0920F9093780248EC50E050937E02DA
:1021000040937D02CE57DF4FA882B982CA82DB821C
:10211000C258D040EC965FADEC97552309F456C0F9
:10212000C057DF4F8881C059D040CF56DF4F9881CC
:10213000C159D0400E94F50A882309F447C0ED96A2
:102140006FADED97E62FFF27E7FDF095E95AFE4FBB
:102150009F898081981721F0ED961FAEED9707C0FB
:10216000ED967FADED977F5FED967FAFED97ED96A6
:102170008FADED97E82FFF27E7FDF095E95AFE4F69
:1021800080818F3F81F4CE0143960E94FA0D2EE0AC
:1021900088E190E00FB6F894A895809360000FBE98
:1021A00020936000FFCFD601C50182199309A409CD
:1021B000B509815C914EA44EB04024F0EC961FAE60
:1021C000EC9704C0F1E0EC96FFAFEC978C8D882380
:1021D00029F02A968FAD2A978823C9F58091C201EC
:1021E0009091C3012091C0013091C101820F931FD2
:1021F0002091190130911A01821B930B2091130138
:1022000030911401821B930B959587959093D10182
:102210008093D0018091C4019091C5012091150156
:1022200030911601821B930B9093D3018093D201BE
:102230008091C6019091C70120911701309118013A
:10224000821B930B9093D5018093D4018CCED60141
:10225000C50186199709A809B90981519742A0407B
:10226000B0400CF41EC380916E0290916F028130D9
:10227000910559F48091C8019091C901865F9540FC
:102280000CF09BC080E090E00DC0892B09F095C058
:102290008091C8019091C901875296400CF48DC07D
:1022A00081E090E090936F0280936E02892B11F091
:1022B00084E001C080E08093780268EC70E0709365
:1022C0007E0260937D021092D6021092D702109285
:1022D000D8021092D9021092E2021092E3021092F8
:1022E000E4021092E5021092DA021092DB021092E0
:1022F000DC021092DD021092E6021092E7021092C8
:10230000E8021092E9021092DE021092DF021092AF
:10231000E0021092E1021092EA021092EB02109297
:10232000EC021092ED0280913002909131020297FE
:1023300009F043C0D601C501EB962CAD3DAD4EADC5
:102340005FADEB97821B930BA40BB50B8152914AA7
:10235000A740B0401CF0E7961FAEE797E7964FAD59
:10236000E7974F5FE7964FAFE797433004F18091CF
:10237000C0019091C1019093140180931301809149
:10238000C4019091C501909316018093150180912D
:10239000C6019091C7019093180180931701809115
:1023A000C2019091C30190931A0180931901EB9699
:1023B000ACAEBDAECEAEDFAEEB972091C201309198
:1023C000C3018091C0019091C101280F391F8091F4
:1023D000190190911A01281B390B809113019091DA
:1023E0001401281B390B359527953093D101209383
:1023F000D0014091C4015091C50180911501909187
:102400001601481B590B5093D3014093D201E09120
:10241000C601F091C7018091170190911801E81B46
:10242000F90BF093D501E093D40180912A028150F9
:10243000682F772767FD7095C90137FF04C088278B
:102440009927821B930B062E02C0880F991F0A94AE
:10245000E2F7A1E081399A0714F080E991E0A0E960
:10246000B1E0A81BB90BB887AF83CA0157FF04C0FE
:1024700088279927841B950B062E02C0880F991F69
:102480000A94E2F7B1E081399B0714F080E991E00A
:10249000A0E9B1E0A81BB90BBA87A987CF01F7FF64
:1024A00004C0882799278E1B9F0BDC0102C0AA0F4E
:1024B000BB1F6A95E2F7BD01B1E061397B0714F0FB
:1024C00060E971E0A0E96A2EA1E07A2E661A770A27
:1024D0007C866B868091C8019091C90165E0833C40
:1024E00096074CF403EC15E0081B190B71E0013959
:1024F000170794F00BC0A6E088329A071CF400E09E
:1025000010E00AC0B7E086389B071CF000E911E034
:1025100003C08C01055F154080906E0290906F02A1
:1025200061E08616910459F08114910409F04FC0BE
:1025300080912E0290912F02029709F048C080915D
:102540002C02082E02C0220F331F0A94E2F73E87A6
:102550002D87082E02C0440F551F0A94E2F7588BAE
:102560004F87AF0102C0440F551F8A95E2F75A8B7F
:10257000498B89819A8197FD05C088279927821BFD
:10258000930B01C0C9019093C5028093C4028B8153
:102590009C812F85388997FD05C088279927821B44
:1025A000930B01C0C9019093C7028093C6028D812D
:1025B0009E8197FD03C0509541955F4F5093C9028E
:1025C0004093C80271E08716910471F055C01092D3
:1025D000C5021092C4021092C7021092C602109255
:1025E000C9021092C80248C06F817885882777FD9C
:1025F0008095982F24EF3FEB40E050E00E94A1210E
:10260000F9E09595879577956795FA95D1F7609359
:10261000E2027093E3028093E4029093E5026985FD
:102620007A85882777FD8095982F0E94A121E9E07F
:102630009595879577956795EA95D1F76093E6022A
:102640007093E7028093E8029093E902B301882730
:1026500077FD8095982F0E94A12139E09595879567
:10266000779567953A95D1F76093EA027093EB02FC
:102670008093EC029093ED022091F8013091F901E2
:102680008091F2019091F301281B390B80E22030F8
:10269000380714F02FEF3FE1C901A0EE20303A07D0
:1026A00014F480E090EE9093CB028093CA022091C4
:1026B000FA013091FB018091F4019091F501281B02
:1026C000390BB0E220303B0714F02FEF3FE1C90196
:1026D000E0EE20303E0714F480E090EE9093CD02BF
:1026E0008093CC022091FC013091FD018091F60194
:1026F0009091F701281B390BF0E220303F0714F0CE
:102700002FEF3FE1C90120EE8030920714F480E002
:1027100090EE9093CF028093CE02892819F068E45E
:1027200072E002C065E372E084EC92E00E94CC04A7
:10273000EE24FF243801882477FC8094982C8701AC
:1027400002501E4FE1E0F0E0EC0FFD1FEE0DFF1D0B
:1027500060817181882777FD8095982FF701EC5370
:10276000FD4F22A533A5442737FD4095542F0E94E5
:10277000A12127E095958795779567952A95D1F7BB
:10278000E7E0F0E0EC0FFD1FEE0DFF1D2081318131
:10279000442737FD4095542F0E94A1219B01AC0195
:1027A000B9E05595479537952795BA95D1F7C40166
:1027B000B3010E94A121A9E095958795779567952A
:1027C000AA95D1F7D8016D937C93E2E0F0E0EE0E8C
:1027D000FF1EF6E0EF16F10409F0B1CF2091F402EC
:1027E00012160CF05CC08091F5029091F602A09157
:1027F000F702B091F802B601A501481B590B6A0B0C
:102800007B0BDB01CA0181549D40A340B0405CF0CA
:1028100021502093F402A092F502B092F602C092E9
:10282000F702D092F8028091F402992787FD9095E3
:102830004091FE015091FF01BC016170707080FFFA
:1028400003C026E930E002C02AE63FEF240F351F1F
:102850003093FF012093FE0140910002509101024C
:102860006115710519F026E930E002C02AE63FEF54
:10287000240F351F309301022093000220910202A1
:1028800030910302672B19F48AE69FEF02C086E9B4
:1028900090E0820F931F9093030280930202350110
:1028A0004601D601C501C258DF4F288139814A81CE
:1028B0005B81CE57D040821B930BA40BB50B8C5978
:1028C000914AA740B0400CF44ECB80913202803840
:1028D00039F480910001282F30E02058304004C0A6
:1028E000282F332727FD309580913302803839F423
:1028F00080910101482F50E04058504004C0482FBB
:10290000552747FD509580913402803831F48091ED
:10291000020190E08058904003C0992787FD909570
:102920003A8329835C834B839E838D83295F3F4F4A
:102930002F30310510F41A8219828B819C81079601
:102940000F9710F41C821B828D819E8107960F9732
:1029500010F41E821D8280E00E94CF03C258DF4F18
:10296000A882B982CA82DB82CE57D040FCCAA5E6D3
:10297000B0E0EDEBF4E10C9407221092800081E0CE
:10298000809381003F98479848E552E000E06E014F
:102990000894C11CD11C22E0E22EF12CEC0EFD1E8D
:1029A000C60165E60E94DF0B882309F441C08981D6
:1029B0008230A9F0833018F4813029F406C08330C6
:1029C000B1F08430E9F010E026C0C70160E870E0A3
:1029D00048E050E00E943A2210E069E01DC0C701C3
:1029E00060E870E048E050E00E944A2213C0C7014E
:1029F00060E070E04AE00E94BC0D10E065E40CC0AD
:102A0000C70160E070E00E94E00DC70160E071E086
:102A10000E94E00D11E061E0898180688983C60130
:102A20000E94B90B01E044EF51E0112309F4B8CF43
:102A3000802FCB59DF4FE8E00C942322CF93DF9314
:102A4000C0E0D0E0FE01E55CFE4F808187FD04C060
:102A5000808161E00E94A81E2196C830D10591F7BF
:102A6000DF91CF9108951F920F920FB60F9211240C
:102A70000F931F932F933F934F935F936F937F9386
:102A80008F939F93AF93BF93EF93FF938091C20275
:102A900087FD42C0E091C202FF27E7FDF095E55CAB
:102AA000FE4F808160E00E94201F36C08091C202EC
:102AB0008F5F8093C202E091C202FF27E7FDF0958D
:102AC000E55CFE4F808187FD27C000918400109156
:102AD0008500E091C202FF27E7FDF095E55CFE4F1F
:102AE000808161E00E94201FE091C202FF27E7FD84
:102AF000F095EE0FFF1FE55DFE4F0190F081E02D98
:102B0000808191810297880F991F800F911F909368
:102B10008900809388000BC08091C202873034F214
:102B20001092C30280916F008D7F80936F00FF91A0
:102B3000EF91BF91AF919F918F917F916F915F9135
:102B40004F913F912F911F910F910F900FBE0F90BA
:102B50001F901895A0E0B0E0E0EBF5E10C9407229F
:102B6000182F062F862F61E00E94A81E812F60E09B
:102B70000E94A81E812F61E00E94201F6AE070E081
:102B800080E090E00E941802C0E0D0E0812F9927F9
:102B900087FD9095FC01E759FE4FE491F0E0EE0FC0
:102BA000FF1FE55AFE4FC590D49089579E4FFC01F8
:102BB0008491E82EFF24CE018170182F802F612F81
:102BC0000E94201FF601808120E030E090E08E21FD
:102BD0009F21892B11F021E030E0812F992787FD7B
:102BE00090952817390711F010E005C02196C830DC
:102BF000D10509F711E0802F60E00E94A81E812F07
:102C0000CDB7DEB7E8E00C942322A2E9B0E0EBE018
:102C1000F6E10C940722559A80913804909139047A
:102C2000009711F09C0102C02CE334E0CE01019624
:102C3000821B930B803891054CF484E180937902D8
:102C40008EE190E09093800280937F0281E090E09B
:102C500090931A028093190220E820933202209365
:102C600033022093340290931C0280931B0284E170
:102C700080931D02E6E6F1E07EE1C72E72E0D72EDA
:102C8000D60181918D9321E0EE36F207D1F742E033
:102C900050E0509327024093260221E030E0309329
:102CA00029022093280230932B0220932A0283E0EA
:102CB00090E090932D0280932C0230932F0220936A
:102CC0002E02509331024093300284EF91E09093B2
:102CD00036028093350210923C0210923B02909390
:102CE00042028093410290933802809337021092FF
:102CF0003E0210923D0290934402809343029093CF
:102D00003A02809339021092400210923F0290934F
:102D100046028093450228E020934702909349029F
:102D20008093480290934F0280934E0290935502F5
:102D30008093540290934B0280934A0290935102E5
:102D400080935002909357028093560290934D02C5
:102D500080934C02909353028093520290935902B5
:102D60008093580220935A0285E066E00E94AA15DB
:102D7000882311F400E001C007E0CE01039660E86B
:102D800070E048E050E00E943A22002361F48B8119
:102D9000833049F48C819D81AE81BF818E549146F0
:102DA000AC4BB04071F083E08B838EE491E6ACEBEA
:102DB000B0E08C839D83AE83BF83188619861A8604
:102DC0000860CE010B9660E070E04AE00E94BC0D06
:102DD00087FD0260CE01815B9F4F60E071E04AE0B9
:102DE0000E94BC0D87FD046083E08093F402E02E16
:102DF000FF24C701867090708230910531F08430D5
:102E0000910579F0892B81F119C08E01015B1F4F6B
:102E1000C80160E070E00E94E00D88858F5F8887C0
:102E20000BC08E01055F1F4FC80160E071E00E947A
:102E3000E00D89858F5F8987C80118C08AE080937B
:102E4000180288E192E060E070E00E94E00D88E105
:102E500092E060E071E00E94E00D8A858F5F8A87D2
:102E600089E08093F4020AC0CE010B96A8E1B2E09B
:102E7000FC0184E401900D928150E1F7C7018E704E
:102E80009070892B41F0CE01039660E870E048E035
:102E900050E00E944A22E0FE0AC082E00E94400206
:102EA00064E670E080E090E00E942E1EF6CF0E9463
:102EB000B714882361F02EE088E190E00FB6F89413
:102EC000A895809360000FBE20936000FFCF109202
:102ED000800082E08093810081E080936F0085B55F
:102EE000887F85BD0E94B00D80911B0290911C02CD
:102EF0008230910519F18330910524F4019709F08E
:102F00005BC007C08330910571F1049709F054C08C
:102F10003FC080E090E048EE53E020ED37E0FC0158
:102F2000EC5FFD4F51834083FC01E25FFD4F318335
:102F3000208302968A30910591F73EC080E090E0B0
:102F40004CE454E02CE637E0FC01EC5FFD4F51838C
:102F50004083FC01E25FFD4F3183208302968A307B
:102F6000910591F729C080E090E042EE54E026ED13
:102F700036E0FC01EC5FFD4F51834083FC01E25FD2
:102F8000FD4F3183208302968A30910591F714C05A
:102F900080E090E044E853E024E338E0FC01EC5F9B
:102FA000FD4F51834083FC01E25FFD4F318320835D
:102FB00002968A30910591F780911D02992787FD2D
:102FC000909528EE33E0FC01E29FC001E39F900D55
:102FD000F29F900D1124AA2797FDA095BA2F8093F8
:102FE000700290937102A0937202B0937302AEE5E7
:102FF000B2E0F60181916F01E82FFF27E7FDF09520
:10300000EE0FFF1FE55EFE4F808191818D939D93B2
:10301000F6E2CF16F2E0DF0661F720E030E0F901DA
:10302000EB5BFE4F8081F901E55CFE4F80832F5FF3
:103030003F4F2830310599F70E946F040E948804A1
:103040008091190290911A0290935D0280935C0224
:10305000019731F482E090E090935D0280935C02EE
:1030600080915C028093770288E592E090937C02E5
:1030700080937B020E941F040E941E150E94D005AF
:103080000E9466070E94030ACE56DF4FE8E00C94C8
:10309000232208951F920F920FB60F9211242F939F
:1030A0003F934F938F939F93EF93FF938091C8002B
:1030B00082FD1DC04091CE0020915D0330915E03E2
:1030C0002F5F3F4F2F73307080915F0390916003AB
:1030D0002817390771F0E0915D03F0915E03E35E1C
:1030E000FC4F408330935E0320935D0302C08091C8
:1030F000CE00FF91EF919F918F914F913F912F9132
:103100000F900FBE0F901F901895E091B103F091B2
:10311000B203E05CFF4F8191919120813181821B4C
:10312000930B8F739070892B11F00E9449180895AA
:103130001F920F920FB60F9211242F933F938F93EC
:103140009F93EF93FF932091A1033091A20380916D
:10315000A3039091A4032817390731F48091C90083
:103160008F7D8093C90014C0E091A303F091A40364
:10317000EF59FC4F20818091A3039091A403019605
:103180008F7390709093A4038093A3032093CE0039
:10319000FF91EF919F918F913F912F910F900FBED3
:1031A0000F901F901895A0E0B0E0E9EDF8E10C94C5
:1031B0000522EC017A018B01C22EDD24403081EE24
:1031C000580780E0680780E0780711F0DD24D39489
:1031D00071E0A72EB12CEC89FD89DD2069F0C501D5
:1031E00008A002C0880F991F0A94E2F7808360E06C
:1031F00079E08DE390E005C0108260E874E88EE12C
:1032000090E0A80197010E94C02121503040404029
:103210005040569547953795279580E120303807DF
:1032200020F0DD2011F0DD24D6CFE889F989308344
:10323000EA89FB892083E88DF98DC082EE89FF89B8
:10324000408121E030E0C9010C8C02C0880F991F39
:103250000A94E2F7482B4083EE89FF894081C90137
:103260000D8C02C0880F991F0A94E2F7482B408307
:10327000EE89FF894081C9010E8C02C0880F991F19
:103280000A94E2F7482B4083EE89FF8980810F8CF6
:1032900002C0220F331F0A94E2F7209528232083CF
:1032A000CDB7DEB7EAE00C942122DC011C96ED914B
:1032B000FC911D97E05CFF4F2191319180819181BC
:1032C000281B390B2F733070C9010895DC011C963F
:1032D000ED91FC911D97E05CFF4F20813181E0541E
:1032E000F040DF01AE5BBF4F8D919C911197281785
:1032F000390719F42FEF3FEF07C08D919C91E80F2C
:10330000F91F8081282F30E0C9010895DC011C9647
:10331000ED91FC911D97E05CFF4F20813181E054DD
:10332000F040DF01AE5BBF4F8D919C911197281744
:10333000390719F42FEF3FEF10C08D919C91119731
:10334000E80FF91F20818D919C91119701968F7341
:10335000907011969C938E9330E0C9010895DC0122
:1033600091968C919197882339F05496ED91FC9128
:103370005597808186FFF9CF91961C920895CF933F
:10338000DF93EC01EE85FF85E05CFF4F208131810A
:10339000E054F0402F5F3F4F2F733070DF01AE5B82
:1033A000BF4F8D919C91119728173907D1F3E05C9D
:1033B000FF4F80819181E054F040E80FF91F608356
:1033C000EE85FF85E05CFF4F31832083EE89FF8926
:1033D000208181E090E00F8C02C0880F991F0A9431
:1033E000E2F7282B208381E089A3EC89FD89808185
:1033F0008064808381E090E0DF91CF910895109206
:10340000A8031092A70388EE93E0A0E0B0E08093B9
:10341000A9039093AA03A093AB03B093AC0384E9F0
:1034200091E09093A6038093A5038DE193E09093A0
:10343000B2038093B10381E693E09093B403809349
:10344000B3038DEC90E09093B6038093B5038CECBE
:1034500090E09093B8038093B70388EC90E090934A
:10346000BA038093B90389EC90E09093BC038093F6
:10347000BB038AEC90E09093BE038093BD038EEC77
:1034800090E09093C0038093BF0384E08093C103D6
:1034900083E08093C20387E08093C30385E0809339
:1034A000C40381E08093C5030895CF93DF930E9406
:1034B000521E8FEC93E00E945D1B0E940516C5E82A
:1034C000D8E10E943A0F2097E1F30E948518F9CFC6
:1034D000A0E0B0E0EEE6FAE10C9407227C016B017B
:1034E0008A01C0E0D0E00FC0D6016D916D01D70117
:1034F000ED91FC910190F081E02DC7010995C80F75
:10350000D91F015010400115110571F7CE01CDB73B
:10351000DEB7E8E00C942322FC0104C08091F100A6
:10352000819361506623D1F7289884E68093C8037D
:103530000895282F8091C9038823C1F057FF1AC02E
:1035400015C028989093C8038091F1008193E217E9
:10355000F307B9F74115510539F08091F20088233E
:1035600019F48BE68093E800AFBF02C04FEF5FEF26
:10357000CA010895AFB7F89427702093E9008091AD
:10358000F200282F30E0241735070CF4A901FB01C5
:103590009B01240F311D94E6DACFA1E0B0E0E3ED0A
:1035A000FAE10C940D22BE016F5F7F4F41E050E0C5
:1035B0000E94991A019719F02FEF3FEF03C08981FC
:1035C000282F30E0C9012196E2E00C9429222FB780
:1035D000F89487708093E9008091E80085FD02C02F
:1035E00090E004C08091F20090E4981B2FBF892FD7
:1035F0000895FF920F931F93F82E142F052F4091DB
:10360000CC035091CD03212F302FC901DC01FB01E8
:103610006EEF29C0F7FE02C0949101C09081209105
:10362000CA033091CB0324173507ACF48091E8002E
:103630008570E1F38091E80082FF03C02FEF3FEF38
:1036400017C09093F100C90101968F739070892B78
:1036500011F46093E8002F5F3F4F3093CB0320932A
:10366000CA03119731961097A9F6812F902F9C01CC
:10367000C9011F910F91FF9008950F931F939C0113
:10368000162F072F8091E80082FFFCCFC901612F20
:103690000E948C1A8BEF8093E800812F902F1F914E
:1036A0000F9108958093E9008091F200882319F02A
:1036B0008AE38093E800089508951092C90381E099
:1036C0008093D70080EA8093D80082E189BD09B455
:1036D00000FEFDCF61E070E080E090E00E942E1ED1
:1036E00080E98093D8008CE08093E2001092E000A3
:1036F000559A209A0895A0E0B0E0E1E8FBE10C942F
:103700000122E82E942E852E8091C903882309F189
:103710008B01242F352FC901EC016AEFF62E57E0FB
:10372000752E7E208E2D90E040E2A42EB12CA82292
:10373000B9223AE3632E20E4C22ED12CC822D9222A
:103740004CC08E2D0E94E71A282F882361F4FA942A
:1037500019F42FEF3FEF4CC061E070E080E090E0A3
:103760000E942E1E3AC090E0C817D9070CF42C2FE7
:10377000C21BD1094FB7F8947092E900A114B104AB
:1037800021F406C01092F10021502223D9F719C06C
:10379000E7FC03C0F801922F10C0C801322F06C009
:1037A000FC010196E491E093F10031503323C1F71D
:1037B00006C081918093F10091509923D1F7020FB7
:1037C000111D8091E80085FF05C0209729F4C114E0
:1037D000D10411F06092E8004FBF209709F0B1CFFB
:1037E0005D9884E68093C703292D382DC9019C017B
:1037F000C901CDB7DEB7EEE00C941D221F920F92E7
:103800000FB60F9211242F933F934F935F936F93B3
:103810007F938F939F93AF93BF93EF93FF93809189
:10382000E1001092E100982F83FF0FC01092E90091
:1038300081E08093EB001092EC0082E38093ED0036
:103840001092C90388E08093F00092FF34C083E0B7
:103850008093E9008091F200882319F08AE3809335
:10386000E8008FB7F89492E09093E9009091F2000D
:103870008FBF992321F08DE194E00E94DD1F80919C
:10388000C703882351F08091C70381508093C703F9
:103890008091C703882309F45D9A8091C803882327
:1038A00051F08091C80381508093C8038091C80370
:1038B000882309F4289AFF91EF91BF91AF919F91CE
:1038C0008F917F916F915F914F913F912F910F90C9
:1038D0000FBE0F901F901895A1E0B0E0E2E7FCE169
:1038E0000C940B2219828E010F5F1F4FC8010E949A
:1038F0000320C8010E949521898190E02196E4E08F
:103900000C9427221F920F920FB60F921124EF9260
:10391000FF921F932F933F934F935F936F937F93E8
:103920008F939F93AF93BF93EF93FF93DF93CF93C7
:10393000CDB7DEB76197DEBFCDBF1092E9008091B1
:10394000E80083FF04C1CE01019668E00E948C1A52
:1039500082EF8093E800998197FF05C08091E8008D
:1039600080FFFCCF03C08EEF8093E800292F30E06A
:10397000C90180769070892B09F0C2C08A818823A2
:1039800029F41092F1001092F100D6C0813009F4B0
:10399000D3C0833009F4D0C0853049F48091E80069
:1039A00080FFFCCF8B8180688093E300C5C08630A8
:1039B00009F07CC01C81EF80F8841230C1F51092B0
:1039C000E9001092CB031092CA031092CD0310921B
:1039D000CC030E946C1C99E0FE013996DF01292F6F
:1039E0001D922A95E9F799871A8791E09E8790E8BA
:1039F000988B9AEF998B2091CA033091CB03275F64
:103A00003F4F3C872B878D871092E9001092CB03A4
:103A10001092CA03F092CD03E092CC0380E0BF0184
:103A200049E050E00E94F91A0E946C1C85C0109277
:103A3000E9001092CB031092CA03F092CD03E092FA
:103A4000CC03123241F482E290E00E948D21892B56
:103A500009F476C071C0113079F488E0E816F104F9
:103A600019F481E08093CE038091CE03882309F07E
:103A70006BC0E6E1F1E013C0133009F061C08B8147
:103A8000882319F4E8EDF0E00AC0823019F4ECED77
:103A9000F0E005C0813009F053C0EEEFF0E0449152
:103AA00080E8BF0150E00E94F91A46C0873009F44F
:103AB00047C0883021F481E08093F1003DC0893017
:103AC000D9F523703070232BD9F5EBE3F1E091E0C9
:103AD00031E026E39093E9003093EB0084918093EA
:103AE000EC002093ED009F5F3196953099F78EE7BB
:103AF0008093EA001092EA008B818093C9031CC076
:103B00008F8198851092E9001092CB031092CA031E
:103B10009093CD038093CC038D81882329F4CE012B
:103B200001960E940F2006C0823051F4CE0101960A
:103B30000E946520882321F08EEF8093E80007C063
:103B400081E28093EB0003C0E8E2F1E0A8CF619648
:103B5000DEBFCDBFCF91DF91FF91EF91BF91AF91CC
:103B60009F918F917F916F915F914F913F912F9195
:103B70001F91FF90EF900F900FBE0F901F90189520
:103B80001F920F920FB60F9211242F933F938F9392
:103B90009F93AF93BF938091D4039091D503A0914D
:103BA000D603B091D7033091D8030196A11DB11D62
:103BB000232F2D5F2D3720F02D570196A11DB11D0C
:103BC0002093D8038093D4039093D503A093D60376
:103BD000B093D7038091D0039091D103A091D203E9
:103BE000B091D3030196A11DB11D8093D003909392
:103BF000D103A093D203B093D303BF91AF919F9110
:103C00008F913F912F910F900FBE0F901F9018959D
:103C10009FB7F8942091D0033091D1034091D20303
:103C20005091D30386B5A89B06C08F3F21F02F5F2C
:103C30003F4F4F4F5F4F9FBF542F432F322F2227AD
:103C4000280F311D411D511D82E0220F331F441FDB
:103C5000551F8A95D1F7B901CA010895EF92FF92D5
:103C60000F931F93CF93DF937B018C010E94081E5B
:103C7000EB010EC00E94081E6C1B7D0B685E73403A
:103C8000C8F30894E108F10801091109C851DC4F93
:103C9000E114F1040105110569F7CDB7DEB7E6E0DF
:103CA0000C942522789484B5826084BD84B58160AB
:103CB00084BD85B5826085BD85B5816085BDEEE634
:103CC000F0E0808181608083E1E8F0E01082808113
:103CD00082608083808181608083E0E8F0E0808181
:103CE00081608083E1E9F0E080818260808380816F
:103CF00081608083E0E9F0E0808181608083E1EC95
:103D0000F0E0808184608083808182608083808114
:103D100081608083E3ECF0E0808181608083E0EC6F
:103D2000F0E0808182608083E2ECF0E0808181605D
:103D30008083EAE7F0E08081846080838081826014
:103D40008083808181608083808180688083089502
:103D5000CF93DF93482F50E0CA0189579E4FFC0153
:103D6000349147595E4FFA018491882369F190E0BC
:103D7000880F991FFC01E15CFE4FA591B491FC01F5
:103D8000E35BFE4FC591D491662351F42FB7F894AD
:103D90008C91932F909589238C93888189230BC0D4
:103DA000623061F42FB7F8948C91932F909589230A
:103DB0008C938881832B88832FBF06C09FB7F8948C
:103DC0008C91832B8C939FBFDF91CF91089590E0CE
:103DD000FC013197EE30F10590F5E25AFF4F0C945B
:103DE0003422809180008F7703C0809180008F7D86
:103DF00080938000089584B58F7702C084B58F7D4D
:103E000084BD0895809190008F7707C080919000C5
:103E10008F7D03C080919000877F809390000895EC
:103E20008091C0008F7703C08091C0008F7D809308
:103E3000C00008958091C200877F8093C2000895DA
:103E4000FF920F931F93F62E482F50E0CA018B5517
:103E50009E4FFC012491CA0189579E4FFC01149189
:103E600047595E4FFA0104910023C9F0222319F04B
:103E7000822F0E94E71EE02FF0E0EE0FFF1FE35BB2
:103E8000FE4FA591B4919FB7F894FF2021F48C9137
:103E90001095812302C08C91812B8C939FBF1F9121
:103EA0000F91FF9008952091190430911A04809188
:103EB0001B0490911C04281B390B2F733070C9010F
:103EC00008952091190430911A0480911B04909157
:103ED0001C042817390719F42FEF3FEF09C0E091B0
:103EE0001B04F0911C04E752FC4F8081282F30E026
:103EF000C90108952091190430911A0480911B047E
:103F000090911C042817390719F42FEF3FEF13C0C5
:103F1000E0911B04F0911C04E752FC4F208180913A
:103F20001B0490911C0401968F73907090931C0455
:103F300080931B0430E0C901089510922004109270
:103F40001F0488EE93E0A0E0B0E0809321049093FA
:103F50002204A0932304B093240484EA91E0909374
:103F60001E0480931D040895A1E0B0E0EAEBFFE198
:103F70000C940B228C01698380915401882369F091
:103F800083E0BE016F5F7F4F41E050E00E947B1BEA
:103F90001816190614F49C0107C081E090E0F8019E
:103FA0009383828320E030E0C9012196E4E00C9401
:103FB000272283E00E94521B0895CF93DF9312C003
:103FC00082E00E94CD1A2FEF8F3F9207C9F0E09157
:103FD0001904F0911A04E752FC4F8083D0931A041D
:103FE000C0931904C0911904D0911A042196CF737B
:103FF000D07080911B0490911C04C817D90701F759
:10400000DF91CF910895FC0180818E5F808380E8ED
:104010006FEC71E042E450E00E94F91A0895FC014F
:1040200081819081913A59F4813209F04CC080E04D
:104030006DE471E047E050E00E94F91A42C091320D
:1040400009F041C0803239F48DE491E067E070E01E
:104050000E943D1B36C0823209F035C082818093B8
:10406000540180914D0190914E01A0914F01B0916A
:104070005001805B9440A040B04019F580915401FC
:1040800080FD12C087E797E79093010880930008AE
:104090002BE088E190E00FB6F894A895809360003B
:1040A0000FBE209360000DC088E10FB6F894809396
:1040B0006000109260000FBEA89510920108109247
:1040C000000881E0089580E00895FC0191818081DD
:1040D000813A31F4913089F080E0933089F40DC059
:1040E000813269F49B3021F482818093550105C0AF
:1040F0009A3029F482818093560181E0089580E00E
:104100000895EF92FF920F931F938C01E62EDC012E
:10411000ED91FC910480F581E02D0995F82ED801F0
:10412000ED91FC910680F781E02DC8016E2D099577
:104130008F2D90E01F910F91FF90EF9008951092B6
:104140002B0410922F0410922E0486EB91E0909392
:104150002D0480932C040895A1E0B0E0E2EBF0E29E
:104160000C94092289838B017A0184E0BE016F5F80
:104170007F4F41E050E00E947B1B84E4B801A7011F
:104180000E947B1B2196E6E00C94252282E048E009
:1041900050E00E94AC200895FC0116821782108620
:1041A00011861286138614823496BF010E94C6209F
:1041B0000895DC01683810F0685829C0E62FF0E057
:1041C00067FF13C0E058F04081E090E002C0880F24
:1041D000991FEA95E2F7809514962C91149728235D
:1041E00014962C93149760E012C0E157FD4F649130
:1041F000662319F420E030E01DC067FF08C0149664
:104200008C9114978D7F14968C9314976F77FD0182
:1042100090E0662321F08681861709F416829F5F5D
:1042200031969630B1F7CD011496BD010E94C6209B
:1042300021E030E0C9010895CF93DF93DC016838B5
:1042400010F0685825C0E62FF0E067FF12C0E05874
:10425000F04081E090E002C0880F991FEA95E2F7F4
:1042600014962C911497282B14962C93149760E095
:104270000FC0E157FD4F64916623D9F167FF08C075
:1042800014968C911497826014968C9314976F7780
:1042900016968C9116978617A9F117968C911797F9
:1042A000861781F118968C911897861759F11996EF
:1042B0008C911997861731F11A968C911A97861757
:1042C00009F11B968C911B978617E1F0ED01E0E058
:1042D000F0E09E2F8E81882321F4EA0FFB1F668376
:1042E00006C09F5F31962196E630F10591F7963032
:1042F00049F481E090E013969C938E93129720E00E
:1043000030E007C0CD011496BD010E94C62021E017
:1043100030E0C901DF91CF91089580E861E172E05A
:1043200045E650E00E94F91A0895FC0180818F5FF4
:10433000808380E866E772E049E150E00E94F91A64
:104340000895629FD001739FF001829FE00DF11DDF
:10435000649FE00DF11D929FF00D839FF00D749FFF
:10436000F00D659FF00D9927729FB00DE11DF91FAB
:10437000639FB00DE11DF91FBD01CF011124089508
:10438000A1E21A2EAA1BBB1BFD010DC0AA1FBB1F59
:10439000EE1FFF1FA217B307E407F50720F0A21BCB
:1043A000B30BE40BF50B661F771F881F991F1A9438
:1043B00069F760957095809590959B01AC01BD0162
:1043C000CF01089597FB092E05260ED057FD04D086
:1043D000D7DF0AD0001C38F45095409530952195D0
:1043E0003F4F4F4F5F4F0895F6F79095809570952A
:1043F00061957F4F8F4F9F4F08952F923F924F921D
:104400005F926F927F928F929F92AF92BF92CF9264
:10441000DF92EF92FF920F931F93CF93DF93CDB76D
:10442000DEB7CA1BDB0B0FB6F894DEBF0FBECDBFE5
:1044300009942A88398848885F846E847D848C84B6
:104440009B84AA84B984C884DF80EE80FD800C81BF
:104450001B81AA81B981CE0FD11D0FB6F894DEBFA2
:104460000FBECDBFED010895EE0FFF1F0590F49133
:10447000E02D0994DC01CB01FC01F999FECF06C0C7
:10448000F2BDE1BDF89A319600B40D924150504012
:10449000B8F70895DC01CB0103C02D910E9455228D
:1044A00041505040D0F70895262FF999FECF1FBAFA
:1044B00092BD81BD20BD0FB6F894FA9AF99A0FBE4D
:0844C00001960895F894FFCF66
:1044C800FFFFFFDC05DC05DC05DC05E803DC05E8AF
:1044D80003DC05DC05DC05DC05DC05070105010F4F
:1044E8000103010B0109010D011101DA01D801DEF7
:1044F80001D6010000DC01E201E0010B0AFF09FF1F
:104508000DFFFFA5030B0A0509FF0DFF0600E100DB
:10451800000000000001017889988778899887FF52
:104528000000000000000301020004050607A08641
:104538000100801A060005030303040202020101B8
:10454800010101010101E401E601E801EA01EE01CE
:1045580000000000BF19681A551986196619AF19A5
:1045680000000000B41F681A531F7A1F611FD91F6B
:10457800DD1F000000008120681A1C21D920CC20F2
:00000001FF
