:100000000C9469000C9486000C9486000C94980360
:100010000C9486000C9422040C9486000C948600A8
:100020000C9486000C9486000C9486000C94C313E8
:100030000C9486000C9488000C9486000C94860026
:100040000C9409170C9486000C9486000C9486007E
:100050000C9486000C94B7020C9486000C948600D5
:100060000C9486000C9486002D084F0810092D086A
:100070004F0810095909C809000000002400270092
:100080002A0000000000250028002B0000000000CE
:1000900023002600290004040404040404040202CA
:1000A00002020202030303030303010204081020F7
:1000B0004080010204081020010204081020000002
:1000C0000007000201000003040600000000000019
:1000D000000011241FBECFEFD4E0DEBFCDBF11E082
:1000E000A0E0B1E0E0E7F2E302C005900D92A83C89
:1000F000B107D9F713E0A8ECB1E001C01D92A1301F
:10010000B107E1F70E94FA160C9436190C9400001E
:100110001F920F920FB60F9211248F939F9380918D
:10012000720290917302019690937302809372020F
:100130008091720290917302892B29F4809174024C
:100140008F5F809374029F918F910F900FBE0F90DD
:100150001F90189560918400709185002091720223
:1001600030917302E0917402809184009091850037
:100170008627972797FDEECF8091720290917302A8
:100180002817390739F780917402E81719F740E00A
:1001900050E0FFE0220F331F441F551FFA95D1F79F
:1001A0008E2F90E0A0E0B0E0BB278695B795AA27F8
:1001B00099278827282B392B4A2B5B2B7695679517
:1001C000CB01A0E0B0E0282B392B4A2B5B2BB901E7
:1001D000CA010895AF92BF92CF92DF92EF92FF9241
:1001E0000F931F9328EE33E040E050E00E94751813
:1001F0005B016C010E94AA007B018C010E94AA0095
:100200006E197F09800B910B6A157B058C059D0586
:10021000A8F31F910F91FF90EF90DF90CF90BF90C8
:10022000AF900895882321F0813021F42D9A08950C
:100230002D98089585B190E2892785B90895EF92A8
:10024000FF920F931F937B018C018091EE0290919E
:10025000EF02A091F002B091F1028E199F09A00B5C
:10026000B10B181619061A061B060CF450C0809123
:10027000F202882321F5E091F302EF5FE370E0934F
:10028000F302FF27E7FDF095EB58FD4F808199279A
:1002900087FD9095880F991F8093F20280E492E485
:1002A000AFE0B0E0E80EF91E0A1F1B1FE092EE025D
:1002B000F092EF020093F0021093F10228C08150F7
:1002C0008093F20281700E941201E091F302FF27F5
:1002D000E7FDF095EE0FFF1FE758FD4F80819181FC
:1002E000AA2797FDA095BA2F2AE0880F991FAA1F69
:1002F000BB1F2A95D1F78E0D9F1DA01FB11F8093A4
:10030000EE029093EF02A093F002B093F1021F91DE
:100310000F91FF90EF9008959A01AB01882311F09F
:10032000459A449A1092B90060E074E284EF90E03C
:100330000E949418205130404040504056954795B7
:10034000379527952093B80008952FEF30E011C01E
:100350002115310561F41092BC00809181029091C9
:100360008202019690938202809381020895215027
:1003700030408091BC0087FFEBCF0895FF920F9330
:100380001F93F82E0CEB10E084EAF80180830E94A2
:10039000A501F092BB0084E8F80180830E94A501CA
:1003A0001F910F91FF9008958093BB0084E8809384
:1003B000BC000E94A50108951F93182F882311F4F3
:1003C00084E801C084EC8093BC000E94A501909158
:1003D000BB00112319F484E98093BC00892F1F917D
:1003E00008950F931F93162F042F880F0E94BE01AC
:1003F000812F0E94D401802F0E94D40184E9809330
:10040000BC001F910F9108950F931F93182F062F73
:10041000880F0E94BE01802F0E94D401110F812FEE
:1004200081600E94BE0180E00E94DC011F910F915B
:1004300008951F93CF93DF93EB01142F880F8160F2
:100440000E94BE0108C0115080E011160CF481E03A
:100450000E94DC0189931123B1F7DF91CF911F91A5
:100460000895DF92EF92FF920F931F93E82EF62EDE
:100470008A01D22E880F0E94BE018F2D0E94D401C6
:100480008E2DB8014D2D0E9419021F910F91FF90E2
:10049000EF90DF90089588E66EE340E80E94F10156
:1004A00062E370E080E090E00E94EA0088E66EE39C
:1004B00043E00E94F10188E666E14EE10E94F1010D
:1004C00088E660E00E94040290E08E77883609F4A6
:1004D00091E0892F0895A6E0B0E0E1E7F2E00C9406
:1004E000DB188C017B016A0188E66DE1AE014F5F8C
:1004F0005F4F26E00E943102998180E02A8130E03E
:10050000822B932BF801918380839B8180E02C8147
:1005100030E0822B932BF701918380839D8180E0D3
:100520002E8130E0822B932BF601918380832696D7
:10053000E8E00C94F718282F17C0E22FF0E0EE0F38
:10054000FF1FE55DFE4F80819181892B61F08091D5
:100550007C00887F822B80937C0080917A0080646D
:1005600080937A0008952F5F263038F308951F9204
:100570000F920FB60F9211242F933F934F935F93D7
:100580006F937F938F939F93AF93BF93EF93FF935B
:1005900080917C008770E82FF0E0EE0FFF1FE55D93
:1005A000FE4F0190F081E02D9091790090838F5F54
:1005B0000E949B02FF91EF91BF91AF919F918F910C
:1005C0007F916F915F914F913F912F910F900FBE4F
:1005D0000F901F901895EBE2F1E040E050E061E0F1
:1005E00070E080819181892B79F087B1DB01042E45
:1005F00002C0AA0FBB1F0A94E2F79D012095822337
:1006000087B988B1282328B94F5F5F4F32964630AB
:10061000510539F780E680937C0010927B008FE8CB
:1006200080937A0080E00E949B020895CF93DF932D
:10063000EB01DA01FC0140E050E061E070E0808114
:100640009181892B79F03881CB01042E02C0880F6B
:10065000991F0A94E2F7282F2095232328832C91B1
:10066000822B8C934F5F5F4F32964830510539F79C
:10067000DF91CF91089587E391E064E270E045E275
:1006800050E00E94160387E491E067E270E048E2E0
:1006900050E00E94160387E591E06AE270E04BE2C9
:1006A00050E00E941603089560E070E040E050E0E2
:1006B000A1E0B0E0362FFA01E95CFE4F0190F08135
:1006C000E02D309751F023B1CD01062E02C0880FE6
:1006D000991F0A94E2F728232083FA01E95BFE4F71
:1006E0000190F081E02D309751F026B1CD01032E1D
:1006F00002C0880F991F0A94E2F728232083FA0189
:10070000E95AFE4F0190F081E02D309749F029B170
:10071000CD0102C0880F991F3A95E2F72823208364
:100720006F5F7F4F4E5F5F4F4031510519F608955F
:100730001F920F920FB60F921124AF92BF92CF92D9
:10074000DF92EF92FF920F931F932F933F934F935C
:100750005F936F937F938F939F93AF93BF93CF9349
:10076000DF93EF93FF9300918400109185008091B7
:10077000DD0293B19093DD027894292F282780958C
:100780008923A7E6B1E0EEEDF2E060E070E0C22E72
:10079000DD24E82EFF2421E0CD91DC9111972097F4
:1007A00079F1C601062E02C0959587950A94E2F765
:1007B00080FF26C0C701062E02C0959587950A9432
:1007C000E2F780FF03C0118300831AC0808191810A
:1007D000A801481B590B569547958CE7A82E8CEF1E
:1007E000B82EA40EB51E81EBA81684E0B80640F41E
:1007F0005983488380919402681711F420938302EF
:100800006F5F7F4F129632966830710529F6FF911F
:10081000EF91DF91CF91BF91AF919F918F917F9198
:100820006F915F914F913F912F911F910F91FF9089
:10083000EF90DF90CF90BF90AF900F900FBE0F90D2
:100840001F9018951F920F920FB60F921124CF92FE
:10085000DF92EF92FF920F931F932F933F934F934B
:100860005F936F937F938F939F93AF93BF93CF9338
:10087000DF93EF93FF93E0908400F09085008091E8
:10088000CC0299B19093CC027894292F2827809597
:100890008923A4E8B2E0EDECF2E060E070E0C22E63
:1008A000DD24082F10E0CD91DC911197209721F1E4
:1008B000C601062E02C0959587950A94E2F780FF3F
:1008C0001BC0C801062E02C0959587950A94E2F7D1
:1008D00080FF03C0F182E0820FC080819181A70177
:1008E000481B590B56954795CA0184589340815B24
:1008F000944010F4598348836F5F7F4F129632966D
:100900006830710581F6FF91EF91DF91CF91BF9132
:10091000AF919F918F917F916F915F914F913F9197
:100920002F911F910F91FF90EF90DF90CF900F903C
:100930000FBE0F901F901895809168008160809382
:100940006800E7E6F1E040E050E061E070E08081BF
:100950009181892BA1F020916B00CB01042E02C064
:10096000880F991F0A94E2F7282B20936B0034B16B
:10097000282F2095232324B925B1822B85B94F5FD9
:100980005F4F32964830510511F781E08093940211
:1009900080916800846080936800E4E8F2E040E0C1
:1009A00050E061E070E080819181892BA1F020917D
:1009B0006D00CB01042E02C0880F991F0A94E2F744
:1009C000282B20936D003AB1282F209523232AB994
:1009D0002BB1822B8BB94F5F5F4F32964830510558
:1009E00011F70895A6E0B0E0E8EFF4E00C94D11818
:1009F0007A8369831C012B019E838D839B012A5F6F
:100A00003F4F3C832B83ED81FE81068117818081DE
:100A10009181081B190B3801882477FC8094982C4D
:100A2000F10182899389A489B589860D971DA81D36
:100A3000B91D268D378D40A151A1AA24BB24650183
:100A4000A21AB30AC40AD50A8A159B05AC05BD05CE
:100A50004CF05C016D01281739074A075B0714F455
:100A600059016A01F101A28AB38AC48AD58AED814B
:100A7000FE8184859585AA2797FDA095BA2FA401AC
:100A80009301281B390B4A0B5B0BCA01B90115876F
:100A90000487F20124853585442737FD4095542F7E
:100AA0000E9475187B018C0152E015950795F7940B
:100AB000E7945A95D1F7F20120813181442737FD1F
:100AC0004095542FC401B3010E94751843E09595D9
:100AD0008795779567954A95D1F7E60EF71E081F1B
:100AE000191FF20126813781442737FD4095542F85
:100AF000C601B5010E94751836E0959587957795E2
:100B000067953A95D1F7E60EF71E081F191FE98180
:100B1000FA81028804C015950795F794E7940A9422
:100B2000D2F7ED81FE81F3A6E2A63296FE83ED8335
:100B300024E030E0220E331E42E050E0440E551E09
:100B40008B819C814816590609F05DCF2696E2E11B
:100B50000C94ED18A6E0B0E0E0EBF5E00C94E118A1
:100B6000CE010196BE016D5F7F4FAE014B5F5F4FBF
:100B70000E946B028B819C819093070280930602F6
:100B800049815A8150930902409308022D813E8188
:100B900030930B0220930A02809136029091370223
:100BA0008230910519F00397D1F40DC030930902FA
:100BB0002093080288279927841B950B90930B029A
:100BC00080930A020CC088279927821B930B90936D
:100BD00009028093080250930B0240930A02269662
:100BE000E2E00C94FD1881E040E85AE166E070E034
:100BF0000E948C010E944B02882349F485E0809377
:100C0000770288EC90E090937E0280937D020895B5
:100C10000F931F93CF93DF93FC011082772767FD1B
:100C2000709572836183DC01EC0140E050E00FEFCE
:100C30001FE760E070E80CC012961C930E931197AA
:100C40001A967C936E9319971F86188A198A1A8AA6
:100C50009A014F5F5F4F12962496818192812817E7
:100C6000390754F314A613A6DF91CF911F910F916A
:100C70000895A0E0B0E0EFE3F6E00C94D9187C0111
:100C80008C01EB01F70160E070E02BC02181328123
:100C900088819981281739070CF4C90192838183CF
:100CA0002185328588819981821793070CF4C901C7
:100CB0009287818729913991442737FD4095542F98
:100CC000D8011F96AD90BD90CD90DC905297A20EAA
:100CD000B31EC41ED51E1F96AD92BD92CD92DC925E
:100CE00052979B016F5F7F4F32960C5F1F4FD7016A
:100CF00011968D919C911297281739073CF2CDB728
:100D0000DEB7EAE00C94F518A0E0B0E0EAE8F6E01F
:100D10000C94DB18EC017C0163E2C62ED12CC80ECA
:100D2000D91E00E010E011C02BA53CA5442737FDDB
:100D30004095542FF70167857089818992890E94B7
:100D4000B618F601219331936F0198010F5F1F4F81
:100D500084E090E0E80EF91E89819A81281739070E
:100D60001CF3CDB7DEB7E8E00C94F718CF93DF9310
:100D7000FC01EB0161817281A0E040E050E00DC018
:100D80008385948523813481821B930B8C179D0767
:100D90000CF4AF5F4F5F5F4F32964617570784F3EF
:100DA00020E08A2F992787FD90958617970709F4E9
:100DB00021E0822FDF91CF910895A8E0B0E0E3EE2B
:100DC000F6E00C94DF188C018091C8019091C90164
:100DD0009A8389838091CC019091CD019C838B83F0
:100DE0008091CE019091CF019E838D838091CA0125
:100DF0009091CB0198878F83C801BE016F5F7F4FB1
:100E00000E943906F80183A594A5019694A783A7AB
:100E10008436910551F5C80164E170E00E94B60680
:100E20008823F9F0C8010E948406F80183A194A1E7
:100E3000909314018093130185A196A190931601BC
:100E40008093150187A190A59093180180931701B5
:100E500081A592A590931A018093190181E0808366
:100E600004C0C80164E00E9408062896E4E00C94DF
:100E7000FB18A6E0B0E0EFE3F7E00C94DF188C017C
:100E800080910602909107029A83898380910802DB
:100E9000909109029C838B8380910A0290910B02AE
:100EA0009E838D83C801BE016F5F7F4F0E9439060C
:100EB000F80183A594A5019694A783A78C5291402D
:100EC00021F5C80162E370E00E94B6068823C9F0EC
:100ED000C8010E948406F80183A194A190930102A5
:100EE0008093000285A196A1909303028093020251
:100EF00087A190A5909305028093040281E08083EE
:100F000004C0C80163E00E9408062696E4E00C9441
:100F1000FB1820910301309104018091030190910D
:100F200004012817390721F43093C9012093C8011F
:100F300020910501309106018091050190910601F3
:100F40002817390721F43093CD012093CC0120914B
:100F5000070130910801809107019091080128173D
:100F6000390721F43093CF012093CE0120910B015A
:100F700030910C0180910B0190910C0128173907D9
:100F800021F43093D1012093D00120910D013091B3
:100F90000E0180910D0190910E012817390721F45F
:100FA0003093D3012093D20120910F013091100191
:100FB00080910F01909110012817390721F4309387
:100FC000D5012093D401209111013091120180911B
:100FD0001101909112012817390721F43093D7019C
:100FE0002093D60180916A0290916B0205974CF490
:100FF0008091C8019091C9019093CB018093CA015F
:1010000008952091090130910A0180910901909180
:101010000A012817390721F43093CB012093CA0124
:101020000895A0E0B0E0E7E1F8E00C94DB18DC0103
:10103000C0906A02D0906B02F6013297E830F10559
:1010400008F0E3C1EC5CFF4F6D917C91119700912A
:10105000C8011091C9010C940819600F711F709399
:10106000F3016093F2018D919C9111972091CA0137
:101070003091CB01820F931F9093F9018093F80177
:1010800012968D919C9113972091CC013091CD01B6
:10109000820F931F9093F5018093F401A8C178010A
:1010A000E60EF71EF092F301E092F201E091CA0120
:1010B000F091CB01CD91DC911197CE0FDF1FD09332
:1010C000F901C093F8014091D8015091D9014452DF
:1010D0005A4F8D919C911197480F591F12966D91FF
:1010E0007C9113978091CC019091CD01680F791F6D
:1010F000CB01840F951F9C01359527953595279534
:101100003595279595958795280F391F2757314095
:101110003093F5012093F401461B570BCA0133E0CD
:10112000959587953A95E1F755954795840F951FC5
:1011300084529A4F9093F7018093F6012091CE014B
:101140003091CF0146E0C416D10409F060C084E0BC
:10115000223E380774F029573540273C310518F0F6
:1011600082E090E002C081E090E0029709F04DC17A
:1011700021C08091190190911A01800F911F8E1B3F
:101180009F0B2091130130911401821B930B9595B5
:10119000879584529A4F9093F3018093F2018C5D6E
:1011A00095402CED35E0281B390B3093F901209345
:1011B000F8012BC12091020112966D917C91139739
:1011C000E091DA01F091DB016E0F7F1F882777FD38
:1011D0008095982F30E020583040442737FD4095C7
:1011E000542F0E947518A7E0959587957795679578
:1011F000AA95D1F7E60EF71EF092F301E092F20104
:10120000C61BD70BD093F901C093F801FEC0909391
:10121000F3018093F20114968D919C911597EFC084
:10122000600F711F7093F3016093F2018D919C9197
:1012300011972091CA013091CB01820F931F909397
:10124000F9018093F80112966D917C91139780912A
:10125000CC019091CD01680F791F14964D915C914E
:1012600015978091CE019091CF01480F591FCA0167
:10127000860F971F9C01F3E035952795FA95E1F7C6
:1012800095958795280F391F275731403093F501E1
:101290002093F401461B570BCA01B3E0959587953F
:1012A000BA95E1F755954795840F951F84529A4F4B
:1012B000A8C020911301309114011296CD91DC91B8
:1012C00013978091DA019091DB01C80FD91F149612
:1012D0000D90BC91A02D8091DC019091DD01A80FB3
:1012E000B91F8091090190910A018C54944097FF95
:1012F00003C040E050E016C08091090190910A01BE
:101300008C54944095958795855F91401CF044EFEF
:1013100051E008C04091090150910A014C545440D9
:1013200055954795F801E452FA4FE21BF30BE60F8F
:10133000F71FBE016E0F7F1F9A012A1B3B0B37FF61
:1013400002C020E030E0CB01821B930B9093F301AD
:101350008093F201260F371F3093F5012093F4019B
:10136000BF016C1B7D0B9A012A0F3B1F37FF02C088
:1013700020E030E0C901860F971F9093F901809318
:10138000F801621B730B7093F7016093F6013DC087
:10139000600F711F7093F3016093F2018D919C9126
:1013A00011972091CA013091CB01820F931F909326
:1013B000F9018093F80112968D919C9113972091D9
:1013C000CC013091CD01820F931F9093F501809352
:1013D000F4018091D6019091D70112962D913C9104
:1013E0001397821B930B9093FD018093FC0114963D
:1013F0008D919C9115972091CE013091CF01820F54
:10140000931F9093F7018093F6018091D4019091FE
:10141000D5019093FB018093FA0189E0C816D104AD
:1014200041F08091D6019091D7019093FD01809376
:10143000FC018091D2019091D3019093FF018093A0
:10144000FE01CDB7DEB7E8E00C94F718AAE0B0E0F3
:10145000ECE2FAE00C94DF188091290290912A02C4
:101460000397A9F5FE0131968AE0DF011D928A9566
:10147000E9F7CF010E941108AEEBB1E002E112E002
:101480004CE152E06D917C911197F80120813181FE
:10149000FB0180819181281739070CF4C901F801FB
:1014A00091838083FA0120813181FB0180819181C8
:1014B000821793070CF4C901FA0181939193AF014C
:1014C00012960E5F1F4FF1E0A83CBF07D9F68CE0E3
:1014D00092E00E94110880916A0290916B02099734
:1014E00011F074E001C075E060E080E090E0FC0184
:1014F000E254FE4FA081B1814D915C911197FC01A6
:10150000EE5EFD4F0190F081E02D4E175F0754F025
:10151000FC01E45EFD4F20813181FA01241735077B
:101520000CF4F901ED93FC936F5F02966717FCF2E0
:101530002A96E4E00C94FB1880919602882309F027
:1015400050C081E0809396028FEF809395022FB771
:10155000F8948091F2019091F3019093E5018093CA
:10156000E4018091F4019091F5019093E70180935B
:10157000E6018091F6019091F7019093E901809343
:10158000E8018091F8019091F9019093EB0180932B
:10159000EA018091FA019091FB019093ED01809313
:1015A000EC018091FC019091FD019093EF018093FB
:1015B000EE018091FE019091FF019093F1018093E3
:1015C000F00180916F00826080936F00B19A8091EA
:1015D0008400909185000496909389008093880000
:1015E0002FBF0895FC0181E08183808385E08283A1
:1015F000168215821086178208959C0144E0813B73
:10160000940714F490E00DC08451954081599140A5
:1016100010F491E006C02850374014F49FEF06C044
:1016200092E0662319F082E0891B982F892F089594
:10163000CF93DF93EC018A818B838091C8019091D5
:10164000C9016D810E94FD0A87FF88838091CC01CA
:101650009091CD016E810E94FD0A87FF89838F8161
:10166000882351F48881882329F0823029F481E08D
:101670008D83188281E08F838885882361F4898136
:10168000882319F0823039F404C081E08E8382E02F
:10169000898381E0888738813F5F898123E08202E6
:1016A000C0011124380F3A839B8180E0391729F05B
:1016B00081E09295907F932B9C83DF91CF91089549
:1016C000282F30E03F6F220F331FEFB7F89480913F
:1016D000840090918500AC01405C5F4FBC016D5D62
:1016E0007A4F8091840090918500DA01A81BB90B94
:1016F0001A161B06B4F320FF02C0579801C0579A70
:101700004617570729F03695279545575F4FE9CF7C
:10171000EFBF0895EFB7F8944F9B49C016C02091D2
:101720008400309185002058314C04C08FEF9FEF2A
:101730004F9B0BC08091840090918500B901681B7C
:10174000790B1616170614F4F1CFAC014150504036
:10175000CA0101961816190614F34F5F5F4F19F46A
:1017600020E030E826C08091840090918500AC0193
:1017700040565F4F20E030E0BC0163597B4F8091C1
:10178000840090918500DA01A81BB90B1A161B067C
:10179000B4F389B13695279590E080789070282B26
:1017A000392B4617570729F045575F4FE8CF20E000
:1017B00030E4EFBFC9010895EF92FF920F931F939A
:1017C000CF93DF93E82E192F062FF62E84E20E9486
:1017D000600B802F0E94600B2E2D312FC901EC0170
:1017E00004C08991F80E0E94600B9E012E192017EB
:1017F000C4F38F2D81950E94600BCDB7DEB7E6E074
:101800000C94F9188F929F92AF92BF92CF92DF9271
:10181000FF920F931F93CF93DF934C015A01C0E0C7
:10182000D0E0C62EDD24C7FCD09402C0812F182F33
:10183000C5010E948A0B9C018070907C892B69F500
:10184000822FC130D10559F0C230D105A1F02097C7
:1018500079F7243259F7812FC1E0D0E0E8CF90E04A
:10186000C816D90614F4812F15C0822FF22EC2E0BB
:10187000D0E000E0DCCFF20E812F8150112331F057
:10188000F401E00FF11D20830F5FD1CFFF2011F491
:1018900081E004C0C0E0D0E0CACF80E0DF91CF910A
:1018A0001F910F91FF90DF90CF90BF90AF909F90CE
:1018B0008F9008951F93CF93DF93EC01142F44E48E
:1018C00050E00E940E198881811711F08FEF12C02D
:1018D00090E020E030E0FE01E20FF31F8081980FDE
:1018E0002F5F3F4F24343105B1F7992311F480E085
:1018F00001C08EEFDF91CF911F910895DC0190E040
:1019000020E030E0FD01E20FF31F8081980F2F5F90
:101910003F4F23343105B1F7AD5BBF4F91959C9399
:10192000A354B040CD0144E450E00E941E19089534
:10193000A1E1B0E0EEE9FCE00C94D1181C0181E0DB
:10194000898387E292E09B838A8302969D838C83BE
:101950000D969F838E8302969987888702969B8730
:101960008A8702969D878C8702969F878E87CE01F5
:101970000196998B888BD0902702DD0CCC246624AD
:10198000EE24FF248701F0E88F2EFAE19F2EF6E087
:10199000AF2EB12CE2E07E2E2C010E94AA009B010A
:1019A000AC01DC01CB018E199F09A00BB10B88168D
:1019B0009906AA06BB060CF051C0171424F5872D12
:1019C000992787FD9095FC01E170F07080FD03C0C0
:1019D00088E097E002C08CED95E09093F50180934C
:1019E000F4018CED95E09093F3018093F201EE0FFA
:1019F000FF1FEE0FFF1FEA55FE4F80809180A280EF
:101A0000B3807A9429C0DD2039F11D1424F46CE2EE
:101A100071E0A1E003C064ED7EEFAFEF8D2D99275B
:101A200087FD9095FC01E170F07080FF03C08CEDA4
:101A300095E003C0CB0184529A4F9093F3018093B9
:101A4000F201EE0FFF1FEE0FFF1FEA55FE4F8080E1
:101A50009180A280B380DA1A79018A018091830291
:101A6000882329F0109283020E94890702C0662011
:101A700041F080919602882309F08CC00E949C0A54
:101A80006624772009F089CFC1010E94180B8823B2
:101A900009F483CFF1018481843561F0853520F428
:101AA000823509F063C013C0863559F0883509F0D6
:101AB0005DC02AC0F1E0FC1514F0CC2470C0CA94BB
:101AC0006EC085E08C150CF468C0C39468C0AC2D62
:101AD000BB27A7FDB095FD01EE0FFF1FE40DF51D1F
:101AE0000180F281E02D8081282F332727FD30955A
:101AF0002F5F3F4FA255BE4F8C91992787FD909540
:101B000082179307F4F41CC0AC2DBB27A7FDB0953A
:101B1000FD01EE0FFF1FE40DF51D0180F281E02DA8
:101B20008081282F332727FD309521503040AA543B
:101B3000BE4F8C91992787FD9095281739070CF493
:101B40009C01208320E08C2D992787FD9095FC0136
:101B5000EE0FFF1FE40DF51D0180F281E02DD08016
:101B6000DD0C222319F00196782E770C89818230C2
:101B700009F013CF86E292E060E070E00E947E0CF4
:101B800086E292E060E071E00E947E0C6196E2E104
:101B90000C94ED186624639474CFA7E0CA2E21E05C
:101BA000D2CFA1E9B0E0E7EDFDE00C94D1180E949E
:101BB000AA001B012C01DE011196E8E8F1E086E0A5
:101BC00001900D928150E1F78E010D5E1F4FC8010B
:101BD0000E94F20A9CE1E92EF12CEC0EFD1EC701D9
:101BE00064E00E94080689E4C82ED12CCC0EDD1ECC
:101BF000C60163E00E9408062092C8023092C90222
:101C00004092CA025092CB02C657DF4F28823982D7
:101C10004A825B82CA58D040C258DF4F288239823C
:101C20004A825B82CE57D040CA57DF4F2882398222
:101C30004A825B82C658D040CE57DF4F2882398215
:101C40004A825B82C258D04042013101EB962CAEF1
:101C50003DAE4EAE5FAEEB97EE961FAEEE97ED96B5
:101C60001FAEED9721E0EC962FAFEC97C257DF4FF8
:101C7000E882CE58D040C157DF4FF882CF58D040CD
:101C8000C057DF4F0883C059D040CF56DF4F18836D
:101C9000C159D0400E94AA005B016C010E941F0143
:101CA000809183028823A1F4D601C501C657DF4F76
:101CB000488159816A817B81CA58D040841B950B29
:101CC000A60BB70B81539547A040B0400CF442C01F
:101CD000109283020E9489078C8D882369F0C65771
:101CE000DF4FA882B982CA82DB82CA58D04061E045
:101CF000EE966FAFEE972EC0C257DF4F8881CE5859
:101D0000D040C157DF4F9881CF58D0400E94DD06A8
:101D10002A968FAD2A97882311F492E001C090E0B3
:101D200020E08C8D882309F421E0920F90937602B5
:101D300088EC90E090937C0280937B02C657DF4F43
:101D4000A882B982CA82DB82CA58D04091E0EE965E
:101D50009FAFEE9780919602882379F5EE96AFAD0E
:101D6000EE97AA2351F1A6019501CA57DF4F68816A
:101D700079818A819B81C658D040261B370B480B3E
:101D8000590B80916E0290916F02A0917002B091F8
:101D9000710282179307A407B5077CF40E94260AF4
:101DA0000E949C0ACA57DF4FA882B982CA82DB828E
:101DB000C658D040EE961FAEEE97D601C501CE575D
:101DC000DF4F288139814A815B81C258D040821B14
:101DD000930BA40BB50B81519742A040B04054F136
:101DE0000E94AA052A968FAD2A978823D9F4CE019E
:101DF000875B9F4F0E9439072A968FAD2A978823C9
:101E000011F492E001C090E020E08C8D882309F469
:101E100021E0920F9093760248EC50E050937C02C0
:101E200040937B02CE57DF4FA882B982CA82DB8201
:101E3000C258D040EC965FADEC97552309F456C0DC
:101E4000C057DF4F8881C059D040CF56DF4F9881AF
:101E5000C159D0400E94180B882309F447C0ED9661
:101E60006FADED97E62FFF27E7FDF095E158FE4FA8
:101E70009F898081981721F0ED961FAEED9707C0DE
:101E8000ED967FADED977F5FED967FAFED97ED9689
:101E90008FADED97E82FFF27E7FDF095E158FE4F56
:101EA00080818F3F81F4CE0143960E94980C2EE0F2
:101EB00088E190E00FB6F894A895809360000FBE7B
:101EC00020936000FFCFD601C50182199309A409B0
:101ED000B509815C914EA44EB04024F0EC961FAE43
:101EE000EC9704C0F1E0EC96FFAFEC978C8D882363
:101EF00029F02A968FAD2A978823C9F58091CA01C7
:101F00009091CB012091C8013091C901820F931F9C
:101F10002091190130911A01821B930B209113011A
:101F200030911401821B930B959587959093D9015D
:101F30008093D8018091CC019091CD012091150121
:101F400030911601821B930B9093DB018093DA0191
:101F50008091CE019091CF0120911701309118010D
:101F6000821B930B9093DD018093DC0193CED6010D
:101F7000C50186199709A809B90981519742A0405E
:101F8000B0400CF41EC380916C0290916D028130C0
:101F9000910559F48091D0019091D101865F9540CF
:101FA0000CF09BC080E090E00DC0892B09F095C03B
:101FB0008091D0019091D101875296400CF48DC050
:101FC00081E090E090936D0280936C02892B11F078
:101FD00084E001C080E08093760268EC70E070934A
:101FE0007C0260937B021092A9021092AA021092C6
:101FF000AB021092AC021092B5021092B60210928F
:10200000B7021092B8021092AD021092AE02109276
:10201000AF021092B0021092B9021092BA0210925E
:10202000BB021092BC021092B1021092B202109246
:10203000B3021092B4021092BD021092BE0210922E
:10204000BF021092C00280913E0290913F0202971F
:1020500009F043C0D601C501EB962CAD3DAD4EADA8
:102060005FADEB97821B930BA40BB50B8152914A8A
:10207000A740B0401CF0E7961FAEE797E7964FAD3C
:10208000E7974F5FE7964FAFE797433004F18091B2
:10209000C8019091C901909314018093130180911C
:1020A000CC019091CD019093160180931501809100
:1020B000CE019091CF0190931801809317018091E8
:1020C000CA019091CB0190931A0180931901EB966C
:1020D000ACAEBDAECEAEDFAEEB972091CA01309173
:1020E000CB018091C8019091C901280F391F8091BF
:1020F000190190911A01281B390B809113019091BD
:102100001401281B390B359527953093D90120935D
:10211000D8014091CC015091CD0180911501909151
:102120001601481B590B5093DB014093DA01E091F3
:10213000CE01F091CF018091170190911801E81B19
:10214000F90BF093DD01E093DC01809138028150BE
:10215000682F772767FD7095C90137FF04C088276E
:102160009927821B930B062E02C0880F991F0A9491
:10217000E2F7A1E081399A0714F080E991E0A0E943
:10218000B1E0A81BB90BB887AF83CA0157FF04C0E1
:1021900088279927841B950B062E02C0880F991F4C
:1021A0000A94E2F7B1E081399B0714F080E991E0ED
:1021B000A0E9B1E0A81BB90BBA87A987CF01F7FF47
:1021C00004C0882799278E1B9F0BDC0102C0AA0F31
:1021D000BB1F6A95E2F7BD01B1E061397B0714F0DE
:1021E00060E971E0A0E96A2EA1E07A2E661A770A0A
:1021F0007C866B868091D0019091D10165E0833C13
:1022000096074CF403EC15E0081B190B71E001393B
:10221000170794F00BC0A6E088329A071CF400E080
:1022200010E00AC0B7E086389B071CF000E911E017
:1022300003C08C01055F154080906C0290906D0288
:1022400061E08616910459F08114910409F04FC0A1
:1022500080913C0290913D02029709F048C0809124
:102260003A02082E02C0220F331F0A94E2F73E877B
:102270002D87082E02C0440F551F0A94E2F7588B91
:102280004F87AF0102C0440F551F8A95E2F75A8B62
:10229000498B89819A8197FD05C088279927821BE0
:1022A000930B01C0C90190939802809397028B8190
:1022B0009C812F85388997FD05C088279927821B27
:1022C000930B01C0C90190939A02809399028D816A
:1022D0009E8197FD03C0509541955F4F50939C029E
:1022E00040939B0271E08716910471F055C01092E3
:1022F00098021092970210929A02109299021092EC
:102300009C0210929B0248C06F817885882777FDD8
:102310008095982F24EF3FEB40E050E00E94751825
:10232000F9E09595879577956795FA95D1F760933C
:10233000B5027093B6028093B7029093B802698594
:102340007A85882777FD8095982F0E947518E9E097
:102350009595879577956795EA95D1F76093B9023A
:102360007093BA028093BB029093BC02B30188279A
:1023700077FD8095982F0E94751839E0959587957F
:10238000779567953A95D1F76093BD027093BE0239
:102390008093BF029093C002209106023091070201
:1023A0008091000290910102281B390B80E22030BD
:1023B000380714F02FEF3FE1C901A0EE20303A07B3
:1023C00014F480E090EE90939E0280939D02209101
:1023D0000802309109028091020290910302281BA9
:1023E000390BB0E220303B0714F02FEF3FE1C90179
:1023F000E0EE20303E0714F480E090EE9093A002CF
:1024000080939F0220910A0230910B028091040276
:1024100090910502281B390BF0E220303F0714F0A1
:102420002FEF3FE1C90120EE8030920714F480E0E5
:1024300090EE9093A2028093A102892819F066E59C
:1024400072E002C063E472E087E992E00E94F20465
:10245000EE24FF243801882477FC8094982C87018F
:10246000045F1D4FE1E0F0E0EC0FFD1FEE0DFF1DDE
:1024700060817181882777FD8095982FF701E95653
:10248000FD4F22A533A5442737FD4095542F0E94C8
:10249000751827E095958795779567952A95D1F7D3
:1024A000E7E0F0E0EC0FFD1FEE0DFF1D2081318114
:1024B000442737FD4095542F0E9475189B01AC01AD
:1024C000B9E05595479537952795BA95D1F7C40149
:1024D000B3010E947518A9E0959587957795679542
:1024E000AA95D1F7D8016D937C93E2E0F0E0EE0E6F
:1024F000FF1EF6E0EF16F10409F0B1CF2091C702FC
:1025000012160CF05CC08091C8029091C902A09193
:10251000CA02B091CB02B601A501481B590B6A0B48
:102520007B0BDB01CA0181549D40A340B0405CF0AD
:1025300021502093C702A092C802B092C902C09253
:10254000CA02D092CB028091C702992787FD90954D
:1025500040910C0250910D02BC016170707080FFBF
:1025600003C026E930E002C02AE63FEF240F351F02
:1025700030930D0220930C0240910E0250910F02F5
:102580006115710519F026E930E002C02AE63FEF37
:10259000240F351F30930F0220930E02209110025A
:1025A00030911102672B19F48AE69FEF02C086E989
:1025B00090E0820F931F90931102809310023501D7
:1025C0004601D601C501C258DF4F288139814A81B1
:1025D0005B81CE57D040821B930BA40BB50B8C595B
:1025E000914AA740B0400CF455CB8091400280380E
:1025F00039F480910001282F30E02058304004C089
:10260000282F332727FD309580914102803839F4F7
:1026100080910101482F50E04058504004C0482F9D
:10262000552747FD509580914202803831F48091C2
:10263000020190E08058904003C0992787FD909553
:102640003A8329835C834B839E838D83295F3F4F2D
:102650002F30310510F41A8219828B819C810796E4
:102660000F9710F41C821B828D819E8107960F9715
:1026700010F41E821D8280E00E949B02C258DF4F30
:10268000A882B982CA82DB82CE57D04003CBA5E6AE
:10269000B0E0EDE4F3E10C94DB181092800081E0EF
:1026A0008093810057985F9848E552E000E06E0102
:1026B0000894C11CD11C22E0E22EF12CEC0EFD1E70
:1026C000C60165E60E94020C882309F441C0898195
:1026D0008230A9F0833018F4813029F406C08330A9
:1026E000B1F08430E9F010E026C0C70160E870E086
:1026F00048E050E00E940E1910E069E01DC0C701DB
:1027000060E870E048E050E00E941E1913C0C70165
:1027100060E070E04AE00E945A0C10E065E40CC0F2
:10272000C70160E070E00E947E0CC70160E071E0CC
:102730000E947E0C11E061E0898180688983C60176
:102740000E94DC0B01E044EF51E0112309F4B8CF03
:10275000802FCB59DF4FE8E00C94F718CF93DF932D
:10276000C0E0D0E0FE01E958FE4F808187FD04C043
:10277000808161E00E94D6172196C830D10591F77B
:10278000DF91CF9108951F920F920FB60F921124EF
:102790000F931F932F933F934F935F936F937F9369
:1027A0008F939F93AF93BF93EF93FF938091950285
:1027B00087FD42C0E0919502FF27E7FDF095E958BB
:1027C000FE4F808160E00E94421836C080919502E1
:1027D0008F5F80939502E0919502FF27E7FDF095CA
:1027E000E958FE4F808187FD27C000918400109139
:1027F0008500E0919502FF27E7FDF095E958FE4F2F
:10280000808161E00E944218E0919502FF27E7FD78
:10281000F095EE0FFF1FE55EFE4F0190F081E02D79
:10282000808191810297880F991F800F911F90934B
:102830008900809388000BC080919502873034F224
:102840001092960280916F008D7F80936F00FF91B0
:10285000EF91BF91AF919F918F917F916F915F9118
:102860004F913F912F911F910F910F900FBE0F909D
:102870001F901895A0E0B0E0E0E4F4E10C94DB18C0
:10288000182F062F862F61E00E94D617812F60E057
:102890000E94D617812F61E00E9442186AE070E022
:1028A00080E090E00E94EA00C0E0D0E0812F99270C
:1028B00087FD9095FC01EA56FF4FE491F0E0EE0FA2
:1028C000FF1FE457FF4FC590D49086559F4FFC01E2
:1028D0008491E82EFF24CE018170182F802F612F64
:1028E0000E944218F601808120E030E090E08E21C5
:1028F0009F21892B11F021E030E0812F992787FD5E
:1029000090952817390711F010E005C02196C830BE
:10291000D10509F711E0802F60E00E94D617812FC2
:10292000CDB7DEB7E8E00C94F718A2E9B0E0EBE928
:10293000F4E10C94DD18259A8091FD029091FE023D
:10294000009711F09C0102C021E033E0CE01019616
:10295000821B930B803891054CF484E180937702BD
:102960008EE190E090937E0280937D0284B7877F12
:1029700084BF88E10FB6F8948093600010926000E5
:102980000FBE21E030E0309328022093270280E838
:1029900080934002809341028093420230932A0246
:1029A0002093290210922B02EEE8F1E0ACE2B2E0B3
:1029B00081918D9321E0E639F207D1F742E050E0B2
:1029C000509335024093340221E030E030933702D7
:1029D00020933602309339022093380283E090E04E
:1029E00090933B0280933A0230933D0220933C0245
:1029F00050933F0240933E0284EF91E09093440253
:102A00008093430210924A0210924902909350021E
:102A100080934F02909346028093450210924C029D
:102A200010924B029093520280935102909348026D
:102A30008093470210924E0210924D0290935402DE
:102A40008093530228E0209355029093570280937D
:102A5000560290935D0280935C0290936302809390
:102A60006202909359028093580290935F02809380
:102A70005E02909365028093640290935B02809360
:102A80005A02909361028093600290936702809350
:102A900066022093680285E064E00E943A1488236D
:102AA00011F400E001C007E0CE01039660E870E099
:102AB00048E050E00E940E19002361F48B818230BF
:102AC00049F48C819D81AE81BF818E549146AC4B7F
:102AD000B04071F082E08B838EE491E6ACEBB0E025
:102AE0008C839D83AE83BF83188619861A860860FF
:102AF000CE010B9660E070E04AE00E945A0C87FD20
:102B00000260CE01815B9F4F60E071E04AE00E946D
:102B10005A0C87FD046083E08093C702E02EFF24F7
:102B2000C701867090708230910531F08430910534
:102B300079F0892B81F119C08E01015B1F4FC8010B
:102B400060E070E00E947E0C88858F5F88870BC0F4
:102B50008E01055F1F4FC80160E071E00E947E0C8E
:102B600089858F5F8987C80118C08AE08093260213
:102B700086E292E060E070E00E947E0C86E292E0E5
:102B800060E071E00E947E0C8A858F5F8A8789E011
:102B90008093C7020AC0CE010B96A6E2B2E0FC0108
:102BA00084E401900D928150E1F7C7018E7090701E
:102BB000892B41F0CE01039660E870E048E050E0D8
:102BC0000E941E19E0FE0AC082E00E94120164E623
:102BD00070E080E090E00E947717F6CF0E944713E4
:102BE000882361F02EE088E190E00FB6F894A89574
:102BF000809360000FBE20936000FFCF1092800092
:102C000082E08093810081E080936F0085B5887FAA
:102C100085BD8091290290912A028230910519F197
:102C20008330910524F4019709F05BC007C083301D
:102C3000910571F1049709F054C03FC080E090E025
:102C400048EE53E020ED37E0FC01EE5EFD4F51838E
:102C50004083FC01E45EFD4F3183208302968A307D
:102C6000910591F73EC080E090E04CE454E02CE602
:102C700037E0FC01EE5EFD4F51834083FC01E45ED2
:102C8000FD4F3183208302968A30910591F729C048
:102C900080E090E042EE54E026ED36E0FC01EE5E8E
:102CA000FD4F51834083FC01E45EFD4F318320835F
:102CB00002968A30910591F714C080E090E044E8D4
:102CC00053E024E338E0FC01EE5EFD4F5183408386
:102CD000FC01E45EFD4F3183208302968A3091052A
:102CE00091F780912B02992787FD909528EE33E08C
:102CF000AC01429FC001439F900D529F900D112443
:102D0000AA2797FDA095BA2F80936E0290936F0229
:102D1000A0937002B09371020E943B030E9454037F
:102D2000809127029091280290936B0280936A020F
:102D3000019741F58091DF01882319F4E4E0F0E088
:102D400002C0E0E0F0E08091E101882319F442E064
:102D500050E002C040E050E020E030E08091E2012D
:102D6000882311F421E030E0E22BF32BE42BF52B48
:102D7000EE0FFF1FEA56FE4F8081918190936B0208
:102D800080936A0280916A0290916B020597049782
:102D900050F410925A011092590189E091E09093F9
:102DA00087028093860280916A0290916B0201975C
:102DB00031F482E090E090936B0280936A028091FC
:102DC0006A028093750288E592E090937A0280937C
:102DD00079020E94EB020E949C040E94AE130E94A2
:102DE000F3050E9489070E94260ACE56DF4FE6E0CF
:102DF0000C94F918CF93DF930E949B170E949514AF
:102E0000C0E0D0E00E94D10D2097E1F30E940000C5
:102E1000F9CF1F920F920FB60F9211242F933F9369
:102E20008F939F93AF93BF938091F8029091F90293
:102E3000A091FA02B091FB023091FC020196A11D13
:102E4000B11D232F2D5F2D3720F02D570196A11D89
:102E5000B11D2093FC028093F8029093F902A09395
:102E6000FA02B093FB028091F4029091F502A091D6
:102E7000F602B091F7020196A11DB11D8093F402F4
:102E80009093F502A093F602B093F702BF91AF9131
:102E90009F918F913F912F910F900FBE0F901F9098
:102EA00018959FB7F8942091F4023091F502409163
:102EB000F6025091F70286B5A89B06C08F3F21F01D
:102EC0002F5F3F4F4F4F5F4F9FBF542F432F322FE6
:102ED0002227280F311D411D511D82E0220F331F73
:102EE000441F551F8A95D1F7B901CA010895EF9281
:102EF000FF920F931F93CF93DF937B018C010E946E
:102F00005117EB010EC00E9451176C1B7D0B685EC0
:102F10007340C8F30894E108F10801091109C85188
:102F2000DC4FE114F1040105110569F7CDB7DEB7F7
:102F3000E6E00C94F918789484B5826084BD84B579
:102F4000816084BD85B5826085BD85B5816085BDA4
:102F5000EEE6F0E0808181608083E1E8F0E01082BD
:102F6000808182608083808181608083E0E8F0E0FE
:102F7000808181608083E1EBF0E0808184608083E8
:102F8000E0EBF0E0808181608083EAE7F0E080811F
:102F9000846080838081826080838081816080837F
:102FA0008081806880831092C1000895CF93DF9361
:102FB000482F50E0CA0186559F4FFC0134914A5674
:102FC0005F4FFA018491882369F190E0880F991F7F
:102FD000FC01E858FF4FA591B491FC01EE57FF4F5B
:102FE000C591D491662351F42FB7F8948C91932F07
:102FF000909589238C93888189230BC0623061F47A
:103000002FB7F8948C91932F909589238C93888176
:10301000832B88832FBF06C09FB7F8948C91832B96
:103020008C939FBFDF91CF910895833071F08430EE
:1030300028F48130A1F0823021F514C08630B1F03F
:103040008730D1F08430E9F404C0809180008F771C
:1030500003C0809180008F7D80938000089584B5A7
:103060008F7702C084B58F7D84BD08958091B000B4
:103070008F778093B00008958091B0008F7D80930A
:10308000B0000895FF920F931F93F62E482F50E043
:10309000CA0182549F4FFC012491CA0186559F4F5B
:1030A000FC0114914A565F4FFA0104910023C9F0C4
:1030B000222319F0822F0E941518E02FF0E0EE0F66
:1030C000FF1FEE57FF4FA591B4919FB7F894FF20D3
:1030D00021F48C911095812302C08C91812B8C93CB
:1030E0009FBF1F910F91FF900895629FD001739F22
:1030F000F001829FE00DF11D649FE00DF11D929F94
:10310000F00D839FF00D749FF00D659FF00D9927D2
:10311000729FB00DE11DF91F639FB00DE11DF91FF6
:10312000BD01CF0111240895A1E21A2EAA1BBB1BD9
:10313000FD010DC0AA1FBB1FEE1FFF1FA217B30783
:10314000E407F50720F0A21BB30BE40BF50B661F99
:10315000771F881F991F1A9469F76095709580955D
:1031600090959B01AC01BD01CF01089597FB092EFD
:1031700005260ED057FD04D0D7DF0AD0001C38F446
:1031800050954095309521953F4F4F4F5F4F089593
:10319000F6F790958095709561957F4F8F4F9F4F73
:1031A00008952F923F924F925F926F927F928F92EB
:1031B0009F92AF92BF92CF92DF92EF92FF920F93C6
:1031C0001F93CF93DF93CDB7DEB7CA1BDB0B0FB6D0
:1031D000F894DEBF0FBECDBF09942A88398848888D
:1031E0005F846E847D848C849B84AA84B984C88423
:1031F000DF80EE80FD800C811B81AA81B981CE0F1A
:10320000D11D0FB6F894DEBF0FBECDBFED010895FE
:10321000EE0FFF1F0590F491E02D0994DC01CB0126
:10322000FC01F999FECF06C0F2BDE1BDF89A3196D6
:1032300000B40D9241505040B8F70895DC01CB0125
:1032400003C02D910E94291941505040D0F7089594
:10325000262FF999FECF1FBA92BD81BD20BD0FB6B2
:10326000F894FA9AF99A0FBE01960895F894FFCF50
:10327000FFFFFFDC05DC05DC05DC05E803DC05E819
:1032800003DC05DC05DC05DC05DC05E801E601EC1A
:1032900001E4010000EA01F001EE0100000001017B
:1032A000010201000000000000000000000000E139
:1032B00001000000000000E201000000000000002A
:1032C00000000000000000E301DE01DF01E001007A
:1032D000000000000000000301050109010B0100CE
:1032E000000000000000000605FF04FF07FFFF7854
:1032F00089988778899887FF000000000000000106
:10330000020304050607020003000400050008008C
:10331000060007000200A0860100801A06000503CF
:103320000303040202020101010101010101F20192
:08333000F401F601F801FC01B3
:00000001FF
