:100000000C946A000C9492000C9492000C94920050
:100010000C9492000C9492000C9492000C94920018
:100020000C9492000C9492000C9492000C9408147E
:100030000C9492000C9494000C9492000C949200F6
:100040000C9496190C9492000C9458170C94A617C3
:100050000C9492000C94C3020C9492000C949200A5
:100060000C9492000C949200DF060107C207DF0691
:100070000107C2070B087A080000000024002700CF
:100080002A0000000000250028002B0000000000CE
:1000900023002600290004040404040404040202CA
:1000A00002020202030303030303010204081020F7
:1000B0004080010204081020010204081020000002
:1000C0000007000201000003040600000000000019
:1000D00000000D1911241FBECFEFD4E0DEBFCDBF4D
:1000E00011E0A0E0B1E0EAE8F7E302C005900D926C
:1000F000A23EB107D9F713E0A2EEB1E001C01D9214
:10010000A03CB107E1F710E0C4EDD0E004C02297B5
:10011000FE010E94971BC23DD107C9F70E946319D7
:100120000C94C31B0C9400001F920F920FB60F92F9
:1001300011248F939F9380919C0290919D02019630
:1001400090939D0280939C0280919C0290919D02CD
:10015000892B29F480919E028F5F80939E029F914C
:100160008F910F900FBE0F901F9018956091840093
:100170007091850020919C0230919D02E0919E0239
:1001800080918400909185008627972797FDEECF78
:1001900080919C0290919D022817390739F7809130
:1001A0009E02E81719F740E050E0FFE0220F331FEE
:1001B000441F551FFA95D1F78E2F90E0A0E0B0E0D4
:1001C000BB278695B795AA2799278827282B392BEF
:1001D0004A2B5B2B76956795CB01A0E0B0E0282BEE
:1001E000392B4A2B5B2BB901CA010895AF92BF92FC
:1001F000CF92DF92EF92FF920F931F9328EE33E09E
:1002000040E050E00E94021B5B016C010E94B600BE
:100210007B018C010E94B6006E197F09800B910B47
:100220006A157B058C059D05A8F31F910F91FF9022
:10023000EF90DF90CF90BF90AF900895882321F08A
:10024000813021F42D9A08952D98089585B190E27A
:10025000892785B90895EF92FF920F931F937B0131
:100260008C018091030390910403A0910503B09148
:1002700006038E199F09A00BB10B181619061A0652
:100280001B060CF450C080910703882321F5E091F0
:100290000803EF5FE370E0930803FF27E7FDF095A5
:1002A000E156FD4F8081992787FD9095880F991F12
:1002B0008093070380E492E4AFE0B0E0E80EF91E1B
:1002C0000A1F1B1FE0920303F0920403009305032F
:1002D0001093060328C081508093070381700E9409
:1002E0001E01E0910803FF27E7FDF095EE0FFF1FC9
:1002F000ED55FD4F80819181AA2797FDA095BA2FDA
:100300002AE0880F991FAA1FBB1F2A95D1F78E0DCF
:100310009F1DA01FB11F8093030390930403A0931C
:100320000503B09306031F910F91FF90EF9008957E
:100330009A01AB01882311F0459A449A1092B900B2
:1003400060E074E284EF90E00E94211B2051304075
:100350004040504056954795379527952093B800D3
:1003600008952FEF30E011C02115310561F410928E
:10037000BC008091AB029091AC0201969093AC02CC
:100380008093AB020895215030408091BC0087FFDC
:10039000EBCF0895FF920F931F93F82E0CEB10E014
:1003A00084EAF80180830E94B101F092BB0084E8E6
:1003B000F80180830E94B1011F910F91FF90089571
:1003C0008093BB0084E88093BC000E94B101089533
:1003D0001F93182F882311F484E801C084EC8093C4
:1003E000BC000E94B1019091BB00112319F484E973
:1003F0008093BC00892F1F9108950F931F93162F90
:10040000042F880F0E94CA01812F0E94E001802FD3
:100410000E94E00184E98093BC001F910F91089530
:100420000F931F93182F062F880F0E94CA01802F49
:100430000E94E001110F812F81600E94CA0180E0BB
:100440000E94E8011F910F9108951F93CF93DF93AE
:10045000EB01142F880F81600E94CA0108C011505F
:1004600080E011160CF481E00E94E80189931123C9
:10047000B1F7DF91CF911F910895DF92EF92FF9234
:100480000F931F93E82EF62E8A01D22E880F0E941A
:10049000CA018F2D0E94E0018E2DB8014D2D0E94C2
:1004A00025021F910F91FF90EF90DF90089588E64D
:1004B0006EE340E80E94FD0162E370E080E090E0BE
:1004C0000E94F60088E66EE343E00E94FD0188E6A4
:1004D00066E14EE10E94FD0188E660E00E941002A4
:1004E00090E08E77883609F491E0892F0895A6E090
:1004F000B0E0EDE7F2E00C94681B8C017B016A012F
:1005000088E66DE1AE014F5F5F4F26E00E943D023D
:10051000998180E02A8130E0822B932BF80191832E
:1005200080839B8180E02C8130E0822B932BF7012C
:10053000918380839D8180E02E8130E0822B932BFC
:10054000F601918380832696E8E00C94841B282F83
:1005500017C0E22FF0E0EE0FFF1FE55CFE4F808139
:100560009181892B61F080917C00887F822B809320
:100570007C0080917A00806480937A0008952F5FD8
:10058000263038F308951F920F920FB60F92112460
:100590002F933F934F935F936F937F938F939F938B
:1005A000AF93BF93EF93FF9380917C008770E82F08
:1005B000F0E0EE0FFF1FE55CFE4F0190F081E02DB3
:1005C0009091790090838F5F0E94A702FF91EF9135
:1005D000BF91AF919F918F917F916F915F914F915B
:1005E0003F912F910F900FBE0F901F901895EBE346
:1005F000F1E040E050E061E070E080819181892B82
:1006000079F087B1DB01042E02C0AA0FBB1F0A9448
:10061000E2F79D012095822387B988B1282328B964
:100620004F5F5F4F32964630510539F780E6809331
:100630007C0010927B008FE880937A0080E00E941B
:10064000A7020895CF93DF93EB01DA01FC0140E0AC
:1006500050E061E070E080819181892B79F03881F0
:10066000CB01042E02C0880F991F0A94E2F7282FAD
:100670002095232328832C91822B8C934F5F5F4FEF
:1006800032964830510539F7DF91CF91089587E4CC
:1006900091E064E270E045E250E00E94220387E5C9
:1006A00091E067E270E048E250E00E94220387E6B2
:1006B00091E06AE270E04BE250E00E94220308956C
:1006C00060E070E040E050E0A1E0B0E0362FFA01D9
:1006D000E95BFE4F0190F081E02D309751F023B19E
:1006E000CD01062E02C0880F991F0A94E2F7282335
:1006F0002083FA01E95AFE4F0190F081E02D3097F6
:1007000051F026B1CD01032E02C0880F991F0A9423
:10071000E2F728232083FA01E959FE4F0190F08186
:10072000E02D309749F029B1CD0102C0880F991F03
:100730003A95E2F7282320836F5F7F4F4E5F5F4F2C
:100740004031510519F60895A6E0B0E0EAEAF3E079
:100750000C945E1B7A8369831C012B019E838D831D
:100760009B012A5F3F4F3C832B83ED81FE810681F5
:10077000178180819181081B190B3801882477FC2F
:100780008094982CF10182899389A489B589860D7A
:10079000971DA81DB91D268D378D40A151A1AA24F2
:1007A000BB246501A21AB30AC40AD50A8A159B059F
:1007B000AC05BD054CF05C016D01281739074A07EF
:1007C0005B0714F459016A01F101A28AB38AC48A51
:1007D000D58AED81FE8184859585AA2797FDA09510
:1007E000BA2FA4019301281B390B4A0B5B0BCA01DA
:1007F000B90115870487F20124853585442737FD23
:100800004095542F0E94021B7B018C0132E015950C
:100810000795F794E7943A95D1F7F2012081318159
:10082000442737FD4095542FC401B3010E94021B99
:1008300023E095958795779567952A95D1F7E60EEC
:10084000F71E081F191FF20126813781442737FD43
:100850004095542FC601B5010E94021BB6E0959544
:10086000879577956795BA95D1F7E60EF71E081F1D
:10087000191FE981FA81028804C015950795F7943C
:10088000E7940A94D2F7ED81FE81F3A6E2A63296B0
:10089000FE83ED8324E030E0220E331E42E050E080
:1008A000440E551E8B819C814816590609F05DCF78
:1008B0002696E2E10C947A1BA6E0B0E0E2E6F4E0D2
:1008C0000C946E1BCE010196BE016D5F7F4FAE0191
:1008D0004B5F5F4F0E9477028B819C819093210236
:1008E0008093200249815A8150932302409322022F
:1008F0002D813E8130932502209324028091500265
:10090000909151028230910519F00397D1F40DC0F6
:10091000309323022093220288279927841B950B6A
:1009200090932502809324020CC088279927821B6C
:10093000930B9093230280932202509325024093BD
:1009400024022696E2E00C948A1B81E040E85AE1FA
:1009500066E070E00E9498010E945702882349F4E3
:1009600085E08093A10288EC90E09093A8028093A8
:10097000A70208950F931F93CF93DF93FC0110827A
:10098000772767FD709572836183DC01EC0140E09D
:1009900050E00FEF1FE760E070E80CC012961C9368
:1009A0000E9311971A967C936E9319971F86188A47
:1009B000198A1A8A9A014F5F5F4F12962496818195
:1009C00092812817390754F314A613A6DF91CF910B
:1009D0001F910F910895A0E0B0E0E1EFF4E00C94D6
:1009E000661B7C018C01EB01F70160E070E02BC01D
:1009F0002181328188819981281739070CF4C90136
:100A0000928381832185328588819981821793071A
:100A10000CF4C9019287818729913991442737FDC8
:100A20004095542FD8011F96AD90BD90CD90DC908D
:100A30005297A20EB31EC41ED51E1F96AD92BD9234
:100A4000CD92DC9252979B016F5F7F4F32960C5F85
:100A50001F4FD70111968D919C9112972817390736
:100A60003CF2CDB7DEB7EAE00C94821BA0E0B0E028
:100A7000ECE3F5E00C94681BEC017C0143E2C42E2E
:100A8000D12CC80ED91E00E010E011C02BA53CA54A
:100A9000442737FD4095542FF70167857089818978
:100AA00092890E94431BF601219331936F019801B3
:100AB0000F5F1F4F84E090E0E80EF91E89819A8154
:100AC000281739071CF3CDB7DEB7E8E00C94841B78
:100AD000CF93DF93FC01EB0161817281A0E040E0E4
:100AE00050E00DC08385948523813481821B930B54
:100AF0008C179D070CF4AF5F4F5F5F4F3296461720
:100B0000570784F320E08A2F992787FD9095861751
:100B1000970709F421E0822FDF91CF910895A8E093
:100B2000B0E0E5E9F5E00C946C1B8C018091E201EA
:100B30009091E3019A8389838091E6019091E70186
:100B40009C838B838091E8019091E9019E838D8342
:100B50008091E4019091E50198878F83C801BE01DF
:100B60006F5F7F4F0E94EB04F80183A594A5019667
:100B700094A783A78436910551F5C80164E170E01C
:100B80000E9468058823F9F0C8010E943605F80123
:100B900083A194A1909314018093130185A196A140
:100BA000909316018093150187A190A59093180149
:100BB0008093170181A592A590931A018093190142
:100BC00081E0808304C0C80164E00E94BA042896D2
:100BD000E4E00C94881BA6E0B0E0E1EFF5E00C94B3
:100BE0006C1B8C0180912002909121029A83898351
:100BF00080912202909123029C838B838091240216
:100C0000909125029E838D83C801BE016F5F7F4F47
:100C10000E94EB04F80183A594A5019694A783A7ED
:100C20008C52914021F5C80162E370E00E94680592
:100C30008823C9F0C8010E943605F80183A194A158
:100C400090931B0280931A0285A196A190931D0296
:100C500080931C0287A190A590931F0280931E028F
:100C600081E0808304C0C80163E00E94BA04269634
:100C7000E4E00C94881B20910301309104018091E1
:100C80000301909104012817390721F43093E301FF
:100C90002093E20120910501309106018091050128
:100CA000909106012817390721F43093E70120932A
:100CB000E601209107013091080180910701909190
:100CC00008012817390721F43093E9012093E8013E
:100CD00020910B0130910C0180910B0190910C013E
:100CE0002817390721F43093EB012093EA01209172
:100CF0000D0130910E0180910D0190910E01281788
:100D0000390721F43093ED012093EC0120910F017C
:100D10003091100180910F0190911001281739072F
:100D200021F43093EF012093EE01209111013091D5
:100D3000120180911101909112012817390721F4B5
:100D40003093F1012093F00180918402909185020B
:100D500005974CF48091E2019091E3019093E501B5
:100D60008093E40108952091090130910A01809156
:100D7000090190910A012817390721F43093E50100
:100D80002093E4010895A0E0B0E0E9ECF6E00C94D3
:100D9000681BDC01C0908402D0908502F601329776
:100DA000E830F10508F0E3C1EC5CFF4F6D917C91F8
:100DB00011970091E2011091E3010C94951B600FD3
:100DC000711F70930D0260930C028D919C9111978D
:100DD0002091E4013091E501820F931F909313025B
:100DE0008093120212968D919C9113972091E601A7
:100DF0003091E701820F931F90930F0280930E02B0
:100E0000A8C17801E60EF71EF0920D02E0920C02E6
:100E1000E091E401F091E501CD91DC911197CE0FC5
:100E2000DF1FD0931302C09312024091F201509140
:100E3000F30144525A4F8D919C911197480F591FBD
:100E400012966D917C9113978091E6019091E70144
:100E5000680F791FCB01840F951F9C01359527954D
:100E6000359527953595279595958795280F391FA1
:100E70002757314030930F0220930E02461B570B29
:100E8000CA0133E0959587953A95E1F755954795D1
:100E9000840F951F84529A4F9093110280931002F1
:100EA0002091E8013091E90146E0C416D10409F02F
:100EB00060C084E0223E380774F029573540273C53
:100EC000310518F082E090E002C081E090E00297E6
:100ED00009F04DC121C08091190190911A01800F34
:100EE000911F8E1B9F0B2091130130911401821BC7
:100EF000930B9595879584529A4F90930D0280930A
:100F00000C028C5D95402CED35E0281B390B30939D
:100F10001302209312022BC12091020112966D91AF
:100F20007C911397E091F401F091F5016E0F7F1F12
:100F3000882777FD8095982F30E02058304044274F
:100F400037FD4095542F0E94021BA7E09595879589
:100F500077956795AA95D1F7E60EF71EF0920D02E8
:100F6000E0920C02C61BD70BD0931302C09312025F
:100F7000FEC090930D0280930C0214968D919C916B
:100F80001597EFC0600F711F70930D0260930C02F4
:100F90008D919C9111972091E4013091E501820F90
:100FA000931F909313028093120212966D917C917D
:100FB00013978091E6019091E701680F791F1496CD
:100FC0004D915C9115978091E8019091E901480F4E
:100FD000591FCA01860F971F9C01F3E0359527958D
:100FE000FA95E1F795958795280F391F27573140D6
:100FF00030930F0220930E02461B570BCA01B3E039
:1010000095958795BA95E1F755954795840F951F66
:1010100084529A4FA8C02091130130911401129666
:10102000CD91DC9113978091F4019091F501C80F57
:10103000D91F14960D90BC91A02D8091F60190912E
:10104000F701A80FB91F8091090190910A018C54F2
:10105000944097FF03C040E050E016C08091090122
:1010600090910A018C54944095958795855F9140A5
:101070001CF044EF51E008C04091090150910A0171
:101080004C54544055954795F801E452FA4FE21BF1
:10109000F30BE60FF71FBE016E0F7F1F9A012A1B8D
:1010A0003B0B37FF02C020E030E0CB01821B930BEB
:1010B00090930D0280930C02260F371F30930F027E
:1010C00020930E02BF016C1B7D0B9A012A0F3B1F60
:1010D00037FF02C020E030E0C901860F971F9093D0
:1010E000130280931202621B730B709311026093C0
:1010F00010023DC0600F711F70930D0260930C02CF
:101100008D919C9111972091E4013091E501820F1E
:10111000931F909313028093120212968D919C91CB
:1011200013972091E6013091E701820F931F90936E
:101130000F0280930E028091F0019091F1011296BE
:101140002D913C911397821B930B909317028093E0
:10115000160214968D919C9115972091E80130917B
:10116000E901820F931F90931102809310028091E6
:10117000EE019091EF01909315028093140289E0A3
:10118000C816D10441F08091F0019091F101909343
:101190001702809316028091EC019091ED019093DB
:1011A000190280931802CDB7DEB7E8E00C94841BD7
:1011B000AAE0B0E0EEEDF8E00C946C1B80914302E5
:1011C000909144020397A9F5FE0131968AE0DF0170
:1011D0001D928A95E9F7CF010E94C306A8ECB1E001
:1011E0000CE212E046E352E06D917C911197F80118
:1011F00020813181FB0180819181281739070CF40E
:10120000C901F80191838083FA0120813181FB01BA
:1012100080819181821793070CF4C901FA018193AF
:101220009193AF0112960E5F1F4FF1E0A23DBF07F1
:10123000D9F686E292E00E94C306809184029091E2
:101240008502099711F074E001C075E060E080E06C
:1012500090E0FC01E853FE4FA081B1814D915C917B
:101260001197FC01E45DFD4F0190F081E02D4E17D8
:101270005F0754F0FC01EA5CFD4F20813181FA01E7
:10128000241735070CF4F901ED93FC936F5F029678
:101290006717FCF22A96E4E00C94881B8091AF0259
:1012A000882309F050C081E08093AF028FEF8093D4
:1012B000AE022FB7F89480910C0290910D0290939A
:1012C000FF018093FE0180910E0290910F02909396
:1012D000010280930002809110029091110290937C
:1012E0000302809302028091120290911302909364
:1012F000050280930402809114029091150290934C
:101300000702809306028091160290911702909333
:10131000090280930802809118029091190290931B
:101320000B0280930A0280916F00826080936F00AD
:10133000B19A8091840090918500049690938900E1
:10134000809388002FBF0895FC0181E08183808312
:1013500085E08283168215821086178208959C018B
:1013600044E0813B940714F490E00DC08451954013
:101370008159914010F491E006C02850374014F490
:101380009FEF06C092E0662319F082E0891B982F38
:10139000892F0895CF93DF93EC018A818B8380910D
:1013A000E2019091E3016D810E94AF0987FF88837C
:1013B0008091E6019091E7016E810E94AF0987FF5D
:1013C00089838F81882351F48881882329F0823092
:1013D00029F481E08D83188281E08F8388858823BA
:1013E00061F48981882319F0823039F404C081E0E6
:1013F0008E8382E0898381E0888738813F5F89819D
:1014000023E08202C0011124380F3A839B8180E0DF
:10141000391729F081E09295907F932B9C83DF917F
:10142000CF910895282F30E03F6F220F331FEFB781
:10143000F8948091840090918500AC01405C5F4FEE
:10144000BC016D5D7A4F8091840090918500DA0136
:10145000A81BB90B1A161B06B4F320FF02C057983D
:1014600001C0579A4617570729F0369527954557D3
:101470005F4FE9CFEFBF0895EFB7F8944F9B49C096
:1014800016C020918400309185002058314C04C052
:101490008FEF9FEF4F9B0BC0809184009091850050
:1014A000B901681B790B1616170614F4F1CFAC01BD
:1014B00041505040CA0101961816190614F34F5FA7
:1014C0005F4F19F420E030E826C0809184009091AD
:1014D0008500AC0140565F4F20E030E0BC0163590D
:1014E0007B4F8091840090918500DA01A81BB90B95
:1014F0001A161B06B4F389B13695279590E08078CB
:101500009070282B392B4617570729F045575F4F06
:10151000E8CF20E030E4EFBFC9010895EF92FF92D9
:101520000F931F93CF93DF93E82E192F062FF62EDC
:1015300084E20E94120A802F0E94120A2E2D312F5F
:10154000C901EC0104C08991F80E0E94120A9E01A3
:101550002E192017C4F38F2D81950E94120ACDB742
:10156000DEB7E6E00C94861B8F929F92AF92BF92FB
:10157000CF92DF92FF920F931F93CF93DF934C0193
:101580005A01C0E0D0E0C62EDD24C7FCD09402C0D2
:10159000812F182FC5010E943C0A9C018070907C0D
:1015A000892B69F5822FC130D10559F0C230D105A0
:1015B000A1F0209779F7243259F7812FC1E0D0E0CC
:1015C000E8CF90E0C816D90614F4812F15C0822FF9
:1015D000F22EC2E0D0E000E0DCCFF20E812F81508D
:1015E000112331F0F401E00FF11D20830F5FD1CF03
:1015F000FF2011F481E004C0C0E0D0E0CACF80E059
:10160000DF91CF911F910F91FF90DF90CF90BF900E
:10161000AF909F908F900895A0E0B0E0E2E1FBE0F2
:101620000C94681B00E0CCEDD5E02EC110920203B3
:101630002093FE023093FF02409300035093010376
:1016400080910203882319F41F3009F058C1E82F54
:10165000FF27E7FDF095EB51FD4F10838F5F8093DF
:10166000020389310CF410C18091FD02882311F02E
:1016700010920203E0918602F09187024091E70206
:1016800050E0942F88272091E60230E0822B932BA4
:1016900097709695879583519C4F91838083E091B5
:1016A0008802F09189022091E80230E0C90165E0EA
:1016B000880F991F6A95E1F703E0569547950A95BB
:1016C000E1F7842B952B97709695879583519C4FC6
:1016D00091838083E0918A02F0918B024091EA022B
:1016E00050E08091E90290E0880F991F880F991FC0
:1016F00076E0369527957A95E1F7822B932B9A0120
:10170000322F2227330F330F822B932B977096950E
:10171000879583519C4F91838083E0918C02F09157
:101720008D022091EB0230E0C9019695982F882711
:101730009795879556954795842B952B97709695F9
:10174000879583519C4F91838083E0918E02F09125
:101750008F024091EC0250E0CA0174E0880F991F9B
:101760007A95E1F764E0369527956A95E1F7822B43
:10177000932B97709695879583519C4F9183808387
:10178000E0919002F09191026091EE0270E0809100
:10179000ED0290E0880F991F440F452F441F550B11
:1017A0005195842B952B9B01322F2227330F822BAF
:1017B000932B97709695879583519C4F9183808347
:1017C000E0919202F09193022091EF0230E0C90182
:1017D00006E0880F991F0A95E1F77695679576954B
:1017E0006795862B972B97709695879583519C4F7D
:1017F00091838083E0919402F09195028091F002B0
:1018000090E073E0880F991F7A95E1F765E03695CF
:1018100027956A95E1F7822B932B969587958351AF
:101820009C4F91838083A6E8B2E0ED91FC911197E3
:10183000808191818C5D95408CF420813181808103
:101840009181AE01481B590BCA01959587959595D5
:101850008795281B390B318320830EC0208131816D
:10186000808191818C5D954095958795959587951B
:10187000820F931F91838083129652E0A639B50799
:10188000A1F61092020301E0E0917F01F091800146
:10189000A081B18114962D913C911597CF01F9014A
:1018A0000995892B61F180910203893144F5A0915A
:1018B0007F01B0918001ED91FC9111970680F78135
:1018C000E02DCD010995182F0E94B6009B01AC01B7
:1018D0008091FE029091FF02A0910003B09101035C
:1018E00069017A01C81AD90AEA0AFB0AD701C601B6
:1018F00089589341A040B0400CF098CE99CE802FEB
:10190000CDB7DEB7E8E00C94841B80917F01909105
:10191000800140EA56E861E070E02EE20E94E117A3
:1019200008951F93CF93DF93EC01142F44E450E00C
:101930000E949B1B8881811711F08FEF12C090E0ED
:1019400020E030E0FE01E20FF31F8081980F2F5F4F
:101950003F4F24343105B1F7992311F480E001C0E1
:101960008EEFDF91CF911F910895DC0190E020E090
:1019700030E0FD01E20FF31F8081980F2F5F3F4F92
:1019800023343105B1F7AD5BBF4F91959C93A354C0
:10199000B040CD0144E450E00E94AB1B0895A1E1AA
:1019A000B0E0E5EDFCE00C945E1B1C0181E0898356
:1019B00081E492E09B838A8302969D838C830D96BB
:1019C0009F838E8302969987888702969B878A8752
:1019D00002969D878C8702969F878E87CE010196FF
:1019E000998B888BD0904102DD0CCC246624EE24A8
:1019F000FF248701F0E88F2EFAE19F2EF6E0AF2E4C
:101A0000B12CE2E07E2E2C010E94B6009B01AC01BD
:101A1000DC01CB018E199F09A00BB10B881699062A
:101A2000AA06BB060CF051C0171424F5872D992780
:101A300087FD9095FC01E170F07080FD03C088E0A7
:101A400097E002C08CED95E090930F0280930E0218
:101A50008CED95E090930D0280930C02EE0FFF1F2A
:101A6000EE0FFF1FE055FE4F80809180A280B38073
:101A70007A9429C0DD2039F11D1424F46CE271E060
:101A8000A1E003C064ED7EEFAFEF8D2D992787FDB8
:101A90009095FC01E170F07080FF03C08CED95E043
:101AA00003C0CB0184529A4F90930D0280930C0295
:101AB000EE0FFF1FEE0FFF1FE055FE4F808091805D
:101AC000A280B380DA1A79018A010E940C0B882364
:101AD00019F091E09093AD028091AD02882329F036
:101AE0001092AD020E943B0602C0662041F0809138
:101AF000AF02882309F08CC00E944E09662477202B
:101B000009F082CFC1010E94CA09882309F47CCF61
:101B1000F1018481843561F0853520F4823509F046
:101B200063C013C0863559F0883509F05DC02AC0FE
:101B3000F1E0FC1514F0CC2470C0CA946EC085E0AE
:101B40008C150CF468C0C39468C0AC2DBB27A7FDEE
:101B5000B095FD01EE0FFF1FE40DF51D0180F28130
:101B6000E02D8081282F332727FD30952F5F3F4FB1
:101B7000A854BE4F8C91992787FD909582179307A3
:101B8000F4F41CC0AC2DBB27A7FDB095FD01EE0FF2
:101B9000FF1FE40DF51D0180F281E02D8081282FCB
:101BA000332727FD309521503040A054BE4F8C91F3
:101BB000992787FD9095281739070CF49C012083FD
:101BC00020E08C2D992787FD9095FC01EE0FFF1FDB
:101BD000E40DF51D0180F281E02DD080DD0C222383
:101BE00019F00196782E770C8981823009F00CCF9C
:101BF00080E492E060E070E00E94B50C80E492E046
:101C000060E071E00E94B50C6196E2E10C947A1BF1
:101C10006624639474CFB7E0CB2E21E0D2CFA1E944
:101C2000B0E0E5E1FEE00C945E1B0E94B6001B01F3
:101C30002C01DE011196E2E9F1E086E001900D92BF
:101C40008150E1F78E010D5E1F4FC8010E94A4096B
:101C50009CE1E92EF12CEC0EFD1EC70164E00E9410
:101C6000BA0489E4C82ED12CCC0EDD1EC60163E077
:101C70000E94BA042092E1023092E2024092E30212
:101C80005092E402C657DF4F288239824A825B8233
:101C9000CA58D040CA57DF4F288239824A825B82B5
:101CA000C658D040CE57DF4F288239824A825B82A5
:101CB000C258D04042013101C258DF4F28823982D8
:101CC0004A825B82CE57D040EB962CAE3DAE4EAEF4
:101CD0005FAEEB97EE961FAEEE97ED961FAEED97CB
:101CE00021E0EC962FAFEC97C257DF4FE882CE5839
:101CF000D040C157DF4FF882CF58D040C057DF4F98
:101D00000883C059D040CF56DF4F1883C159D04007
:101D10000E94B6005B016C010E942B010E940C0B1B
:101D2000882319F031E03093AD028091AD02882311
:101D3000A1F4D601C501C657DF4F488159816A8198
:101D40007B81CA58D040841B950BA60BB70B8153DF
:101D50009547A040B0400CF442C01092AD020E94E2
:101D60003B068C8D882369F0C657DF4FA882B98265
:101D7000CA82DB82CA58D04061E0EE966FAFEE9720
:101D80002EC0C257DF4F8881CE58D040C157DF4F99
:101D90009881CF58D0400E948F052A968FAD2A9700
:101DA000882311F492E001C090E020E08C8D88231C
:101DB00009F421E0920F9093A00288EC90E09093B8
:101DC000A6028093A502C657DF4FA882B982CA82B5
:101DD000DB82CA58D04091E0EE969FAFEE9780919B
:101DE000AF02882379F5EE96AFADEE97AA2351F1B5
:101DF000A6019501CA57DF4F688179818A819B814D
:101E0000C658D040261B370B480B590B80919802BF
:101E100090919902A0919A02B0919B028217930728
:101E2000A407B5077CF40E94D8080E944E09CA573F
:101E3000DF4FA882B982CA82DB82C658D040EE96B4
:101E40001FAEEE97D601C501CE57DF4F28813981ED
:101E50004A815B81C258D040821B930BA40BB50B07
:101E600081519742A040B04054F10E945C042A96F0
:101E70008FAD2A978823D9F4CE01875B9F4F0E94AC
:101E8000EB052A968FAD2A97882311F492E001C0C2
:101E900090E020E08C8D882309F421E0920F90934C
:101EA000A00248EC50E05093A6024093A502CE5702
:101EB000DF4FA882B982CA82DB82C258D040EC963A
:101EC0005FADEC97552309F456C0C057DF4F8881AA
:101ED000C059D040CF56DF4F9881C159D0400E94A1
:101EE000CA09882309F447C0ED966FADED97E62F38
:101EF000FF27E7FDF095E757FE4F9F8980819817F0
:101F000021F0ED961FAEED9707C0ED967FADED97F2
:101F10007F5FED967FAFED97ED968FADED97E82F54
:101F2000FF27E7FDF095E757FE4F80818F3F81F453
:101F3000CE0143960E94CF0C2EE088E190E00FB6D0
:101F4000F894A895809360000FBE20936000FFCFA7
:101F5000D601C50182199309A409B509815C914E86
:101F6000A44EB04024F0EC961FAEEC9704C0F1E014
:101F7000EC96FFAFEC978C8D882329F02A968FADD5
:101F80002A978823C9F58091E4019091E501209179
:101F9000E2013091E301820F931F209119013091EA
:101FA0001A01821B930B2091130130911401821BA3
:101FB000930B959587959093F3018093F20180910F
:101FC000E6019091E7012091150130911601821BE5
:101FD000930B9093F5018093F4018091E801909127
:101FE000E9012091170130911801821B930B909306
:101FF000F7018093F6018CCED601C50186199709A9
:10200000A809B90981519742A040B0400CF41EC301
:1020100080919602909197028130910559F48091B8
:10202000EA019091EB01865F95400CF09BC080E047
:1020300090E00DC0892B09F095C08091EA01909144
:10204000EB01875296400CF48DC081E090E09093B4
:10205000970280939602892B11F084E001C080E002
:102060008093A00268EC70E07093A6026093A502D2
:102070001092C2021092C3021092C4021092C502C2
:102080001092CE021092CF021092D0021092D10282
:102090001092C6021092C7021092C8021092C90292
:1020A0001092D2021092D3021092D4021092D50252
:1020B0001092CA021092CB021092CC021092CD0262
:1020C0001092D6021092D7021092D8021092D90222
:1020D0008091580290915902029709F043C0D601AD
:1020E000C501EB962CAD3DAD4EAD5FADEB97821BC0
:1020F000930BA40BB50B8152914AA740B0401CF042
:10210000E7961FAEE797E7964FADE7974F5FE796E5
:102110004FAFE797433004F18091E2019091E301E2
:1021200090931401809313018091E6019091E7014F
:1021300090931601809315018091E8019091E90137
:1021400090931801809317018091E4019091E5012B
:1021500090931A0180931901EB96ACAEBDAECEAE52
:10216000DFAEEB972091E4013091E5018091E2012F
:102170009091E301280F391F8091190190911A0164
:10218000281B390B8091130190911401281B390BE6
:10219000359527953093F3012093F2014091E601A4
:1021A0005091E7018091150190911601481B590B40
:1021B0005093F5014093F401E091E801F091E901B9
:1021C0008091170190911801E81BF90BF093F7012A
:1021D000E093F601809152028150682F772767FDC6
:1021E0007095C90137FF04C088279927821B930B7C
:1021F000062E02C0880F991F0A94E2F7A1E08139E8
:102200009A0714F080E991E0A0E9B1E0A81BB90BAE
:10221000B887AF83CA0157FF04C088279927841B5A
:10222000950B062E02C0880F991F0A94E2F7B1E0C1
:1022300081399B0714F080E991E0A0E9B1E0A81B87
:10224000B90BBA87A987CF01F7FF04C08827992760
:102250008E1B9F0BDC0102C0AA0FBB1F6A95E2F721
:10226000BD01B1E061397B0714F060E971E0A0E9DC
:102270006A2EA1E07A2E661A770A7C866B86809198
:10228000EA019091EB0165E0833C96074CF403EC86
:1022900015E0081B190B71E00139170794F00BC00A
:1022A000A6E088329A071CF400E010E00AC0B7E00C
:1022B00086389B071CF000E911E003C08C01055F24
:1022C0001540809096029090970261E086169104E6
:1022D00059F08114910409F04FC0809156029091F9
:1022E0005702029709F048C080915402082E02C09C
:1022F000220F331F0A94E2F73E872D87082E02C073
:10230000440F551F0A94E2F7588B4F87AF0102C064
:10231000440F551F8A95E2F75A8B498B89819A8120
:1023200097FD05C088279927821B930B01C0C9011F
:102330009093B1028093B0028B819C812F85388964
:1023400097FD05C088279927821B930B01C0C901FF
:102350009093B3028093B2028D819E8197FD03C05A
:10236000509541955F4F5093B5024093B40271E090
:102370008716910471F055C01092B1021092B0020C
:102380001092B3021092B2021092B5021092B402EF
:1023900048C06F817885882777FD8095982F24EF36
:1023A0003FEB40E050E00E94021BF9E095958795D5
:1023B00077956795FA95D1F76093CE027093CF0227
:1023C0008093D0029093D10269857A85882777FD22
:1023D0008095982F0E94021BE9E095958795779547
:1023E0006795EA95D1F76093D2027093D3028093F8
:1023F000D4029093D502B301882777FD8095982F5A
:102400000E94021B39E095958795779567953A95D7
:10241000D1F76093D6027093D7028093D80290933D
:10242000D902209120023091210280911A029091CC
:102430001B02281B390B80E22030380714F02FEFE5
:102440003FE1C901A0EE20303A0714F480E090EE9D
:102450009093B7028093B60220912202309123021A
:1024600080911C0290911D02281B390BB0E2203094
:102470003B0714F02FEF3FE1C901E0EE20303E07AB
:1024800014F480E090EE9093B9028093B80220910A
:1024900024023091250280911E0290911F02281B78
:1024A000390BF0E220303F0714F02FEF3FE1C90174
:1024B00020EE8030920714F480E090EE9093BB02FF
:1024C0008093BA02892819F060E772E002C06DE5D6
:1024D00072E080EB92E00E94A403EE24FF24380116
:1024E000882477FC8094982C87010A5D1D4FE1E0D9
:1024F000F0E0EC0FFD1FEE0DFF1D6081718188275C
:1025000077FD8095982FF701E055FD4F22A533A563
:10251000442737FD4095542F0E94021B27E09595D4
:102520008795779567952A95D1F7E7E0F0E0EC0F6E
:10253000FD1FEE0DFF1D20813181442737FD4095A1
:10254000542F0E94021B9B01AC01B9E055954795A1
:1025500037952795BA95D1F7C401B3010E94021BA4
:10256000A9E09595879577956795AA95D1F7D801B4
:102570006D937C93E2E0F0E0EE0EFF1EF6E0EF16C6
:10258000F10409F0B1CF2091E00212160CF05CC00A
:102590008091E1029091E202A091E302B091E40205
:1025A000B601A501481B590B6A0B7B0BDB01CA0165
:1025B00081549D40A340B0405CF021502093E00244
:1025C000A092E102B092E202C092E302D092E40251
:1025D0008091E002992787FD9095409126025091C5
:1025E0002702BC016170707080FF03C026E930E0F3
:1025F00002C02AE63FEF240F351F309327022093B5
:10260000260240912802509129026115710519F0A6
:1026100026E930E002C02AE63FEF240F351F309351
:1026200029022093280220912A0230912B02672B45
:1026300019F48AE69FEF02C086E990E0820F931FAB
:1026400090932B0280932A0235014601D601C501E1
:10265000C258DF4F288139814A815B81CE57D040F3
:10266000821B930BA40BB50B8C59914AA740B04029
:102670000CF44ECB80915A02803839F480910001DD
:10268000282F30E02058304004C0282F332727FD62
:10269000309580915B02803839F480910101482F98
:1026A00050E04058504004C0482F552747FD5095F2
:1026B00080915C02803831F48091020190E0805872
:1026C000904003C0992787FD90953A8329835C83C6
:1026D0004B839E838D83295F3F4F2F30310510F44C
:1026E0001A8219828B819C8107960F9710F41C82A5
:1026F0001B828D819E8107960F9710F41E821D828A
:1027000080E00E94A702C258DF4FA882B982CA8225
:10271000DB82CE57D040FCCAA5E6B0E0E2E9F3E1A7
:102720000C94681B1092800081E080938100579880
:102730005F9848E552E000E06E010894C11CD11C8E
:1027400022E0E22EF12CEC0EFD1EC60165E60E9491
:10275000B40A882309F441C089818230A9F083300A
:1027600018F4813029F406C08330B1F08430E9F0E8
:1027700010E026C0C70160E870E048E050E00E9429
:102780009B1B10E069E01DC0C70160E870E048E0F5
:1027900050E00E94AB1B13C0C70160E070E04AE04C
:1027A0000E94910C10E065E40CC0C70160E070E08D
:1027B0000E94B50CC70160E071E00E94B50C11E009
:1027C00061E0898180688983C6010E948E0A01E0E8
:1027D00044EF51E0112309F4B8CF802FCB59DF4FDC
:1027E000E8E00C94841BCF93DF93C0E0D0E0FE01BF
:1027F000E958FE4F808187FD04C0808161E00E941E
:10280000631A2196C830D10591F7DF91CF910895D1
:102810001F920F920FB60F9211240F931F932F93B5
:102820003F934F935F936F937F938F939F93AF9358
:10283000BF93EF93FF938091AE0287FD42C0E0917A
:10284000AE02FF27E7FDF095E958FE4F808160E07A
:102850000E94CF1A36C08091AE028F5F8093AE0285
:10286000E091AE02FF27E7FDF095E958FE4F808129
:1028700087FD27C00091840010918500E091AE0291
:10288000FF27E7FDF095E958FE4F808161E00E9447
:10289000CF1AE091AE02FF27E7FDF095EE0FFF1F84
:1028A000E55DFE4F0190F081E02D808191810297DE
:1028B000880F991F800F911F909389008093880043
:1028C0000BC08091AE02873034F21092AF0280913B
:1028D0006F008D7F80936F00FF91EF91BF91AF915B
:1028E0009F918F917F916F915F914F913F912F9128
:1028F0001F910F910F900FBE0F901F901895A0E0A1
:10290000B0E0E5E8F4E10C94681B182F062F862F41
:1029100061E00E94631A812F60E00E94631A812F98
:1029200061E00E94CF1A6AE070E080E090E00E94CF
:10293000F600C0E0D0E0812F992787FD9095FC013B
:10294000EA56FF4FE491F0E0EE0FFF1FE457FF4F10
:10295000C590D49086559F4FFC018491E82EFF24AA
:10296000CE018170182F802F612F0E94CF1AF6019F
:10297000808120E030E090E08E219F21892B11F0B2
:1029800021E030E0812F992787FD9095281739079E
:1029900011F010E005C02196C830D10509F711E00B
:1029A000802F60E00E94631A812FCDB7DEB7E8E088
:1029B0000C94841BA2E9B0E0E0EEF4E10C94681BF7
:1029C000259A8091BC039091BD03009711F09C0162
:1029D00002C020EC33E0CE010196821B930B8038BD
:1029E00091054CF484E18093A1028EE190E09093F4
:1029F000A8028093A70284B7877F84BF88E10FB6BF
:102A0000F89480936000109260000FBE21E030E0E7
:102A1000309342022093410280E880935A028093CF
:102A20005B0280935C02309344022093430284E172
:102A300080934502E8E9F1E0A6E4CA2EA2E0DA2E8E
:102A4000D60181918D9321E0E03AF207D1F742E07F
:102A500050E050934F0240934E0221E030E030931B
:102A6000510220935002309353022093520283E08C
:102A700090E0909355028093540230935702209334
:102A80005602509359024093580284EF91E090937C
:102A90005E0280935D021092640210926302909332
:102AA0006A02809369029093600280935F021092A1
:102AB00066021092650290936C0280936B02909371
:102AC00062028093610210926802109267029093F2
:102AD0006E0280936D0228E020936F029093710242
:102AE00080937002909377028093760290937D0298
:102AF00080937C0290937302809372029093790288
:102B00008093780290937F0280937E029093750267
:102B10008093740290937B0280937A029093810257
:102B2000809380022093820285E064E00E947F14FB
:102B3000882311F400E001C007E0CE01039660E8AD
:102B400070E048E050E00E949B1B002361F48B8101
:102B5000823049F48C819D81AE81BF818E54914633
:102B6000AC4BB04071F082E08B838EE491E6ACEB2D
:102B7000B0E08C839D83AE83BF83188619861A8646
:102B80000860CE010B9660E070E04AE00E94910C74
:102B900087FD0260CE01815B9F4F60E071E04AE0FB
:102BA0000E94910C87FD046083E08093E002E02E98
:102BB000FF24C701867090708230910531F0843017
:102BC000910579F0892B81F119C08E01015B1F4FAE
:102BD000C80160E070E00E94B50C88858F5F88872F
:102BE0000BC08E01055F1F4FC80160E071E00E94BD
:102BF000B50C89858F5F8987C80118C08AE08093EA
:102C0000400280E492E060E070E00E94B50C80E455
:102C100092E060E071E00E94B50C8A858F5F8A8740
:102C200089E08093E0020AC0CE010B96A0E4B2E0F6
:102C3000FC0184E401900D928150E1F7C7018E7090
:102C40009070892B41F0CE01039660E870E048E077
:102C500050E00E94AB1BE0FE0AC082E00E941E0111
:102C600064E670E080E090E00E94041AF6CF0E94D3
:102C70008C13882361F02EE088E190E00FB6F89481
:102C8000A895809360000FBE20936000FFCF109244
:102C9000800082E08093810081E080936F0085B5A1
:102CA000887F85BD0E94850C8091430290914402EB
:102CB0008230910519F18330910524F4019709F0D0
:102CC0005BC007C08330910571F1049709F054C0CF
:102CD0003FC080E090E048EE53E020ED37E0FC019B
:102CE000E45DFD4F51834083FC01EA5CFD4F31837D
:102CF000208302968A30910591F73EC080E090E0F3
:102D00004CE454E02CE637E0FC01E45DFD4F5183D8
:102D10004083FC01EA5CFD4F3183208302968A30B8
:102D2000910591F729C080E090E042EE54E026ED55
:102D300036E0FC01E45DFD4F51834083FC01EA5C19
:102D4000FD4F3183208302968A30910591F714C09C
:102D500080E090E044E853E024E338E0FC01E45DE7
:102D6000FD4F51834083FC01EA5CFD4F318320839A
:102D700002968A30910591F780914502992787FD47
:102D8000909528EE33E0FC01E29FC001E39F900D97
:102D9000F29F900D1124AA2797FDA095BA2F80933A
:102DA000980290939902A0939A02B0939B02A6E88E
:102DB000B2E0F60181916F01E82FFF27E7FDF09562
:102DC000EE0FFF1FE55EFE4F808191818D939D93F5
:102DD000FEE4CF16F2E0DF0661F720E030E0F90113
:102DE000EF57FE4F8081F901E958FE4F80832F5F36
:102DF0003F4F2830310599F70E9447030E94600336
:102E000080914102909142029093850280938402C6
:102E1000019741F58091F901882319F4E4E0F0E08D
:102E200002C0E0E0F0E08091FB01882319F442E069
:102E300050E002C040E050E020E030E08091FC0132
:102E4000882311F421E030E0E22BF32BE42BF52B67
:102E5000EE0FFF1FE056FE4F808191819093850217
:102E6000809384028091840290918502019731F4CD
:102E700082E090E0909385028093840280918402A6
:102E800080939F0288E592E09093A4028093A3022E
:102E90000E94F7020E94F3130E94A5040E943B06C1
:102EA0000E94D808CE56DF4FE8E00C94841B0895AA
:102EB0001F920F920FB60F9211242F933F934F93AF
:102EC0008F939F93EF93FF938091C00082FD1DC06D
:102ED0004091C6002091490330914A032F5F3F4F34
:102EE0002F73307080914B0390914C032817390752
:102EF00071F0E0914903F0914A03E75FFC4F408392
:102F000030934A032093490302C08091C600FF9189
:102F1000EF919F918F914F913F912F910F900FBE05
:102F20000F901F901895E0919D03F0919E03E05C37
:102F3000FF4F8191919120813181821B930B8F737F
:102F40009070892B11F00E94571708951F920F92CD
:102F50000FB60F9211242F933F938F939F93EF936C
:102F6000FF9320918D0330918E0380918F03909178
:102F700090032817390731F48091C1008F7D809329
:102F8000C10014C0E0918F03F0919003E35BFC4F0C
:102F9000208180918F039091900301968F739070A0
:102FA0009093900380938F032093C600FF91EF913D
:102FB0009F918F913F912F910F900FBE0F901F9077
:102FC0001895A0E0B0E0E7EEF7E10C94661BEC0189
:102FD0007A018B01C22EDD24403081EE580780E05B
:102FE000680780E0780711F0DD24D39471E0A72E04
:102FF000B12CEC89FD89DD2069F0C50108A002C073
:10300000880F991F0A94E2F7808360E079E08DE3EE
:1030100090E005C0108260E874E88EE190E0A801BD
:1030200097010E94211B215030404040504056954E
:1030300047953795279580E12030380720F0DD202F
:1030400011F0DD24D6CFE889F9893083EA89FB893C
:103050002083E88DF98DC082EE89FF89408121E0CF
:1030600030E0C9010C8C02C0880F991F0A94E2F766
:10307000482B4083EE89FF894081C9010D8C02C035
:10308000880F991F0A94E2F7482B4083EE89FF8945
:103090004081C9010E8C02C0880F991F0A94E2F783
:1030A000482B4083EE89FF8980810F8C02C0220F5C
:1030B000331F0A94E2F7209528232083CDB7DEB78B
:1030C000EAE00C94821BDC011C96ED91FC911D97AB
:1030D000E05CFF4F2191319180819181281B390B58
:1030E0002F733070C9010895DC011C96ED91FC919D
:1030F0001D97E05CFF4F20813181E054F040DF01FB
:10310000AE5BBF4F8D919C9111972817390719F429
:103110002FEF3FEF07C08D919C91E80FF91F808141
:10312000282F30E0C9010895DC011C96ED91FC9137
:103130001D97E05CFF4F20813181E054F040DF01BA
:10314000AE5BBF4F8D919C9111972817390719F4E9
:103150002FEF3FEF10C08D919C911197E80FF91F51
:1031600020818D919C91119701968F73907011968B
:103170009C938E9330E0C9010895DC0191968C9167
:103180009197882339F05496ED91FC915597808161
:1031900086FFF9CF91961C920895CF93DF93EC01AF
:1031A000EE85FF85E05CFF4F20813181E054F040E7
:1031B0002F5F3F4F2F733070DF01AE5BBF4F8D919C
:1031C0009C91119728173907D1F3E05CFF4F80815C
:1031D0009181E054F040E80FF91F6083EE85FF8590
:1031E000E05CFF4F31832083EE89FF89208181E0FD
:1031F00090E00F8C02C0880F991F0A94E2F7282BE9
:10320000208381E089A3EC89FD89808180648083AB
:1032100081E090E0DF91CF91089510929403109295
:10322000930388EE93E0A0E0B0E080939503909341
:103230009603A0939703B093980386ED91E0909343
:1032400092038093910389E093E090939E0380938F
:103250009D038DE493E09093A00380939F0385ECFE
:1032600090E09093A2038093A10384EC90E090936C
:10327000A4038093A30380EC90E09093A603809333
:10328000A50381EC90E09093A8038093A70382ECC0
:1032900090E09093AA038093A90386EC90E090932A
:1032A000AC038093AB0384E08093AD0383E0809311
:1032B000AE0387E08093AF0385E08093B00381E0A5
:1032C0008093B1030895CF93DF930E94281A0E9440
:1032D000DA14C3E9D7E10E940F0E2097E1F30E94B0
:1032E0009317F9CFA0E0B0E0E8E7F9E10C94681B90
:1032F0007C016B018A01C0E0D0E00FC0D6016D9166
:103300006D01D701ED91FC910190F081E02DC70195
:103310000995C80FD91F015010400115110571F70B
:10332000CE01CDB7DEB7E8E00C94841B1F920F925C
:103330000FB60F9211242F933F938F939F93AF93C8
:10334000BF938091B7039091B803A091B903B09156
:10335000BA033091BB030196A11DB11D232F2D5F30
:103360002D3720F02D570196A11DB11D2093BB03D1
:103370008093B7039093B803A093B903B093BA03B3
:103380008091B3039091B403A091B503B091B603BB
:103390000196A11DB11D8093B3039093B403A09334
:1033A000B503B093B603BF91AF919F918F913F91B9
:1033B0002F910F900FBE0F901F9018959FB7F89404
:1033C0002091B3033091B4034091B5035091B603FB
:1033D00086B5A89B06C08F3F21F02F5F3F4F4F4F10
:1033E0005F4F9FBF542F432F322F2227280F311DAD
:1033F000411D511D82E0220F331F441F551F8A9526
:10340000D1F7B901CA010895EF92FF920F931F936C
:10341000CF93DF937B018C010E94DE19EB010EC07C
:103420000E94DE196C1B7D0B685E7340C8F3089424
:10343000E108F10801091109C851DC4FE114F10458
:103440000105110569F7CDB7DEB7E6E00C94861BE0
:10345000789484B5826084BD84B5816084BD85B56F
:10346000826085BD85B5816085BDEEE6F0E0808136
:1034700081608083E1E8F0E0108280818260808357
:10348000808181608083E0E8F0E0808181608083DA
:10349000E1EBF0E0808184608083E0EBF0E080810C
:1034A00081608083EAE7F0E08081846080838081AE
:1034B0008260808380818160808380818068808356
:1034C0001092C1000895CF93DF93482F50E0CA01B6
:1034D00086559F4FFC0134914A565F4FFA01849103
:1034E000882369F190E0880F991FFC01E858FF4F8D
:1034F000A591B491FC01EE57FF4FC591D49166237D
:1035000051F42FB7F8948C91932F909589238C9335
:10351000888189230BC0623061F42FB7F8948C91B5
:10352000932F909589238C938881832B88832FBF39
:1035300006C09FB7F8948C91832B8C939FBFDF912B
:10354000CF910895833071F0843028F48130A1F058
:10355000823021F514C08630B1F08730D1F084304C
:10356000E9F404C0809180008F7703C080918000CF
:103570008F7D80938000089584B58F7702C084B5D5
:103580008F7D84BD08958091B0008F778093B000C7
:1035900008958091B0008F7D8093B0000895FF92D0
:1035A0000F931F93F62E482F50E0CA0182549F4F6D
:1035B000FC012491CA0186559F4FFC0114914A5683
:1035C0005F4FFA0104910023C9F0222319F0822FE2
:1035D0000E94A21AE02FF0E0EE0FFF1FEE57FF4F00
:1035E000A591B4919FB7F894FF2021F48C91109588
:1035F000812302C08C91812B8C939FBF1F910F91CF
:10360000FF900895629FD001739FF001829FE00DAB
:10361000F11D649FE00DF11D929FF00D839FF00D51
:10362000749FF00D659FF00D9927729FB00DE11DFD
:10363000F91F639FB00DE11DF91FBD01CF011124DA
:103640000895A1E21A2EAA1BBB1BFD010DC0AA1FE3
:10365000BB1FEE1FFF1FA217B307E407F50720F0FB
:10366000A21BB30BE40BF50B661F771F881F991F76
:103670001A9469F760957095809590959B01AC01BF
:10368000BD01CF01089597FB092E05260ED057FDE9
:1036900004D0D7DF0AD0001C38F4509540953095FF
:1036A00021953F4F4F4F5F4F0895F6F790958095C6
:1036B000709561957F4F8F4F9F4F08952F923F9246
:1036C0004F925F926F927F928F929F92AF92BF9232
:1036D000CF92DF92EF92FF920F931F93CF93DF93DE
:1036E000CDB7DEB7CA1BDB0B0FB6F894DEBF0FBE3B
:1036F000CDBF09942A88398848885F846E847D8488
:103700008C849B84AA84B984C884DF80EE80FD8089
:103710000C811B81AA81B981CE0FD11D0FB6F894FF
:10372000DEBF0FBECDBFED010895EE0FFF1F059068
:10373000F491E02D0994DC01CB01FC01F999FECF55
:1037400006C0F2BDE1BDF89A319600B40D92415029
:103750005040B8F70895DC01CB0103C02D910E94C1
:10376000B61B41505040D0F70895262FF999FECF4F
:103770001FBA92BD81BD20BD0FB6F894FA9AF99A8E
:0A3780000FBE01960895F894FFCFE4
:10378A00FFFFFFDC05DC05DC05DC05E803DC05E8FA
:10379A0003DC05DC05DC05DC05DC05070105010F9A
:1037AA000103010B0109010D0111010202000206C8
:1037BA0002FE01000004020A0208020000000101E0
:1037CA00010201000000000000000000000000FBF0
:1037DA0001000000000000FC0100000000000000E1
:1037EA0000000000000000FD01F801F901FA0100E3
:1037FA00000000000000000605FF04FF07FFFF911C
:10380A000306050A04FF070B0978899887788998BF
:10381A0087FF0000000000000301020004050607FC
:10382A000200030004000500080006000700020069
:10383A00A0860100801A060005030303040202029F
:10384A0001010101010101010C020E021002120222
:10385A00160200000000CD18721963189418741823
:02386A00BD1887
:00000001FF
