:100000000C9469000C9486000C9486000C94980360
:100010000C9486000C9422040C9486000C948600A8
:100020000C9486000C9486000C9486000C948B1122
:100030000C9486000C9488000C9486000C94860026
:100040000C94B5140C9486000C9486000C948600D5
:100050000C9486000C94B7020C9486000C948600D5
:100060000C9486000C9486002D084F0810092D086A
:100070004F0810095909C809000000002400270092
:100080002A0000000000250028002B0000000000CE
:1000900023002600290004040404040404040202CA
:1000A00002020202030303030303010204081020F7
:1000B0004080010204081020010204081020000002
:1000C0000007000201000003040600000000000019
:1000D000000011241FBECFEFD4E0DEBFCDBF11E082
:1000E000A0E0B1E0E8ECFDE202C005900D92A83876
:1000F000B107D9F712E0A8E8B1E001C01D92AE3D0A
:10010000B107E1F70E94A6140C94E2160C940000CB
:100110001F920F920FB60F9211248F939F9380918D
:100120002F029091300201969093300280932F021B
:1001300080912F0290913002892B29F48091310215
:100140008F5F809331029F918F910F900FBE0F9020
:100150001F901895609184007091850020912F0266
:1001600030913002E09131028091840090918500BD
:100170008627972797FDEECF80912F02909130022E
:100180002817390739F780913102E81719F740E04D
:1001900050E0FFE0220F331F441F551FFA95D1F79F
:1001A0008E2F90E0A0E0B0E0BB278695B795AA27F8
:1001B00099278827282B392B4A2B5B2B7695679517
:1001C000CB01A0E0B0E0282B392B4A2B5B2BB901E7
:1001D000CA010895AF92BF92CF92DF92EF92FF9241
:1001E0000F931F9328EE33E040E050E00E94211669
:1001F0005B016C010E94AA007B018C010E94AA0095
:100200006E197F09800B910B6A157B058C059D0586
:10021000A8F31F910F91FF90EF90DF90CF90BF90C8
:10022000AF900895882321F0813021F45B9A0895DE
:100230005B9808958BB198E089278BB90895EF9268
:10024000FF920F931F937B018C018091CB029091C1
:10025000CC02A091CD02B091CE028E199F09A00BC5
:10026000B10B181619061A061B060CF450C0809123
:10027000CF02882321F5E091D002EF5FE370E09395
:10028000D002FF27E7FDF095EE5CFD4F80819927B6
:1002900087FD9095880F991F8093CF0280E492E4A8
:1002A000AFE0B0E0E80EF91E0A1F1B1FE092CB0280
:1002B000F092CC020093CD021093CE0228C0815060
:1002C0008093CF0281700E941201E091D002FF273B
:1002D000E7FDF095EE0FFF1FEA5CFD4F80819181F5
:1002E000AA2797FDA095BA2F2AE0880F991FAA1F69
:1002F000BB1F2A95D1F78E0D9F1DA01FB11F8093A4
:10030000CB029093CC02A093CD02B093CE021F916A
:100310000F91FF90EF9008959A01AB01882311F09F
:10032000459A449A1092B90060E074E284EF90E03C
:100330000E9440162051304040405040569547950D
:10034000379527952093B80008952FEF30E011C01E
:100350002115310561F41092BC0080913E0290910C
:100360003F02019690933F0280933E0208952150F0
:1003700030408091BC0087FFEBCF0895FF920F9330
:100380001F93F82E0CEB10E084EAF80180830E94A2
:10039000A501F092BB0084E8F80180830E94A501CA
:1003A0001F910F91FF9008958093BB0084E8809384
:1003B000BC000E94A50108951F93182F882311F4F3
:1003C00084E801C084EC8093BC000E94A501909158
:1003D000BB00112319F484E98093BC00892F1F917D
:1003E00008950F931F93162F042F880F0E94BE01AC
:1003F000812F0E94D401802F0E94D40184E9809330
:10040000BC001F910F9108950F931F93182F062F73
:10041000880F0E94BE01802F0E94D401110F812FEE
:1004200081600E94BE0180E00E94DC011F910F915B
:1004300008951F93CF93DF93EB01142F880F8160F2
:100440000E94BE0108C0115080E011160CF481E03A
:100450000E94DC0189931123B1F7DF91CF911F91A5
:100460000895DF92EF92FF920F931F93E82EF62EDE
:100470008A01D22E880F0E94BE018F2D0E94D401C6
:100480008E2DB8014D2D0E9419021F910F91FF90E2
:10049000EF90DF90089589E66EE340E80E94F10155
:1004A00062E370E080E090E00E94EA0089E66EE39B
:1004B00043E00E94F10189E666E14EE10E94F1010C
:1004C00089E660E00E94040290E08E77883609F4A5
:1004D00091E0892F0895A6E0B0E0E1E7F2E00C9406
:1004E00087168C017B016A0189E66DE1AE014F5FE1
:1004F0005F4F26E00E943102998180E02A8130E03E
:10050000822B932BF801918380839B8180E02C8147
:1005100030E0822B932BF701918380839D8180E0D3
:100520002E8130E0822B932BF601918380832696D7
:10053000E8E00C94A316282F17C0E22FF0E0EE0F8E
:10054000FF1FE55DFE4F80819181892B61F08091D5
:100550007C00887F822B80937C0080917A0080646D
:1005600080937A0008952F5F263038F308951F9204
:100570000F920FB60F9211242F933F934F935F93D7
:100580006F937F938F939F93AF93BF93EF93FF935B
:1005900080917C008770E82FF0E0EE0FFF1FE55D93
:1005A000FE4F0190F081E02D9091790090838F5F54
:1005B0000E949B02FF91EF91BF91AF919F918F910C
:1005C0007F916F915F914F913F912F910F900FBE4F
:1005D0000F901F901895EBE2F1E040E050E061E0F1
:1005E00070E080819181892B79F087B1DB01042E45
:1005F00002C0AA0FBB1F0A94E2F79D012095822337
:1006000087B988B1282328B94F5F5F4F32964630AB
:10061000510539F780E680937C0010927B008FE8CB
:1006200080937A0080E00E949B020895CF93DF932D
:10063000EB01DA01FC0140E050E061E070E0808114
:100640009181892B79F03881CB01042E02C0880F6B
:10065000991F0A94E2F7282F2095232328832C91B1
:10066000822B8C934F5F5F4F32964830510539F79C
:10067000DF91CF91089580E492E064E270E045E27A
:1006800050E00E94160380E592E067E270E048E2E5
:1006900050E00E94160387E391E06AE270E04BE2CB
:1006A00050E00E941603089560E070E040E050E0E2
:1006B000A1E0B0E0362FFA01E05CFD4F0190F0813F
:1006C000E02D309751F023B1CD01062E02C0880FE6
:1006D000991F0A94E2F728232083FA01E05BFD4F7B
:1006E0000190F081E02D309751F026B1CD01032E1D
:1006F00002C0880F991F0A94E2F728232083FA0189
:10070000E95CFE4F0190F081E02D309749F029B16E
:10071000CD0102C0880F991F3A95E2F72823208364
:100720006F5F7F4F4E5F5F4F4031510519F608955F
:100730001F920F920FB60F921124AF92BF92CF92D9
:10074000DF92EF92FF920F931F932F933F934F935C
:100750005F936F937F938F939F93AF93BF93CF9349
:10076000DF93EF93FF9300918400109185008091B7
:10077000BA0293B19093BA027894292F28278095D2
:100780008923A7E4B1E0EBEBF2E060E070E0C22E79
:10079000DD24E82EFF2421E0CD91DC9111972097F4
:1007A00079F1C601062E02C0959587950A94E2F765
:1007B00080FF26C0C701062E02C0959587950A9432
:1007C000E2F780FF03C0118300831AC0808191810A
:1007D000A801481B590B569547958CE7A82E8CEF1E
:1007E000B82EA40EB51E81EBA81684E0B80640F41E
:1007F0005983488380917102681711F42093600235
:100800006F5F7F4F129632966830710529F6FF911F
:10081000EF91DF91CF91BF91AF919F918F917F9198
:100820006F915F914F913F912F911F910F91FF9089
:10083000EF90DF90CF90BF90AF900F900FBE0F90D2
:100840001F9018951F920F920FB60F921124CF92FE
:10085000DF92EF92FF920F931F932F933F934F934B
:100860005F936F937F938F939F93AF93BF93CF9338
:10087000DF93EF93FF93E0908400F09085008091E8
:10088000A90299B19093A9027894292F28278095DD
:100890008923A1E6B2E0EAEAF2E060E070E0C22E6D
:1008A000DD24082F10E0CD91DC911197209721F1E4
:1008B000C601062E02C0959587950A94E2F780FF3F
:1008C0001BC0C801062E02C0959587950A94E2F7D1
:1008D00080FF03C0F182E0820FC080819181A70177
:1008E000481B590B56954795CA0184589340815B24
:1008F000944010F4598348836F5F7F4F129632966D
:100900006830710581F6FF91EF91DF91CF91BF9132
:10091000AF919F918F917F916F915F914F913F9197
:100920002F911F910F91FF90EF90DF90CF900F903C
:100930000FBE0F901F901895809168008160809382
:100940006800E7E4F1E040E050E061E070E08081C1
:100950009181892BA1F020916B00CB01042E02C064
:10096000880F991F0A94E2F7282B20936B0034B16B
:10097000282F2095232324B925B1822B85B94F5FD9
:100980005F4F32964830510511F781E08093710234
:1009900080916800846080936800E1E6F2E040E0C6
:1009A00050E061E070E080819181892BA1F020917D
:1009B0006D00CB01042E02C0880F991F0A94E2F744
:1009C000282B20936D003AB1282F209523232AB994
:1009D0002BB1822B8BB94F5F5F4F32964830510558
:1009E00011F70895A6E0B0E0E8EFF4E00C947D166E
:1009F0007A8369831C012B019E838D839B012A5F6F
:100A00003F4F3C832B83ED81FE81068117818081DE
:100A10009181081B190B3801882477FC8094982C4D
:100A2000F10182899389A489B589860D971DA81D36
:100A3000B91D268D378D40A151A1AA24BB24650183
:100A4000A21AB30AC40AD50A8A159B05AC05BD05CE
:100A50004CF05C016D01281739074A075B0714F455
:100A600059016A01F101A28AB38AC48AD58AED814B
:100A7000FE8184859585AA2797FDA095BA2FA401AC
:100A80009301281B390B4A0B5B0BCA01B90115876F
:100A90000487F20124853585442737FD4095542F7E
:100AA0000E9421167B018C0152E015950795F79461
:100AB000E7945A95D1F7F20120813181442737FD1F
:100AC0004095542FC401B3010E94211643E095952F
:100AD0008795779567954A95D1F7E60EF71E081F1B
:100AE000191FF20126813781442737FD4095542F85
:100AF000C601B5010E94211636E095958795779538
:100B000067953A95D1F7E60EF71E081F191FE98180
:100B1000FA81028804C015950795F794E7940A9422
:100B2000D2F7ED81FE81F3A6E2A63296FE83ED8335
:100B300024E030E0220E331E42E050E0440E551E09
:100B40008B819C814816590609F05DCF2696E2E11B
:100B50000C949916A6E0B0E0E0EBF5E00C948D164D
:100B6000CE010196BE016D5F7F4FAE014B5F5F4FBF
:100B70000E946B028B819C819093C4018093C3017E
:100B800049815A815093C6014093C5012D813E8110
:100B90003093C8012093C7018091F3019091F40133
:100BA0008230910519F00397D1F40DC03093C6013E
:100BB0002093C50188279927841B950B9093C80122
:100BC0008093C7010CC088279927821B930B9093B1
:100BD000C6018093C5015093C8014093C701269672
:100BE000E2E00C94A91681E040E85AE166E070E08A
:100BF0000E948C010E944B02882349F485E0809377
:100C0000340288EC90E090933B0280933A0208957E
:100C10000F931F93CF93DF93FC011082772767FD1B
:100C2000709572836183DC01EC0140E050E00FEFCE
:100C30001FE760E070E80CC012961C930E931197AA
:100C40001A967C936E9319971F86188A198A1A8AA6
:100C50009A014F5F5F4F12962496818192812817E7
:100C6000390754F314A613A6DF91CF911F910F916A
:100C70000895A0E0B0E0EFE3F6E00C9485167C0167
:100C80008C01EB01F70160E070E02BC02181328123
:100C900088819981281739070CF4C90192838183CF
:100CA0002185328588819981821793070CF4C901C7
:100CB0009287818729913991442737FD4095542F98
:100CC000D8011F96AD90BD90CD90DC905297A20EAA
:100CD000B31EC41ED51E1F96AD92BD92CD92DC925E
:100CE00052979B016F5F7F4F32960C5F1F4FD7016A
:100CF00011968D919C911297281739073CF2CDB728
:100D0000DEB7EAE00C94A116A0E0B0E0EAE8F6E075
:100D10000C948716EC017C0163E2C62ED12CC80E20
:100D2000D91E00E010E011C02BA53CA5442737FDDB
:100D30004095542FF70167857089818992890E94B7
:100D40006216F601219331936F0198010F5F1F4FD7
:100D500084E090E0E80EF91E89819A81281739070E
:100D60001CF3CDB7DEB7E8E00C94A316CF93DF9366
:100D7000FC01EB0161817281A0E040E050E00DC018
:100D80008385948523813481821B930B8C179D0767
:100D90000CF4AF5F4F5F5F4F32964617570784F3EF
:100DA00020E08A2F992787FD90958617970709F4E9
:100DB00021E0822FDF91CF910895A8E0B0E0E3EE2B
:100DC000F6E00C948B168C0180918801909189013A
:100DD0009A83898380918C0190918D019C838B8370
:100DE00080918E0190918F019E838D8380918A01E5
:100DF00090918B0198878F83C801BE016F5F7F4FF1
:100E00000E943906F80183A594A5019694A783A7AB
:100E10008436910551F5C80164E170E00E94B60680
:100E20008823F9F0C8010E948406F80183A194A1E7
:100E3000909314018093130185A196A190931601BC
:100E40008093150187A190A59093180180931701B5
:100E500081A592A590931A018093190181E0808366
:100E600004C0C80164E00E9408062896E4E00C94DF
:100E7000A716A6E0B0E0EFE3F7E00C948B168C0128
:100E80008091C3019091C4019A8389838091C501A7
:100E90009091C6019C838B838091C7019091C8017A
:100EA0009E838D83C801BE016F5F7F4F0E9439060C
:100EB000F80183A594A5019694A783A78C5291402D
:100EC00021F5C80162E370E00E94B6068823C9F0EC
:100ED000C8010E948406F80183A194A19093BE01E9
:100EE0008093BD0185A196A19093C0018093BF011D
:100EF00087A190A59093C2018093C10181E0808376
:100F000004C0C80163E00E9408062696E4E00C9441
:100F1000A716209103013091040180910301909163
:100F200004012817390721F430938901209388019F
:100F300020910501309106018091050190910601F3
:100F40002817390721F430938D0120938C012091CB
:100F5000070130910801809107019091080128173D
:100F6000390721F430938F0120938E0120910B01DA
:100F700030910C0180910B0190910C0128173907D9
:100F800021F4309391012093900120910D01309133
:100F90000E0180910D0190910E012817390721F45F
:100FA000309393012093920120910F013091100111
:100FB00080910F01909110012817390721F4309387
:100FC000950120939401209111013091120180919B
:100FD0001101909112012817390721F430939701DC
:100FE00020939601809127029091280205974CF456
:100FF000809188019091890190938B0180938A015F
:1010000008952091090130910A0180910901909180
:101010000A012817390721F430938B0120938A01A4
:101020000895A0E0B0E0E7E1F8E00C948716DC0159
:10103000C0902702D0902802F6013297E830F105DF
:1010400008F0E3C1EC5CFF4F6D917C91119700912A
:101050008801109189010C94B416600F711F709370
:10106000B0016093AF018D919C91119720918A01FD
:1010700030918B01820F931F9093B6018093B5013D
:1010800012968D919C91139720918C0130918D0136
:10109000820F931F9093B2018093B101A8C1780190
:1010A000E60EF71EF092B001E092AF01E0918A01E6
:1010B000F0918B01CD91DC911197CE0FDF1FD09372
:1010C000B601C093B50140919801509199014452E5
:1010D0005A4F8D919C911197480F591F12966D91FF
:1010E0007C91139780918C0190918D01680F791FED
:1010F000CB01840F951F9C01359527953595279534
:101100003595279595958795280F391F2757314095
:101110003093B2012093B101461B570BCA0133E053
:10112000959587953A95E1F755954795840F951FC5
:1011300084529A4F9093B4018093B30120918E0111
:1011400030918F0146E0C416D10409F060C084E0FC
:10115000223E380774F029573540273C310518F0F6
:1011600082E090E002C081E090E0029709F04DC17A
:1011700021C08091190190911A01800F911F8E1B3F
:101180009F0B2091130130911401821B930B9595B5
:10119000879584529A4F9093B0018093AF018C5DF4
:1011A00095402CED35E0281B390B3093B601209388
:1011B000B5012BC12091020112966D917C9113977C
:1011C000E0919A01F0919B016E0F7F1F882777FDB8
:1011D0008095982F30E020583040442737FD4095C7
:1011E000542F0E942116A7E09595879577956795CE
:1011F000AA95D1F7E60EF71EF092B001E092AF018A
:10120000C61BD70BD093B601C093B501FEC0909317
:10121000B0018093AF0114968D919C911597EFC00A
:10122000600F711F7093B0016093AF018D919C911D
:10123000119720918A0130918B01820F931F909317
:10124000B6018093B50112966D917C9113978091B0
:101250008C0190918D01680F791F14964D915C91CE
:10126000159780918E0190918F01480F591FCA01E7
:10127000860F971F9C01F3E035952795FA95E1F7C6
:1012800095958795280F391F275731403093B20124
:101290002093B101461B570BCA01B3E09595879582
:1012A000BA95E1F755954795840F951F84529A4F4B
:1012B000A8C020911301309114011296CD91DC91B8
:1012C000139780919A0190919B01C80FD91F149692
:1012D0000D90BC91A02D80919C0190919D01A80F33
:1012E000B91F8091090190910A018C54944097FF95
:1012F00003C040E050E016C08091090190910A01BE
:101300008C54944095958795855F91401CF044EFEF
:1013100051E008C04091090150910A014C545440D9
:1013200055954795F801E452FA4FE21BF30BE60F8F
:10133000F71FBE016E0F7F1F9A012A1B3B0B37FF61
:1013400002C020E030E0CB01821B930B9093B001F0
:101350008093AF01260F371F3093B2012093B10164
:10136000BF016C1B7D0B9A012A0F3B1F37FF02C088
:1013700020E030E0C901860F971F9093B60180935B
:10138000B501621B730B7093B4016093B3013DC050
:10139000600F711F7093B0016093AF018D919C91AC
:1013A000119720918A0130918B01820F931F9093A6
:1013B000B6018093B50112968D919C91139720915F
:1013C0008C0130918D01820F931F9093B201809315
:1013D000B101809196019091970112962D913C91C7
:1013E0001397821B930B9093BA018093B9011496C3
:1013F0008D919C91159720918E0130918F01820FD4
:10140000931F9093B4018093B301809194019091C4
:1014100095019093B8018093B70189E0C816D10473
:1014200041F080919601909197019093BA01809339
:10143000B90180919201909193019093BC018093A6
:10144000BB01CDB7DEB7E8E00C94A316AAE0B0E08C
:10145000ECE2FAE00C948B168091E6019091E701A2
:101460000397A9F5FE0131968AE0DF011D928A9566
:10147000E9F7CF010E941108ADE7B1E00FEC11E0F0
:1014800049ED51E06D917C911197F80120813181F6
:10149000FB0180819181281739070CF4C901F801FB
:1014A00091838083FA0120813181FB0180819181C8
:1014B000821793070CF4C901FA0181939193AF014C
:1014C00012960E5F1F4FF1E0A738BF07D9F689ECDF
:1014D00091E00E9411088091E6019091E701049744
:1014E00011F074E001C075E060E080E090E0FC0184
:1014F000E358FE4FA081B1814D915C911197FC01A1
:10150000E153FE4F0190F081E02D4E175F0754F03C
:10151000FC01E752FE4F20813181FA012417350783
:101520000CF4F901ED93FC936F5F02966717FCF2E0
:101530002A96E4E00C94A71680917302882309F0A0
:1015400050C081E0809373028FEF809372022FB7B7
:10155000F8948091AF019091B0019093A201809393
:10156000A1018091B1019091B2019093A401809367
:10157000A3018091B3019091B4019093A60180934F
:10158000A5018091B5019091B6019093A801809337
:10159000A7018091B7019091B8019093AA0180931F
:1015A000A9018091B9019091BA019093AC01809307
:1015B000AB018091BB019091BC019093AE018093EF
:1015C000AD0180916F00826080936F00B19A80912D
:1015D0008400909185000496909389008093880000
:1015E0002FBF0895A0E8B0E0E8EFFAE00C947D1674
:1015F0000E94AA00D62EC72EB82EA92EDE01119663
:10160000EFE5F1E086E001900D928150E1F78E0167
:101610000D5E1F4FC80164E00E94080630E4E32E0F
:10162000F12CEC0EFD1EC70163E00E940806D0926B
:10163000A502C092A602B092A702A092A8022D2DE8
:101640003C2D4B2D5A2DC901DA01EF968CAF9DAF81
:10165000AEAFBFAFEF97EB968CAF9DAFAEAFBFAF66
:10166000EB97E7968CAF9DAFAEAFBFAFE7973C016E
:101670004D01E3968CAF9DAFAEAFBFAFE3971C01BA
:101680002D01AF961FAEAF97C158DF4F0883CF57DC
:10169000D040C058DF4F1883C058D0400E94AA00E5
:1016A0005B016C010E941F0180916002882389F414
:1016B000D601C501EF962CAD3DAD4EAD5FADEF97B8
:1016C000821B930BA40BB50B81539547A040B040F0
:1016D000F4F1109260020E9489078B89882359F0E7
:1016E000EF96ACAEBDAECEAEDFAEEF9741E0AF96BB
:1016F0004FAFAF972CC0C158DF4F8881CF57D04034
:10170000C058DF4F9881C058D0400E94DD06219616
:101710008FAD2197882311F492E001C090E020E082
:101720008B89882309F421E0920F9093330268ECAF
:1017300070E07093390260933802EF96ACAEBDAEA4
:10174000CEAEDFAEEF9771E0AF967FAFAF978091EF
:101750007302882359F5AF968FADAF97882331F187
:10176000A6019501EB966CAD7DAD8EAD9FADEB976F
:10177000261B370B480B590B80912B0290912C02A2
:10178000A0912D02B0912E0282179307A407B507EE
:101790006CF40E94260A0E949C0AEB96ACAEBDAE89
:1017A000CEAEDFAEEB97AF961FAEAF97D601C501B9
:1017B000E7962CAD3DAD4EAD5FADE797821B930B29
:1017C000A40BB50B81519742A040B04044F10E9458
:1017D000AA0521968FAD21978823D9F4CE01805C8C
:1017E0009F4F0E94390721968FAD2197882311F4CE
:1017F00092E001C090E020E08B89882309F421E089
:10180000920F9093330248EC50E05093390240938A
:101810003802E796ACAEBDAECEAEDFAEE7978B89B1
:10182000882329F021968FAD21978823C9F58091CF
:101830008A0190918B012091880130918901820F5A
:10184000931F2091190130911A01821B930B209153
:10185000130130911401821B930B959587959093FA
:1018600099018093980180918C0190918D01209134
:10187000150130911601821B930B90939B0180936D
:101880009A0180918E0190918F01209117013091E2
:101890001801821B930B90939D0180939C01FECEB7
:1018A000D601C50186199709A809B909815197423E
:1018B000A040B0400CF419C38091290290912A02F3
:1018C0008130910559F48091900190919101845C4F
:1018D00095400CF090C080E090E00DC0892B09F09D
:1018E0008AC08091900190919101855F95400CF4A0
:1018F00082C081E090E090932A0280932902892B94
:1019000011F084E001C080E08093330288EC90E025
:1019100090933902809338021092860210928702C7
:1019200010928802109289021092920210929302F1
:10193000109294021092950210928A0210928B02D9
:1019400010928C0210928D021092960210929702C1
:10195000109298021092990210928E0210928F02A9
:10196000109290021092910210929A0210929B0291
:1019700010929C0210929D028091FB019091FC01BB
:101980000297C9F5D601C50182199309A409B509C1
:101990008152914AA740B0401CF0AE961FAEAE9760
:1019A000AE96FFADAE97FF5FAE96FFAFAE97F3304A
:1019B00004F18091880190918901909314018093A2
:1019C000130180918C0190918D0190931601809369
:1019D000150180918E0190918F0190931801809351
:1019E000170180918A0190918B0190931A01809345
:1019F00019011501260140918A0150918B018091B6
:101A0000880190918901480F591F8091130190918D
:101A10001401481B590B8091190190911A01481B20
:101A2000590B559547955093990140939801E09132
:101A30008C01F0918D018091150190911601E81BA8
:101A4000F90BF0939B01E0939A01A0918E01B09164
:101A50008F018091170190911801A81BB90BB093C9
:101A60009D01A0939C018091F5018150282F33277F
:101A700027FD3095CA0157FF04C088279927841B8A
:101A8000950B022E02C0880F991F0A94E2F761E0BD
:101A90008139960714F080E991E060E971E0681BF4
:101AA000790B78876F83CF01F7FF04C088279927C8
:101AB0008E1B9F0B022E02C0880F991F0A94E2F71B
:101AC00071E08139970714F080E991E060E971E0F5
:101AD000681B790B7A876987CD01B7FF04C0882717
:101AE00099278A1B9B0BBC0102C0660F771F2A95A2
:101AF000E2F781E06139780714F060E971E010E9FC
:101B0000812E11E0912E861A970A9C868B86209151
:101B100090013091910195E02D3D39072CF067E05F
:101B20002D3636075CF007C08CED95E0821B930BD9
:101B3000815991401CF000E911E011C085E02D3D74
:101B4000380724F089010C5D154004C00CED15E048
:101B5000021B130B0931110514F400E010E0E090B2
:101B60002902F0902A0291E0E916F10459F0E114FB
:101B7000F10409F050C08091F9019091FA010297A7
:101B800009F049C08091F7019A01082E02C0220F86
:101B9000331F0A94E2F73E872D87082E02C0EE0F0E
:101BA000FF1F0A94E2F7F88BEF87AD0102C0440FE4
:101BB000551F8A95E2F75A8B498B89819A8197FD47
:101BC00005C088279927821B930B01C0C9019093F8
:101BD0007502809374028B819C812F85388997FDD3
:101BE00005C088279927821B930B01C0C9019093D8
:101BF0007702809376028D819E8197FD03C0509578
:101C000041955F4F5093790240937802A1E0EA1624
:101C1000F10471F055C01092750210927402109286
:101C2000770210927602109279021092780248C0E0
:101C30006F817885882777FD8095982F24EF3FEB7B
:101C400040E050E00E942116B9E095958795779580
:101C50006795BA95D1F7609392027093930280933F
:101C600094029093950269857A85882777FD8095FF
:101C7000982F0E942116A9E09595879577956795ED
:101C8000AA95D1F760939602709397028093980279
:101C900090939902B401882777FD8095982F0E9430
:101CA0002116F9E09595879577956795FA95D1F77F
:101CB00060939A0270939B0280939C0290939D0282
:101CC0002091C3013091C4018091BD019091BE016A
:101CD000281B390BB0E220303B0714F02FEF3FE117
:101CE000C901E0EE20303E0714F480E090EE9093BE
:101CF0007B0280937A022091C5013091C6018091C8
:101D0000BF019091C001281B390BF0E220303F0742
:101D100014F02FEF3FE1C90120EE8030920714F458
:101D200080E090EE90937D0280937C022091C70129
:101D30003091C8018091C1019091C201281B390BDB
:101D400040E22030340714F02FEF3FE1C90150EE9C
:101D50002030350714F480E090EE90937F0280935A
:101D60007E02EF2819F063E172E002C060E072E0E9
:101D700084E792E00E94F204EE24FF2438018824D4
:101D800077FC8094982C870107531E4FE1E0F0E028
:101D9000EC0FFD1FEE0DFF1D60817181882777FD1F
:101DA0008095982FF701EC58FD4F22A533A54427C5
:101DB00037FD4095542F0E942116E7E095958795B1
:101DC00077956795EA95D1F7E7E0F0E0EC0FFD1F16
:101DD000EE0DFF1D20813181442737FD4095542FA2
:101DE0000E9421169B01AC0169E0559547953795F6
:101DF00027956A95D1F7C401B3010E94211629E005
:101E000095958795779567952A95D1F7D8016D9324
:101E10007C93E2E0F0E0EE0EFF1EF6E0EF16F10438
:101E200009F0B1CF2091A40212160CF05CC0809191
:101E3000A5029091A602A091A702B091A802B601B6
:101E4000A501481B590B6A0B7B0BDB01CA018154AE
:101E50009D40A340B0405CF021502093A402A0928A
:101E6000A502B092A602C092A702D092A8028091C9
:101E7000A402992787FD90954091C9015091CA010C
:101E8000BC016170707080FF03C026E930E002C0C1
:101E90002AE63FEF240F351F3093CA012093C90172
:101EA0004091CB015091CC016115710519F026E9E3
:101EB00030E002C02AE63FEF240F351F3093CC01FB
:101EC0002093CB012091CD013091CE01672B19F4E5
:101ED0008AE69FEF02C086E990E0820F931F9093FD
:101EE000CE018093CD0135014601D601C501E396AF
:101EF0002CAD3DAD4EAD5FADE397821B930BA40BB4
:101F0000B50B8C59914AA740B0400CF4C7CB8091D7
:101F1000FD01803839F480910001282F30E02058ED
:101F2000304004C0282F332727FD30958091FE01D3
:101F3000803839F480910101482F50E040585040DA
:101F400004C0482F552747FD50958091FF018038E8
:101F500031F48091020190E08058904003C09927AD
:101F600087FD90953A8329835C834B839E838D8381
:101F7000295F3F4F2F30310510F41A8219828B816F
:101F80009C8107960F9710F41C821B828D819E8185
:101F900007960F9710F41E821D8280E00E949B021C
:101FA000E396ACAEBDAECEAEDFAEE39777CB282FD7
:101FB00030E03F6F220F331FEFB7F8948091840019
:101FC00090918500AC01405C5F4FBC016D5D7A4F24
:101FD0008091840090918500DA01A81BB90B1A1634
:101FE0001B06B4F320FF02C0579801C0579A46174A
:101FF000570729F03695279545575F4FE9CFEFBF33
:102000000895EFB7F8944F9B49C016C02091840003
:10201000309185002058314C04C08FEF9FEF4F9BCB
:102020000BC08091840090918500B901681B790BE9
:102030001616170614F4F1CFAC0141505040CA01F6
:1020400001961816190614F34F5F5F4F19F420E03C
:1020500030E826C08091840090918500AC01405604
:102060005F4F20E030E0BC0163597B4F80918400DA
:1020700090918500DA01A81BB90B1A161B06B4F360
:1020800089B13695279590E080789070282B392B70
:102090004617570729F045575F4FE8CF20E030E457
:1020A000EFBFC9010895EF92FF920F931F93CF9353
:1020B000DF93E82E192F062FF62E84E20E94D70F09
:1020C000802F0E94D70F2E2D312FC901EC0104C0A3
:1020D0008991F80E0E94D70F9E012E192017C4F384
:1020E0008F2D81950E94D70FCDB7DEB7E6E00C9417
:1020F000A5168F929F92AF92BF92CF92DF92FF92DE
:102100000F931F93CF93DF934C015A01C0E0D0E0AF
:10211000C62EDD24C7FCD09402C0812F182FC50124
:102120000E9401109C018070907C892B69F5822FA0
:10213000C130D10559F0C230D105A1F0209779F70F
:10214000243259F7812FC1E0D0E0E8CF90E0C816E3
:10215000D90614F4812F15C0822FF22EC2E0D0E0F0
:1021600000E0DCCFF20E812F8150112331F0F40119
:10217000E00FF11D20830F5FD1CFFF2011F481E02C
:1021800004C0C0E0D0E0CACF80E0DF91CF911F91C2
:102190000F91FF90DF90CF90BF90AF909F908F9066
:1021A00008951F93CF93DF93EC01142F44E450E084
:1021B0000E94BA168881811711F08FEF12C090E04B
:1021C00020E030E0FE01E20FF31F8081980F2F5FC7
:1021D0003F4F24343105B1F7992311F480E001C059
:1021E0008EEFDF91CF911F910895DC0190E020E008
:1021F00030E0FD01E20FF31F8081980F2F5F3F4F0A
:1022000023343105B1F7AD5BBF4F91959C93A35437
:10221000B040CD0144E450E00E94CA160895A5E6FE
:10222000B0E0E5E1F1E10C9487161092800081E0C6
:102230008093810057985F9848E552E000E06E0176
:102240000894C11CD11CA2E0EA2EF12CEC0EFD1E5C
:10225000C60165E60E947910882309F441C089818E
:102260008230A9F0833018F4813029F406C083301D
:10227000B1F08430E9F010E026C0C70160E870E0FA
:1022800048E050E00E94BA1610E069E01DC0C701A6
:1022900060E870E048E050E00E94CA1613C0C70131
:1022A00060E070E04AE00E94D11010E065E40CC0EC
:1022B000C70160E070E00E94F510C70160E071E0C6
:1022C0000E94F51011E061E0898180688983C60170
:1022D0000E94531001E044EF51E0112309F4B8CFFC
:1022E000802FCB59DF4FE8E00C94A316CF93DF93F8
:1022F000C0E0D0E0FE01E95AFE4F808187FD04C0B6
:10230000808161E00E9482152196C830D10591F745
:10231000DF91CF9108951F920F920FB60F92112463
:102320000F931F932F933F934F935F936F937F93DD
:102330008F939F93AF93BF93EF93FF93809172021C
:1023400087FD42C0E0917202FF27E7FDF095E95A50
:10235000FE4F808160E00E94EE1536C080917202CF
:102360008F5F80937202E0917202FF27E7FDF09584
:10237000E95AFE4F808187FD27C0009184001091AB
:102380008500E0917202FF27E7FDF095E95AFE4FC4
:10239000808161E00E94EE15E0917202FF27E7FD67
:1023A000F095EE0FFF1FE55EFE4F0190F081E02DEE
:1023B000808191810297880F991F800F911F9093C0
:1023C0008900809388000BC080917202873034F2BC
:1023D0001092730280916F008D7F80936F00FF9148
:1023E000EF91BF91AF919F918F917F916F915F918D
:1023F0004F913F912F911F910F910F900FBE0F9012
:102400001F901895A0E0B0E0E8E0F2E10C94871688
:10241000182F062F862F61E00E948215812F60E021
:102420000E948215812F61E00E94EE156AE070E043
:1024300080E090E00E94EA00C0E0D0E0812F992780
:1024400087FD9095FC01EA56FF4FE491F0E0EE0F16
:10245000FF1FE457FF4FC590D49086559F4FFC0156
:102460008491E82EFF24CE018170182F802F612FD8
:102470000E94EE15F601808120E030E090E08E2190
:102480009F21892B11F021E030E0812F992787FDD2
:1024900090952817390711F010E005C02196C83033
:1024A000D10509F711E0802F60E00E948215812F8D
:1024B000CDB7DEB7E8E00C94A316A2E9B0E0E3E6FE
:1024C000F2E10C948916539A8091DA029091DB0222
:1024D000009711F09C0102C02EED32E0CE01019672
:1024E000821B930B803891054CF484E18093340275
:1024F0008EE190E090933B0280933A0284B7877F0D
:1025000084BF88E10FB6F894809360001092600059
:102510000FBE21E030E03093E5012093E40180E834
:102520008093FD018093FE018093FF013093E701CA
:102530002093E6011092E801E5E6F1E0A9EEB1E0B2
:1025400081918D9321E0ED36F207D1F742E050E022
:102550005093F2014093F10121E030E03093F40117
:102560002093F3013093F6012093F50183E090E08E
:102570009093F8018093F7013093FA012093F901C9
:102580005093FC014093FB0184EF91E09093010292
:1025900080930002109207021092060290930D029F
:1025A00080930C029093030280930202109209021E
:1025B0001092080290930F0280930E0290930502EE
:1025C0008093040210920B0210920A02909311025F
:1025D0008093100228E020931202909314028093BB
:1025E000130290931A028093190290932002809311
:1025F0001F02909316028093150290931C02809301
:102600001B029093220280932102909318028093E0
:10261000170290931E0280931D02909324028093D0
:1026200023022093250286E065E00E94021288239F
:1026300011F400E001C007E0CE01039660E870E00D
:1026400048E050E00E94BA16002361F48B81843088
:1026500049F48C819D81AE81BF818E549146AC4BF3
:10266000B04071F084E08B838EE491E6ACEBB0E097
:102670008C839D83AE83BF83188619861A86086073
:10268000CE010B9660E070E04AE00E94D11087FD19
:102690000260CE01815B9F4F60E071E04AE00E94E2
:1026A000D11087FD046083E08093A402E02EFF2414
:1026B000C701867090708230910531F084309105A9
:1026C00079F0892B81F119C08E01015B1F4FC80180
:1026D00060E070E00E94F51088858F5F88870BC0EE
:1026E0008E01055F1F4FC80160E071E00E94F51088
:1026F00089858F5F8987C80118C08AE08093E301CC
:1027000083EE91E060E070E00E94F51083EE91E0CE
:1027100060E071E00E94F5108A858F5F8A8789E00A
:102720008093A4020AC0CE010B96A3EEB1E0FC0197
:1027300084E401900D928150E1F7C7018E70907092
:10274000892B41F0CE01039660E870E048E050E04C
:102750000E94CA16E0FE0AC082E00E94120164E6EE
:1027600070E080E090E00E942315F6CF0E940F11E8
:10277000882361F02EE088E190E00FB6F894A895E8
:10278000809360000FBE20936000FFCF1092800006
:1027900082E08093810081E080936F0085B5887F1F
:1027A00085BD8091E6019091E7018230910519F194
:1027B0008330910524F4019709F05BC007C0833092
:1027C000910571F1049709F054C03FC080E090E09A
:1027D00048EE53E020ED37E0FC01E153FE4F51831A
:1027E0004083FC01E752FE4F3183208302968A30FA
:1027F000910591F73EC080E090E04CE454E02CE677
:1028000037E0FC01E153FE4F51834083FC01E75266
:10281000FE4F3183208302968A30910591F729C0BB
:1028200080E090E042EE54E026ED36E0FC01E1531A
:10283000FE4F51834083FC01E752FE4F31832083DA
:1028400002968A30910591F714C080E090E044E848
:1028500053E024E338E0FC01E153FE4F5183408311
:10286000FC01E752FE4F3183208302968A309105A6
:1028700091F78091E801992787FD909528EE33E044
:10288000AC01429FC001439F900D529F900D1124B7
:10289000AA2797FDA095BA2F80932B0290932C0224
:1028A000A0932D02B0932E020E943B030E9454037A
:1028B0008091E4019091E501909328028093270292
:1028C0000197E9F480919F01882319F4E2E0F0E098
:1028D00002C0E0E0F0E020E030E08091A001882339
:1028E00011F421E030E0E22BF32BEE0FFF1FE35950
:1028F000FE4F8081918190932802809327028091DE
:10290000270290912802019731F482E090E09093A1
:10291000280280932702809127028093320288E563
:1029200092E090933702809336020E94EB020E945D
:102930009C040E9476110E94F3050E9489070E9460
:10294000260ACE56DF4FE6E00C94A516CF93DF9310
:102950000E9447150E945D12C0E0D0E00E94F20A7A
:102960002097E1F30E940000F9CF1F920F920FB65B
:102970000F9211242F933F938F939F93AF93BF9305
:102980008091D5029091D602A091D702B091D80241
:102990003091D9020196A11DB11D232F2D5F2D3736
:1029A00020F02D570196A11DB11D2093D9028093CF
:1029B000D5029093D602A093D702B093D80280910B
:1029C000D1029091D202A091D302B091D40201968B
:1029D000A11DB11D8093D1029093D202A093D30286
:1029E000B093D402BF91AF919F918F913F912F915E
:1029F0000F900FBE0F901F9018959FB7F8942091DD
:102A0000D1023091D2024091D3025091D40286B5C6
:102A1000A89B06C08F3F21F02F5F3F4F4F4F5F4F66
:102A20009FBF542F432F322F2227280F311D411DC6
:102A3000511D82E0220F331F441F551F8A95D1F785
:102A4000B901CA010895EF92FF920F931F93CF939C
:102A5000DF937B018C010E94FD14EB010EC00E94EC
:102A6000FD146C1B7D0B685E7340C8F30894E1088D
:102A7000F10801091109C851DC4FE114F104010505
:102A8000110569F7CDB7DEB7E6E00C94A51678948A
:102A900084B5826084BD84B5816084BD85B5826063
:102AA00085BD85B5816085BDEEE6F0E08081816001
:102AB0008083E1E8F0E01082808182608083808101
:102AC00081608083E0E8F0E0808181608083E1EBD9
:102AD000F0E0808184608083E0EBF0E080818160C1
:102AE0008083EAE7F0E08081846080838081826077
:102AF0008083808181608083808180688083109260
:102B0000C1000895CF93DF93482F50E0CA01865546
:102B10009F4FFC0134914A565F4FFA0184918823FC
:102B200069F190E0880F991FFC01E858FF4FA591CB
:102B3000B491FC01EE57FF4FC591D491662351F437
:102B40002FB7F8948C91932F909589238C9388813B
:102B500089230BC0623061F42FB7F8948C91932FC6
:102B6000909589238C938881832B88832FBF06C0FF
:102B70009FB7F8948C91832B8C939FBFDF91CF915B
:102B80000895833071F0843028F48130A1F08230D0
:102B900021F514C08630B1F08730D1F08430E9F4EB
:102BA00004C0809180008F7703C0809180008F7D6A
:102BB00080938000089584B58F7702C084B58F7D9F
:102BC00084BD08958091B0008F778093B000089500
:102BD0008091B0008F7D8093B0000895FF920F9395
:102BE0001F93F62E482F50E0CA0182549F4FFC01DC
:102BF0002491CA0186559F4FFC0114914A565F4F9C
:102C0000FA0104910023C9F0222319F0822F0E94B7
:102C1000C115E02FF0E0EE0FFF1FEE57FF4FA5911B
:102C2000B4919FB7F894FF2021F48C9110958123E3
:102C300002C08C91812B8C939FBF1F910F91FF90AD
:102C40000895629FD001739FF001829FE00DF11DF6
:102C5000649FE00DF11D929FF00D839FF00D749F16
:102C6000F00D659FF00D9927729FB00DE11DF91FC2
:102C7000639FB00DE11DF91FBD01CF01112408951F
:102C8000A1E21A2EAA1BBB1BFD010DC0AA1FBB1F70
:102C9000EE1FFF1FA217B307E407F50720F0A21BE2
:102CA000B30BE40BF50B661F771F881F991F1A944F
:102CB00069F760957095809590959B01AC01BD0179
:102CC000CF01089597FB092E05260ED057FD04D09D
:102CD000D7DF0AD0001C38F45095409530952195E7
:102CE0003F4F4F4F5F4F0895F6F790958095709541
:102CF00061957F4F8F4F9F4F08952F923F924F9234
:102D00005F926F927F928F929F92AF92BF92CF927B
:102D1000DF92EF92FF920F931F93CF93DF93CDB784
:102D2000DEB7CA1BDB0B0FB6F894DEBF0FBECDBFFC
:102D300009942A88398848885F846E847D848C84CD
:102D40009B84AA84B984C884DF80EE80FD800C81D6
:102D50001B81AA81B981CE0FD11D0FB6F894DEBFB9
:102D60000FBECDBFED010895EE0FFF1F0590F4914A
:102D7000E02D0994DC01CB01FC01F999FECF06C0DE
:102D8000F2BDE1BDF89A319600B40D924150504029
:102D9000B8F70895DC01CB0103C02D910E94D51630
:102DA00041505040D0F70895262FF999FECF1FBA11
:102DB00092BD81BD20BD0FB6F894FA9AF99A0FBE64
:082DC00001960895F894FFCF7D
:102DC800FFFFFFDC05DC05DC05DC05E803DC05E8C6
:102DD80003DC05DC05DC05DC05DC05A501A301A990
:102DE80001A1010000A701AD01AB01000101010231
:102DF800010000000000009E019F01A001000000EA
:102E0800000000000000000301050107010B010993
:102E1800010000000000000706FF05FF04FFFF0097
:102E28000000000000000102030405060702000379
:102E380000040005000800060007000200AF01B109
:082E480001B301B501B901005D
:00000001FF
