:100000000C946A000C9492000C9492000C94920050
:100010000C9492000C9492000C9492000C94920018
:100020000C9492000C9492000C9492000C940E1478
:100030000C9492000C9494000C9492000C949200F6
:100040000C9491190C9492000C9453170C94A117D2
:100050000C9492000C94C3020C9492000C949200A5
:100060000C9492000C949200DF060107C207DF0691
:100070000107C2070B087A080000000024002700CF
:100080002A0000000000250028002B0000000000CE
:1000900023002600290004040404040404040202CA
:1000A00002020202030303030303010204081020F7
:1000B0004080010204081020010204081020000002
:1000C0000007000201000003040600000000000019
:1000D0000000081911241FBECFEFD4E0DEBFCDBF52
:1000E00011E0A0E0B1E0E0E8F7E302C005900D9276
:1000F000A23CB107D9F713E0A2ECB1E001C01D9218
:10010000AD3BB107E1F710E0C4EDD0E004C02297A9
:10011000FE010E94921BC23DD107C9F70E945E19E1
:100120000C94BE1B0C9400001F920F920FB60F92FE
:1001300011248F939F938091790290917A02019676
:1001400090937A02809379028091790290917A0259
:10015000892B29F480917B028F5F80937B029F9192
:100160008F910F900FBE0F901F9018956091840093
:10017000709185002091790230917A02E0917B02A2
:1001800080918400909185008627972797FDEECF78
:100190008091790290917A022817390739F7809176
:1001A0007B02E81719F740E050E0FFE0220F331F11
:1001B000441F551FFA95D1F78E2F90E0A0E0B0E0D4
:1001C000BB278695B795AA2799278827282B392BEF
:1001D0004A2B5B2B76956795CB01A0E0B0E0282BEE
:1001E000392B4A2B5B2BB901CA010895AF92BF92FC
:1001F000CF92DF92EF92FF920F931F9328EE33E09E
:1002000040E050E00E94FD1A5B016C010E94B600C4
:100210007B018C010E94B6006E197F09800B910B47
:100220006A157B058C059D05A8F31F910F91FF9022
:10023000EF90DF90CF90BF90AF900895882321F08A
:10024000813021F42D9A08952D98089585B190E27A
:10025000892785B90895EF92FF920F931F937B0131
:100260008C018091000390910103A0910203B09151
:1002700003038E199F09A00BB10B181619061A0655
:100280001B060CF450C080910403882321F5E091F3
:100290000503EF5FE370E0930503FF27E7FDF095AB
:1002A000E458FD4F8081992787FD9095880F991F0D
:1002B0008093040380E492E4AFE0B0E0E80EF91E1E
:1002C0000A1F1B1FE0920003F09201030093020338
:1002D0001093030328C081508093040381700E940F
:1002E0001E01E0910503FF27E7FDF095EE0FFF1FCC
:1002F000E058FD4F80819181AA2797FDA095BA2FE4
:100300002AE0880F991FAA1FBB1F2A95D1F78E0DCF
:100310009F1DA01FB11F8093000390930103A09322
:100320000203B09303031F910F91FF90EF90089584
:100330009A01AB01882311F0459A449A1092B900B2
:1003400060E074E284EF90E00E941C1B205130407A
:100350004040504056954795379527952093B800D3
:1003600008952FEF30E011C02115310561F410928E
:10037000BC00809188029091890201969093890235
:10038000809388020895215030408091BC0087FFFF
:10039000EBCF0895FF920F931F93F82E0CEB10E014
:1003A00084EAF80180830E94B101F092BB0084E8E6
:1003B000F80180830E94B1011F910F91FF90089571
:1003C0008093BB0084E88093BC000E94B101089533
:1003D0001F93182F882311F484E801C084EC8093C4
:1003E000BC000E94B1019091BB00112319F484E973
:1003F0008093BC00892F1F9108950F931F93162F90
:10040000042F880F0E94CA01812F0E94E001802FD3
:100410000E94E00184E98093BC001F910F91089530
:100420000F931F93182F062F880F0E94CA01802F49
:100430000E94E001110F812F81600E94CA0180E0BB
:100440000E94E8011F910F9108951F93CF93DF93AE
:10045000EB01142F880F81600E94CA0108C011505F
:1004600080E011160CF481E00E94E80189931123C9
:10047000B1F7DF91CF911F910895DF92EF92FF9234
:100480000F931F93E82EF62E8A01D22E880F0E941A
:10049000CA018F2D0E94E0018E2DB8014D2D0E94C2
:1004A00025021F910F91FF90EF90DF90089588E64D
:1004B0006EE340E80E94FD0162E370E080E090E0BE
:1004C0000E94F60088E66EE343E00E94FD0188E6A4
:1004D00066E14EE10E94FD0188E660E00E941002A4
:1004E00090E08E77883609F491E0892F0895A6E090
:1004F000B0E0EDE7F2E00C94631B8C017B016A0134
:1005000088E66DE1AE014F5F5F4F26E00E943D023D
:10051000998180E02A8130E0822B932BF80191832E
:1005200080839B8180E02C8130E0822B932BF7012C
:10053000918380839D8180E02E8130E0822B932BFC
:10054000F601918380832696E8E00C947F1B282F88
:1005500017C0E22FF0E0EE0FFF1FE55CFE4F808139
:100560009181892B61F080917C00887F822B809320
:100570007C0080917A00806480937A0008952F5FD8
:10058000263038F308951F920F920FB60F92112460
:100590002F933F934F935F936F937F938F939F938B
:1005A000AF93BF93EF93FF9380917C008770E82F08
:1005B000F0E0EE0FFF1FE55CFE4F0190F081E02DB3
:1005C0009091790090838F5F0E94A702FF91EF9135
:1005D000BF91AF919F918F917F916F915F914F915B
:1005E0003F912F910F900FBE0F901F901895EBE346
:1005F000F1E040E050E061E070E080819181892B82
:1006000079F087B1DB01042E02C0AA0FBB1F0A9448
:10061000E2F79D012095822387B988B1282328B964
:100620004F5F5F4F32964630510539F780E6809331
:100630007C0010927B008FE880937A0080E00E941B
:10064000A7020895CF93DF93EB01DA01FC0140E0AC
:1006500050E061E070E080819181892B79F03881F0
:10066000CB01042E02C0880F991F0A94E2F7282FAD
:100670002095232328832C91822B8C934F5F5F4FEF
:1006800032964830510539F7DF91CF9108958AE8C5
:1006900092E064E270E045E250E00E9422038AE9C1
:1006A00092E067E270E048E250E00E94220387E4B3
:1006B00091E06AE270E04BE250E00E94220308956C
:1006C00060E070E040E050E0A1E0B0E0362FFA01D9
:1006D000E657FD4F0190F081E02D309751F023B1A6
:1006E000CD01062E02C0880F991F0A94E2F7282335
:1006F0002083FA01E656FD4F0190F081E02D3097FE
:1007000051F026B1CD01032E02C0880F991F0A9423
:10071000E2F728232083FA01E95BFE4F0190F08184
:10072000E02D309749F029B1CD0102C0880F991F03
:100730003A95E2F7282320836F5F7F4F4E5F5F4F2C
:100740004031510519F60895A6E0B0E0EAEAF3E079
:100750000C94591B7A8369831C012B019E838D8322
:100760009B012A5F3F4F3C832B83ED81FE810681F5
:10077000178180819181081B190B3801882477FC2F
:100780008094982CF10182899389A489B589860D7A
:10079000971DA81DB91D268D378D40A151A1AA24F2
:1007A000BB246501A21AB30AC40AD50A8A159B059F
:1007B000AC05BD054CF05C016D01281739074A07EF
:1007C0005B0714F459016A01F101A28AB38AC48A51
:1007D000D58AED81FE8184859585AA2797FDA09510
:1007E000BA2FA4019301281B390B4A0B5B0BCA01DA
:1007F000B90115870487F20124853585442737FD23
:100800004095542F0E94FD1A7B018C0132E0159512
:100810000795F794E7943A95D1F7F2012081318159
:10082000442737FD4095542FC401B3010E94FD1A9F
:1008300023E095958795779567952A95D1F7E60EEC
:10084000F71E081F191FF20126813781442737FD43
:100850004095542FC601B5010E94FD1AB6E095954A
:10086000879577956795BA95D1F7E60EF71E081F1D
:10087000191FE981FA81028804C015950795F7943C
:10088000E7940A94D2F7ED81FE81F3A6E2A63296B0
:10089000FE83ED8324E030E0220E331E42E050E080
:1008A000440E551E8B819C814816590609F05DCF78
:1008B0002696E2E10C94751BA6E0B0E0E2E6F4E0D7
:1008C0000C94691BCE010196BE016D5F7F4FAE0196
:1008D0004B5F5F4F0E9477028B819C819093FE015A
:1008E0008093FD0149815A81509300024093FF019A
:1008F0002D813E81309302022093010280912D02CE
:1009000090912E028230910519F00397D1F40DC019
:10091000309300022093FF0188279927841B950BB1
:1009200090930202809301020CC088279927821BB2
:10093000930B909300028093FF0150930202409327
:1009400001022696E2E00C94851B81E040E85AE122
:1009500066E070E00E9498010E945702882349F4E3
:1009600085E080937E0288EC90E0909385028093EE
:10097000840208950F931F93CF93DF93FC0110829D
:10098000772767FD709572836183DC01EC0140E09D
:1009900050E00FEF1FE760E070E80CC012961C9368
:1009A0000E9311971A967C936E9319971F86188A47
:1009B000198A1A8A9A014F5F5F4F12962496818195
:1009C00092812817390754F314A613A6DF91CF910B
:1009D0001F910F910895A0E0B0E0E1EFF4E00C94D6
:1009E000611B7C018C01EB01F70160E070E02BC022
:1009F0002181328188819981281739070CF4C90136
:100A0000928381832185328588819981821793071A
:100A10000CF4C9019287818729913991442737FDC8
:100A20004095542FD8011F96AD90BD90CD90DC908D
:100A30005297A20EB31EC41ED51E1F96AD92BD9234
:100A4000CD92DC9252979B016F5F7F4F32960C5F85
:100A50001F4FD70111968D919C9112972817390736
:100A60003CF2CDB7DEB7EAE00C947D1BA0E0B0E02D
:100A7000ECE3F5E00C94631BEC017C0143E2C42E33
:100A8000D12CC80ED91E00E010E011C02BA53CA54A
:100A9000442737FD4095542FF70167857089818978
:100AA00092890E943E1BF601219331936F019801B8
:100AB0000F5F1F4F84E090E0E80EF91E89819A8154
:100AC000281739071CF3CDB7DEB7E8E00C947F1B7D
:100AD000CF93DF93FC01EB0161817281A0E040E0E4
:100AE00050E00DC08385948523813481821B930B54
:100AF0008C179D070CF4AF5F4F5F5F4F3296461720
:100B0000570784F320E08A2F992787FD9095861751
:100B1000970709F421E0822FDF91CF910895A8E093
:100B2000B0E0E5E9F5E00C94671B8C018091C2010F
:100B30009091C3019A8389838091C6019091C701E6
:100B40009C838B838091C8019091C9019E838D8382
:100B50008091C4019091C50198878F83C801BE011F
:100B60006F5F7F4F0E94EB04F80183A594A5019667
:100B700094A783A78436910551F5C80164E170E01C
:100B80000E9468058823F9F0C8010E943605F80123
:100B900083A194A1909314018093130185A196A140
:100BA000909316018093150187A190A59093180149
:100BB0008093170181A592A590931A018093190142
:100BC00081E0808304C0C80164E00E94BA042896D2
:100BD000E4E00C94831BA6E0B0E0E1EFF5E00C94B8
:100BE000671B8C018091FD019091FE019A8389839E
:100BF0008091FF01909100029C838B838091010280
:100C0000909102029E838D83C801BE016F5F7F4F6A
:100C10000E94EB04F80183A594A5019694A783A7ED
:100C20008C52914021F5C80162E370E00E94680592
:100C30008823C9F0C8010E943605F80183A194A158
:100C40009093F8018093F70185A196A19093FA0102
:100C50008093F90187A190A59093FC018093FB01FB
:100C600081E0808304C0C80163E00E94BA04269634
:100C7000E4E00C94831B20910301309104018091E6
:100C80000301909104012817390721F43093C3011F
:100C90002093C20120910501309106018091050148
:100CA000909106012817390721F43093C70120934A
:100CB000C6012091070130910801809107019091B0
:100CC00008012817390721F43093C9012093C8017E
:100CD00020910B0130910C0180910B0190910C013E
:100CE0002817390721F43093CB012093CA012091B2
:100CF0000D0130910E0180910D0190910E01281788
:100D0000390721F43093CD012093CC0120910F01BC
:100D10003091100180910F0190911001281739072F
:100D200021F43093CF012093CE0120911101309115
:100D3000120180911101909112012817390721F4B5
:100D40003093D1012093D001809161029091620291
:100D500005974CF48091C2019091C3019093C50115
:100D60008093C40108952091090130910A01809176
:100D7000090190910A012817390721F43093C50120
:100D80002093C4010895A0E0B0E0E9ECF6E00C94F3
:100D9000631BDC01C0906102D0906202F6013297C1
:100DA000E830F10508F0E3C1EC5CFF4F6D917C91F8
:100DB00011970091C2011091C3010C94901B600F18
:100DC000711F7093EA016093E9018D919C911197D5
:100DD0002091C4013091C501820F931F9093F001BF
:100DE0008093EF0112968D919C9113972091C601EB
:100DF0003091C701820F931F9093EC018093EB0118
:100E0000A8C17801E60EF71EF092EA01E092E9012E
:100E1000E091C401F091C501CD91DC911197CE0F05
:100E2000DF1FD093F001C093EF014091D2015091A8
:100E3000D30144525A4F8D919C911197480F591FDD
:100E400012966D917C9113978091C6019091C70184
:100E5000680F791FCB01840F951F9C01359527954D
:100E6000359527953595279595958795280F391FA1
:100E7000275731403093EC012093EB01461B570B71
:100E8000CA0133E0959587953A95E1F755954795D1
:100E9000840F951F84529A4F9093EE018093ED0139
:100EA0002091C8013091C90146E0C416D10409F06F
:100EB00060C084E0223E380774F029573540273C53
:100EC000310518F082E090E002C081E090E00297E6
:100ED00009F04DC121C08091190190911A01800F34
:100EE000911F8E1B9F0B2091130130911401821BC7
:100EF000930B9595879584529A4F9093EA0180932E
:100F0000E9018C5D95402CED35E0281B390B3093C1
:100F1000F0012093EF012BC12091020112966D91F7
:100F20007C911397E091D401F091D5016E0F7F1F52
:100F3000882777FD8095982F30E02058304044274F
:100F400037FD4095542F0E94FD1AA7E0959587958F
:100F500077956795AA95D1F7E60EF71EF092EA010C
:100F6000E092E901C61BD70BD093F001C093EF01CB
:100F7000FEC09093EA018093E90114968D919C91B3
:100F80001597EFC0600F711F7093EA016093E9013C
:100F90008D919C9111972091C4013091C501820FD0
:100FA000931F9093F0018093EF0112966D917C91C5
:100FB00013978091C6019091C701680F791F14960D
:100FC0004D915C9115978091C8019091C901480F8E
:100FD000591FCA01860F971F9C01F3E0359527958D
:100FE000FA95E1F795958795280F391F27573140D6
:100FF0003093EC012093EB01461B570BCA01B3E081
:1010000095958795BA95E1F755954795840F951F66
:1010100084529A4FA8C02091130130911401129666
:10102000CD91DC9113978091D4019091D501C80F97
:10103000D91F14960D90BC91A02D8091D60190914E
:10104000D701A80FB91F8091090190910A018C5412
:10105000944097FF03C040E050E016C08091090122
:1010600090910A018C54944095958795855F9140A5
:101070001CF044EF51E008C04091090150910A0171
:101080004C54544055954795F801E452FA4FE21BF1
:10109000F30BE60FF71FBE016E0F7F1F9A012A1B8D
:1010A0003B0B37FF02C020E030E0CB01821B930BEB
:1010B0009093EA018093E901260F371F3093EC01EA
:1010C0002093EB01BF016C1B7D0B9A012A0F3B1F84
:1010D00037FF02C020E030E0C901860F971F9093D0
:1010E000F0018093EF01621B730B7093EE0160932C
:1010F000ED013DC0600F711F7093EA016093E9013B
:101100008D919C9111972091C4013091C501820F5E
:10111000931F9093F0018093EF0112968D919C9113
:1011200013972091C6013091C701820F931F9093AE
:10113000EC018093EB018091D0019091D101129646
:101140002D913C911397821B930B9093F401809304
:10115000F30114968D919C9115972091C8013091BF
:10116000C901820F931F9093EE018093ED0180914E
:10117000CE019091CF019093F2018093F10189E02B
:10118000C816D10441F08091D0019091D101909383
:10119000F4018093F3018091CC019091CD01909363
:1011A000F6018093F501CDB7DEB7E8E00C947F1B24
:1011B000AAE0B0E0EEEDF8E00C94671B809120020D
:1011C000909121020397A9F5FE0131968AE0DF0193
:1011D0001D928A95E9F7CF010E94C306A8EAB1E003
:1011E00009E012E043E152E06D917C911197F80122
:1011F00020813181FB0180819181281739070CF40E
:10120000C901F80191838083FA0120813181FB01BA
:1012100080819181821793070CF4C901FA018193AF
:101220009193AF0112960E5F1F4FF1E0A23BBF07F3
:10123000D9F683E092E00E94C3068091200290914B
:101240002102049711F074E001C075E060E080E0D5
:1012500090E0FC01E855FE4FA081B1814D915C9179
:101260001197FC01E75FFD4F0190F081E02D4E17D3
:101270005F0754F0FC01ED5EFD4F20813181FA01E2
:10128000241735070CF4F901ED93FC936F5F029678
:101290006717FCF22A96E4E00C94831B8091AC0261
:1012A000882309F050C081E08093AC028FEF8093D7
:1012B000AB022FB7F8948091E9019091EA019093E5
:1012C000DC018093DB018091EB019091EC01909324
:1012D000DE018093DD018091ED019091EE0190930C
:1012E000E0018093DF018091EF019091F0019093F4
:1012F000E2018093E1018091F1019091F2019093DC
:10130000E4018093E3018091F3019091F4019093C3
:10131000E6018093E5018091F5019091F6019093AB
:10132000E8018093E70180916F00826080936F00F5
:10133000B19A8091840090918500049690938900E1
:10134000809388002FBF0895FC0181E08183808312
:1013500085E08283168215821086178208959C018B
:1013600044E0813B940714F490E00DC08451954013
:101370008159914010F491E006C02850374014F490
:101380009FEF06C092E0662319F082E0891B982F38
:10139000892F0895CF93DF93EC018A818B8380910D
:1013A000C2019091C3016D810E94AF0987FF8883BC
:1013B0008091C6019091C7016E810E94AF0987FF9D
:1013C00089838F81882351F48881882329F0823092
:1013D00029F481E08D83188281E08F8388858823BA
:1013E00061F48981882319F0823039F404C081E0E6
:1013F0008E8382E0898381E0888738813F5F89819D
:1014000023E08202C0011124380F3A839B8180E0DF
:10141000391729F081E09295907F932B9C83DF917F
:10142000CF910895282F30E03F6F220F331FEFB781
:10143000F8948091840090918500AC01405C5F4FEE
:10144000BC016D5D7A4F8091840090918500DA0136
:10145000A81BB90B1A161B06B4F320FF02C057983D
:1014600001C0579A4617570729F0369527954557D3
:101470005F4FE9CFEFBF0895EFB7F8944F9B49C096
:1014800016C020918400309185002058314C04C052
:101490008FEF9FEF4F9B0BC0809184009091850050
:1014A000B901681B790B1616170614F4F1CFAC01BD
:1014B00041505040CA0101961816190614F34F5FA7
:1014C0005F4F19F420E030E826C0809184009091AD
:1014D0008500AC0140565F4F20E030E0BC0163590D
:1014E0007B4F8091840090918500DA01A81BB90B95
:1014F0001A161B06B4F389B13695279590E08078CB
:101500009070282B392B4617570729F045575F4F06
:10151000E8CF20E030E4EFBFC9010895EF92FF92D9
:101520000F931F93CF93DF93E82E192F062FF62EDC
:1015300084E20E94120A802F0E94120A2E2D312F5F
:10154000C901EC0104C08991F80E0E94120A9E01A3
:101550002E192017C4F38F2D81950E94120ACDB742
:10156000DEB7E6E00C94811B8F929F92AF92BF9200
:10157000CF92DF92FF920F931F93CF93DF934C0193
:101580005A01C0E0D0E0C62EDD24C7FCD09402C0D2
:10159000812F182FC5010E943C0A9C018070907C0D
:1015A000892B69F5822FC130D10559F0C230D105A0
:1015B000A1F0209779F7243259F7812FC1E0D0E0CC
:1015C000E8CF90E0C816D90614F4812F15C0822FF9
:1015D000F22EC2E0D0E000E0DCCFF20E812F81508D
:1015E000112331F0F401E00FF11D20830F5FD1CF03
:1015F000FF2011F481E004C0C0E0D0E0CACF80E059
:10160000DF91CF911F910F91FF90DF90CF90BF900E
:10161000AF909F908F900895A0E0B0E0E2E1FBE0F2
:101620000C94631B00E0CCEDD5E02EC11092FF02BC
:101630002093FB023093FC024093FD025093FE0284
:101640008091FF02882319F41F3009F058C1E82F58
:10165000FF27E7FDF095EE51FD4F10838F5F8093DC
:10166000FF0289310CF410C18091FA02882311F035
:101670001092FF02E0916302F09164024091E40253
:1016800050E0942F88272091E30230E0822B932BA7
:1016900097709695879583519C4F91838083E091B5
:1016A0006502F09166022091E50230E0C90165E033
:1016B000880F991F6A95E1F703E0569547950A95BB
:1016C000E1F7842B952B97709695879583519C4FC6
:1016D00091838083E0916702F09168024091E70274
:1016E00050E08091E60290E0880F991F880F991FC3
:1016F00076E0369527957A95E1F7822B932B9A0120
:10170000322F2227330F330F822B932B977096950E
:10171000879583519C4F91838083E0916902F0917A
:101720006A022091E80230E0C9019695982F882737
:101730009795879556954795842B952B97709695F9
:10174000879583519C4F91838083E0916B02F09148
:101750006C024091E90250E0CA0174E0880F991FC1
:101760007A95E1F764E0369527956A95E1F7822B43
:10177000932B97709695879583519C4F9183808387
:10178000E0916D02F0916E026091EB0270E0809149
:10179000EA0290E0880F991F440F452F441F550B14
:1017A0005195842B952B9B01322F2227330F822BAF
:1017B000932B97709695879583519C4F9183808347
:1017C000E0916F02F09170022091EC0230E0C901CB
:1017D00006E0880F991F0A95E1F77695679576954B
:1017E0006795862B972B97709695879583519C4F7D
:1017F00091838083E0917102F09172028091ED02F9
:1018000090E073E0880F991F7A95E1F765E03695CF
:1018100027956A95E1F7822B932B969587958351AF
:101820009C4F91838083A3E6B2E0ED91FC911197E8
:10183000808191818C5D95408CF420813181808103
:101840009181AE01481B590BCA01959587959595D5
:101850008795281B390B318320830EC0208131816D
:10186000808191818C5D954095958795959587951B
:10187000820F931F91838083129652E0A337B5079E
:10188000A1F61092FF0201E0E0915F01F09160018A
:10189000A081B18114962D913C911597CF01F9014A
:1018A0000995892B61F18091FF02893144F5A0915E
:1018B0005F01B0916001ED91FC9111970680F78175
:1018C000E02DCD010995182F0E94B6009B01AC01B7
:1018D0008091FB029091FC02A091FD02B091FE026A
:1018E00069017A01C81AD90AEA0AFB0AD701C601B6
:1018F00089589341A040B0400CF098CE99CE802FEB
:10190000CDB7DEB7E8E00C947F1B80915F0190912A
:10191000600140EA56E861E070E02EE20E94DC17C8
:1019200008951F93CF93DF93EC01142F44E450E00C
:101930000E94961B8881811711F08FEF12C090E0F2
:1019400020E030E0FE01E20FF31F8081980F2F5F4F
:101950003F4F24343105B1F7992311F480E001C0E1
:101960008EEFDF91CF911F910895DC0190E020E090
:1019700030E0FD01E20FF31F8081980F2F5F3F4F92
:1019800023343105B1F7AD5BBF4F91959C93A354C0
:10199000B040CD0144E450E00E94A61B0895A1E1AF
:1019A000B0E0E5EDFCE00C94591B1C0181E089835B
:1019B0008EE192E09B838A8302969D838C830D96B1
:1019C0009F838E8302969987888702969B878A8752
:1019D00002969D878C8702969F878E87CE010196FF
:1019E000998B888BD0901E02DD0CCC246624EE24CB
:1019F000FF248701F0E88F2EFAE19F2EF6E0AF2E4C
:101A0000B12CE2E07E2E2C010E94B6009B01AC01BD
:101A1000DC01CB018E199F09A00BB10B881699062A
:101A2000AA06BB060CF051C0171424F5872D992780
:101A300087FD9095FC01E170F07080FD03C088E0A7
:101A400097E002C08CED95E09093EC018093EB0160
:101A50008CED95E09093EA018093E901EE0FFF1F72
:101A6000EE0FFF1FE057FE4F80809180A280B38071
:101A70007A9429C0DD2039F11D1424F46CE271E060
:101A8000A1E003C064ED7EEFAFEF8D2D992787FDB8
:101A90009095FC01E170F07080FF03C08CED95E043
:101AA00003C0CB0184529A4F9093EA018093E901DD
:101AB000EE0FFF1FEE0FFF1FE057FE4F808091805B
:101AC000A280B380DA1A79018A010E940C0B882364
:101AD00019F091E09093AA028091AA02882329F03C
:101AE0001092AA020E943B0602C0662041F080913B
:101AF000AC02882309F08CC00E944E09662477202E
:101B000009F082CFC1010E94CA09882309F47CCF61
:101B1000F1018481843561F0853520F4823509F046
:101B200063C013C0863559F0883509F05DC02AC0FE
:101B3000F1E0FC1514F0CC2470C0CA946EC085E0AE
:101B40008C150CF468C0C39468C0AC2DBB27A7FDEE
:101B5000B095FD01EE0FFF1FE40DF51D0180F28130
:101B6000E02D8081282F332727FD30952F5F3F4FB1
:101B7000A856BE4F8C91992787FD909582179307A1
:101B8000F4F41CC0AC2DBB27A7FDB095FD01EE0FF2
:101B9000FF1FE40DF51D0180F281E02D8081282FCB
:101BA000332727FD309521503040A056BE4F8C91F1
:101BB000992787FD9095281739070CF49C012083FD
:101BC00020E08C2D992787FD9095FC01EE0FFF1FDB
:101BD000E40DF51D0180F281E02DD080DD0C222383
:101BE00019F00196782E770C8981823009F00CCF9C
:101BF0008DE192E060E070E00E94B50C8DE192E032
:101C000060E071E00E94B50C6196E2E10C94751BF6
:101C10006624639474CFB7E0CB2E21E0D2CFA1E944
:101C2000B0E0E5E1FEE00C94591B0E94B6001B01F8
:101C30002C01DE011196E2E7F1E086E001900D92C1
:101C40008150E1F78E010D5E1F4FC8010E94A4096B
:101C50004CE1E42EF12CEC0EFD1EC70164E00E9465
:101C6000BA0439E4C32ED12CCC0EDD1EC60163E0CC
:101C70000E94BA042092DE023092DF024092E0021B
:101C80005092E102C657DF4F288239824A825B8236
:101C9000CA58D040CA57DF4F288239824A825B82B5
:101CA000C658D040CE57DF4F288239824A825B82A5
:101CB000C258D04042013101C258DF4F28823982D8
:101CC0004A825B82CE57D040EB962CAE3DAE4EAEF4
:101CD0005FAEEB97EE961FAEEE97ED961FAEED97CB
:101CE00021E0EC962FAFEC97C257DF4FE882CE5839
:101CF000D040C157DF4FF882CF58D040C057DF4F98
:101D00000883C059D040CF56DF4F1883C159D04007
:101D10000E94B6005B016C010E942B010E940C0B1B
:101D2000882319F031E03093AA028091AA02882317
:101D3000A1F4D601C501C657DF4F488159816A8198
:101D40007B81CA58D040841B950BA60BB70B8153DF
:101D50009547A040B0400CF442C01092AA020E94E5
:101D60003B068C8D882369F0C657DF4FA882B98265
:101D7000CA82DB82CA58D04061E0EE966FAFEE9720
:101D80002EC0C257DF4F8881CE58D040C157DF4F99
:101D90009881CF58D0400E948F052A968FAD2A9700
:101DA000882311F492E001C090E020E08C8D88231C
:101DB00009F421E0920F90937D0288EC90E09093DB
:101DC000830280938202C657DF4FA882B982CA82FB
:101DD000DB82CA58D04091E0EE969FAFEE9780919B
:101DE000AC02882379F5EE96AFADEE97AA2351F1B8
:101DF000A6019501CA57DF4F688179818A819B814D
:101E0000C658D040261B370B480B590B80917502E2
:101E100090917602A0917702B09178028217930791
:101E2000A407B5077CF40E94D8080E944E09CA573F
:101E3000DF4FA882B982CA82DB82C658D040EE96B4
:101E40001FAEEE97D601C501CE57DF4F28813981ED
:101E50004A815B81C258D040821B930BA40BB50B07
:101E600081519742A040B04054F10E945C042A96F0
:101E70008FAD2A978823D9F4CE01875B9F4F0E94AC
:101E8000EB052A968FAD2A97882311F492E001C0C2
:101E900090E020E08C8D882309F421E0920F90934C
:101EA0007D0248EC50E05093830240938202CE576B
:101EB000DF4FA882B982CA82DB82C258D040EC963A
:101EC0005FADEC97552309F456C0C057DF4F8881AA
:101ED000C059D040CF56DF4F9881C159D0400E94A1
:101EE000CA09882309F447C0ED966FADED97E62F38
:101EF000FF27E7FDF095E759FE4F9F8980819817EE
:101F000021F0ED961FAEED9707C0ED967FADED97F2
:101F10007F5FED967FAFED97ED968FADED97E82F54
:101F2000FF27E7FDF095E759FE4F80818F3F81F451
:101F3000CE0143960E94CF0C2EE088E190E00FB6D0
:101F4000F894A895809360000FBE20936000FFCFA7
:101F5000D601C50182199309A409B509815C914E86
:101F6000A44EB04024F0EC961FAEEC9704C0F1E014
:101F7000EC96FFAFEC978C8D882329F02A968FADD5
:101F80002A978823C9F58091C4019091C5012091B9
:101F9000C2013091C301820F931F2091190130912A
:101FA0001A01821B930B2091130130911401821BA3
:101FB000930B959587959093D3018093D20180914F
:101FC000C6019091C7012091150130911601821B25
:101FD000930B9093D5018093D4018091C801909187
:101FE000C9012091170130911801821B930B909326
:101FF000D7018093D6018CCED601C50186199709E9
:10200000A809B90981519742A040B0400CF424C3FB
:1020100080917302909174028130910559F48091FE
:10202000CA019091CB01865F95400CF09BC080E087
:1020300090E00DC0892B09F095C08091CA01909164
:10204000CB01875296400CF48DC081E090E09093D4
:10205000740280937302892B11F084E001C080E048
:1020600080937D0268EC70E070938302609382023B
:102070001092BF021092C0021092C1021092C202CE
:102080001092CB021092CC021092CD021092CE028E
:102090001092C3021092C4021092C5021092C6029E
:1020A0001092CF021092D0021092D1021092D2025E
:1020B0001092C7021092C8021092C9021092CA026E
:1020C0001092D3021092D4021092D5021092D6022E
:1020D0008091350290913602029709F043C0D601F3
:1020E000C501EB962CAD3DAD4EAD5FADEB97821BC0
:1020F000930BA40BB50B8152914AA740B0401CF042
:10210000E7961FAEE797E7964FADE7974F5FE796E5
:102110004FAFE797433004F18091C2019091C30122
:1021200090931401809313018091C6019091C7018F
:1021300090931601809315018091C8019091C90177
:1021400090931801809317018091C4019091C5016B
:1021500090931A0180931901EB96ACAEBDAECEAE52
:10216000DFAEEB974091C4015091C5018091C2014F
:102170009091C301480F591F8091190190911A0144
:10218000481B590B8091130190911401481B590B66
:10219000559547955093D3014093D201E091C601E4
:1021A000F091C7018091150190911601E81BF90B80
:1021B000F093D501E093D401A091C801B091C90179
:1021C0008091170190911801A81BB90BB093D7010A
:1021D000A093D60180912F028150282F332727FD0D
:1021E0003095CA0157FF04C088279927841B950B97
:1021F000022E02C0880F991F0A94E2F761E081392C
:10220000960714F080E991E060E971E0681B790BB2
:1022100078876F83CF01F7FF04C0882799278E1B2B
:102220009F0B022E02C0880F991F0A94E2F771E0FB
:102230008139970714F080E991E060E971E0681B4B
:10224000790B7A876987CD01B7FF04C08827992762
:102250008A1B9B0BBC0102C0660F771F2A95E2F711
:1022600081E06139780714F060E971E010E9612ECE
:1022700011E0712E661A770A7C866B862091CA015E
:102280003091CB0196E02F3039072CF067E02F39E1
:1022900036075CF007C08EE096E0821B930B8159F5
:1022A00091401CF000E911E011C086E02F303807A2
:1022B00024F089010E50164004C00EE016E0021B07
:1022C000130B0931110514F400E010E08090730243
:1022D0009090740291E08916910459F08114910450
:1022E00009F050C08091330290913402029709F0B6
:1022F00049C0809131029A01082E02C0220F331F7B
:102300000A94E2F73E872D87082E02C0EE0FFF1FCA
:102310000A94E2F7F88BEF87AD0102C0440F551F16
:102320008A95E2F75A8B498B89819A8197FD05C07E
:1023300088279927821B930B01C0C9019093AE0295
:102340008093AD028B819C812F85388997FD05C0D4
:1023500088279927821B930B01C0C9019093B00273
:102360008093AF028D819E8197FD03C0509541956A
:102370005F4F5093B2024093B102A1E08A169104DC
:1023800071F055C01092AE021092AD021092B002E0
:102390001092AF021092B2021092B10248C06F8147
:1023A0007885882777FD8095982F24EF3FEB40E0D4
:1023B00050E00E94FD1AF9E095958795779567950D
:1023C000FA95D1F76093CB027093CC028093CD0243
:1023D0009093CE0269857A85882777FD8095982F1E
:1023E0000E94FD1AE9E09595879577956795EA959E
:1023F000D1F76093CF027093D0028093D102909373
:10240000D202B301882777FD8095982F0E94FD1A8C
:1024100039E095958795779567953A95D1F76093CB
:10242000D3027093D4028093D5029093D602209168
:10243000FD013091FE018091F7019091F801281B78
:10244000390BB0E220303B0714F02FEF3FE1C90118
:10245000E0EE20303E0714F480E090EE9093B4025A
:102460008093B3022091FF01309100028091F90125
:102470009091FA01281B390BF0E220303F0714F04D
:102480002FEF3FE1C90120EE8030920714F480E085
:1024900090EE9093B6028093B502209101023091A4
:1024A00002028091FB019091FC01281B390B40E254
:1024B0002030340714F02FEF3FE1C90150EE2030F7
:1024C000350714F480E090EE9093B8028093B70241
:1024D000892819F06DE472E002C06AE372E08DEAC7
:1024E00092E00E94A403EE24FF243801882477FCA4
:1024F0008094982C87010D5F1D4FE1E0F0E0EC0F18
:10250000FD1FEE0DFF1D60817181882777FD80958D
:10251000982FF701E355FD4F22A533A5442737FD3A
:102520004095542F0E94FD1A27E095958795779541
:1025300067952A95D1F7E7E0F0E0EC0FFD1FEE0D6F
:10254000FF1D20813181442737FD4095542F0E9483
:10255000FD1A9B01AC01B9E0559547953795279534
:10256000BA95D1F7C401B3010E94FD1AA9E095956F
:10257000879577956795AA95D1F7D8016D937C9348
:10258000E2E0F0E0EE0EFF1EF6E0EF16F10409F0D7
:10259000B1CF2091DD0212160CF05CC08091DE02FA
:1025A0009091DF02A091E002B091E102B601A50195
:1025B000481B590B6A0B7B0BDB01CA0181549D4000
:1025C000A340B0405CF021502093DD02A092DE02D7
:1025D000B092DF02C092E002D092E1028091DD026F
:1025E000992787FD90954091030250910402BC0108
:1025F0006170707080FF03C026E930E002C02AE6F7
:102600003FEF240F351F30930402209303024091C3
:102610000502509106026115710519F026E930E0B6
:1026200002C02AE63FEF240F351F309306022093A5
:1026300005022091070230910802672B19F48AE6FF
:102640009FEF02C086E990E0820F931F90930802EB
:102650008093070235014601D601C501C258DF4FFC
:10266000288139814A815B81CE57D040821B930BF0
:10267000A40BB50B8C59914AA740B0400CF448CB41
:1026800080913702803839F480910001282F30E0A2
:102690002058304004C0282F332727FD30958091E3
:1026A0003802803839F480910101482F50E04058B9
:1026B000504004C0482F552747FD5095809139025E
:1026C000803831F48091020190E08058904003C03E
:1026D000992787FD90953A8329835C834B839E835A
:1026E0008D83295F3F4F2F30310510F41A821982F4
:1026F0008B819C8107960F9710F41C821B828D8121
:102700009E8107960F9710F41E821D8280E00E9422
:10271000A702C258DF4FA882B982CA82DB82CE5795
:10272000D040F6CAA5E6B0E0E8E9F3E10C94631BFB
:102730001092800081E08093810057985F9848E56F
:1027400052E000E06E010894C11CD11C62E0E62E4C
:10275000F12CEC0EFD1EC60165E60E94B40A88232A
:1027600009F441C089818230A9F0833018F48130A6
:1027700029F406C08330B1F08430E9F010E026C0BF
:10278000C70160E870E048E050E00E94961B10E04E
:1027900069E01DC0C70160E870E048E050E00E94B9
:1027A000A61B13C0C70160E070E04AE00E94910CD4
:1027B00010E065E40CC0C70160E070E00E94B50C59
:1027C000C70160E071E00E94B50C11E061E0898111
:1027D00080688983C6010E948E0A01E044EF51E0BF
:1027E000112309F4B8CF802FCB59DF4FE8E00C94C8
:1027F0007F1BCF93DF93C0E0D0E0FE01E95AFE4F8C
:10280000808187FD04C0808161E00E945E1A21966C
:10281000C830D10591F7DF91CF9108951F920F92A3
:102820000FB60F9211240F931F932F933F934F9343
:102830005F936F937F938F939F93AF93BF93EF9328
:10284000FF938091AB0287FD42C0E091AB02FF276E
:10285000E7FDF095E95AFE4F808160E00E94CA1AB8
:1028600036C08091AB028F5F8093AB02E091AB02E8
:10287000FF27E7FDF095E95AFE4F808187FD27C0CD
:102880000091840010918500E091AB02FF27E7FDE5
:10289000F095E95AFE4F808161E00E94CA1AE091EA
:1028A000AB02FF27E7FDF095EE0FFF1FE55DFE4F42
:1028B0000190F081E02D808191810297880F991F0E
:1028C000800F911F90938900809388000BC08091A6
:1028D000AB02873034F21092AC0280916F008D7F92
:1028E00080936F00FF91EF91BF91AF919F918F9176
:1028F0007F916F915F914F913F912F911F910F9118
:102900000F900FBE0F901F901895A0E0B0E0EBE87D
:10291000F4E10C94631B182F062F862F61E00E94B0
:102920005E1A812F60E00E945E1A812F61E00E9492
:10293000CA1A6AE070E080E090E00E94F600C0E011
:10294000D0E0812F992787FD9095FC01EA56FF4F33
:10295000E491F0E0EE0FFF1FE457FF4FC590D490D5
:1029600086559F4FFC018491E82EFF24CE01817093
:10297000182F802F612F0E94CA1AF601808120E053
:1029800030E090E08E219F21892B11F021E030E092
:10299000812F992787FD90952817390711F010E0AE
:1029A00005C02196C830D10509F711E0802F60E0FD
:1029B0000E945E1A812FCDB7DEB7E8E00C947F1B32
:1029C000A2E9B0E0E6EEF4E10C94631B259A809155
:1029D000B9039091BA03009711F09C0102C02DEB4E
:1029E00033E0CE010196821B930B803891054CF4A5
:1029F00084E180937E028EE190E090938502809343
:102A0000840284B7877F84BF88E10FB6F8948093EF
:102A10006000109260000FBE21E030E030931F0292
:102A200020931E0280E880933702809338028093BF
:102A30003902309321022093200284E18093220204
:102A4000E8E7F1E023E2C22E22E0D22ED601819106
:102A50008D9321E0E038F207D1F742E050E0509347
:102A60002C0240932B0221E030E030932E02209381
:102A70002D023093300220932F0283E090E0909358
:102A80003202809331023093340220933302509308
:102A900036024093350284EF91E090933B0280939D
:102AA0003A021092410210924002909347028093A2
:102AB000460290933D0280933C0210924302109292
:102AC0004202909349028093480290933F02809380
:102AD0003E02109245021092440290934B02809362
:102AE0004A0228E020934C0290934E0280934D02BC
:102AF000909354028093530290935A028093590208
:102B00009093500280934F02909356028093550207
:102B100090935C0280935B029093520280935102E7
:102B2000909358028093570290935E0280935D02C7
:102B300020935F0285E064E00E948514882311F4ED
:102B400000E001C007E0CE01039660E870E048E0D5
:102B500050E00E94961B002361F48B81813049F480
:102B60008C819D81AE81BF818E549146AC4BB0402B
:102B700071F081E08B838EE491E6ACEBB0E08C8366
:102B80009D83AE83BF83188619861A860860CE019E
:102B90000B9660E070E04AE00E94910C87FD0260B5
:102BA000CE01815B9F4F60E071E04AE00E94910C92
:102BB00087FD046083E08093DD02E02EFF24C701DF
:102BC000867090708230910531F08430910579F0F3
:102BD000892B81F119C08E01015B1F4FC80160E094
:102BE00070E00E94B50C88858F5F88870BC08E01CE
:102BF000055F1F4FC80160E071E00E94B50C898538
:102C00008F5F8987C80118C08AE080931D028DE11B
:102C100092E060E070E00E94B50C8DE192E060E02F
:102C200071E00E94B50C8A858F5F8A8789E0809366
:102C3000DD020AC0CE010B96ADE1B2E0FC0184E4F6
:102C400001900D928150E1F7C7018E709070892B31
:102C500041F0CE01039660E870E048E050E00E9449
:102C6000A61BE0FE0AC082E00E941E0164E670E03E
:102C700080E090E00E94FF19F6CF0E949213882313
:102C800061F02EE088E190E00FB6F894A89580936B
:102C900060000FBE20936000FFCF1092800082E0A2
:102CA0008093810081E080936F0085B5887F85BD2A
:102CB0000E94850C80912002909121028230910522
:102CC00019F18330910524F4019709F05BC007C026
:102CD0008330910571F1049709F054C03FC080E042
:102CE00090E048EE53E020ED37E0FC01E75FFD4F58
:102CF00051834083FC01ED5EFD4F318320830296BA
:102D00008A30910591F73EC080E090E04CE454E0B9
:102D10002CE637E0FC01E75FFD4F51834083FC0167
:102D2000ED5EFD4F3183208302968A30910591F745
:102D300029C080E090E042EE54E026ED36E0FC0150
:102D4000E75FFD4F51834083FC01ED5EFD4F318312
:102D5000208302968A30910591F714C080E090E0BC
:102D600044E853E024E338E0FC01E75FFD4F518382
:102D70004083FC01ED5EFD4F3183208302968A3053
:102D8000910591F780912202992787FD909528EE71
:102D900033E0FC01E29FC001E39F900DF29F900D94
:102DA0001124AA2797FDA095BA2F809375029093BE
:102DB0007602A0937702B0937802A3E6B2E0F60120
:102DC00081916F01E82FFF27E7FDF095EE0FFF1FC0
:102DD000E55EFE4F808191818D939D93FBE2CF163E
:102DE000F2E0DF0661F720E030E0F901EF59FE4F35
:102DF0008081F901E95AFE4F80832F5F3F4F2830D1
:102E0000310599F70E9447030E94600380911E02DA
:102E100090911F0290936202809361020197E9F4FE
:102E20008091DA01882319F4E2E0F0E002C0E0E0EA
:102E3000F0E020E030E08091D901882311F421E016
:102E400030E0E22BF32BEE0FFF1FE058FE4F8081A6
:102E500091819093620280936102809161029091CE
:102E60006202019731F482E090E0909362028093D5
:102E700061028091610280937C0288E592E09093E8
:102E80008102809380020E94F7020E94F9130E943F
:102E9000A5040E943B060E94D808CE56DF4FE8E00A
:102EA0000C947F1B08951F920F920FB60F9211245E
:102EB0002F933F934F938F939F93EF93FF93809123
:102EC000C00082FD1DC04091C60020914603309194
:102ED00047032F5F3F4F2F733070809148039091CD
:102EE00049032817390771F0E0914603F091470331
:102EF000EA5FFC4F4083309347032093460302C0B0
:102F00008091C600FF91EF919F918F914F913F91DA
:102F10002F910F900FBE0F901F901895E0919A037C
:102F2000F0919B03E05CFF4F819191912081318171
:102F3000821B930B8F739070892B11F00E94521794
:102F400008951F920F920FB60F9211242F933F9363
:102F50008F939F93EF93FF9320918A0330918B037C
:102F600080918C0390918D032817390731F480915B
:102F7000C1008F7D8093C10014C0E0918C03F0915B
:102F80008D03E65BFC4F208180918C0390918D0333
:102F900001968F73907090938D0380938C03209390
:102FA000C600FF91EF919F918F913F912F910F90CC
:102FB0000FBE0F901F901895A0E0B0E0E2EEF7E191
:102FC0000C94611BEC017A018B01C22EDD24403090
:102FD00081EE580780E0680780E0780711F0DD2473
:102FE000D39471E0A72EB12CEC89FD89DD2069F026
:102FF000C50108A002C0880F991F0A94E2F78083D8
:1030000060E079E08DE390E005C0108260E874E84C
:103010008EE190E0A80197010E941C1B21503040D6
:1030200040405040569547953795279580E1203090
:10303000380720F0DD2011F0DD24D6CFE889F989AA
:103040003083EA89FB892083E88DF98DC082EE897F
:10305000FF89408121E030E0C9010C8C02C0880F5B
:10306000991F0A94E2F7482B4083EE89FF8940813B
:10307000C9010D8C02C0880F991F0A94E2F7482BF2
:103080004083EE89FF894081C9010E8C02C0880F00
:10309000991F0A94E2F7482B4083EE89FF898081CB
:1030A0000F8C02C0220F331F0A94E2F720952823C9
:1030B0002083CDB7DEB7EAE00C947D1BDC011C96C3
:1030C000ED91FC911D97E05CFF4F21913191808142
:1030D0009181281B390B2F733070C9010895DC01D1
:1030E0001C96ED91FC911D97E05CFF4F2081318192
:1030F000E054F040DF01AE5BBF4F8D919C91119782
:103100002817390719F42FEF3FEF07C08D919C91D5
:10311000E80FF91F8081282F30E0C9010895DC01F4
:103120001C96ED91FC911D97E05CFF4F2081318151
:10313000E054F040DF01AE5BBF4F8D919C91119741
:103140002817390719F42FEF3FEF10C08D919C918C
:103150001197E80FF91F20818D919C91119701968D
:103160008F73907011969C938E9330E0C9010895EF
:10317000DC0191968C919197882339F05496ED91CA
:10318000FC915597808186FFF9CF91961C92089506
:10319000CF93DF93EC01EE85FF85E05CFF4F20814C
:1031A0003181E054F0402F5F3F4F2F733070DF01CB
:1031B000AE5BBF4F8D919C91119728173907D1F3C2
:1031C000E05CFF4F80819181E054F040E80FF91FEF
:1031D0006083EE85FF85E05CFF4F31832083EE89BD
:1031E000FF89208181E090E00F8C02C0880F991F39
:1031F0000A94E2F7282B208381E089A3EC89FD89DA
:1032000080818064808381E090E0DF91CF91089598
:10321000109291031092900388EE93E0A0E0B0E04A
:103220008093920390939303A0939403B093950398
:1032300086EB91E090938F0380938E0386E093E07A
:1032400090939B0380939A038AE493E090939D0369
:1032500080939C0385EC90E090939F0380939E0362
:1032600084EC90E09093A1038093A00380EC90E025
:103270009093A3038093A20381EC90E09093A50325
:103280008093A40382EC90E09093A7038093A6031D
:1032900086EC90E09093A9038093A80384E0809348
:1032A000AA0383E08093AB0387E08093AC0385E0BF
:1032B0008093AD0381E08093AE030895CF93DF93B5
:1032C0000E94231A0E94E014CEE8D7E10E940F0E5C
:1032D0002097E1F30E948E17F9CFA0E0B0E0E3E77A
:1032E000F9E10C94631B7C016B018A01C0E0D0E022
:1032F0000FC0D6016D916D01D701ED91FC91019048
:10330000F081E02DC7010995C80FD91F0150104069
:103310000115110571F7CE01CDB7DEB7E8E00C94C9
:103320007F1B1F920F920FB60F9211242F933F9382
:103330008F939F93AF93BF938091B4039091B50304
:10334000A091B603B091B7033091B8030196A11DC7
:10335000B11D232F2D5F2D3720F02D570196A11D74
:10336000B11D2093B8038093B4039093B503A09349
:10337000B603B093B7038091B0039091B103A091CD
:10338000B203B091B3030196A11DB11D8093B003A8
:103390009093B103A093B203B093B303BF91AF91E5
:1033A0009F918F913F912F910F900FBE0F901F9083
:1033B00018959FB7F8942091B0033091B1034091D4
:1033C000B2035091B30386B5A89B06C08F3F21F08E
:1033D0002F5F3F4F4F4F5F4F9FBF542F432F322FD1
:1033E0002227280F311D411D511D82E0220F331F5E
:1033F000441F551F8A95D1F7B901CA010895EF926C
:10340000FF920F931F93CF93DF937B018C010E9458
:10341000D919EB010EC00E94D9196C1B7D0B685E97
:103420007340C8F30894E108F10801091109C85173
:10343000DC4FE114F1040105110569F7CDB7DEB7E2
:10344000E6E00C94811B789484B5826084BD84B5D9
:10345000816084BD85B5826085BD85B5816085BD8F
:10346000EEE6F0E0808181608083E1E8F0E01082A8
:10347000808182608083808181608083E0E8F0E0E9
:10348000808181608083E1EBF0E0808184608083D3
:10349000E0EBF0E0808181608083EAE7F0E080810A
:1034A000846080838081826080838081816080836A
:1034B0008081806880831092C1000895CF93DF934C
:1034C000482F50E0CA0186559F4FFC0134914A565F
:1034D0005F4FFA018491882369F190E0880F991F6A
:1034E000FC01E858FF4FA591B491FC01EE57FF4F46
:1034F000C591D491662351F42FB7F8948C91932FF2
:10350000909589238C93888189230BC0623061F464
:103510002FB7F8948C91932F909589238C93888161
:10352000832B88832FBF06C09FB7F8948C91832B81
:103530008C939FBFDF91CF910895833071F08430D9
:1035400028F48130A1F0823021F514C08630B1F02A
:103550008730D1F08430E9F404C0809180008F7707
:1035600003C0809180008F7D80938000089584B592
:103570008F7702C084B58F7D84BD08958091B0009F
:103580008F778093B00008958091B0008F7D8093F5
:10359000B0000895FF920F931F93F62E482F50E02E
:1035A000CA0182549F4FFC012491CA0186559F4F46
:1035B000FC0114914A565F4FFA0104910023C9F0AF
:1035C000222319F0822F0E949D1AE02FF0E0EE0FC7
:1035D000FF1FEE57FF4FA591B4919FB7F894FF20BE
:1035E00021F48C911095812302C08C91812B8C93B6
:1035F0009FBF1F910F91FF900895629FD001739F0D
:10360000F001829FE00DF11D649FE00DF11D929F7E
:10361000F00D839FF00D749FF00D659FF00D9927BD
:10362000729FB00DE11DF91F639FB00DE11DF91FE1
:10363000BD01CF0111240895A1E21A2EAA1BBB1BC4
:10364000FD010DC0AA1FBB1FEE1FFF1FA217B3076E
:10365000E407F50720F0A21BB30BE40BF50B661F84
:10366000771F881F991F1A9469F760957095809548
:1036700090959B01AC01BD01CF01089597FB092EE8
:1036800005260ED057FD04D0D7DF0AD0001C38F431
:1036900050954095309521953F4F4F4F5F4F08957E
:1036A000F6F790958095709561957F4F8F4F9F4F5E
:1036B00008952F923F924F925F926F927F928F92D6
:1036C0009F92AF92BF92CF92DF92EF92FF920F93B1
:1036D0001F93CF93DF93CDB7DEB7CA1BDB0B0FB6BB
:1036E000F894DEBF0FBECDBF09942A883988488878
:1036F0005F846E847D848C849B84AA84B984C8840E
:10370000DF80EE80FD800C811B81AA81B981CE0F04
:10371000D11D0FB6F894DEBF0FBECDBFED010895E9
:10372000EE0FFF1F0590F491E02D0994DC01CB0111
:10373000FC01F999FECF06C0F2BDE1BDF89A3196C1
:1037400000B40D9241505040B8F70895DC01CB0110
:1037500003C02D910E94B11B41505040D0F70895F5
:10376000262FF999FECF1FBA92BD81BD20BD0FB69D
:10377000F894FA9AF99A0FBE01960895F894FFCF3B
:10378000FFFFFFDC05DC05DC05DC05E803DC05E804
:1037900003DC05DC05DC05DC05DC05070105010FA4
:1037A0000103010B0109010D011101DF01DD01E33D
:1037B00001DB010000E101E701E501000101010277
:1037C000010000000000000000D801D901DA01006A
:1037D000000000000000000605FF04FF07FFFF8E49
:1037E0000306050A04FF07FF0978899887788998F6
:1037F00087FF000000000000030102000405060727
:103800000200030004000500080006000700020093
:10381000A0860100801A06000503030304020202C9
:103820000101010101010101E901EB01ED01EF01DC
:10383000F30100000000C8186D195E188F186F188A
:02384000B818B6
:00000001FF
